:020000040800F2
:100000000050002091800008C5490008C749000839
:1000100000000000000000000000000000000000E0
:10002000000000000000000000000000C97D000882
:100030000000000000000000717E0008C9490008AF
:10004000E1800008E1800008E1800008E18000080C
:10005000E1800008E1800008E1800008E1800008FC
:1000600000000000DD490008ED490008054A0008CD
:10007000E1800008E1800008294A0008E1800008CA
:10008000E1800008E1800008E18000080000000035
:10009000E1800008E1800008E1800008E1800008BC
:1000A000E1800008E1800008E1800008194A0008AA
:1000B000E1800008E180000800000000000000006E
:1000C00010B5064C2378002B07D1054B002B02D02E
:1000D000044800E000BF0123237010BDE8010020A8
:1000E0000000000090AC0008044B10B5002B03D0BA
:1000F0000349044800E000BF10BDC04600000000F6
:10010000EC01002090AC0008002243088B4274D31D
:1001100003098B425FD3030A8B4244D3030B8B4208
:1001200028D3030C8B420DD3FF22090212BA030C11
:100130008B4202D31212090265D0030B8B4219D3F2
:1001400000E0090AC30B8B4201D3CB03C01A524112
:10015000830B8B4201D38B03C01A5241430B8B425A
:1001600001D34B03C01A5241030B8B4201D30B0343
:10017000C01A5241C30A8B4201D3CB02C01A52416A
:10018000830A8B4201D38B02C01A5241430A8B422D
:1001900001D34B02C01A5241030A8B4201D30B0216
:1001A000C01A5241CDD2C3098B4201D3CB01C01A30
:1001B000524183098B4201D38B01C01A524143093A
:1001C0008B4201D34B01C01A524103098B4201D328
:1001D0000B01C01A5241C3088B4201D3CB00C01A95
:1001E000524183088B4201D38B00C01A524143080D
:1001F0008B4201D34B00C01A5241411A00D2014632
:10020000524110467047FFE701B5002000F0F0F8BA
:1002100002BDC0460029F7D076E7704703460B437E
:100220007FD4002243088B4274D303098B425FD3EF
:10023000030A8B4244D3030B8B4228D3030C8B421B
:100240000DD3FF22090212BA030C8B4202D3121201
:10025000090265D0030B8B4219D300E0090AC30BD6
:100260008B4201D3CB03C01A5241830B8B4201D383
:100270008B03C01A5241430B8B4201D34B03C01A6C
:100280005241030B8B4201D30B03C01A5241C30AE4
:100290008B4201D3CB02C01A5241830A8B4201D355
:1002A0008B02C01A5241430A8B4201D34B02C01A3F
:1002B0005241030A8B4201D30B02C01A5241CDD2E4
:1002C000C3098B4201D3CB01C01A524183098B422F
:1002D00001D38B01C01A524143098B4201D34B0118
:1002E000C01A524103098B4201D30B01C01A52417B
:1002F000C3088B4201D3CB00C01A524183088B4202
:1003000001D38B00C01A524143088B4201D34B00EA
:10031000C01A5241411A00D201465241104670475C
:100320005DE0CA0F00D04942031000D34042534061
:1003300000229C4603098B422DD3030A8B4212D321
:10034000FC22890112BA030A8B420CD38901921153
:100350008B4208D3890192118B4204D389013AD090
:10036000921100E08909C3098B4201D3CB01C01A65
:10037000524183098B4201D38B01C01A5241430978
:100380008B4201D34B01C01A524103098B4201D366
:100390000B01C01A5241C3088B4201D3CB00C01AD3
:1003A000524183088B4201D38B00C01A5241D9D2EB
:1003B00043088B4201D34B00C01A5241411A00D26C
:1003C0000146634652415B10104601D34042002B68
:1003D00000D54942704763465B1000D3404201B5E7
:1003E000002000F005F802BD0029F8D016E770479C
:1003F0007047C0468446081C6146FFE71FB500F001
:10040000E1FC002801D40021C8421FBD10B500F056
:1004100063FC4042013010BD10B500F0D3FC002851
:1004200001DB002010BD012010BDC04610B500F05A
:10043000C9FC002801DD002010BD012010BDC04610
:1004400010B500F071FC002801DC002010BD012077
:1004500010BDC04610B500F067FC002801DA00208E
:1004600010BD012010BDC046002B11D1002A0FD1B4
:10047000002900D1002802D00021C943081C07B47C
:10048000024802A14018029003BDC04665FFFFFF6D
:1004900003B4684601B5029800F0B0F8019B9E468F
:1004A00002B00CBC7047C046F0B5CE4647461504B6
:1004B0002D0C2E0080B50704140C3F0C9946030C3C
:1004C0007E435D43674363437F19340CE4199C46C4
:1004D000A54203D980235B029846C4444B4643435C
:1004E0005143250C36046544360C2404A4195B19C9
:1004F000591820000CBC90469946F0BD9E2110B5BD
:10050000C905041CFFF7A6FF002803D1201C00F03A
:10051000B5FF10BD9E21201CC90500F0D5FD00F0DF
:10052000ADFF80231B069C466044F2E710B5002116
:10053000041CFFF771FF002803D1201C00F00CF809
:1005400010BD80231B06E01800F006F802000B0027
:10055000002150429941F3E770B502F07DFC002282
:100560000B4B0D00040001F051FE02F075FD06007A
:1005700002F040FC0022074B01F048FE02000B0095
:100580002000290002F0B4F802F066FD310070BDD1
:100590000000F03D0000F041D0B5012602000B0044
:1005A000134F7642B6185F4104001248874219D9AA
:1005B000520504D08023E40AE4021B011C43080016
:1005C00002F0DEFB00220C4B01F020FE06000F00C3
:1005D000200002F00FFC32003B0000F0F9FF02F0B7
:1005E0008DFCD0BD8742EAD1B01CE1D8E7E7C04618
:1005F000FFFF1F00FFFF3F000000F041F0B54F4636
:100600004646D646C0B5040082B00D0091469846D5
:100610008B422FD82CD04146484602F011FD2900CC
:100620000600200002F00CFD331A9C46203B9A463F
:1006300000D576E04B46524693401F004B4662463B
:1006400093401E00AF4228D825D05346A41BBD417D
:10065000002B00DA7BE000220023009201930123AB
:10066000524693400193012362469340009318E061
:100670008242D0D900220023009201930A9B002BD2
:1006800001D01C605D600098019902B01CBC9046CE
:100690009946A246F0BDA342D7D90022002300927A
:1006A00001936346002BE9D0FB0798464146720848
:1006B0000A437B0866460EE0AB4201D1A2420CD849
:1006C000A41A9D41012024196D410021013E2418E6
:1006D0004D41002E06D0AB42EED9013E24196D41AA
:1006E000002EF8D100980199534600196941002B5A
:1006F00023DB2B005246D3402A006446E2401C0014
:1007000053461500002B2DDB26005746BE40330014
:1007100026006746BE403200801A99410090019140
:10072000ACE7624620239B1A4A46DA406146130032
:1007300042468A4017001F4380E7624620239B1AE7
:100740002A0066469A402300F3401343D4E76246EA
:10075000202300219B1A0022009101920122DA40FD
:10076000019280E72023624626009B1ADE402F007C
:10077000B0466646B74046463B003343C8E7C046EE
:10078000F8B54746CE4643025B0A4400C20F9C467A
:100790004800DD004B02240E5B0A000E80B598462F
:1007A00026009146C90FDB00271A8A4229D0002F64
:1007B00015DD00284AD1002B00D095E0ED08FF2C74
:1007C00000D188E06B025B0AE6B25B02F605580ACC
:1007D0003043D20710430CBC90469946F8BD002F19
:1007E00000D087E0601CC0B2012800DCB6E0EE1A41
:1007F000720100D5C5E0002E3DD100220026002365
:10080000E3E7002F00DC96E000285DD0FF2C60D0ED
:100810008022D20413431B2F00DDECE02022D21BE8
:1008200018009340F8405A1E93410343ED186B01A2
:100830007BD50134FF2C00D1B7E0012207262A40E6
:100840006B089A4D1D4015432E4029E0FF2CB5D072
:100850008022D20413431B2F00DDB2E02022D21BE2
:1008600019009340F9405A1E93410B43ED1A6B0156
:100870005BD5AD01AE09300002F0C4FB05388640FF
:10088000844265DC041B330020200134E340041B58
:10089000A640751EAE41334307261D0000241E40AE
:1008A00001224B461A40002E04D00F232B40042B6C
:1008B00000D004356B0100D480E70134E6B2FF2C90
:1008C0002FD1FF26002380E7002B52D1FF2C00D030
:1008D00074E70A00ED08002DF3D08023DB032B43DF
:1008E0005B025B0AFF2670E7013F002FBED0FF2CA2
:1008F000B1D163E7002C47D0FF2869D08024E404FD
:100900007A4225431B2A00DDC5E02C002026D44076
:10091000B21A95406A1E954125435D1B0400894625
:10092000A5E7AB015B0A50E7002401224B461A40C1
:100930006B07BAD142E7002F3BD10134E0B2012866
:100940004ADDFF2CBDD00726ED186D082E40A7E725
:100950000723574D241A35401E40A1E7002C1BD118
:10096000002D6ED1002B00D19AE00A001D003C0042
:1009700024E7013F002F00D158E7FF2C00D04AE7C1
:10098000A7E75E1B894676E7002D1CD10A00FF28E9
:100990001FD004001D0011E7002D5DD1002B17D1E1
:1009A00080230022DB03FF260FE70A00FF26002337
:1009B0000BE7002C21D1002D66D1FF28E9D11D00C5
:1009C00087E7012352E77A1CA7D0FA43FF2899D181
:1009D0000A001D00FF24F1E6002E21D1002D4FD08A
:1009E000002B4CD0ED186B019ED5314B07362E40B5
:1009F00001241D4054E7012318E7FF28DFD080249D
:100A0000E4047F4225431B2F4DDC2026F61B2C00DF
:100A1000B540FC406A1E95412543ED18040006E7E9
:100A2000002DCCD0002B00D153E780216046C903B4
:100A3000084203D04046084200D11D000121114068
:100A400047E7002B00D1B9E6EA1A500125D5072661
:100A50005D1B2E40894623E7FF24002B00D1ADE625
:100A600080226046D203104204D04046104201D199
:100A70001D00894601224B46FF241A409EE62B00AA
:100A8000DD080A0000249DE67A1CC6D0FF43FF283B
:100A9000B9D11D001DE701253FE7151E00D044E731
:100AA0000022002391E60125B7E7C046FFFFFF7D46
:100AB000FFFFFFFBF8B557464E464546DE4644026B
:100AC000E0B546008846640A360EC70F002E63D094
:100AD000FF2E24D08023E400DB041C43002399462E
:100AE0009B467F3E434642465D02D20F5B006D0A45
:100AF0001B0E9046924665D0FF2B55D080220021D8
:100B0000ED00D2047F3B1543F61A43464A467B402C
:100B10000F2A00D98DE06D48920082589746002C2C
:100B200054D108239946063BFF269B46DAE7002569
:100B3000534602291BD0032900D1BFE0012928D048
:100B400030007F30002820DD6A0704D00F222A40C1
:100B5000042A00D004352A0103D530005C4A8030D5
:100B60001540FE2803DCAC01640AC2B201E0FF229A
:100B700000246402D205600ADB07104318433CBC22
:100B800090469946A246AB46F8BD0122101A1B2892
:100B90007CDD00220024ECE7002C1DD104239946C3
:100BA000033B00269B469DE7FF3E002D20D10221FE
:100BB00043464A467B400A430F2AD8D8454892000C
:100BC00082589746002D19D10121F1E70C2399464F
:100BD000093BFF269B4685E7200002F013FA7626A4
:100BE000431F9C4000237642361A99469B4679E77C
:100BF0004A4603231A439146032186E7280002F060
:100C000001FA431F36189D40763600217DE7802487
:100C10000023E403FF22ACE700258023DB031C4212
:100C200028D01D4226D12B435C02640A4346FF2292
:100C30009FE762016C01A24224D21B210025013EE4
:100C4000012710006D005200002801DB944201D8FA
:100C5000121B3D4301390029F3D11400621E944157
:100C600025436DE7BA46594625005346022900D070
:100C700061E77CE78023DB031C436402640A3B00DA
:100C8000FF2276E7121B1A210125D9E79E362A009A
:100C9000B5402C00C240651EAC411443620704D02D
:100CA0000F222240042A00D00434620103D4A4019C
:100CB000640A00225DE7012200245AE78024E4034D
:100CC0002C436402640AFF2253E7C04694AD000837
:100CD000FFFFFFF7D4AD000870B542004E024C0094
:100CE00045026D0A120EC30F760A240EC90FFF2AA1
:100CF0000FD0FF2C11D00120A24200D070BDB54210
:100D0000FCD18B420DD0002AF8D12800451EA84105
:100D1000F4E70120002DF1D1EBE70120002EEDD109
:100D2000E9E70020EAE7C04670B54A004E024502F6
:100D300044006D0A240EC30F760A120EC90FFF2C51
:100D400015D0FF2A0ED0002C15D1002A01D1002E7B
:100D50001CD0002D14D08B4227D00220013B18401C
:100D6000013870BD002EEED002204042F9E7002D80
:100D7000FAD1FF2A0ED0002A0ED1002EEDD00BE0C2
:100D800001230139994308000130EAE70020002DD2
:100D9000E7D0E2E7002EE7D18B42DED1944205DDB9
:100DA0000221581E08400138DBE70024A24204DC7F
:100DB000B542D2D80020B542D3D2581E0123984361
:100DC0000130CEE730B5420044024D02C30F480067
:100DD000640A120E6D0A000EC90FFF2A12D0FF28F6
:100DE0000CD0002A12D1002819D1002D17D1002CC7
:100DF0002BD00220013B1840013826E0002DF0D016
:100E0000022022E0002CFBD1FF281FD000281FD198
:100E1000002D1DD10220013B1840013815E0002CA7
:100E20000ED08B42E5D10022904204DCAC42E0D8E7
:100E30000020AC4209D2581E01239843013004E03F
:100E40000123013999430800013030BD002DD7D16D
:100E50008B42CED18242E7DD0221581E0840013884
:100E6000F3E7C046F0B54E4657464546DE46E0B588
:100E700043025B0A450083B00F1C99462D0EC60F36
:100E8000002D57D0FF2D24D08020DB00C004184354
:100E9000002381469A469B467F3D7C027A00FB0FE9
:100EA000640A120E984623D0FF2A4BD0E300802418
:100EB0000020E4047F3A1C43AD186B1C47460193A5
:100EC000534677403A000F2B48D87D499B00CB58BA
:100ED0009F46002B00D085E008339A46063B9B4690
:100EE0007C027A00FB0FFF25640A120E9846DBD1C4
:100EF000002C00D090E0524601231A439246012074
:100F0000DBE74C4658461700022824D0032800D1BE
:100F1000CFE00022002301284DD15802D205400A1B
:100F2000FF071043384303B03CBC90469946A246A5
:100F3000AB46F0BD002B5BD104239A46033B002552
:100F40009B46AAE7FF35002C60D1524602231A4384
:100F500092460220B1E7FF220023DEE74B461B0C3E
:100F60009C464B462604360C180461463300220C7E
:100F70006446000C43434E435043544380191A0CBB
:100F80001218964203D9802149028C4664441B04FE
:100F90001B0C1004C01883015E1EB341800E184361
:100FA000130C1B199B0103431C00230179D501235A
:100FB00062081C401443019A7F32002A4DDD63070A
:100FC00004D00F232340042B00D00434230103D585
:100FD0003C4B019A1C408032FE2ABCDCA3015B0A18
:100FE000D2B29AE70C239A46093BFF259B4654E769
:100FF000180002F007F84A46431F76259A4000235E
:101000006D4291462D1A9A469B4646E75246032367
:101010001A439246032050E7200001F0F3FF431FDC
:101020002D1A9C40763D002047E780230027DB03F4
:10103000FF2272E7424666E74C463200584662E7B6
:1010400080234A46DB031A4222D01C4220D123438C
:101050005B025B0A4746FF225FE701239A1A1B2ABD
:1010600021DC23000199D3409E318C401A002300DB
:101070005C1EA34113435A0704D00F221A40042ACE
:1010800000D004335A0111D49B015B0A002244E7CB
:1010900080234A46DB0313435B025B0A3700FF22CF
:1010A0003BE7019587E70022002336E70122002372
:1010B00033E78023DB0323435B025B0AFF222CE739
:1010C00014AE0008FFFFFFF7F8B54746CE464400D0
:1010D000C20F80B547024802400A8446664648006F
:1010E0007F0A240EF60025009046FB00000EC90F73
:1010F000B146FF2800D185E001267140261A9142B1
:1011000057D0002E43DD002800D07FE0494600295B
:1011100000D1AAE0013E002E00D0F7E05B1A5A0190
:1011200000D48BE09B019C09200001F06BFF053887
:101130008440854200DDD3E0451B2300202001359B
:10114000EB40451BAC40621E94412343072400251D
:101150001C40012241460A40002C04D00F211940B6
:10116000042900D00433590100D480E00135ECB2E9
:10117000FF2D00D0A3E0FF2400235B02E405580A02
:10118000D207204310430CBC90469946F8BD002E70
:1011900074D1601CC0B2012800DCA7E04A469C1A4A
:1011A000620100D5B6E0002CBED10022002400234D
:1011B000E3E7002E00DC85E0002846D0FF2C49D074
:1011C00080224846D2041043814601221B2E09DCAE
:1011D00020204C46801B84404A462000F240441E9A
:1011E000A04102439B185A0128D50135FF2D00D19B
:1011F000A8E00122072494491A405B080B401343DE
:101200001C40A6E7002E00D078E775E7FF2C54D0ED
:1012100080224946D2041143894601221B2E09DC53
:1012200020214846891B88404A460100F240481E5A
:1012300081410A439B1A5A0100D573E701224146B6
:101240000A40590700D089E711E04846002858D1E4
:10125000FF2C0CD1DB08002B00D18CE78020C003D1
:1012600003435B025B0AFF2487E7FF2C25D0DB08E2
:10127000FF2DF0D05B025B0AECB27EE7002C4DD074
:10128000FF2818D08024E404724223431B2A00DD87
:10129000C4E01C002025D440AA1A93405A1E934152
:1012A00023434A460500D31A884638E7721CF8D013
:1012B000F243FF28EAD10A004B46FF25D7E79B01FE
:1012C0005B0A5AE7002E41D1651CE9B2012945DDD0
:1012D000FF2D00D14FE707244B445B081C4038E743
:1012E00007225A4B2D1A2340144032E7002C1DD1FF
:1012F000002B7AD14B46002B00D191E00A0000254B
:10130000B5E7013E002E19D14B446CE7FF2C84D188
:10131000FF25ACE74A468846D41A05E7002BC5D11D
:101320000A00FF28C8D005004B46A0E7002B49D192
:101330004B46002B77D00A00FF2598E7FF2C00D002
:1013400043E787E70A00FF24002316E7002C15D1A6
:10135000002B57D1FF28E6D14B467BE7002C20D14C
:10136000002B57D04946002953D04B445A0168D529
:101370000724364A1C4001251340EAE6FF28EBD03B
:101380008022D204764213431B2E53DC2025AD1B52
:101390001A00AB40F2405C1EA34113434B440500CE
:1013A00021E7002BD8D04946002900D152E78021FF
:1013B000C9030F4200D14DE76046084200D049E71B
:1013C0004B4647E74846FF25002800D14FE78022DB
:1013D000D203174204D06046104201D14B468846E2
:1013E00001224146FF250A4041E7484600281FD018
:1013F0001A1A500120D54A460724D31A1C408846A1
:101400000025A6E6741CC9D0F643FF28BCD14B4684
:1014100020E799464B460025DB082BE7012340E7F0
:1014200000220023A9E680230022DB03FF24A4E698
:1014300000251CE70123B1E7002AF1D013000025A5
:10144000FCE60025FAE6C046FFFFFF7DFFFFFFFB3D
:1014500042024B0240004900520A5B0A090E000E8C
:10146000FF2806D00020FF2902D11800431E984112
:101470007047FE38002AFBD1F4E7C0464102420023
:10148000C30F490A120E00207E2A0DD99D2A0CD8BE
:10149000802000040143952A0ADC9620821AD1405C
:1014A0004842002B00D108007047034A9818FBE718
:1014B000963A9140F4E7C046FFFFFF7F70B50028E1
:1014C0003DD0C317C5185D40C40F280001F09AFD38
:1014D0009E22121A962A07DCD2B2082833DD083879
:1014E00085406802400A23E0992A0BDD0523290084
:1014F0001B1AD94003001B339D402B005D1EAB41DE
:1015000019430D00052801DD431F9D402B000F49A5
:101510000B406E0709D00F263540042D05D004334B
:101520005D0102D59F220B40121A9B01580AD2B2CC
:101530004002D205400AE4071043204370BD002456
:1015400000220020F4E76802400AF1E7FFFFFFFBFA
:1015500070B5041E34D001F055FD9E22121A962A51
:1015600007DCD2B208282EDD083884406002400A29
:1015700021E0992A09DD030021001B3399404B1E0D
:10158000994105231B1ADC400C43052801DD431F4C
:101590009C4023000D490B40650709D00F252C40C6
:1015A000042C05D004335C0102D59F220B40121A93
:1015B0009B01580AD2B24002D205400A104370BDC6
:1015C00000220020F7E76002400AF4E7FFFFFFFB7C
:1015D000F0B54F464646D6460C000903C0B5490A49
:1015E000470F5E0039431F03DB0F9C4665007B0AF3
:1015F000570F1F436D0DE40F760DA146C000B8468E
:10160000D200AB1B64457BD0002B5FDD002E00D0E9
:10161000A4E03E00164300D112E15E1E002E00D071
:101620009EE1871A4346B84280410125C91A4042CB
:10163000091A0B0200D431E149024E0A002E00D1F2
:101640006EE1300001F0DEFC0300083B1F2B00DDE3
:1016500061E120223900D21A9E40D1409F400E43C2
:101660009D4200DD51E15D1B6B1C1F2B00DD7CE109
:101670002021C91A3D0030008F408840DD40791E8E
:101680008F41310007222843D940002507433A40C3
:10169000002A09D00F233B40042B05D03B1DBB4241
:1016A000BF417F42C9191F000B0200D426E26A1C09
:1016B000C64B55056D0D9A4200D106E1C44AFF089C
:1016C0000A40530752023B43120B8EE0002B00D01E
:1016D000B8E06B1C5B055B0D012B00DC30E1871A69
:1016E0004346B842B641CB1A76429E1B330200D520
:1016F0004CE13B003343A1D100220024002570E0DF
:10170000002B00DCE5E0002E00D183E0AF4EB542B7
:1017100060D0802636043743B846382B00DC3EE1E3
:10172000434613431F007A1E97413F18874280416A
:10173000404209180B0200D4B0E0A44B01359D4291
:1017400000D1C3E0A24A7B080A4001210F401F4399
:101750005108D30707221F433A4099E79B4EB542F1
:1017600038D0802636043743B846382B00DDDCE01D
:101770001F2B00DC30E11E004746203EF740BC46F0
:10178000202B04D04026F31A46469E4032431700D1
:1017900063467A1E97411F43CCE0002B00D104E240
:1017A0004346134300D159E14B07C0081843802337
:1017B000C9081B03194208D04546ED081D4204D153
:1017C0004346D008590708432900420FC9007F4DFE
:1017D0001143C0004B07CA087C49C00803438D422F
:1017E00068D012036D05120B6D0D00211203180055
:1017F000130B0A0D12051A43764B2D0513402B438C
:101800005B00E4075B08234319001CBC9046994623
:10181000A246F0BD3E00164312D05E1E002E00D040
:1018200000E1871887428041414440420918012560
:101830000B0233D5022585E764463300414610008C
:101840001D00C7E7002D00D0DAE00C000443F3D000
:101850005C1C00D19FE15D4CA64200D12FE1DB432F
:10186000382B00DD66E11F2B00DD83E1202405001D
:10187000E41A0F00DD40D940A0404346A7405B1A60
:10188000441EA04198462F433843171ABA4292414A
:1018900043465242991A64463500CAE607223A4046
:1018A000002A00D0F6E64B07CA084849FF083B4328
:1018B0008D4296D11900114300D19EE18021090388
:1018C0000A431203120B414D8FE71500002200233B
:1018D0008BE7002B00D0C7E06B1C5F057F0D012F4D
:1018E00000DCF1E0394DAB4200D1B9E085180A00C7
:1018F000854289414244494251180722CF076D0869
:101900002F4349083A401D00C2E607223049ED1A2C
:1019100031403A40BCE63E002838864000279FE62A
:10192000380001F06FFB20308EE6434613431F0062
:101930007A1E9741C71BB84280414042091A78E697
:101940000E003B0006431343002D61D1002E00D052
:10195000F4E0002B00D11BE164463900100039E7A8
:101960001A4FBB427AD03300FFE630001F3DE840FB
:10197000202B03D04021CB1A9E4037437B1E9F4132
:10198000072207433A400021002589E7171A4346FA
:10199000BA42B641591A76428E1B64464EE61F2B58
:1019A00000DDADE020264746F61AB740B9461700DD
:1019B000B246DF404E463E4337005646B240561EC2
:1019C000B24117434246DA408918AEE6FF070000ED
:1019D000FFFF7FFFFFFF0F8020264746F61AB74024
:1019E000B9461700B246DF404E463E4337005646E2
:1019F000B240561EB24117434246DA40891A99E76F
:101A00007F4CA6425BD0802424045B42214327E71D
:101A1000002E0CD1002B00D1CBE064463900100021
:101A2000774DD7E6764FBB4218D0330075E6002BD2
:101A300014D04B07C00818438023C9081B03194260
:101A400007D0FC081C4204D17907D0080843E146BE
:101A500021004C46420FC9001143C000684DB9E651
:101A60001D0000220023C0E6002D5BD10D000543C0
:101A700000D1E2E65D1C00D1B0E0614DAE421FD066
:101A8000DB43382B71DC1F2B00DD96E020250F0097
:101A9000ED1AAF40B9460700AA46DF404D463D4328
:101AA0002F005546A840D940451EA8418844074309
:101AB000BF18974292415142414435003AE664468C
:101AC00035004146100085E60B000343002D00D091
:101AD00063E6002BF5D04346134300D17AE687181E
:101AE0008742804107224144404209183A400B0294
:101AF00000D4D5E6434B01351940C9E5380069E605
:101B00001E004746203EF740BC46202B04D040260E
:101B1000F31A46469E403243170063467A1E9741A9
:101B20001F4302E6364DAE42CAD080252D045B42EB
:101B30002943A6E70843411E8841A6E6002B00D1B1
:101B400048E6871A4346B842B641CB1A76429E1BF6
:101B500033024BD5171A4346BA429241591A5242A0
:101B6000891A072264463A4092E501430F00791E24
:101B70008F419DE71C000F00203CE740202B03D045
:101B80004024E31A99400843411E884138437CE6CB
:101B90000022002425E6171A4346BA429241591AF8
:101BA0005242891A6446350043E541461000144DFF
:101BB00010E680220024120380E61D000F00203D65
:101BC000EF40BC46202B03D04025EB1A9940084338
:101BD00007006346781E87411F4369E787189742CD
:101BE0009B4141445B42C9183500A3E53B003343A8
:101BF000CED0072231003A4052E600231A00F4E525
:101C0000FF070000FFFF7FFFF0B55746DE464E4658
:101C10004546E0B5834607000E03480085B092466E
:101C20001C00360B400DCD0F002800D19DE0954BD8
:101C3000984239D08023F6001B041E43924A7B0F42
:101C400033439946944603006344009300230026DF
:101C5000FF00029323031B0B98466300E40F5246D8
:101C60005B0D019400D1B3E086498B4200D19EE028
:101C70004246D100802212040A435146490F1143C3
:101C80008B46814952468C4600996344CB1A002109
:101C9000D20000932B0063409A460F2E00D905E135
:101CA0007A4BB6009B599F465B463343994600D01A
:101CB000B8E002230826002700900293CAE7CB462B
:101CC0003A0002990195019B9A46022927D00329DF
:101CD00000D180E2012944D06D49009B8C466344C9
:101CE0001C00002C38DD530700D013E2D2085B46FD
:101CF000DB0109D55946674B19408B468021C90045
:101D00008C46009B63441C00634B9C4207DC5B4693
:101D100064055F075B0217431B0B620D02E00023A3
:101D20000027584A00211B031C0B0B0D1B052343E6
:101D300014055A4A380013401C4353466400DB071D
:101D400064081C43210005B03CBC90469946A2465D
:101D5000AB46F0BD0122524201231B1B382B00DC95
:101D6000ADE1002200230027DCE75B4633439946C0
:101D70005ED0002E00D18AE1300001F043F903006B
:101D80000B3B1C2B00DD7BE11D22D31A5A460100C0
:101D9000DA4008398E4013005F46334399468F403E
:101DA0003F4B00261B1A00930023029352E7414643
:101DB00053460B433B499B468C46009B6344009330
:101DC0005B46002B3BD1022300221E43022161E728
:101DD000434613439B4637D04346002B00D162E174
:101DE000404601F00FF903000B3B1C2B00DD53E1D3
:101DF00002004146083A914088461D21CB1A5146BF
:101E0000D9400B0041460B439B46534693401A0072
:101E1000009B25499C46604403008C466344009324
:101E2000002137E70323B14600900C26029311E707
:101E30000023009301330426002702930AE70323BB
:101E4000C3461E43032125E701331E43002201211F
:101E500020E700239A46802300271B03094A61E7F5
:101E6000802349461B03194200D1E2E0594619423A
:101E700000D0DEE00B431B0317001B0BA246014AF8
:101E800050E7C046FF07000001FCFFFF54AE00080A
:101E9000FF030000FFFFFFFEFE070000FFFF0F80B3
:101EA0000DFCFFFF01F8FFFFF3030000D94500D947
:101EB000CBE000D1C6E03C0048460027009B013B38
:101EC00000935B46160E1B021E4313029846330412
:101ED0001B0C9946310C0191FEF79CF94A4642438E
:101EE0000B04210C050019438A4207D98919013DC9
:101EF0008E4203D88A4201D9851E8919881A019910
:101F0000FEF788F909048C464A4621046446424398
:101F1000090C030021438A4204D98919013B8E42EE
:101F200000D8F1E02D041D43AB464346891A4246D2
:101F3000280C12041D0C5B46140C22001B041B0C05
:101F40005A4303946B434443029568431B19150C91
:101F5000EB189C4203D980246402A44660441C0C04
:101F600015041B042D0C20185D19814277D373D002
:101F70000C1AA24A7D1BAF42BF419446009B7F4290
:101F80006344E01B1C00864200D1DBE00199FEF7B0
:101F900041F94A4642430B04290C070019438A427F
:101FA00007D98919013F8E4203D88A4201D9871E79
:101FB0008919881A0199FEF72DF909044A468946BC
:101FC00029044D464243090C030029438A4207D99C
:101FD0008919013B8E4203D88A4201D9831E89198F
:101FE0003F04891A3A00039F1A43380013041B0C5C
:101FF000584381460298150C6F4343434543484676
:10200000000C8446DB1963449F4203D980204002C0
:102010008446654448461F0C00041B04000C7D19CF
:102020001818A94200D284E000D17FE001231A43AE
:1020300057E680234A461B0313431B031B0BAA4688
:102040006F4A6FE6BA4200D935E74B46DC075808BD
:102050007B081C43FF0734E70024AF4289D2474482
:102060004745A4415B466442A4196418013BA6425B
:102070001ED2A0426DD800D1B6E0241A9B4678E764
:1020800003005A46283B9A400027914688E6584666
:1020900000F0B8FF203072E603005246283B9A4019
:1020A00093460022B4E6504600F0ACFF20309AE69A
:1020B000A642E2D1B845DCD9341A9B4659E71F2B1A
:1020C00065DC504C0099A4465C46614408008C4095
:1020D00011008240D940501E82410C4314435A469D
:1020E000DA401300620709D00F222240042A05D0EB
:1020F0002200141D9442894149425B181A0262D59C
:102100000122002300270DE68A4200D80AE7831E39
:10211000891907E70F231340042B00D1E6E5171DAB
:102120009742924153429B44FA08E0E5002800D1CF
:10213000D7E57118531EB14227D3A94215D358D001
:102140001A0073E7002B00DC04E6012300229B4405
:10215000CDE502234744474589415B429C464942BD
:1021600089190C19E344241A03E743465F004745E5
:102170009B41B8465B429E19023A8919A94200D098
:1021800054E7404500D051E7ABE51A00F6E71F21C0
:102190005F4649420C1BE740202B07D01A49009BA1
:1021A0008C46634418005B4683401A43501E8241AC
:1021B0003A4307270023174009D00F21002311407D
:1021C0001400042995D122005F075B021B0BD20883
:1021D00017430022A6E5802359461B030B431B032C
:1021E00017001B0B064A9DE5BD42B2D89B46002452
:1021F000BFE68045B9D31A00C3E7C046FF0300001D
:10220000FF0700001E0400003E040000F0B5574622
:10221000DE464E464546E0B5834606000F034800BD
:1022200087B092461D003F0B400DCC0F002800D117
:102230006FE0DE4B984238D08023FF001B041F4321
:10224000730F3B430193DA4B0027994600239B46CB
:10225000F60081442B0369001B0B52469846490D3A
:10226000ED0F002900D185E0D04B994200D173E0F9
:102270004346DA0080231B0413435246CC48520FD6
:1022800084461343524600206144D2008944210011
:10229000694000918C46012149448A460F2F00D99C
:1022A00090E0C449BF00CF59BF465B463B43019312
:1022B00000D06AE102230827002681469B46C9E731
:1022C00032005846019B61460091022800D175E01A
:1022D000032800D1FEE1012800D02CE100230027D3
:1022E000002600253F032A0D3F0BB34812053A4351
:1022F00002401B051343009A5B00D1075B080B43A8
:102300003000190007B03CBC90469946A246AB4647
:10231000F0BD5B463B43019300D12FE1002F00D17C
:10232000A5E1380000F06EFE03000B3B1C2B00DD26
:1023300096E11D22D31A5A460100DA405E4608395A
:102340008F4013008E403B4301939C4B00271B1A88
:10235000994600239B467DE7414653460B439349EC
:102360008C46E144002B00D01AE1022202201743E0
:1023700000228CE7134300D10DE14346002B00D12E
:1023800081E1404600F03EFE02000B3A1C2A00DDCF
:1023900072E10100434608398B4098461D239A1A82
:1023A0005346D3401A004346134352468A40494697
:1023B000081A824989468144002068E77B4B002740
:1023C00000268EE7140C1204120C1100370C360490
:1023D000350C794328008C462E00604360448346C8
:1023E00056432100300C80465846794340440291C0
:1023F000844506D98846802149028C46E0444146FE
:1024000002913604010C360C00048B4681191E0C17
:102410001B041B0C0391190079438C46280075435B
:102420006544A8465843050C45447743A94203D95F
:10243000802149028C466744290C8C4639000004EF
:10244000000C2D042D186144AB44059159460491AC
:1024500001990F043F0C080C390051434243904648
:1024600002008C46090C8B4662437C4344445C4426
:10247000A04503D98021490288464244210C884660
:1024800061460904090C8C463900594343437043A3
:102490007E430F0CF6182404BE19644442448C4653
:1024A000B34203D980235B0298464044029B6146B5
:1024B0009846049B370443449B46AB45AD416B4271
:1024C0000D0405992D0C8C467F196744FD18A8460C
:1024D0005D462D19A542A44193466442A446C344D7
:1024E000DC448F42BF4198459B4193459241A445AE
:1024F000A4415B427F421F43360C52426442BF19E3
:102500002243BF18624638184302D20D0399134381
:102510006A020A43501E82416146ED0D2A434E0273
:102520003243D90100D4B3E00126500832400243BF
:10253000DE0732435B08224C5444002C62DD510715
:1025400009D00F201040042805D0101D9042924160
:1025500052429B180200D90104D580241948E40096
:10256000034054441848844200DD27E75E075B02BD
:10257000D2081F0B630516435B0DB2E60023994694
:102580000133042700269B4664E603230197814616
:102590000C279B465EE6012201201743002276E6C7
:1025A000032303201F43434671E6C046FF07000094
:1025B00001FCFFFF94AE0008FFFF0F800DFCFFFF42
:1025C000FF030000FFFFFFFEFE070000002380273F
:1025D00000933F030026434B83E6019B3200A44651
:1025E000584670E6AC466EE6802701993F033942B3
:1025F0002DD03B422BD11F433F033F0B00951600CC
:10260000384B6EE601252D1B382D00DD66E61F2DAB
:1026100040DC35481C005044160082408440EE40A7
:10262000501E824134431443EB40620709D00F220D
:102630002240042A05D02200141D944280414042C9
:102640001B181A023ED501230027002649E68027E1
:10265000019B3F031F433F033F0B0094214B40E688
:1026600003005A46283B9A40002601926DE65846E0
:1026700000F0C8FC203057E603005246283B9A4041
:102680001300002293E6504600F0BCFC20307BE6AD
:10269000CA4650E71F201E004042041BE640202D82
:1026A00003D0124C5444A3401A43501E824132437B
:1026B00007260027164009D00F20002310401400E1
:1026C0000428B9D122005E075B021F0BD208164313
:1026D000002306E680273F031F433F033F0B1600FE
:1026E000004BFEE5FF0700001E0400003E04000052
:1026F000F8B557464E464546DE460C000903E0B5A0
:10270000490A460F5F0031431E03DB0F760A9B46E2
:10271000530F3343C84E6500C000E40FD2006D0D67
:10272000A24681467F0D9C469046B74200D1B9E053
:102730005B46012673409B46EE1BA34500D183E018
:10274000002E63DD002F00D0B1E06346134300D1BB
:1027500023E1731E002B00D0BAE1861A6346B04213
:1027600080410125C91A4042091A0B0200D447E1F1
:1027700049024B0A98464346002B00D189E1404666
:1027800000F040FC0300083B1F2B00DD7CE1202211
:102790003000D21A4146D040994002009E400A4380
:1027A0009D4200DD6AE15D1B6B1C1F2B00DD94E187
:1027B000202110003500C91A8E40DA408840DD40E3
:1027C000711E8E4111000722284300250643324026
:1027D000002A09D00F233340042B05D0331DB34208
:1027E000B641764289191E000B0200D43DE26A1CF4
:1027F000914B55056D0D9A4200D119E18F4AF608AB
:102800000A40570752023743120B9BE0002E00D0BC
:10281000C5E06E1C7605760D012E00DC48E16746AA
:10282000861ACB1BB042BF417F42B8461F004346C9
:10283000FF1A3B00B8461B0200D55FE137439AD12F
:1028400000220024002579E0002E00DCFAE0002FB1
:1028500000D18DE0784B9D4267D0802367461B04F2
:102860001F43BC46382E00DC52E1634613435A1E18
:1028700093411E1886428041404209180B0200D441
:10288000BEE06D4B01359D4200D1D2E06B4A73082A
:102890000A4001210E401E435108D30707221E4360
:1028A000324095E71E00164300D045E740E7624BF3
:1028B0009D423AD0802367461B041F43BC46382EF6
:1028C00000DDEBE01F2E00DC3AE133006746203BE1
:1028D000DF403B00202E05D04027BF1B6646BE4090
:1028E000324390464646721E96413343DAE0002B4F
:1028F00000D114E26346134300D168E180234E0700
:10290000C008C9081B030643194208D06046C00826
:10291000184204D163460100D2085E071643F30053
:102920009946C900720F444D11434B46DE08424B95
:102930004F073743CA089D4200D16EE012036D0570
:10294000120B6D0D00211203130B0A0D12051A4311
:102950003B4B2D0513402B435B00E4075B082343EF
:10296000380019003CBC90469946A246AB46F8BDDB
:102970006346134311D0731E002B00D007E1861865
:102980008642804161444042091801250B0237D537
:1029900002257BE73E00614691463500C5E75C466F
:1029A000002D00D0E1E00B000343F3D0731C00D1F5
:1029B000ACE1214B9F4200D13AE1F343382B00DDDB
:1029C0006FE11F2B00DD8CE120250E00ED1AAE40DB
:1029D000B0460600AA46DE40454635432E00554621
:1029E000D940A8406346451EA8415B1A9C46304327
:1029F000161AB242924163465242991A3D00B4E619
:102A000007223240002A00D0E4E60B4BF6084F07BD
:102A10003743CA089D4200D090E73B00134300D1E2
:102A2000A6E180231B031A431203120B024D89E710
:102A300015000022002785E7FF070000FFFF7FFF4A
:102A4000FFFF0F80002E00D0C7E06B1C5E05760DE7
:102A5000012E00DCF0E0C84DAB4200D1B9E0851892
:102A60000A00854289416244494251180722CE0733
:102A70006D082E43490832401D00A9E6BF49ED1AF2
:102A8000114007223240A3E6320028388240002657
:102A900086E6300000F0B6FA203073E66346134352
:102AA0005A1E9341C61AB04280414042091A5CE660
:102AB0000E00674606431743002D5ED1002E00D05E
:102AC000F3E0002F00D11EE15C46614691462CE701
:102AD000A94FBE427BD01E00F1E610001F3DE8402A
:102AE000202B03D04021CB1A9A401643731E9E41DF
:102AF0000722064332400021002583E7161A634669
:102B0000B2428041591A40420B1A98465C4632E65E
:102B10001F2E00DDABE02027BB1B9A4663465746BD
:102B2000BB40994613004F46F3401F433B005746B6
:102B3000BA40571EBA4113436246F240891898E6DC
:102B40002027BB1B9A4663465746BB409946130055
:102B50004F46F3401F433B005746BA40571EBA4109
:102B600013436246F240891A9CE7834B9F425FD031
:102B700080252D047342294320E7002E0CD1002F1D
:102B800000D1D0E05C46614691467B4DCDE67A4F60
:102B9000BE421CD01E0065E6002F18D0C0084E07AC
:102BA00006438020C9080003014208D06346DC08C0
:102BB000044204D12100DA46D2085E071643F3002E
:102BC000994601245346C900720F11431C406A4DB7
:102BD000ABE61D0000220027B4E6002D59D10B0002
:102BE000034300D1D6E6731C00D1B2E0624B9F4292
:102BF0001ED0F343382B6FDC1F2B00DD97E0202520
:102C00000E00ED1AAE40B0460600AA46DE4045462C
:102C100035432E005546A840D940451EA8418C4456
:102C20000643B61896429241514261443D0025E662
:102C30003D006146914678E60B000343002D00D02D
:102C400055E6002BF5D06346134300D16DE6861898
:102C50008642804161444042091800220B0200D4A0
:102C6000D0E6464B01351940B2E5B1465DE633008A
:102C70006746203BDF403B00202E05D04027BF1B8E
:102C80006646BE40324390464646721E96413343E6
:102C9000EFE5394B9F42CBD080252D047342294369
:102CA000A8E70843411E8841A2E6002F00D13CE678
:102CB0006346861ACF1AB0429B415B42FB1A984684
:102CC0001B024ED5161A6346B2429241591A52421D
:102CD000891A5C4600227BE501430E00711E8E417D
:102CE0009FE71D000E00203DEE40B046202B04D093
:102CF0004025EB1A99400843814648464346411E09
:102D00008841184374E60022002417E6161A634629
:102D1000B2429241591A5242891A3D0025E5614654
:102D20009146154D01E680220024120379E61D002C
:102D30000E00203DEE40B046202B04D04025EB1A7B
:102D40009940084381464E464346711E8E411E43BC
:102D500067E7861896429B4161445B42C9183D0073
:102D60008CE547463743CED007224146324049E6FC
:102D700000273A00E6E5C046FF070000FFFF7FFF9F
:102D800070B500282DD0C317C5185D40C40F2800AA
:102D900000F038F9154B1B1A5B055B0D0A2815DD91
:102DA0000B38854000222D032D0B002110002D0330
:102DB0000A0D2D0B12052A430D4D1B052A40134306
:102DC0005B00E4075B082343190070BD0200290083
:102DD000153291400A000B21081AC5402D032D0B16
:102DE000E3E70024002300250022DEE71E040000A4
:102DF000FFFF0F8010B5041E25D000F003F9144B1F
:102E00001B1A5B055B0D0A2812DD0B38844000227B
:102E10002403240B0021100024030A0D240B1205A7
:102E200022430C4C1B05224013435B00590810BD84
:102E300002002100153291400A000B21081AC440FB
:102E40002403240BE6E7002300240022E2E7C04627
:102E50001E040000FFFF0F804100090E4B1C70B5DF
:102E6000DBB24602750AC40F012B14DDE0239B0080
:102E70006D07360BCB1800210A0D280012051C4DDA
:102E800032435B052A405B0813435B00E4075B08A1
:102E90002343190070BD002914D1002D1ED0280035
:102EA00000F0B0F80A281CDC0B232A001B1ADA40B9
:102EB000030015339D400F4B12031B1A5B05160BC5
:102EC0005B0DD8E7002D06D0320B802636036D0748
:102ED0001643094BCFE7084B0026CCE7002300261A
:102EE000C9E703002A000B3B9A400025E3E7C046F0
:102EF000FFFF0F8089030000FF070000F0B54C00C2
:102F0000640D0B03621C5B0A460F5205C90F1E437A
:102F1000C500520D012A29DD374BE718FE2F1CDCB6
:102F2000002F3BDD8001431E98410722F3006D0F07
:102F300003432B431A40002A04D00F221A40042ACC
:102F400000D004338022D2041A4024D00137FAB2D0
:102F5000FF2F02D09B01580A01E0FF22002040020F
:102F6000D205400AC90710430843F0BD3543002C81
:102F700004D1002D0AD100220020F0E7002DECD072
:102F80008020C0033043FF22E9E7002400235B02D6
:102F9000580AE2B2E3E7DB083C00F8E73B001733EE
:102FA000F3DB80231B0433431E26F61B1F2E14DD88
:102FB00002225242D71B1A00FA401700202E04D0DA
:102FC0000E4A94466444A3401D432B005D1EAB4152
:102FD00007223B431A400027ADE7094A2800A21800
:102FE000954093406C1EA541F04007222B430343BC
:102FF0001A4000279FE7C04680FCFFFFA2FCFFFFAE
:1030000082FCFFFF1C2101231B04984201D3000C0A
:1030100010391B0A984201D3000A08391B0998424B
:1030200001D30009043902A2105C40187047C04661
:103030000403020201010101000000000000000081
:1030400010B5002903D1FFF7DDFF203002E0081C96
:10305000FFF7D8FF10BDC04670B500220C4B04002E
:103060000D0000F081F8002804D12000290000F0B4
:1030700011F870BD064B002220002900FFF738FB35
:1030800000F008F880231B069C466044F1E7C04628
:103090000000E04130B5144D0A034B00120B5B0DEC
:1030A000C90F0024AB4211DD104CA34210DC802478
:1030B000640322430E4CE41A1F2C0CDD0D48C31A86
:1030C000DA4013005C42002900D11C00200030BD12
:1030D000094BCC18FAE7094DE040AC4663449A40EE
:1030E00013000343EEE7C046FE0300001D0400008A
:1030F0003304000013040000FFFFFF7FEDFBFFFF20
:103100008446101C62468C46191C634600E0C0468B
:103110001FB500F0D3F8002801D40021C8421FBD1C
:1031200010B500F02BF84042013010BD10B500F092
:10313000C5F8002801DB002010BD012010BDC046ED
:1031400010B500F0BBF8002801DD002010BD012003
:1031500010BDC04610B500F04DF8002801DC00207D
:1031600010BD012010BDC04610B500F043F8002886
:1031700001DA002010BD012010BDC046F0B54F4659
:103180004646D6468446C0B58046194E18030F03FE
:103190004D00000B5C0082463F0B6D0DC90F914640
:1031A000640DDB0F0120B5420AD0B44203D0A54222
:1031B00001D157450CD01CBC90469946A246F0BDA3
:1031C00066463E43F7D1AC42F5D154461443F2D1A2
:1031D0000120C845EFD1994207D0002DEBD16346BD
:1031E0001F433800471EB841E5E70020E3E7C0462B
:1031F000FF070000F0B54F464646D6464D00C0B525
:103200000E03C90F8A462C491F035C008046360B0B
:103210006D0D91463F0B640DDB0F8D421ED08C422D
:1032200016D0002D1ED130438446002C01D13A43E4
:1032300023D06246002A1AD09A4529D0514602204E
:103240000139084001381CBC90469946A246F0BDA1
:1032500039001143E5D002204042F4E73043FAD16F
:10326000AC420FD0002C0FD13A43E7D00CE0012242
:10327000013B934318000130E5E763460020002B33
:10328000E1D0DBE73A43E6D19A45D7D1A542D5DC78
:10329000A54205DBBE42D1D808D00020BE42D2D222
:1032A00050460123013898430130CCE7C845C5D8C2
:1032B0000020C845F4D3C6E7FF070000F0B54F462D
:1032C0004646D6464D00C0B50E03C90F8A462E4964
:1032D0001F035C008046360B6D0D91463F0B640D5D
:1032E000DB0F8D4218D08C4211D0002D18D1304305
:1032F0008446002C1ED13A431CD163460020002B8B
:1033000030D0514602200139084001382AE0390006
:103310001143EAD0022025E03043FBD1AC4226D055
:10332000002C26D13A4324D15146022001390840CD
:10333000013817E06246002A0FD09A45E1D1A54234
:1033400005DBBE42DDD819D00020BE420AD250466D
:10335000012301389843013004E00122013B9343EB
:10336000180001301CBC90469946A246F0BD3A4375
:10337000D0D19A45C5D1A542C3DCE0E7C845C0D845
:103380000020C845E3D3EDE7FF0700000023C25C3F
:103390000133002AFBD1581E7047000002B4714669
:1033A00049084900095C49008E4402BC7047C04688
:1033B00070B50C4E0D031C0349005B002D0B490D2D
:1033C000240B5B0DB14208D0064900208B4203D18B
:1033D00014432000441EA04170BD05430120002D70
:1033E000FAD1F1E7FF070000034B036054330B6091
:1033F000802313607047C0460402002070B50400AB
:103400000E0001F0A3FC050001F0A0FC401BB0423F
:103410000BD2022301223C21200002F08FFA002867
:1034200004D0012001F098FCEEE7032070BD0000FD
:1034300010B504F0DBFA394B1B68C31A384A9342C3
:1034400000D810BD354B186036495868FDF70AFDA5
:10345000011C354804F08CFE04F0FCFE00B21D286F
:1034600006DDC8235B00984203DDC820400000E071
:103470001E202A4B1B89022B0FD92C4A81239B002B
:10348000D35E9022FF32934207DC04332749753222
:103490008B52224B00221A811EE0204B5B89042BA9
:1034A0000ED9224A81239B00D35E1E2B08DD023BEE
:1034B0001E49812292008B52184B00225A810BE048
:1034C0001A4A81239B00D35E821E93421DDA013388
:1034D0001649812292008B52144A81239B00D35EAD
:1034E0001D2B04DC114A81239B001E21D1520F4A5F
:1034F00081239B00D25EC8235B009A42A1DD0B4A68
:103500007433C8214900D1529BE702308342E3DD86
:10351000013B0649812292008B52DDE758040020CE
:1035200087130000000090400000F041703B002035
:10353000884202D9401A01387047081AFCE710B5D2
:10354000072001F083F8012001F0BAF801F0CCF86F
:1035500010BD000070B53D4BAC22520099580832A6
:103560009858FFF7E5FFFA239B0098423DD9374A68
:10357000C1235B00D35C002B38D0344ABD235B00F1
:10358000D35C012B3DD0314BAC225200995808320C
:10359000995014329B5C002B3AD02C4ABA235B0022
:1035A0000021D154294CBA235B00E05C01F03AF8C9
:1035B00001F0E0F8C0B2264BE35C83420FD0234A0F
:1035C000234BD054002829D0224805F041FC1F4A43
:1035D0008C239B000121D154002001F0C1F81B4A2B
:1035E0008023FF33D35C002B24D170BD1400012550
:1035F0008333FF33D55401F0F9FABD235B00E55462
:10360000BBE77A33FF330021D154FFF798FFBAE7C5
:103610000E4ABA235B000121D154C3E70E4805F0DE
:1036200017FC0A4A8C239B000021D154012001F091
:1036300097F8D4E7002001F06BF8002001F07CF847
:10364000024A8023FF330021D154CEE7703B002093
:103650002D02000000AF000818AF000810B504F0FC
:10366000C5F9044AAC235B00D050034802F0AEFA1F
:1036700010BDC046703B00203041002010B50C004A
:103680004A6C4123CB5CDBB20100104805F066FBBD
:10369000636C9B0709D4636C5B070AD4636CDB071C
:1036A0000BD4636C9B060CD410BD094805F0D0FB0D
:1036B000F1E7084805F0CCFBF0E7074805F0C8FB48
:1036C000EFE7064805F0C4FBEEE7C046B0B60008D9
:1036D000D0B60008ECB60008FCB600080CB700082D
:1036E00070B505000B4805F0B3FB082401E0013478
:1036F000E4B2772C0CD8610005230222280002F0E6
:103700001DF90028F3D12100034805F027FBEEE75F
:1037100070BDC04618B7000828B70008F0B587B0DC
:1037200005000C00002600200021029003910AE011
:103730007700EF5F3A00FB17029803998018594110
:10374000029003910136A642F2DB02980399FCF73E
:1037500023FF061C2000FDF7B1FE011C301CFDF705
:10376000A9F9071C002600220023029203931BE004
:103770007300585FFFF704FB04900591381CFFF7B6
:103780006BFB02000B0004980599FEF7B1FF0200E5
:103790000B00FEF73BFD02000B0002980399FDF7BA
:1037A00017FF029003910136A642E1DB2000FFF7EC
:1037B000E7FA02000B0002980399FEF725FAFFF7DB
:1037C0009DFB04F083FD041C381C04F007FD224B14
:1037D000FE225200985004329C502049201CFDF7D4
:1037E00041FB011C1E4804F0C3FC04F033FD00B291
:1037F0001D2806DDC8235B00984203DDC820400079
:1038000000E01E20144C8127BF00E0530025154B1B
:10381000E5540233E5500433E550603BE5520022A5
:103820004C33E254104EF560356104F0DFF830603F
:103830003581758180239B00E0587060043BE5581A
:10384000E45FFFF709FB02000B0000942900074822
:1038500005F084FA07B0F0BD703B002000009040F6
:103860000000F04106020000580400203CB70008A8
:10387000F0B5D64600B5BEB00023EF2202A98C46B3
:1038800062441370EE2262441370ED22624413709E
:10389000B64805F0DDFA1421B548FFF7AFFD002862
:1038A00010D0B34C2100B348FFF7E8FE2000FFF72B
:1038B00017FFB14AD5235B000021D1543EB004BCB0
:1038C0009246F0BD32230293313B0193EE3302AABC
:1038D00094466344009301234F223C21A44801F005
:1038E00055FF002806D1EF2302AA944663441978B5
:1038F00040290DD0EF2302AA9446634419789F48CB
:1039000005F02CFA9C4AD5235B000021D154D5E761
:103910009B4805F023FA3DAB20221A701232029226
:10392000313A0192009301235F323C21904801F02B
:103930005DFE01F00BFA040032230293313B019348
:10394000ED3302AA944663440093012360223C2194
:10395000874801F01BFF01F0F9F9001B642806D825
:10396000EE2302AA944663441B789B06E4D4EB231F
:1039700002AA944663448C221A707D4C3226029629
:1039800001250195009301232C3A3C21200001F0F0
:103990002DFEEA2302AA9446634411221A7002966D
:1039A00001950093012351323C21200001F01EFEBD
:1039B00001F0CCF9050032230293313B0193ED2451
:1039C00002AB9C4664440094012367223C21684872
:1039D00001F0DCFE23781B0708D401F0B7F9401B87
:1039E000962803D8052001F0B7F9E4E7604D3226A8
:1039F0000296062301933BAB0093012368223C21EE
:103A0000280001F0C3FE3AAC03220021200004F09C
:103A10003EFD0296032301930094023B60223C2169
:103A2000280001F0B3FE0296313E0196ED2702AB6D
:103A30009C4667440097012367223C21280001F03F
:103A4000A5FE21786278A378387800904D4805F07B
:103A500085F9494AD5235B00D6540622002106A8E1
:103A600004F015FD01F072F90400002764E0012361
:103A70005B4202930733019306AE0096053B682232
:103A80003C213B4801F082FE7078000200B233789E
:103A90001843F3781B021BB2B27813439A46757928
:103AA0002D022DB233791D437E1CFDF707FD0490D6
:103AB0005046FDF703FD05902800FDF7FFFC051CAF
:103AC000049A111C101CFDF7CDF90490059B191CDC
:103AD000181CFDF7C7F9011C0498FCF751FE04906F
:103AE000291C281CFDF7BEF9011C0498FCF748FEB0
:103AF00004F0ECFB04F0AEFB7F0008ABD85301F000
:103B000025F90500A0200821C00501F0A5FB01282A
:103B10000BD11D4802F05AF801F018F9401B322869
:103B20001AD8012001F018F9ECE7370001F00EF97E
:103B3000001B164B984211D8632F0FDC124802F07D
:103B400045F8A0200821C00501F086FB01288ED091
:103B5000012001F001F9E9E73700E7E7391E03DD4D
:103B600008A8FFF7DBFDA9E60121F9E768B700081F
:103B7000E440002084B70008703B002094B70008A0
:103B8000ACB70008C0B7000830410020881300001F
:103B900010B50C4C200005F05BF90B4805F058F906
:103BA0000A4805F055F9200005F052F900F00EFD25
:103BB0008E22D2000021064804F069FCFFF758FE6F
:103BC00010BDC046F0B7000818B800083CB800089F
:103BD000703B002010B503F009FF04001B4AB82316
:103BE0005B00D0582100FFF7A3FC194B98422BD95A
:103BF000164AB8235B00D4503C220AE0501E134BF7
:103C00001918AF31FF3109789B18AF33FF331970A2
:103C10000200002AF2DC0D4BD6225200985AD7211E
:103C20004900585400219952713AFF3A06E0074B77
:103C30009B18AF33FF331B78C918013A002AF6DC12
:103C4000024AF5235B00D15210BDC046703B0020F4
:103C5000E7030000F8B5DE4657464E464546E0B558
:103C6000304BD42252009A5E924694B2FE22520009
:103C70009B5AE41AA4B226B2002E4FDB3700294D1E
:103C800081239B00EB5E9846274BEB5C9946274BC4
:103C90009B466A220021180004F0F9FB59461639A8
:103CA0007E230B706A3B4B70BD338B70D03BCB7067
:103CB000A433FF33EB5E1A120A714B71D3235B00FE
:103CC000EB5E1A128A71CB7153461B120B7253466C
:103CD0004B7236128E72CC723B120B734F7343468B
:103CE0001B128B734346CB734B460B74F5235B005F
:103CF000EB5A1A0A4A748B74FC235B00EB5CCB749E
:103D0000FF230B75803B4B751622012000F0CCFF82
:103D10003CBC90469946A246AB46F8BD67423FB2CE
:103D2000ADE7C046703B002006020000FA3F0020CD
:103D3000F0B5CE46474680B583B00400019103F04C
:103D400055FE0600944A82239B00D358834200D933
:103D500080E083239B00D35883427BD8FE235B0003
:103D6000D35AE41AA4B227B2002F00DA77E0B8469B
:103D70008A4B9B8CE41AA4B223B29946002B00DA3A
:103D800071E0864A2624135D590051182825485FA2
:103D90004043956C281A0F85390079434018906488
:103DA0000133DBB213550F2B02D926230021D15446
:103DB000FDF784FBF6218905FDF754F804F086FA37
:103DC00004F048FA80B2744A754BD55C002D11D1CD
:103DD000724ABB3BFF3BD35C002B0BD14B46032B02
:103DE00008DD9F2806D913004C2201219954320086
:103DF000C8321A65694A4C23D35C002B05D0136D79
:103E0000B34202D84C230021D154634A81239B0042
:103E1000D45EA200121913019B1AD800FA2189005E
:103E2000FCF7FCF903B299465C4A4C23D35C002BA7
:103E30000AD0083C24B24B4602339C4201DA0230DD
:103E400004B21D2C00DC1E24002D10D0012D1FD02B
:103E5000524B9F8403B00CBC90469946F0BD634220
:103E60001BB2984684E7644223B2994689E7FFF77C
:103E7000DFFA4445ECDC484B494A012199543100B2
:103E8000963102329950454BDE6042461A61DFE7B7
:103E9000424A136943441361FFF7DCFE3E4A404B3C
:103EA0000021D154C845D3DA33002D33FF3311003C
:103EB000832292008B50394BDB68F31A452B06D9CD
:103EC000364B1A69374B9A4256DC002300E0002338
:103ED000002B56D03049D62252008B5A01338B52D8
:103EE0002E4A538901335381019B002B4DD0F01A88
:103EF000FDF72EFB2C49FCF7B5FF041C2B49FCF702
:103F00009FFA002832D0211C2948FCF7D3FD29490B
:103F1000FCF7A8FF2849FCF7A5FF051C1F4C274903
:103F2000606DFCF79FFF011C281CFCF729FC24494D
:103F3000FCF7C0FD60650021FCF76EFA00281DD17A
:103F4000164B586D1F49FCF77BFA002802D0134B23
:103F50001C4A5A65FC218905104B586DFCF710FC72
:103F6000FCF7CCFA0C4AFC235B00D0540A4AF82335
:103F70005B000021D15008E00123A9E7002262651F
:103F8000DEE7064A138901331381044B00221A61CC
:103F90004C215A545CE7C046703B00205804002076
:103FA00006020000AF0400006F12833A0AD7A33C58
:103FB0000000A04066666640000048430000484498
:103FC00000007A4400007F43F0B587B0062200214C
:103FD00004A804F05CFA2E4AD5235B00D35C002BC6
:103FE00052D001235B4202930733019304AC009447
:103FF000053B68223C21274801F0C8FB63781B027F
:104000002078184300B2224ED2235B00F052E378AE
:104010001B02A5781D432DB2D3235B00F5526379B3
:104020001B0224791C4324B2D4235B00F452FDF715
:1040300045FA071C2800FDF741FA051C2000FDF792
:104040003DFA041C391C381CFCF70CFF071C291C0A
:10405000281CFCF707FF011C381CFCF791FB051C12
:10406000211C201CFCF7FEFE011C281CFCF788FB11
:1040700004F02CF904F0EEF800B2F8235B00F158DC
:10408000FFF756FE07B0F0BD034804F0E1FEF9E784
:10409000703B0020E440002040BB000810B503F056
:1040A000A5FCA0200821C00501F0D6F8012802D007
:1040B000FFF790FD10BD034801F088FDFFF784FF76
:1040C000F6E7C04630410020F0B58BB01422002145
:1040D00005A804F0DCF9324BD96A04221143D962F5
:1040E000D96A0A400192019AD96A80221143D962A1
:1040F000D96A0A400292029ADA6A01252A43DA62F0
:10410000DA6A2A400392039AD96A02221143D962D9
:10411000DB6A1A400492049B8024A401002221003F
:10412000204801F0A0F800221F49204801F09BF828
:104130009926360200223100A020C00501F093F834
:1041400005940695002407940327089705A91548A8
:1041500000F0B6FF164B059306950794089705A93E
:10416000124800F0ADFF059606950794089705A93B
:10417000A020C00500F0A4FF4023059306940794F7
:1041800005A90A4800F09CFF0823059306940794AC
:1041900005A9A020C00500F093FF0BB0F0BDC046FC
:1041A0000010024000080050C4F00000000400505D
:1041B000A4F0000000B583B0114A116B012319432C
:1041C0001163126B13400193019B0022032109200C
:1041D00000F0D4FD092000F001FE002203210A2096
:1041E00000F0CCFD0A2000F0F9FD002203210B2095
:1041F00000F0C4FD0B2000F0F1FD03B000BDC0468F
:1042000000100240F0B585B01A4C236D236D236D6C
:10421000236D236D236D236D802109051940236DC6
:104220008022D2041A40236D802040050340276D70
:10423000802080050740266D8025ED053540266DE0
:10424000581E8341501E8241481E8141F60F02963E
:10425000681E854101953800471EB8410090064808
:1042600004F07CFD226D80231B041343236505B0FD
:10427000F0BDC046001002406CBB000810B5FFF74F
:10428000EDF9FFF767F9012003F0CCF8F7E710B577
:10429000012003F0C7F8FBE710B5012003F0C2F8D6
:1042A000FBE710B5FFF7FAFE012003F0BBF8F9E7D2
:1042B00000B583B001906423012201A9024802F0F5
:1042C000F1FE019803B000BDE442002072B6FEE7A3
:1042D00010B51248124B0360124B436000238360F9
:1042E0000122C260036143618361C361036201F023
:1042F00017F900280CD10021084801F0DDFB002847
:1043000008D10021054801F003FC002804D110BDAC
:10431000FFF7DCFFFFF7DAFFFFF7D8FFE4400020EC
:10432000005400408266500010B50B480B4B0360F0
:1043300096231B02436000238360C36003610C2249
:1043400042618361C3610362436202F05BFF002844
:1043500000D110BDFFF7BAFFE44200200038014051
:1043600010B50B480B4B036096239B014360002361
:104370008360C36003610C2242618361C361036295
:10438000436202F03FFF002800D110BDFFF79EFFFF
:1043900094430020004C004010B50B480B4B0360C9
:1043A000E1235B02436000238360C36003610C224E
:1043B00042618361C3610362436202F023FF00280C
:1043C00000D110BDFFF782FF1442002000500040D2
:1043D00010B50748074B036006234360064BC360D4
:1043E000836001F0BFFB002800D110BDFFF76EFF16
:1043F0003041002000300040FF0F000010B50A4897
:104400000A4B0360002343607F2282608032C260D7
:10441000036143618361C36102F0F4F8002800D1B5
:1044200010BDFFF753FFC0466C430020002800403A
:1044300000B59BB0342200210DA804F028F8142206
:10444000002108A804F023F820220021684604F087
:104450001EF81C490B681C4A1A4080231B01134399
:104460000B6009230D9380235B020E9301231293AB
:10447000002316930DA801F009FC00281CD10F237E
:1044800008930D3B099300230A930B930C9301218E
:1044900008A801F087FE002810D1292300930023EB
:1044A0000293059380239B020193684601F08CFFE1
:1044B000002805D11BB000BDFFF708FFFFF706FF7E
:1044C000FFF704FF00700040FFE7FFFFF0B5A5B065
:1044D00000F01CFCFFF7ACFFFFF7F6FDFFF76AFEEC
:1044E000FFF7F6FEFFF720FFFFF78CFEFFF738FF20
:1044F000FFF752FFFFF76CFFFFF780FFFFF748FB66
:1045000020A82B4C0300250046CD46C32A681A601C
:10451000002102F08FFF274B18601CA80300220027
:10452000C2CAC2C32A681A60002102F083FF224B6C
:10453000186015A802002300103362CB62C262CB60
:1045400062C21B681360002102F036FF1B4B18602B
:104550000EA8020023002C3362CB62C262CB62C27F
:104560001B681360002102F027FF154B186007A895
:1045700002002300483362CB62C262CB62C21B6876
:104580001360002102F018FF0E4B1860684603000C
:10459000643426CC26C326CC26C322681A600021A8
:1045A00002F00AFF084B186002F001FFFEE7C04668
:1045B000A8AC0008C044002090430020184400200C
:1045C00040410020984200206843002070B5134805
:1045D00004F03EFC124C03220021200003F057FFA0
:1045E000FF23A370002415E080263602A025ED05E8
:1045F00000223100280000F036FE192000F0ACFB4C
:1046000001223100280000F02EFE192000F0A4FB4A
:104610000134E4B2092CE7D970BDC046D0BB000814
:10462000B004002010B5084B1B7883420AD0064B1B
:10463000187042424241D2B280210902A020C00536
:1046400000F011FE10BDC046B0040020F8B5040013
:104650000100184804F082FB174B9B789C4227D03E
:10466000154B9C70012722007A4001263240A0257C
:10467000ED0580210901280000F0F5FD62087A406F
:10468000324080214901280000F0EDFDA2087A4067
:1046900032400A4D80214901280000F0E4FDE40881
:1046A0007C403200224080210902280000F0DBFD1E
:1046B000F8BDC046E0BB0008B00400200004005074
:1046C00010B504000100064804F048FB013C6242BA
:1046D0006241D2B280218901024800F0C4FD10BDC0
:1046E000FCBB00080008005070B580256D00A024B8
:1046F000E40500222900200000F0B5FD192000F09B
:104700002BFB01222900200000F0ADFD70BD000050
:1047100010B504000100064804F020FB013C624291
:104720006241D2B280218901024800F09CFD10BD97
:1047300018BC00080004005010B504000100064831
:1047400004F00CFB013C62426241D2B28021C901FB
:10475000024800F088FD10BD34BC00080004005081
:1047600010B502002021024800F07DFD10BDC046BA
:104770000004005010B54021044800F06DFD0028F1
:1047800001D1002010BD0120FCE7C046000400500C
:1047900010B5084B5A6B01210A435A63996B80226A
:1047A00052050A439A63022000220321404200F08E
:1047B000E5FA10BD0010024010B586B004001422C6
:1047C000002101A803F063FE2268104B9A4201D039
:1047D00006B010BD0E4CE26A02231A43E262E26A9E
:1047E00013400093009BC0239B000193122302936C
:1047F0000F3B04930133059301A9064800F060FCC8
:10480000A26B80239B031343A363E1E700540040A2
:1048100000100240000400500268054B9A4200D08C
:104820007047044A116D8023DB020B431365F7E7E1
:10483000002800400010024030B589B00400142266
:10484000002103A803F023FE2368534A934207D0B4
:10485000524A934239D0524A93426AD009B030BD8D
:10486000504B596B8022D2010A435A63D96A012204
:104870001143D962DB6A1A400092009BC023DB001F
:104880000393022304930325069502330793A02084
:1048900003A9C00500F014FC4348444B0360456085
:1048A00000238360C3608022026143618361603AB8
:1048B000C261036200F0D2FA002803D13A4B2367A9
:1048C0009C62CBE7FFF702FDF8E7364B996B80223D
:1048D00012030A439A63D96A01221143D962DB6A3F
:1048E0001A400192019B0323039302220492069330
:1048F00003330793A02003A9C00500F0E1FB2C4877
:104900002C4B03600C23436000238360C360802230
:10491000026143618361603AC261036200F09EFA02
:10492000002803D1224B23679C6297E7FFF7CEFC58
:10493000F8E71C4B996B802252030A439A63D96AA9
:1049400002221143D962DB6A13400293029B1823AF
:1049500003930492153B06930333079303A9164868
:1049600000F0AEFB1548164B03600D234360002397
:104970008360C3608022026143618361603AC261E7
:10498000036200F06BFA002803D10C4B23679C6292
:1049900064E7FFF79BFCF8E700380140004C00405B
:1049A00000500040001002409C42002030000240B5
:1049B000CC4100201C000240000400504441002073
:1049C0006C000240FEE7FEE710B500F0B3F903F01B
:1049D00091F9012801D003F06DFA10BD10B502481D
:1049E00000F00EFB10BDC0461C44002010B503486B
:1049F00000F006FB024800F003FB10BDCC41002094
:104A00009C42002010B5024800F0FAFA10BDC046E2
:104A1000444100207047000010B5024801F03CFFFF
:104A200010BDC046E442002010B5034801F034FF39
:104A3000024801F031FF10BD9443002014420020D1
:104A400010B50368134A934206D0134A93420DD01F
:104A5000124A934214D010BD114C200001F07EFE8A
:104A600001221049200002F05DFCF4E70E4C20000A
:104A700001F074FE01220D49200002F053FCEAE728
:104A80000B4C200001F06AFE01220A49200002F0CE
:104A900049FCE0E700380140004C00400050004075
:104AA000E44200201112002094430020311F002016
:104AB00014420020512C002070B50368284A93420C
:104AC00006D0284A934217D0274A93422ED070BD71
:104AD00002F08CFF2549264BC85026480A5A531C21
:104AE0004C798A1894719B059B0D0B52053101225C
:104AF000214802F017FCEAE702F078FF1B491F4B40
:104B0000C8501F480B5A5A1C1E4C0C5DCB181E4D2A
:104B1000AC4663441C7093059B0D0B52194B9C468D
:104B200061440122194802F0FDFBD0E702F05EFF6C
:104B30000E49174BC85017480B5A5A1C164C0C5D9F
:104B4000CB18164DAC4663441C7093059B0D0B525D
:104B5000114B9C4661440122114802F0E3FBB6E789
:104B600000380140004C0040005000400C12002072
:104B7000140800000C040000E4420020341500007A
:104B80002C110000250D0000260D0000944300208C
:104B9000542200004C1E0000451A0000461A000076
:104BA0001442002010B503680A4A934206D00A4A0C
:104BB000934207D0094A934208D010BD084804F038
:104BC00047F9FAE7074804F043F9F6E7064804F026
:104BD0003FF9F2E700380140004C0040005000402F
:104BE0004CBC000874BC00089CBC0008F8B5244804
:104BF00004F02EF9234C244A0021200003F047FC46
:104C0000224F2760224ED2231B01E650214DD22392
:104C10005B01E550012323711F4AA3541F4AA3548B
:104C2000611D0122380002F07DFB1D4BE1180122BD
:104C3000300002F077FB1B4BE1180122280002F044
:104C400071FB39680B68202213430B6031680B68D5
:104C500013430B6029680B6813430B600022052186
:104C60001B2000F08BF81B2000F0B8F80022052173
:104C70000E2000F083F80E2000F0B0F8F8BDC0461A
:104C800030BD00080C12002064290000E44200201E
:104C90009443002014420020240D0000441A000018
:104CA000250D0000451A000010B5C3001B1A18019D
:104CB000C01A430102481858642302F0F3F910BDEA
:104CC0000C12002010B504000E4B1978FA20800059
:104CD000FBF71AFA01000C4B1868FBF715FA00F005
:104CE00089F800280CD1032C01D9012009E0002209
:104CF0002100013800F042F8024B5C60002000E027
:104D0000012010BD040000200000002010B5084A5A
:104D1000136840210B4313600320FFF7D3FF041EE9
:104D200002D00124200010BDFFF732FDFAE7C04693
:104D300000200240034A1168034B1B785B18136084
:104D40007047C046C444002004000020014B18688E
:104D50007047C046C444002070B50400FFF7F6FF5A
:104D60000500631C02D0044B1B78E418FFF7EEFF2C
:104D7000401B8442FAD870BD0400002070B50028A2
:104D800011DB8208134DC03292005459032318409E
:104D9000C000FC331E008640B44389010B408340B1
:104DA0002343535170BDC0B20F220240083A92080B
:104DB00006329200084BD3185D6803242040C000DF
:104DC000FF2214008440A5438901114081402943FA
:104DD0005960E7E700E100E000ED00E0002805DBB6
:104DE0001F2318401E3B8340014A13607047C04692
:104DF00000E100E001380A4B98420FD8094A5060A0
:104E00000948036A1B021B0AC02109060B430362FF
:104E10000023936007331360002070470120FCE7F4
:104E2000FFFFFF0010E000E000ED00E070B5066C51
:104E30001C25446C25400124AC4074600468636008
:104E40008368102B04D0036899600368DA6070BD32
:104E500003689A600368D960F9E7000070B5041E22
:104E60003DD005681F4BE8181421FBF74DF9800071
:104E700060641D4B236402222523E2542B681B4AE5
:104E80001A40A368E1680B4321690B4361690B4336
:104E9000A1690B43E1690B43216A0B4313432B6068
:104EA0008023DB01A2689A4210D0114B19681C22A2
:104EB000656C15400F20A840814319601968606C2B
:104EC00002406068904002000A431A600023E363D6
:104ED00001212522A154013AA354002070BD0120D4
:104EE000FCE7C046F8FFFDBF000002400F80FFFF57
:104EF000A800024070B504002420205C012832D0B4
:104F00000125242025540130205C012804D00022F2
:104F10002423E254022070BD0135243025540020A2
:104F2000E063256828680126B04328602000FFF769
:104F30007DFF236B002B0BD0226813680E210B43DF
:104F400013602268136801210B4313600020E2E71D
:104F50002268136804218B431360226813680631AA
:104F60000B431360EDE70220D5E710B52523C35CA2
:104F7000022B06D00423C36300222033C254012035
:104F800010BD026813680E218B43136001680A6824
:104F900001239A430A60016C1C22446C22401C00CD
:104FA00094404C602522835400222333C2540020B5
:104FB000E6E710B52523C35C022B03D00423C363AB
:104FC000012010BD026813680E218B431360016835
:104FD0000A6801239A430A60016C1C22446C224037
:104FE0001C0094404C602522835400222333C25479
:104FF000836B002B02D098470020E2E70020E0E717
:1050000070B5036C1968046825681C23426C134052
:1050100004229A400A4214D06A0712D523689B06DC
:1050200003D42368042293432360016C1C22436C45
:105030001A40042393404B60036B002B00D0984729
:1050400070BD02229A400A421AD0AA0718D52368D6
:105050009B0606D423680A2293432360093A25233A
:10506000C254016C1C22436C1A40022393404B60D3
:1050700000222423C254C36A002BE1D09847DFE703
:1050800008229A400A42DBD02B07D9D523680E228A
:1050900093432360016C0E32436C1A4001231C00C1
:1050A00094404C60C3632522835400222333C254AE
:1050B000436B002BC4D09847C2E7C06B7047000019
:1050C000F0B5002357E085685F000326BE40B54376
:1050D000CE68BE40354385604568A5432C004D68C9
:1050E0002E09012535409D402C43446051E0DC08E9
:1050F0000834A400265807251D40AD000F27AF40F7
:10510000BE430F69AF403D003543255054E00527AD
:1051100000E00027AF403D0035430234A400464E76
:10512000A551464C2568D44326002E404F68FF0306
:1051300001D515432E00414D2E606D682E0026408E
:105140004F68BF0301D515432E003C4D6E60AD681E
:105150002E0026404F68FF0201D515432E00374D23
:10516000AE60ED682C404E68B60201D52A431400AB
:10517000324AD46001330A681400DC405AD001245A
:105180009C402240F6D003254E683540013D012D5C
:1051900099D903244D682C40032C08D0C4685E00C4
:1051A0000325B540AC438D68B5402C43C46003244F
:1051B0004D682C40022C9AD005685E00032427001D
:1051C000B740BD434F683C40B4402C430460C0240A
:1051D000A4024D682542CDD0194D6C6B0126344395
:1051E0006C639C08A51CAD00134EAE5903271F40ED
:1051F000BD000F27AF40BE43A027FF05B84288D0AF
:10520000104FB8420ED0104FB8420DD00F4FB842D9
:105210000CD00F4FB8420BD00E4FB84200D176E7FA
:10522000062777E7012775E7022773E7032771E76A
:1052300004276FE7F0BDC0460000014000040140B4
:10524000001002400004005000080050000C005004
:1052500000100050001C005003690B4201D10020D7
:1052600070470120FCE7002A01D18162704781610B
:10527000FCE703689A69920701D500229A620368E5
:105280009A69D20703D49A6901210A439A61704747
:10529000F0B5059C05686868660D8027FF003740FB
:1052A000054E3E43B0438905890D120411430B435B
:1052B000234303436B60F0BDFF63FF0370B504003D
:1052C0000E00150003689A69D2063BD55A68920110
:1052D00004D459688022D2010A435A6023689A692B
:1052E000920615D4731CF9D0FFF730FD401B86429F
:1052F00001D3002EF2D1636C202213436364412357
:10530000E25400232232A354023AA354012018E0AD
:105310001022DA6123682025DD612000FFF7A9FF54
:105320002268536808490B405360636C042213439E
:1053300063644123E55400233E32A354023AA3544C
:10534000012070BD0020FCE700E800FE70B50400FD
:105350000D00160023689B699B071CD432002900AE
:105360002000FFF7ABFF002817D16B1CF2D0FFF72E
:10537000EDFC801B854201D3002DEBD1636C202214
:10538000134363644123E25400232232A354023ABC
:10539000A354012000E0002070BD0120FCE7F8B517
:1053A00005000F0016001C002B689B693A009A4309
:1053B00013005A425341B34216D1631CF4D0FFF795
:1053C000C5FC069BC01A844201D3002CECD16B6C47
:1053D000202213436B644123EA5400232232AB544E
:1053E000023AAB54012000E00020F8BD70B582B055
:1053F000040015001E00DAB2184B009380235B04F2
:10540000FFF746FF079A06992000FFF79FFF002845
:105410001ED1012E0DD023682A0A9A62079A069996
:105420002000FFF793FF002815D12368EDB29D629D
:1054300002E02368EDB29D62079B0093069B002269
:1054400080212000FFF7ABFF002802D0012000E000
:10545000012002B070BD0120FBE7C04600200080A3
:1054600070B582B0040015001E00DAB2174B00932D
:105470000023FFF70DFF079A06992000FFF766FF4C
:1054800000281ED1012E0DD023682A0A9A62079A9D
:1054900006992000FFF75AFF002815D12368EDB2C6
:1054A0009D6202E02368EDB29D62079B0093069B1C
:1054B000002240212000FFF772FF002802D00120C7
:1054C00000E0012002B070BD0120FBE70020008059
:1054D00070B505000C0016002B689B699B061AD45A
:1054E000320021002800FFF7E9FE002815D1FFF760
:1054F0002DFC801B844201D3002CEDD16B6C20224B
:1055000013436B644123EA5400232232AB54023A22
:10551000AB54012070BD0020FCE70120FAE7000039
:1055200010B5041E59D04123C35C002B43D0242264
:105530004123E2542268136801218B4313602268DF
:10554000274B61680B4013612268936825490B4023
:105550009360E368012B34D0226884231B02A16886
:105560000B439360E368022B32D0226851681E4BD4
:105570000B4353602268D3681A490B40D3602168FB
:10558000236962691343A26912021343CB60226844
:10559000E369216A0B4313602268136801210B43FE
:1055A0001360002363641F314122A154236301323D
:1055B000A354002010BD00224033C254FFF7FCF872
:1055C000B5E7226880231B02A1680B439360C9E7FB
:1055D0002368802212015A60C7E70120EAE7C0462B
:1055E000FFFFFFF0FF7FFFFF00800002F0B587B0F4
:1055F00007000C00039204930CAB40CB1D884123A1
:10560000C35C202B02D0022007B0F0BD002E07D0D3
:10561000002D05D04023C35C012B06D10220F3E707
:1056200080239B007B640120EEE701224023C254CB
:10563000FFF78CFB059000901923012280210902BD
:105640003800FFF7ACFE002801D00120DCE7212262
:105650004123FA541F320133FA5400237B647E62E3
:105660007D857B63059B01930E9B0093049B039AAE
:1056700021003800FFF7BAFE00280FD17B8D9BB2C6
:10568000FF2B10D9FF233B850023009380235B046D
:10569000FF2221003800FFF7FBFD21E0002240231C
:1056A000FA540120B0E77A8D92B23A85D2B2002343
:1056B000009380239B0421003800FFF7E9FD0FE0F1
:1056C0007A8D92B23A85D2B20023009380239B0454
:1056D00021003800FFF7DCFD7B8D9BB2002B35D01D
:1056E000059A0E993800FFF731FE002845D13B6836
:1056F0007A6A12789A627B6A01337B627B8D013B06
:105700009BB27B853B8D013B9BB23B857A8D92B2F0
:10571000002AE1D0002BDFD1059B00930E9B0022D5
:1057200080213800FFF73BFE002828D17B8D9BB2FB
:10573000FF2BC5D9FF233B850023009380235B0407
:10574000FF2221003800FFF7A3FDC5E7059A0E9957
:105750003800FFF7BDFE002813D13B682022DA6134
:1057600039684B68084C23404B604123FA540023AE
:105770002232BB54023ABB5446E7012044E70120E1
:1057800042E7012040E7C04600E800FEF0B5D646FB
:1057900000B584B007000C00029203930AAB40CB23
:1057A0001D884123C35C202B04D0022004B004BC1C
:1057B0009246F0BD002E07D0002D05D04023C35CDB
:1057C000012B06D10220F1E780239B007B6401209E
:1057D000ECE701224023C254FFF7B8FA824600905A
:1057E00019230122802109023800FFF7D8FD002883
:1057F00001D00120DAE722224123FA541E3201337C
:10580000FA5400237B647E627D857B63534601935B
:105810000C9B0093039B029A21003800FFF720FEA7
:1058200000280FD17B8D9BB2FF2B10D9FF233B8526
:10583000404B009380235B04FF2221003800FFF7D8
:1058400027FD21E000224023FA540120AEE77A8DA3
:1058500092B23A85D2B2374B009380239B04210049
:105860003800FFF715FD0FE07A8D92B23A85D2B27B
:105870000023009380239B0421003800FFF708FDDC
:105880007B8D9BB2002B38D0534600930C9B00229B
:1058900004213800FFF783FD002845D13B685B6A8F
:1058A0007A6A13707B6A01337B623B8D013B9BB24A
:1058B0003B857A8D013A92B27A857A8D92B2002A2E
:1058C000DED0002BDCD1534600930C9B00228021BC
:1058D0003800FFF764FD002828D17B8D9BB2FF2B99
:1058E000C2D9FF233B850023009380235B04FF2262
:1058F00021003800FFF7CCFCC2E752460C99380073
:10590000FFF7E6FD002813D13B682022DA613968F1
:105910004B68094C23404B604123FA540023223248
:10592000BB54023ABB5441E701203FE701203DE769
:1059300001203BE70024008000E800FEF0B587B0BE
:1059400006000C0003921F00002305934133C35C43
:10595000202B02D0022007B0F0BD03689B691B0416
:1059600001D50220F7E74023C35C012B00D198E06A
:1059700001224023C25423320133C2540023436422
:105980003168F368012B16D0A205920DA0239B016C
:1059900013434B60FFF7DAF9050032689169202361
:1059A0000B40591E8B41D9B2936910221A40531EE5
:1059B0009A41D3B211E0A205920D3E4B1343E8E7A2
:1059C0003268916920230B40591E8B41D9B29269EC
:1059D000102313405A1E9341DBB20B4313D17B1C9F
:1059E000EED0FFF7B3F9401B874201D3002FE7D178
:1059F00020224123F254736C13437364002240232A
:105A0000F2540120A7E733689B69DB0624D5009593
:105A10003B00002220213000FFF7C1FC002844D1C8
:105A200033681022DA6133681032DA61059B039A19
:105A3000934223D0059B01330593059B039A9A4219
:105A40009ED820234122B354726C13437364002206
:105A50004023F25401207EE700953B0000222021E4
:105A60003000FFF79CFC00281DD132682023D36151
:105A70004122B35400222033F2546CE7326851685B
:105A80008023DB010B43536000953B000022202163
:105A90003000FFF784FC002809D133682022DA6146
:105AA000C8E7022057E7012055E7012053E701200E
:105AB00051E7C04600200002F0B54123C35C202B13
:105AC00001D00220F0BD2033C35C012B1CD0402448
:105AD0000122025541252423435506683368934328
