:020000040800F2
:100000000050002091940008DD4E0008DF4E0008EB
:1000100000000000000000000000000000000000E0
:10002000000000000000000000000000C99100086E
:10003000000000000000000071920008E14E00087E
:10004000E1940008E1940008E1940008E1940008BC
:10005000E1940008E1940008E1940008E1940008AC
:1000600000000000F54E0008054F00081D4F000875
:10007000E1940008E19400089D4F0008E194000815
:10008000E1940008E1940008E194000800000000F9
:10009000E1940008E1940008E1940008E19400086C
:1000A000E1940008E1940008E19400088D4F0008F5
:1000B000E1940008E1940008000000000000000046
:1000C00010B5064C2378002B07D1054B002B02D02E
:1000D000044800E000BF0123237010BDE8010020A8
:1000E0000000000078C50008044B10B5002B03D0B9
:1000F0000349044800E000BF10BDC04600000000F6
:10010000EC01002078C50008002243088B4274D31C
:1001100003098B425FD3030A8B4244D3030B8B4208
:1001200028D3030C8B420DD3FF22090212BA030C11
:100130008B4202D31212090265D0030B8B4219D3F2
:1001400000E0090AC30B8B4201D3CB03C01A524112
:10015000830B8B4201D38B03C01A5241430B8B425A
:1001600001D34B03C01A5241030B8B4201D30B0343
:10017000C01A5241C30A8B4201D3CB02C01A52416A
:10018000830A8B4201D38B02C01A5241430A8B422D
:1001900001D34B02C01A5241030A8B4201D30B0216
:1001A000C01A5241CDD2C3098B4201D3CB01C01A30
:1001B000524183098B4201D38B01C01A524143093A
:1001C0008B4201D34B01C01A524103098B4201D328
:1001D0000B01C01A5241C3088B4201D3CB00C01A95
:1001E000524183088B4201D38B00C01A524143080D
:1001F0008B4201D34B00C01A5241411A00D2014632
:10020000524110467047FFE701B5002000F0F0F8BA
:1002100002BDC0460029F7D076E7704703460B437E
:100220007FD4002243088B4274D303098B425FD3EF
:10023000030A8B4244D3030B8B4228D3030C8B421B
:100240000DD3FF22090212BA030C8B4202D3121201
:10025000090265D0030B8B4219D300E0090AC30BD6
:100260008B4201D3CB03C01A5241830B8B4201D383
:100270008B03C01A5241430B8B4201D34B03C01A6C
:100280005241030B8B4201D30B03C01A5241C30AE4
:100290008B4201D3CB02C01A5241830A8B4201D355
:1002A0008B02C01A5241430A8B4201D34B02C01A3F
:1002B0005241030A8B4201D30B02C01A5241CDD2E4
:1002C000C3098B4201D3CB01C01A524183098B422F
:1002D00001D38B01C01A524143098B4201D34B0118
:1002E000C01A524103098B4201D30B01C01A52417B
:1002F000C3088B4201D3CB00C01A524183088B4202
:1003000001D38B00C01A524143088B4201D34B00EA
:10031000C01A5241411A00D201465241104670475C
:100320005DE0CA0F00D04942031000D34042534061
:1003300000229C4603098B422DD3030A8B4212D321
:10034000FC22890112BA030A8B420CD38901921153
:100350008B4208D3890192118B4204D389013AD090
:10036000921100E08909C3098B4201D3CB01C01A65
:10037000524183098B4201D38B01C01A5241430978
:100380008B4201D34B01C01A524103098B4201D366
:100390000B01C01A5241C3088B4201D3CB00C01AD3
:1003A000524183088B4201D38B00C01A5241D9D2EB
:1003B00043088B4201D34B00C01A5241411A00D26C
:1003C0000146634652415B10104601D34042002B68
:1003D00000D54942704763465B1000D3404201B5E7
:1003E000002000F005F802BD0029F8D016E770479C
:1003F0007047C0468446081C6146FFE71FB500F001
:10040000E1FC002801D40021C8421FBD10B500F056
:1004100063FC4042013010BD10B500F0D3FC002851
:1004200001DB002010BD012010BDC04610B500F05A
:10043000C9FC002801DD002010BD012010BDC04610
:1004400010B500F071FC002801DC002010BD012077
:1004500010BDC04610B500F067FC002801DA00208E
:1004600010BD012010BDC046002B11D1002A0FD1B4
:10047000002900D1002802D00021C943081C07B47C
:10048000024802A14018029003BDC04665FFFFFF6D
:1004900003B4684601B5029800F0B0F8019B9E468F
:1004A00002B00CBC7047C046F0B5CE4647461504B6
:1004B0002D0C2E0080B50704140C3F0C9946030C3C
:1004C0007E435D43674363437F19340CE4199C46C4
:1004D000A54203D980235B029846C4444B4643435C
:1004E0005143250C36046544360C2404A4195B19C9
:1004F000591820000CBC90469946F0BD9E2110B5BD
:10050000C905041CFFF7A6FF002803D1201C00F03A
:10051000B5FF10BD9E21201CC90500F0D5FD00F0DF
:10052000ADFF80231B069C466044F2E710B5002116
:10053000041CFFF771FF002803D1201C00F00CF809
:1005400010BD80231B06E01800F006F802000B0027
:10055000002150429941F3E770B502F07DFC002282
:100560000B4B0D00040001F051FE02F075FD06007A
:1005700002F040FC0022074B01F048FE02000B0095
:100580002000290002F0B4F802F066FD310070BDD1
:100590000000F03D0000F041D0B5012602000B0044
:1005A000134F7642B6185F4104001248874219D9AA
:1005B000520504D08023E40AE4021B011C43080016
:1005C00002F0DEFB00220C4B01F020FE06000F00C3
:1005D000200002F00FFC32003B0000F0F9FF02F0B7
:1005E0008DFCD0BD8742EAD1B01CE1D8E7E7C04618
:1005F000FFFF1F00FFFF3F000000F041F0B54F4636
:100600004646D646C0B5040082B00D0091469846D5
:100610008B422FD82CD04146484602F011FD2900CC
:100620000600200002F00CFD331A9C46203B9A463F
:1006300000D576E04B46524693401F004B4662463B
:1006400093401E00AF4228D825D05346A41BBD417D
:10065000002B00DA7BE000220023009201930123AB
:10066000524693400193012362469340009318E061
:100670008242D0D900220023009201930A9B002BD2
:1006800001D01C605D600098019902B01CBC9046CE
:100690009946A246F0BDA342D7D90022002300927A
:1006A00001936346002BE9D0FB0798464146720848
:1006B0000A437B0866460EE0AB4201D1A2420CD849
:1006C000A41A9D41012024196D410021013E2418E6
:1006D0004D41002E06D0AB42EED9013E24196D41AA
:1006E000002EF8D100980199534600196941002B5A
:1006F00023DB2B005246D3402A006446E2401C0014
:1007000053461500002B2DDB26005746BE40330014
:1007100026006746BE403200801A99410090019140
:10072000ACE7624620239B1A4A46DA406146130032
:1007300042468A4017001F4380E7624620239B1AE7
:100740002A0066469A402300F3401343D4E76246EA
:10075000202300219B1A0022009101920122DA40FD
:10076000019280E72023624626009B1ADE402F007C
:10077000B0466646B74046463B003343C8E7C046EE
:10078000F8B54746CE4643025B0A4400C20F9C467A
:100790004800DD004B02240E5B0A000E80B598462F
:1007A00026009146C90FDB00271A8A4229D0002F64
:1007B00015DD00284AD1002B00D095E0ED08FF2C74
:1007C00000D188E06B025B0AE6B25B02F605580ACC
:1007D0003043D20710430CBC90469946F8BD002F19
:1007E00000D087E0601CC0B2012800DCB6E0EE1A41
:1007F000720100D5C5E0002E3DD100220026002365
:10080000E3E7002F00DC96E000285DD0FF2C60D0ED
:100810008022D20413431B2F00DDECE02022D21BE8
:1008200018009340F8405A1E93410343ED186B01A2
:100830007BD50134FF2C00D1B7E0012207262A40E6
:100840006B089A4D1D4015432E4029E0FF2CB5D072
:100850008022D20413431B2F00DDB2E02022D21BE2
:1008600019009340F9405A1E93410B43ED1A6B0156
:100870005BD5AD01AE09300002F0C4FB05388640FF
:10088000844265DC041B330020200134E340041B58
:10089000A640751EAE41334307261D0000241E40AE
:1008A00001224B461A40002E04D00F232B40042B6C
:1008B00000D004356B0100D480E70134E6B2FF2C90
:1008C0002FD1FF26002380E7002B52D1FF2C00D030
:1008D00074E70A00ED08002DF3D08023DB032B43DF
:1008E0005B025B0AFF2670E7013F002FBED0FF2CA2
:1008F000B1D163E7002C47D0FF2869D08024E404FD
:100900007A4225431B2A00DDC5E02C002026D44076
:10091000B21A95406A1E954125435D1B0400894625
:10092000A5E7AB015B0A50E7002401224B461A40C1
:100930006B07BAD142E7002F3BD10134E0B2012866
:100940004ADDFF2CBDD00726ED186D082E40A7E725
:100950000723574D241A35401E40A1E7002C1BD118
:10096000002D6ED1002B00D19AE00A001D003C0042
:1009700024E7013F002F00D158E7FF2C00D04AE7C1
:10098000A7E75E1B894676E7002D1CD10A00FF28E9
:100990001FD004001D0011E7002D5DD1002B17D1E1
:1009A00080230022DB03FF260FE70A00FF26002337
:1009B0000BE7002C21D1002D66D1FF28E9D11D00C5
:1009C00087E7012352E77A1CA7D0FA43FF2899D181
:1009D0000A001D00FF24F1E6002E21D1002D4FD08A
:1009E000002B4CD0ED186B019ED5314B07362E40B5
:1009F00001241D4054E7012318E7FF28DFD080249D
:100A0000E4047F4225431B2F4DDC2026F61B2C00DF
:100A1000B540FC406A1E95412543ED18040006E7E9
:100A2000002DCCD0002B00D153E780216046C903B4
:100A3000084203D04046084200D11D000121114068
:100A400047E7002B00D1B9E6EA1A500125D5072661
:100A50005D1B2E40894623E7FF24002B00D1ADE625
:100A600080226046D203104204D04046104201D199
:100A70001D00894601224B46FF241A409EE62B00AA
:100A8000DD080A0000249DE67A1CC6D0FF43FF283B
:100A9000B9D11D001DE701253FE7151E00D044E731
:100AA0000022002391E60125B7E7C046FFFFFF7D46
:100AB000FFFFFFFBF8B557464E464546DE4644026B
:100AC000E0B546008846640A360EC70F002E63D094
:100AD000FF2E24D08023E400DB041C43002399462E
:100AE0009B467F3E434642465D02D20F5B006D0A45
:100AF0001B0E9046924665D0FF2B55D080220021D8
:100B0000ED00D2047F3B1543F61A43464A467B402C
:100B10000F2A00D98DE06D48920082589746002C2C
:100B200054D108239946063BFF269B46DAE7002569
:100B3000534602291BD0032900D1BFE0012928D048
:100B400030007F30002820DD6A0704D00F222A40C1
:100B5000042A00D004352A0103D530005C4A8030D5
:100B60001540FE2803DCAC01640AC2B201E0FF229A
:100B700000246402D205600ADB07104318433CBC22
:100B800090469946A246AB46F8BD0122101A1B2892
:100B90007CDD00220024ECE7002C1DD104239946C3
:100BA000033B00269B469DE7FF3E002D20D10221FE
:100BB00043464A467B400A430F2AD8D8454892000C
:100BC00082589746002D19D10121F1E70C2399464F
:100BD000093BFF269B4685E7200002F013FA7626A4
:100BE000431F9C4000237642361A99469B4679E77C
:100BF0004A4603231A439146032186E7280002F060
:100C000001FA431F36189D40763600217DE7802487
:100C10000023E403FF22ACE700258023DB031C4212
:100C200028D01D4226D12B435C02640A4346FF2292
:100C30009FE762016C01A24224D21B210025013EE4
:100C4000012710006D005200002801DB944201D8FA
:100C5000121B3D4301390029F3D11400621E944157
:100C600025436DE7BA46594625005346022900D070
:100C700061E77CE78023DB031C436402640A3B00DA
:100C8000FF2276E7121B1A210125D9E79E362A009A
:100C9000B5402C00C240651EAC411443620704D02D
:100CA0000F222240042A00D00434620103D4A4019C
:100CB000640A00225DE7012200245AE78024E4034D
:100CC0002C436402640AFF2253E7C04668CC000844
:100CD000FFFFFFF7A8CC000870B542004E024C00A1
:100CE00045026D0A120EC30F760A240EC90FFF2AA1
:100CF0000FD0FF2C11D00120A24200D070BDB54210
:100D0000FCD18B420DD0002AF8D12800451EA84105
:100D1000F4E70120002DF1D1EBE70120002EEDD109
:100D2000E9E70020EAE7C04670B54A004E024502F6
:100D300044006D0A240EC30F760A120EC90FFF2C51
:100D400015D0FF2A0ED0002C15D1002A01D1002E7B
:100D50001CD0002D14D08B4227D00220013B18401C
:100D6000013870BD002EEED002204042F9E7002D80
:100D7000FAD1FF2A0ED0002A0ED1002EEDD00BE0C2
:100D800001230139994308000130EAE70020002DD2
:100D9000E7D0E2E7002EE7D18B42DED1944205DDB9
:100DA0000221581E08400138DBE70024A24204DC7F
:100DB000B542D2D80020B542D3D2581E0123984361
:100DC0000130CEE730B5420044024D02C30F480067
:100DD000640A120E6D0A000EC90FFF2A12D0FF28F6
:100DE0000CD0002A12D1002819D1002D17D1002CC7
:100DF0002BD00220013B1840013826E0002DF0D016
:100E0000022022E0002CFBD1FF281FD000281FD198
:100E1000002D1DD10220013B1840013815E0002CA7
:100E20000ED08B42E5D10022904204DCAC42E0D8E7
:100E30000020AC4209D2581E01239843013004E03F
:100E40000123013999430800013030BD002DD7D16D
:100E50008B42CED18242E7DD0221581E0840013884
:100E6000F3E7C046F0B54E4657464546DE46E0B588
:100E700043025B0A450083B00F1C99462D0EC60F36
:100E8000002D57D0FF2D24D08020DB00C004184354
:100E9000002381469A469B467F3D7C027A00FB0FE9
:100EA000640A120E984623D0FF2A4BD0E300802418
:100EB0000020E4047F3A1C43AD186B1C47460193A5
:100EC000534677403A000F2B48D87D499B00CB58BA
:100ED0009F46002B00D085E008339A46063B9B4690
:100EE0007C027A00FB0FFF25640A120E9846DBD1C4
:100EF000002C00D090E0524601231A439246012074
:100F0000DBE74C4658461700022824D0032800D1BE
:100F1000CFE00022002301284DD15802D205400A1B
:100F2000FF071043384303B03CBC90469946A246A5
:100F3000AB46F0BD002B5BD104239A46033B002552
:100F40009B46AAE7FF35002C60D1524602231A4384
:100F500092460220B1E7FF220023DEE74B461B0C3E
:100F60009C464B462604360C180461463300220C7E
:100F70006446000C43434E435043544380191A0CBB
:100F80001218964203D9802149028C4664441B04FE
:100F90001B0C1004C01883015E1EB341800E184361
:100FA000130C1B199B0103431C00230179D501235A
:100FB00062081C401443019A7F32002A4DDD63070A
:100FC00004D00F232340042B00D00434230103D585
:100FD0003C4B019A1C408032FE2ABCDCA3015B0A18
:100FE000D2B29AE70C239A46093BFF259B4654E769
:100FF000180002F007F84A46431F76259A4000235E
:101000006D4291462D1A9A469B4646E75246032367
:101010001A439246032050E7200001F0F3FF431FDC
:101020002D1A9C40763D002047E780230027DB03F4
:10103000FF2272E7424666E74C463200584662E7B6
:1010400080234A46DB031A4222D01C4220D123438C
:101050005B025B0A4746FF225FE701239A1A1B2ABD
:1010600021DC23000199D3409E318C401A002300DB
:101070005C1EA34113435A0704D00F221A40042ACE
:1010800000D004335A0111D49B015B0A002244E7CB
:1010900080234A46DB0313435B025B0A3700FF22CF
:1010A0003BE7019587E70022002336E70122002372
:1010B00033E78023DB0323435B025B0AFF222CE739
:1010C000E8CC0008FFFFFFF7F8B54746CE464400DE
:1010D000C20F80B547024802400A8446664648006F
:1010E0007F0A240EF60025009046FB00000EC90F73
:1010F000B146FF2800D185E001267140261A9142B1
:1011000057D0002E43DD002800D07FE0494600295B
:1011100000D1AAE0013E002E00D0F7E05B1A5A0190
:1011200000D48BE09B019C09200001F06BFF053887
:101130008440854200DDD3E0451B2300202001359B
:10114000EB40451BAC40621E94412343072400251D
:101150001C40012241460A40002C04D00F211940B6
:10116000042900D00433590100D480E00135ECB2E9
:10117000FF2D00D0A3E0FF2400235B02E405580A02
:10118000D207204310430CBC90469946F8BD002E70
:1011900074D1601CC0B2012800DCA7E04A469C1A4A
:1011A000620100D5B6E0002CBED10022002400234D
:1011B000E3E7002E00DC85E0002846D0FF2C49D074
:1011C00080224846D2041043814601221B2E09DCAE
:1011D00020204C46801B84404A462000F240441E9A
:1011E000A04102439B185A0128D50135FF2D00D19B
:1011F000A8E00122072494491A405B080B401343DE
:101200001C40A6E7002E00D078E775E7FF2C54D0ED
:1012100080224946D2041143894601221B2E09DC53
:1012200020214846891B88404A460100F240481E5A
:1012300081410A439B1A5A0100D573E701224146B6
:101240000A40590700D089E711E04846002858D1E4
:10125000FF2C0CD1DB08002B00D18CE78020C003D1
:1012600003435B025B0AFF2487E7FF2C25D0DB08E2
:10127000FF2DF0D05B025B0AECB27EE7002C4DD074
:10128000FF2818D08024E404724223431B2A00DD87
:10129000C4E01C002025D440AA1A93405A1E934152
:1012A00023434A460500D31A884638E7721CF8D013
:1012B000F243FF28EAD10A004B46FF25D7E79B01FE
:1012C0005B0A5AE7002E41D1651CE9B2012945DDD0
:1012D000FF2D00D14FE707244B445B081C4038E743
:1012E00007225A4B2D1A2340144032E7002C1DD1FF
:1012F000002B7AD14B46002B00D191E00A0000254B
:10130000B5E7013E002E19D14B446CE7FF2C84D188
:10131000FF25ACE74A468846D41A05E7002BC5D11D
:101320000A00FF28C8D005004B46A0E7002B49D192
:101330004B46002B77D00A00FF2598E7FF2C00D002
:1013400043E787E70A00FF24002316E7002C15D1A6
:10135000002B57D1FF28E6D14B467BE7002C20D14C
:10136000002B57D04946002953D04B445A0168D529
:101370000724364A1C4001251340EAE6FF28EBD03B
:101380008022D204764213431B2E53DC2025AD1B52
:101390001A00AB40F2405C1EA34113434B440500CE
:1013A00021E7002BD8D04946002900D152E78021FF
:1013B000C9030F4200D14DE76046084200D049E71B
:1013C0004B4647E74846FF25002800D14FE78022DB
:1013D000D203174204D06046104201D14B468846E2
:1013E00001224146FF250A4041E7484600281FD018
:1013F0001A1A500120D54A460724D31A1C408846A1
:101400000025A6E6741CC9D0F643FF28BCD14B4684
:1014100020E799464B460025DB082BE7012340E7F0
:1014200000220023A9E680230022DB03FF24A4E698
:1014300000251CE70123B1E7002AF1D013000025A5
:10144000FCE60025FAE6C046FFFFFF7DFFFFFFFB3D
:1014500042024B0240004900520A5B0A090E000E8C
:10146000FF2806D00020FF2902D11800431E984112
:101470007047FE38002AFBD1F4E7C0464102420023
:10148000C30F490A120E00207E2A0DD99D2A0CD8BE
:10149000802000040143952A0ADC9620821AD1405C
:1014A0004842002B00D108007047034A9818FBE718
:1014B000963A9140F4E7C046FFFFFF7F70B50028E1
:1014C0003DD0C317C5185D40C40F280001F09AFD38
:1014D0009E22121A962A07DCD2B2082833DD083879
:1014E00085406802400A23E0992A0BDD0523290084
:1014F0001B1AD94003001B339D402B005D1EAB41DE
:1015000019430D00052801DD431F9D402B000F49A5
:101510000B406E0709D00F263540042D05D004334B
:101520005D0102D59F220B40121A9B01580AD2B2CC
:101530004002D205400AE4071043204370BD002456
:1015400000220020F4E76802400AF1E7FFFFFFFBFA
:1015500070B5041E34D001F055FD9E22121A962A51
:1015600007DCD2B208282EDD083884406002400A29
:1015700021E0992A09DD030021001B3399404B1E0D
:10158000994105231B1ADC400C43052801DD431F4C
:101590009C4023000D490B40650709D00F252C40C6
:1015A000042C05D004335C0102D59F220B40121A93
:1015B0009B01580AD2B24002D205400A104370BDC6
:1015C00000220020F7E76002400AF4E7FFFFFFFB7C
:1015D000F0B54F464646D6460C000903C0B5490A49
:1015E000470F5E0039431F03DB0F9C4665007B0AF3
:1015F000570F1F436D0DE40F760DA146C000B8468E
:10160000D200AB1B64457BD0002B5FDD002E00D0E9
:10161000A4E03E00164300D112E15E1E002E00D071
:101620009EE1871A4346B84280410125C91A4042CB
:10163000091A0B0200D431E149024E0A002E00D1F2
:101640006EE1300001F0DEFC0300083B1F2B00DDE3
:1016500061E120223900D21A9E40D1409F400E43C2
:101660009D4200DD51E15D1B6B1C1F2B00DD7CE109
:101670002021C91A3D0030008F408840DD40791E8E
:101680008F41310007222843D940002507433A40C3
:10169000002A09D00F233B40042B05D03B1DBB4241
:1016A000BF417F42C9191F000B0200D426E26A1C09
:1016B000C64B55056D0D9A4200D106E1C44AFF089C
:1016C0000A40530752023B43120B8EE0002B00D01E
:1016D000B8E06B1C5B055B0D012B00DC30E1871A69
:1016E0004346B842B641CB1A76429E1B330200D520
:1016F0004CE13B003343A1D100220024002570E0DF
:10170000002B00DCE5E0002E00D183E0AF4EB542B7
:1017100060D0802636043743B846382B00DC3EE1E3
:10172000434613431F007A1E97413F18874280416A
:10173000404209180B0200D4B0E0A44B01359D4291
:1017400000D1C3E0A24A7B080A4001210F401F4399
:101750005108D30707221F433A4099E79B4EB542F1
:1017600038D0802636043743B846382B00DDDCE01D
:101770001F2B00DC30E11E004746203EF740BC46F0
:10178000202B04D04026F31A46469E4032431700D1
:1017900063467A1E97411F43CCE0002B00D104E240
:1017A0004346134300D159E14B07C0081843802337
:1017B000C9081B03194208D04546ED081D4204D153
:1017C0004346D008590708432900420FC9007F4DFE
:1017D0001143C0004B07CA087C49C00803438D422F
:1017E00068D012036D05120B6D0D00211203180055
:1017F000130B0A0D12051A43764B2D0513402B438C
:101800005B00E4075B08234319001CBC9046994623
:10181000A246F0BD3E00164312D05E1E002E00D040
:1018200000E1871887428041414440420918012560
:101830000B0233D5022585E764463300414610008C
:101840001D00C7E7002D00D0DAE00C000443F3D000
:101850005C1C00D19FE15D4CA64200D12FE1DB432F
:10186000382B00DD66E11F2B00DD83E1202405001D
:10187000E41A0F00DD40D940A0404346A7405B1A60
:10188000441EA04198462F433843171ABA4292414A
:1018900043465242991A64463500CAE607223A4046
:1018A000002A00D0F6E64B07CA084849FF083B4328
:1018B0008D4296D11900114300D19EE18021090388
:1018C0000A431203120B414D8FE71500002200233B
:1018D0008BE7002B00D0C7E06B1C5F057F0D012F4D
:1018E00000DCF1E0394DAB4200D1B9E085180A00C7
:1018F000854289414244494251180722CF076D0869
:101900002F4349083A401D00C2E607223049ED1A2C
:1019100031403A40BCE63E002838864000279FE62A
:10192000380001F06FFB20308EE6434613431F0062
:101930007A1E9741C71BB84280414042091A78E697
:101940000E003B0006431343002D61D1002E00D052
:10195000F4E0002B00D11BE164463900100039E7A8
:101960001A4FBB427AD03300FFE630001F3DE840FB
:10197000202B03D04021CB1A9E4037437B1E9F4132
:10198000072207433A400021002589E7171A4346FA
:10199000BA42B641591A76428E1B64464EE61F2B58
:1019A00000DDADE020264746F61AB740B9461700DD
:1019B000B246DF404E463E4337005646B240561EC2
:1019C000B24117434246DA408918AEE6FF070000ED
:1019D000FFFF7FFFFFFF0F8020264746F61AB74024
:1019E000B9461700B246DF404E463E4337005646E2
:1019F000B240561EB24117434246DA40891A99E76F
:101A00007F4CA6425BD0802424045B42214327E71D
:101A1000002E0CD1002B00D1CBE064463900100021
:101A2000774DD7E6764FBB4218D0330075E6002BD2
:101A300014D04B07C00818438023C9081B03194260
:101A400007D0FC081C4204D17907D0080843E146BE
:101A500021004C46420FC9001143C000684DB9E651
:101A60001D0000220023C0E6002D5BD10D000543C0
:101A700000D1E2E65D1C00D1B0E0614DAE421FD066
:101A8000DB43382B71DC1F2B00DD96E020250F0097
:101A9000ED1AAF40B9460700AA46DF404D463D4328
:101AA0002F005546A840D940451EA8418844074309
:101AB000BF18974292415142414435003AE664468C
:101AC00035004146100085E60B000343002D00D091
:101AD00063E6002BF5D04346134300D17AE687181E
:101AE0008742804107224144404209183A400B0294
:101AF00000D4D5E6434B01351940C9E5380069E605
:101B00001E004746203EF740BC46202B04D040260E
:101B1000F31A46469E403243170063467A1E9741A9
:101B20001F4302E6364DAE42CAD080252D045B42EB
:101B30002943A6E70843411E8841A6E6002B00D1B1
:101B400048E6871A4346B842B641CB1A76429E1BF6
:101B500033024BD5171A4346BA429241591A5242A0
:101B6000891A072264463A4092E501430F00791E24
:101B70008F419DE71C000F00203CE740202B03D045
:101B80004024E31A99400843411E884138437CE6CB
:101B90000022002425E6171A4346BA429241591AF8
:101BA0005242891A6446350043E541461000144DFF
:101BB00010E680220024120380E61D000F00203D65
:101BC000EF40BC46202B03D04025EB1A9940084338
:101BD00007006346781E87411F4369E787189742CD
:101BE0009B4141445B42C9183500A3E53B003343A8
:101BF000CED0072231003A4052E600231A00F4E525
:101C0000FF070000FFFF7FFFF0B55746DE464E4658
:101C10004546E0B5834607000E03480085B092466E
:101C20001C00360B400DCD0F002800D19DE0954BD8
:101C3000984239D08023F6001B041E43924A7B0F42
:101C400033439946944603006344009300230026DF
:101C5000FF00029323031B0B98466300E40F5246D8
:101C60005B0D019400D1B3E086498B4200D19EE028
:101C70004246D100802212040A435146490F1143C3
:101C80008B46814952468C4600996344CB1A002109
:101C9000D20000932B0063409A460F2E00D905E135
:101CA0007A4BB6009B599F465B463343994600D01A
:101CB000B8E002230826002700900293CAE7CB462B
:101CC0003A0002990195019B9A46022927D00329DF
:101CD00000D180E2012944D06D49009B8C466344C9
:101CE0001C00002C38DD530700D013E2D2085B46FD
:101CF000DB0109D55946674B19408B468021C90045
:101D00008C46009B63441C00634B9C4207DC5B4693
:101D100064055F075B0217431B0B620D02E00023A3
:101D20000027584A00211B031C0B0B0D1B052343E6
:101D300014055A4A380013401C4353466400DB071D
:101D400064081C43210005B03CBC90469946A2465D
:101D5000AB46F0BD0122524201231B1B382B00DC95
:101D6000ADE1002200230027DCE75B4633439946C0
:101D70005ED0002E00D18AE1300001F043F903006B
:101D80000B3B1C2B00DD7BE11D22D31A5A460100C0
:101D9000DA4008398E4013005F46334399468F403E
:101DA0003F4B00261B1A00930023029352E7414643
:101DB00053460B433B499B468C46009B6344009330
:101DC0005B46002B3BD1022300221E43022161E728
:101DD000434613439B4637D04346002B00D162E174
:101DE000404601F00FF903000B3B1C2B00DD53E1D3
:101DF00002004146083A914088461D21CB1A5146BF
:101E0000D9400B0041460B439B46534693401A0072
:101E1000009B25499C46604403008C466344009324
:101E2000002137E70323B14600900C26029311E707
:101E30000023009301330426002702930AE70323BB
:101E4000C3461E43032125E701331E43002201211F
:101E500020E700239A46802300271B03094A61E7F5
:101E6000802349461B03194200D1E2E0594619423A
:101E700000D0DEE00B431B0317001B0BA246014AF8
:101E800050E7C046FF07000001FCFFFF28CD000817
:101E9000FF030000FFFFFFFEFE070000FFFF0F80B3
:101EA0000DFCFFFF01F8FFFFF3030000D94500D947
:101EB000CBE000D1C6E03C0048460027009B013B38
:101EC00000935B46160E1B021E4313029846330412
:101ED0001B0C9946310C0191FEF79CF94A4642438E
:101EE0000B04210C050019438A4207D98919013DC9
:101EF0008E4203D88A4201D9851E8919881A019910
:101F0000FEF788F909048C464A4621046446424398
:101F1000090C030021438A4204D98919013B8E42EE
:101F200000D8F1E02D041D43AB464346891A4246D2
:101F3000280C12041D0C5B46140C22001B041B0C05
:101F40005A4303946B434443029568431B19150C91
:101F5000EB189C4203D980246402A44660441C0C04
:101F600015041B042D0C20185D19814277D373D002
:101F70000C1AA24A7D1BAF42BF419446009B7F4290
:101F80006344E01B1C00864200D1DBE00199FEF7B0
:101F900041F94A4642430B04290C070019438A427F
:101FA00007D98919013F8E4203D88A4201D9871E79
:101FB0008919881A0199FEF72DF909044A468946BC
:101FC00029044D464243090C030029438A4207D99C
:101FD0008919013B8E4203D88A4201D9831E89198F
:101FE0003F04891A3A00039F1A43380013041B0C5C
:101FF000584381460298150C6F4343434543484676
:10200000000C8446DB1963449F4203D980204002C0
:102010008446654448461F0C00041B04000C7D19CF
:102020001818A94200D284E000D17FE001231A43AE
:1020300057E680234A461B0313431B031B0BAA4688
:102040006F4A6FE6BA4200D935E74B46DC075808BD
:102050007B081C43FF0734E70024AF4289D2474482
:102060004745A4415B466442A4196418013BA6425B
:102070001ED2A0426DD800D1B6E0241A9B4678E764
:1020800003005A46283B9A400027914688E6584666
:1020900000F0B8FF203072E603005246283B9A4019
:1020A00093460022B4E6504600F0ACFF20309AE69A
:1020B000A642E2D1B845DCD9341A9B4659E71F2B1A
:1020C00065DC504C0099A4465C46614408008C4095
:1020D00011008240D940501E82410C4314435A469D
:1020E000DA401300620709D00F222240042A05D0EB
:1020F0002200141D9442894149425B181A0262D59C
:102100000122002300270DE68A4200D80AE7831E39
:10211000891907E70F231340042B00D1E6E5171DAB
:102120009742924153429B44FA08E0E5002800D1CF
:10213000D7E57118531EB14227D3A94215D358D001
:102140001A0073E7002B00DC04E6012300229B4405
:10215000CDE502234744474589415B429C464942BD
:1021600089190C19E344241A03E743465F004745E5
:102170009B41B8465B429E19023A8919A94200D098
:1021800054E7404500D051E7ABE51A00F6E71F21C0
:102190005F4649420C1BE740202B07D01A49009BA1
:1021A0008C46634418005B4683401A43501E8241AC
:1021B0003A4307270023174009D00F21002311407D
:1021C0001400042995D122005F075B021B0BD20883
:1021D00017430022A6E5802359461B030B431B032C
:1021E00017001B0B064A9DE5BD42B2D89B46002452
:1021F000BFE68045B9D31A00C3E7C046FF0300001D
:10220000FF0700001E0400003E040000F0B5574622
:10221000DE464E464546E0B5834606000F034800BD
:1022200087B092461D003F0B400DCC0F002800D117
:102230006FE0DE4B984238D08023FF001B041F4321
:10224000730F3B430193DA4B0027994600239B46CB
:10225000F60081442B0369001B0B52469846490D3A
:10226000ED0F002900D185E0D04B994200D173E0F9
:102270004346DA0080231B0413435246CC48520FD6
:1022800084461343524600206144D2008944210011
:10229000694000918C46012149448A460F2F00D99C
:1022A00090E0C449BF00CF59BF465B463B43019312
:1022B00000D06AE102230827002681469B46C9E731
:1022C00032005846019B61460091022800D175E01A
:1022D000032800D1FEE1012800D02CE100230027D3
:1022E000002600253F032A0D3F0BB34812053A4351
:1022F00002401B051343009A5B00D1075B080B43A8
:102300003000190007B03CBC90469946A246AB4647
:10231000F0BD5B463B43019300D12FE1002F00D17C
:10232000A5E1380000F06EFE03000B3B1C2B00DD26
:1023300096E11D22D31A5A460100DA405E4608395A
:102340008F4013008E403B4301939C4B00271B1A88
:10235000994600239B467DE7414653460B439349EC
:102360008C46E144002B00D01AE1022202201743E0
:1023700000228CE7134300D10DE14346002B00D12E
:1023800081E1404600F03EFE02000B3A1C2A00DDCF
:1023900072E10100434608398B4098461D239A1A82
:1023A0005346D3401A004346134352468A40494697
:1023B000081A824989468144002068E77B4B002740
:1023C00000268EE7140C1204120C1100370C360490
:1023D000350C794328008C462E00604360448346C8
:1023E00056432100300C80465846794340440291C0
:1023F000844506D98846802149028C46E0444146FE
:1024000002913604010C360C00048B4681191E0C17
:102410001B041B0C0391190079438C46280075435B
:102420006544A8465843050C45447743A94203D95F
:10243000802149028C466744290C8C4639000004EF
:10244000000C2D042D186144AB44059159460491AC
:1024500001990F043F0C080C390051434243904648
:1024600002008C46090C8B4662437C4344445C4426
:10247000A04503D98021490288464244210C884660
:1024800061460904090C8C463900594343437043A3
:102490007E430F0CF6182404BE19644442448C4653
:1024A000B34203D980235B0298464044029B6146B5
:1024B0009846049B370443449B46AB45AD416B4271
:1024C0000D0405992D0C8C467F196744FD18A8460C
:1024D0005D462D19A542A44193466442A446C344D7
:1024E000DC448F42BF4198459B4193459241A445AE
:1024F000A4415B427F421F43360C52426442BF19E3
:102500002243BF18624638184302D20D0399134381
:102510006A020A43501E82416146ED0D2A434E0273
:102520003243D90100D4B3E00126500832400243BF
:10253000DE0732435B08224C5444002C62DD510715
:1025400009D00F201040042805D0101D9042924160
:1025500052429B180200D90104D580241948E40096
:10256000034054441848844200DD27E75E075B02BD
:10257000D2081F0B630516435B0DB2E60023994694
:102580000133042700269B4664E603230197814616
:102590000C279B465EE6012201201743002276E6C7
:1025A000032303201F43434671E6C046FF07000094
:1025B00001FCFFFF68CD0008FFFF0F800DFCFFFF4F
:1025C000FF030000FFFFFFFEFE070000002380273F
:1025D00000933F030026434B83E6019B3200A44651
:1025E000584670E6AC466EE6802701993F033942B3
:1025F0002DD03B422BD11F433F033F0B00951600CC
:10260000384B6EE601252D1B382D00DD66E61F2DAB
:1026100040DC35481C005044160082408440EE40A7
:10262000501E824134431443EB40620709D00F220D
:102630002240042A05D02200141D944280414042C9
:102640001B181A023ED501230027002649E68027E1
:10265000019B3F031F433F033F0B0094214B40E688
:1026600003005A46283B9A40002601926DE65846E0
:1026700000F0C8FC203057E603005246283B9A4041
:102680001300002293E6504600F0BCFC20307BE6AD
:10269000CA4650E71F201E004042041BE640202D82
:1026A00003D0124C5444A3401A43501E824132437B
:1026B00007260027164009D00F20002310401400E1
:1026C0000428B9D122005E075B021F0BD208164313
:1026D000002306E680273F031F433F033F0B1600FE
:1026E000004BFEE5FF0700001E0400003E04000052
:1026F000F8B557464E464546DE460C000903E0B5A0
:10270000490A460F5F0031431E03DB0F760A9B46E2
:10271000530F3343C84E6500C000E40FD2006D0D67
:10272000A24681467F0D9C469046B74200D1B9E053
:102730005B46012673409B46EE1BA34500D183E018
:10274000002E63DD002F00D0B1E06346134300D1BB
:1027500023E1731E002B00D0BAE1861A6346B04213
:1027600080410125C91A4042091A0B0200D447E1F1
:1027700049024B0A98464346002B00D189E1404666
:1027800000F040FC0300083B1F2B00DD7CE1202211
:102790003000D21A4146D040994002009E400A4380
:1027A0009D4200DD6AE15D1B6B1C1F2B00DD94E187
:1027B000202110003500C91A8E40DA408840DD40E3
:1027C000711E8E4111000722284300250643324026
:1027D000002A09D00F233340042B05D0331DB34208
:1027E000B641764289191E000B0200D43DE26A1CF4
:1027F000914B55056D0D9A4200D119E18F4AF608AB
:102800000A40570752023743120B9BE0002E00D0BC
:10281000C5E06E1C7605760D012E00DC48E16746AA
:10282000861ACB1BB042BF417F42B8461F004346C9
:10283000FF1A3B00B8461B0200D55FE137439AD12F
:1028400000220024002579E0002E00DCFAE0002FB1
:1028500000D18DE0784B9D4267D0802367461B04F2
:102860001F43BC46382E00DC52E1634613435A1E18
:1028700093411E1886428041404209180B0200D441
:10288000BEE06D4B01359D4200D1D2E06B4A73082A
:102890000A4001210E401E435108D30707221E4360
:1028A000324095E71E00164300D045E740E7624BF3
:1028B0009D423AD0802367461B041F43BC46382EF6
:1028C00000DDEBE01F2E00DC3AE133006746203BE1
:1028D000DF403B00202E05D04027BF1B6646BE4090
:1028E000324390464646721E96413343DAE0002B4F
:1028F00000D114E26346134300D168E180234E0700
:10290000C008C9081B030643194208D06046C00826
:10291000184204D163460100D2085E071643F30053
:102920009946C900720F444D11434B46DE08424B95
:102930004F073743CA089D4200D16EE012036D0570
:10294000120B6D0D00211203130B0A0D12051A4311
:102950003B4B2D0513402B435B00E4075B082343EF
:10296000380019003CBC90469946A246AB46F8BDDB
:102970006346134311D0731E002B00D007E1861865
:102980008642804161444042091801250B0237D537
:1029900002257BE73E00614691463500C5E75C466F
:1029A000002D00D0E1E00B000343F3D0731C00D1F5
:1029B000ACE1214B9F4200D13AE1F343382B00DDDB
:1029C0006FE11F2B00DD8CE120250E00ED1AAE40DB
:1029D000B0460600AA46DE40454635432E00554621
:1029E000D940A8406346451EA8415B1A9C46304327
:1029F000161AB242924163465242991A3D00B4E619
:102A000007223240002A00D0E4E60B4BF6084F07BD
:102A10003743CA089D4200D090E73B00134300D1E2
:102A2000A6E180231B031A431203120B024D89E710
:102A300015000022002785E7FF070000FFFF7FFF4A
:102A4000FFFF0F80002E00D0C7E06B1C5E05760DE7
:102A5000012E00DCF0E0C84DAB4200D1B9E0851892
:102A60000A00854289416244494251180722CE0733
:102A70006D082E43490832401D00A9E6BF49ED1AF2
:102A8000114007223240A3E6320028388240002657
:102A900086E6300000F0B6FA203073E66346134352
:102AA0005A1E9341C61AB04280414042091A5CE660
:102AB0000E00674606431743002D5ED1002E00D05E
:102AC000F3E0002F00D11EE15C46614691462CE701
:102AD000A94FBE427BD01E00F1E610001F3DE8402A
:102AE000202B03D04021CB1A9A401643731E9E41DF
:102AF0000722064332400021002583E7161A634669
:102B0000B2428041591A40420B1A98465C4632E65E
:102B10001F2E00DDABE02027BB1B9A4663465746BD
:102B2000BB40994613004F46F3401F433B005746B6
:102B3000BA40571EBA4113436246F240891898E6DC
:102B40002027BB1B9A4663465746BB409946130055
:102B50004F46F3401F433B005746BA40571EBA4109
:102B600013436246F240891A9CE7834B9F425FD031
:102B700080252D047342294320E7002E0CD1002F1D
:102B800000D1D0E05C46614691467B4DCDE67A4F60
:102B9000BE421CD01E0065E6002F18D0C0084E07AC
:102BA00006438020C9080003014208D06346DC08C0
:102BB000044204D12100DA46D2085E071643F3002E
:102BC000994601245346C900720F11431C406A4DB7
:102BD000ABE61D0000220027B4E6002D59D10B0002
:102BE000034300D1D6E6731C00D1B2E0624B9F4292
:102BF0001ED0F343382B6FDC1F2B00DD97E0202520
:102C00000E00ED1AAE40B0460600AA46DE4045462C
:102C100035432E005546A840D940451EA8418C4456
:102C20000643B61896429241514261443D0025E662
:102C30003D006146914678E60B000343002D00D02D
:102C400055E6002BF5D06346134300D16DE6861898
:102C50008642804161444042091800220B0200D4A0
:102C6000D0E6464B01351940B2E5B1465DE633008A
:102C70006746203BDF403B00202E05D04027BF1B8E
:102C80006646BE40324390464646721E96413343E6
:102C9000EFE5394B9F42CBD080252D047342294369
:102CA000A8E70843411E8841A2E6002F00D13CE678
:102CB0006346861ACF1AB0429B415B42FB1A984684
:102CC0001B024ED5161A6346B2429241591A52421D
:102CD000891A5C4600227BE501430E00711E8E417D
:102CE0009FE71D000E00203DEE40B046202B04D093
:102CF0004025EB1A99400843814648464346411E09
:102D00008841184374E60022002417E6161A634629
:102D1000B2429241591A5242891A3D0025E5614654
:102D20009146154D01E680220024120379E61D002C
:102D30000E00203DEE40B046202B04D04025EB1A7B
:102D40009940084381464E464346711E8E411E43BC
:102D500067E7861896429B4161445B42C9183D0073
:102D60008CE547463743CED007224146324049E6FC
:102D700000273A00E6E5C046FF070000FFFF7FFF9F
:102D800070B500282DD0C317C5185D40C40F2800AA
:102D900000F038F9154B1B1A5B055B0D0A2815DD91
:102DA0000B38854000222D032D0B002110002D0330
:102DB0000A0D2D0B12052A430D4D1B052A40134306
:102DC0005B00E4075B082343190070BD0200290083
:102DD000153291400A000B21081AC5402D032D0B16
:102DE000E3E70024002300250022DEE71E040000A4
:102DF000FFFF0F8010B5041E25D000F003F9144B1F
:102E00001B1A5B055B0D0A2812DD0B38844000227B
:102E10002403240B0021100024030A0D240B1205A7
:102E200022430C4C1B05224013435B00590810BD84
:102E300002002100153291400A000B21081AC440FB
:102E40002403240BE6E7002300240022E2E7C04627
:102E50001E040000FFFF0F804100090E4B1C70B5DF
:102E6000DBB24602750AC40F012B14DDE0239B0080
:102E70006D07360BCB1800210A0D280012051C4DDA
:102E800032435B052A405B0813435B00E4075B08A1
:102E90002343190070BD002914D1002D1ED0280035
:102EA00000F0B0F80A281CDC0B232A001B1ADA40B9
:102EB000030015339D400F4B12031B1A5B05160BC5
:102EC0005B0DD8E7002D06D0320B802636036D0748
:102ED0001643094BCFE7084B0026CCE7002300261A
:102EE000C9E703002A000B3B9A400025E3E7C046F0
:102EF000FFFF0F8089030000FF070000F0B54C00C2
:102F0000640D0B03621C5B0A460F5205C90F1E437A
:102F1000C500520D012A29DD374BE718FE2F1CDCB6
:102F2000002F3BDD8001431E98410722F3006D0F07
:102F300003432B431A40002A04D00F221A40042ACC
:102F400000D004338022D2041A4024D00137FAB2D0
:102F5000FF2F02D09B01580A01E0FF22002040020F
:102F6000D205400AC90710430843F0BD3543002C81
:102F700004D1002D0AD100220020F0E7002DECD072
:102F80008020C0033043FF22E9E7002400235B02D6
:102F9000580AE2B2E3E7DB083C00F8E73B001733EE
:102FA000F3DB80231B0433431E26F61B1F2E14DD88
:102FB00002225242D71B1A00FA401700202E04D0DA
:102FC0000E4A94466444A3401D432B005D1EAB4152
:102FD00007223B431A400027ADE7094A2800A21800
:102FE000954093406C1EA541F04007222B430343BC
:102FF0001A4000279FE7C04680FCFFFFA2FCFFFFAE
:1030000082FCFFFF1C2101231B04984201D3000C0A
:1030100010391B0A984201D3000A08391B0998424B
:1030200001D30009043902A2105C40187047C04661
:103030000403020201010101000000000000000081
:1030400010B5002903D1FFF7DDFF203002E0081C96
:10305000FFF7D8FF10BDC04670B500220C4B04002E
:103060000D0000F081F8002804D12000290000F0B4
:1030700011F870BD064B002220002900FFF738FB35
:1030800000F008F880231B069C466044F1E7C04628
:103090000000E04130B5144D0A034B00120B5B0DEC
:1030A000C90F0024AB4211DD104CA34210DC802478
:1030B000640322430E4CE41A1F2C0CDD0D48C31A86
:1030C000DA4013005C42002900D11C00200030BD12
:1030D000094BCC18FAE7094DE040AC4663449A40EE
:1030E00013000343EEE7C046FE0300001D0400008A
:1030F0003304000013040000FFFFFF7FEDFBFFFF20
:103100008446101C62468C46191C634600E0C0468B
:103110001FB500F0D3F8002801D40021C8421FBD1C
:1031200010B500F02BF84042013010BD10B500F092
:10313000C5F8002801DB002010BD012010BDC046ED
:1031400010B500F0BBF8002801DD002010BD012003
:1031500010BDC04610B500F04DF8002801DC00207D
:1031600010BD012010BDC04610B500F043F8002886
:1031700001DA002010BD012010BDC046F0B54F4659
:103180004646D6468446C0B58046194E18030F03FE
:103190004D00000B5C0082463F0B6D0DC90F914640
:1031A000640DDB0F0120B5420AD0B44203D0A54222
:1031B00001D157450CD01CBC90469946A246F0BDA3
:1031C00066463E43F7D1AC42F5D154461443F2D1A2
:1031D0000120C845EFD1994207D0002DEBD16346BD
:1031E0001F433800471EB841E5E70020E3E7C0462B
:1031F000FF070000F0B54F464646D6464D00C0B525
:103200000E03C90F8A462C491F035C008046360B0B
:103210006D0D91463F0B640DDB0F8D421ED08C422D
:1032200016D0002D1ED130438446002C01D13A43E4
:1032300023D06246002A1AD09A4529D0514602204E
:103240000139084001381CBC90469946A246F0BDA1
:1032500039001143E5D002204042F4E73043FAD16F
:10326000AC420FD0002C0FD13A43E7D00CE0012242
:10327000013B934318000130E5E763460020002B33
:10328000E1D0DBE73A43E6D19A45D7D1A542D5DC78
:10329000A54205DBBE42D1D808D00020BE42D2D222
:1032A00050460123013898430130CCE7C845C5D8C2
:1032B0000020C845F4D3C6E7FF070000F0B54F462D
:1032C0004646D6464D00C0B50E03C90F8A462E4964
:1032D0001F035C008046360B6D0D91463F0B640D5D
:1032E000DB0F8D4218D08C4211D0002D18D1304305
:1032F0008446002C1ED13A431CD163460020002B8B
:1033000030D0514602200139084001382AE0390006
:103310001143EAD0022025E03043FBD1AC4226D055
:10332000002C26D13A4324D15146022001390840CD
:10333000013817E06246002A0FD09A45E1D1A54234
:1033400005DBBE42DDD819D00020BE420AD250466D
:10335000012301389843013004E00122013B9343EB
:10336000180001301CBC90469946A246F0BD3A4375
:10337000D0D19A45C5D1A542C3DCE0E7C845C0D845
:103380000020C845E3D3EDE7FF0700000023C25C3F
:103390000133002AFBD1581E7047000002B4714669
:1033A00049084900095C49008E4402BC7047C04688
:1033B00070B50C4E0D031C0349005B002D0B490D2D
:1033C000240B5B0DB14208D0064900208B4203D18B
:1033D00014432000441EA04170BD05430120002D70
:1033E000FAD1F1E7FF0700000378002B1CD0194B3E
:1033F0001B68194A92885A634378002B19D0154BE1
:103400001B68154A92889A638378002B16D0114B5B
:103410001B68114A9288DA63C378002B13D10D4BD5
:103420001B6800221A6470470A4B1B6800225A630B
:10343000E2E7084B1B6800229A63E5E7054B1B682F
:103440000022DA63E8E7034B1B68034A92881A6498
:10345000E9E7C046444200200402002010B50028DD
:1034600008D004220100054806F008FA0122034BA7
:103470009A7110BD0022014B1A60F7E70402002088
:1034800010B5054B9B79002B00D110BD02480023DD
:103490008371FFF7A9FFF8E704020020FF23181A41
:1034A000014B98807047C04604020020034B036024
:1034B00054330B60802313607047C0461002002015
:1034C00001238B40DBB2037043708370704770B58B
:1034D00004000E0002F0A8FA050002F0A5FA401B55
:1034E000B0420BD2022301223C21200003F094F8C9
:1034F000002804D0012002F09DFAEEE7032070BD01
:10350000884202D9401A01387047081AFCE70000C7
:1035100070B5554CAC235B00E5582900A06CFFF753
:10352000EFFFE36C984200D870BDA56420002930FD
:103530000422002106F0ABF93123E35C072B00D90C
:103540008AE09A0049498A589746474A2921FF202C
:103550005054013308315354C338C826B600FFF71E
:103560009DFF434C2000FFF779FFFFF789FF293CBF
:103570003125615D628E3F4806F0F0FD635D072BEB
:103580006DD0394BDE64CFE7374A2A21FF205054F3
:10359000013307315354C338C826B600DFE7324A37
:1035A0002B21FF205054013306315354C338C82611
:1035B000B600D4E72C4AFF212920115401301154C0
:1035C0000133CE3953540C38C826B600C7E7264A13
:1035D000FF212920115401301154013011540133BD
:1035E000CE3953540D38C826B600B8E71E4AFF211D
:1035F0002920115401301154013011540133CE39B6
:1036000053545530C826B600A9E7174A2C21FF208D
:103610005054013305315354C338C826B6009EE7D1
:10362000114C618EC9B220002930FFF749FF638E2B
:1036300001339BB26386032B03D03C20C82676005F
:103640008DE7094B00225A8631215A5C01325A54C7
:103650003C20C826760082E7002006007FE7024A69
:103660002A330021D1548CE7283C002090C5000863
:10367000513C0020A8CD000810B5072001F0B2FA97
:10368000012001F0E9FA01F0FBFA10BD70B5234BFF
:10369000AC225200995808329858FFF731FFFA23AC
:1036A0009B00984220D91D4AC1235B00D35C002BAC
:1036B0001BD01A4ABD235B00D35C012B20D0174BD3
:1036C000AC22520099580832995014329B5C002B5E
:1036D0001DD0124ABA235B000021D1540F4ABA23ED
:1036E0005B00D05C01F06AFA70BD140001258333E1
:1036F000FF33D55401F034FDBD235B00E554D8E71A
:103700007A33FF330021D154FFF7B6FFD7E7034ADE
:10371000BA235B000121D154E0E7C046283C0020D9
:1037200010B505F0D9FA044AAC235B00D050034829
:1037300003F0BAF810BDC046283C0020E841002044
:1037400070B5050003781C4CA37301781B4806F084
:1037500005FD69781A4806F001FD6B789B096370D6
:103760006B781B1103221340A3706B789B101A40D7
:10377000E2706B785B10012633402375A9781148FD
:1037800006F0ECFCAB78DB09E373AB789B113340BC
:103790002374AB785B111E406674AA781F23134014
:1037A000638205F099FAB6235B00E0506C3BFF3B67
:1037B00063810023E38370BD283C0020D4CD000842
:1037C000F0CD0008FCCD000810B5244C7C2200216F
:1037D000200006F05CF8043C7E232370703B63708D
:1037E000C233A3701E4BC92252009A5CE2700921B9
:1037F0006171A2712122E2719A7B22725A786272FF
:103800009A78A272DA78E2721B7D002B22D0802394
:103810005B42134A127C002A1ED100221343DBB202
:103820000F4A518A0B430F4C237398235B00D35AE2
:1038300063730D220121200001F076FDA0737F2328
:10384000E37310222100012001F000FD064806F07C
:1038500013FD10BD0023DCE74022DFE7A04000207D
:10386000283C00209C4000207CCE000810B50A486F
:1038700006F002FD094CFC220021200006F007F8AA
:10388000043C04220649200005F0F8FF2100022034
:1038900001F0C4FC10BDC046BCCE00085D3E002057
:1038A000D8CE000870B5050001000C4806F056FCA3
:1038B0000B4C802252000021200005F0E8FF2A0076
:1038C0000849200006F0E2FC2100022001F0A6FCDD
:1038D0002100054806F042FC70BDC04664D00008D7
:1038E000593E002088D0000820CF0008F0B5C64619
:1038F00000B584B005000291140013780A0001009D
:10390000D64806F02BFC412D4AD8AD00D44B5B596C
:103910009F46D44AC9235B00D35C029A93423FD1AD
:10392000D04A7C23FF330121D15439E02000FFF736
:1039300007FF2378CB4DAB7363789B096B7063787B
:103940001B1103221340AB7063789B101A40EA707E
:103950006278521001231A402A75A278D2096A753A
:10396000A27892111A402A74A278521113406B74F3
:10397000A2781F2313406B8205F0AEF9B6235B00DB
:10398000E8506C3BFF3B6B810023EB8301228133CA
:10399000FF33EA5421786278A378B34806F0DEFB5F
:1039A00004B004BC9046F0BDAE4AC9235B00D35CB2
:1039B000029A9342F4D12000FFF7C2FE2278A94B6D
:1039C0009A73627892095A706278121103210A4040
:1039D0009A70627892101140D97061784910012272
:1039E00011401975617811409976A178C909597506
:1039F000A178891111401974A17849110A405A74AB
:103A0000A1781F220A405A8201225A810022DA83B9
:103A100000218132FF32995421786278A37893484B
:103A200006F09CFBFFF7D0FEBAE76F1CE7193800E1
:103A3000FFF786FE8B4AC0235B000021D1543A7801
:103A40006419A378E17800913100894806F086FB7B
:103A5000A6E70023062BA3DC9D00665D8149C922F1
:103A600052008A5CB242E0D00133F3E723781B02B4
:103A7000617819437B4BC222520099520A329A5AFA
:103A8000914206D8511A774AC5235B00D1520027CC
:103A90000FE0784806F062FB724B00228221FF3172
:103AA0005A549A767E22FF328139FF39995477E74A
:103AB0000137A378BB4200DC72E7BBB29846DE0058
:103AC000B6B2331DE55C2D022DB2731DE35C1D43C0
:103AD000B31DE25C120212B2F31DE35C1A430392BF
:103AE0002900654806F03AFB5E4AC5235B00D35ABD
:103AF0009D42DDDC039A9A42DADD3000083020185E
:103B0000FFF71EFE574BC3225200414699529B7E3F
:103B1000012B00D044E7534BDB7E029A934209D13C
:103B2000504BC42252009A5AC52149005B5A9A420E
:103B300000D135E7514806F09FFB4A4BC5225200A1
:103B4000995A023A9952029ADA760122BF21490023
:103B50005A548221FF315A5422E72578414A8E2354
:103B6000FF33D5540022182A00DD19E7531CE35C0B
:103B70003C48C9214900415C994201D00132F2E739
:103B80005543ABB20400C720400023523C4806F026
:103B9000E5FA05E7334A8223FF33D35C002B00D1DB
:103BA000FEE6002322789A4200DCF9E62D49C32282
:103BB0005200895A580022185278914201D001339C
:103BC000F0E720188278274B9A812E4806F0C6FA33
:103BD000E6E6244AC9235B00D35C029A934200D0F4
:103BE000DEE605F079F81F4BB622520098501032ED
:103BF00001219954D4E6BFF34F8F234B234ADA6057
:103C0000BFF34F8FC046FDE72378002B05D0154A40
:103C1000BB235B000021D154C2E6124B00223121AC
:103C20005A545A867732FF3230399954B8E622789E
:103C30000C4B9A81B4E60B4AC9235B00D35C029A11
:103C4000934202D0FF2A00D0AAE62278054B9A764A
:103C50007E22FF3201219954A2E6C0469CD0000882
:103C6000B0C50008283C0020CCD000080CD10008CA
:103C700048D1000884D10008C4D10008E0D1000870
:103C8000FCD1000828D2000800ED00E00400FA058D
:103C90002278120263781343054D064C2B53FFF72D
:103CA000E5FD285BFFF7FEFDFFF7E0FD78E6C04687
:103CB000283C00202E02000010B50C004A6C412365
:103CC000CB5CDBB20100104806F048FA636C9B073E
:103CD00009D4636C5B070AD4636CDB070BD4636C99
:103CE0009B060CD410BD094806F0C6FAF1E7084857
:103CF00006F0C2FAF0E7074806F0BEFAEFE706481A
:103D000006F0BAFAEEE7C04650D5000870D50008B4
:103D10008CD500089CD50008ACD5000870B505000E
:103D20000B4806F0A9FA082401E00134E4B2772C2C
:103D30000CD8610005230222280002F06DFC002847
:103D4000F3D12100034806F009FAEEE770BDC04642
:103D5000B8D50008C8D50008F0B587B005000C003C
:103D6000002600200021029003910AE07700EF5F17
:103D70003A00FB1702980399801859410290039169
:103D80000136A642F2DB02980399FCF705FC061CFB
:103D90002000FDF793FB011C301CFCF78BFE071C79
:103DA000002600220023029203931BE07300585F59
:103DB000FEF7E6FF04900591381CFFF74DF802006E
:103DC0000B0004980599FEF793FC02000B00FEF728
:103DD0001DFA02000B0002980399FDF7F9FB02900F
:103DE00003910136A642E1DB2000FEF7C9FF020085
:103DF0000B0002980399FDF707FFFFF77FF805F026
:103E000065FC041C381C05F0E9FB1A4BFE2252002D
:103E1000985004329C501849201CFDF723F8011CCF
:103E2000164805F0A5FB05F015FC04B20B2C00DCD0
:103E30000C24104B812292009C52002210495A54AB
:103E400002315A5004315A5060395A520021F93225
:103E5000FF32995404329D5804329858FEF7FCFF03
:103E600002000B0000942900064806F077F907B01D
:103E7000F0BDC046283C00200000904000004041BA
:103E800006020000DCD50008F0B5D64600B5BEB08D
:103E90000023EF2202A98C4662441370EE22624492
:103EA0001370ED2262441370B64806F0E5F9142150
:103EB000B548FFF70CFB002810D0B34C2100B348E5
:103EC000FFF7FAFE2000FFF729FFB14AD5235B0078
:103ED0000021D1543EB004BC9246F0BD322302937F
:103EE000313B0193EE3302AA9446634400930123CD
:103EF0004F223C21A44802F0B7FA002806D1EF2354
:103F000002AA94466344197840290DD0EF2302AAEF
:103F10009446634419789F4806F020F99C4AD523BB
:103F20005B000021D154D5E79B4806F017F93DAB63
:103F300020221A7012320292313A01920093012328
:103F40005F323C21904802F0BFF901F06DFD0400A2
:103F500032230293313B0193ED3302AA944663442A
:103F60000093012360223C21874802F07DFA01F092
:103F70005BFD001B642806D8EE2302AA9446634426
:103F80001B789B06E4D4EB2302AA94466344802268
:103F90001A707D4C3226029601250195009301236B
:103FA000203A3C21200002F08FF9EA2302AA94462D
:103FB000634411221A700296019500930123513235
:103FC0003C21200002F080F901F02EFD0500322393
:103FD0000293313B0193ED2402AB9C466444009470
:103FE000012367223C21684802F03EFA23781B0730
:103FF00008D401F019FD401B962803D8052001F0D4
:1040000019FDE4E7604D32260296062301933BAB8F
:104010000093012368223C21280002F025FA3AACE3
:1040200003220021200005F032FC029603230193B5
:104030000094023B60223C21280002F015FA02960F
:10404000313E0196ED2702AB9C4667440097012361
:1040500067223C21280002F007FA21786278A378D1
:10406000387800904D4806F079F8494AD5235B002E
:10407000D6540622002106A805F009FC01F0D4FC64
:104080000400002764E001235B420293073301939D
:1040900006AE0096053B68223C213B4802F0E4F95D
:1040A0007078000200B233781843F3781B021BB219
:1040B000B27813439A4675792D022DB233791D4398
:1040C0007E1CFDF7FBF904905046FDF7F7F90590CB
:1040D0002800FDF7F3F9051C049A111C101CFCF7CD
:1040E000C1FE0490059B191C181CFCF7BBFE011CAB
:1040F0000498FCF745FB0490291C281CFCF7B2FE31
:10410000011C0498FCF73CFB05F0E0FA05F0A2FA6C
:104110007F0008ABD85301F087FC0500A0200821E0
:10412000C00501F007FF01280BD11D4802F0BCFBC0
:1041300001F07AFC401B32281AD8012001F07AFCE9
:10414000ECE7370001F070FC001B164B984211D8C9
:10415000632F0FDC124802F0A7FBA0200821C00546
:1041600001F0E8FE01288ED0012001F063FCE9E7B0
:104170003700E7E7391E03DD08A8FFF7EDFDA9E6E4
:104180000121F9E708D600089C41002024D6000848
:10419000283C002034D600084CD6000860D6000821
:1041A000E84100208813000010B50C4C200006F0F8
:1041B00063F80B4806F060F80A4806F05DF8200046
:1041C00006F05AF800F0CEFC8E22D20000210648FC
:1041D00005F05DFBFFF758FE10BDC04690D6000805
:1041E000B8D60008DCD60008283C0020F0B583B023
:1041F00005000090019104F06FFD04003C4A822309
:104200009B00D358834229D883239B00D3588342F1
:1042100024D8FE235B00D758BBB2EB1A9BB21EB268
:10422000002E1DDB324A334BD55C002D12D1023BF0
:10423000D05E0321FBF7F2FF00B2B0420ADD009B23
:10424000D81BFA218900FBF7E9FF3F18284AFE2313
:104250005B00D750002D06D0012D12D003B0F0BD69
:104260005B421EB2DEE7224A81239B00D35EB3424B
:10427000F4DC1F4B1F4A01219954963402329C50A2
:10428000ECE71B4A81239B00D35EB342E6DD184B6B
:10429000184A00219954AD31FF315A5A01325A520D
:1042A00022002D32FF3260315A50019B002BD5D0B5
:1042B000E01AFDF74DF91049FCF7D4FD041C0F4935
:1042C000FCF7BEF800280CD0211C0D48FCF7F2FBCF
:1042D0000C49FCF7C7FDFCF711F9054AFC235B000C
:1042E000D054034AF8235B000021D150B6E7C04602
:1042F000283C0020060200006F12833A0AD7A33C34
:104300000000A04066666640F0B587B00622002136
:1043100004A805F0BCFA2E4AD5235B00D35C002B21
:1043200052D001235B4202930733019304AC009403
:10433000053B68223C21274802F096F863781B026F
:104340002078184300B2224ED2235B00F052E3786B
:104350001B02A5781D432DB2D3235B00F552637970
:104360001B0224791C4324B2D4235B00F452FDF7D2
:10437000A5F8071C2800FDF7A1F8051C2000FDF793
:104380009DF8041C391C381CFCF76CFD071C291C0B
:10439000281CFCF767FD011C381CFCF7F1F9051C13
:1043A000211C201CFCF75EFD011C281CFCF7E8F911
:1043B00005F08CF905F04EF900B2F8235B00F158D6
:1043C000FFF714FF07B0F0BD034805F055FFF9E70C
:1043D000283C00209C410020E8D7000810B504F0DC
:1043E0007BFC04001B4AB8235B00D0582100FFF778
:1043F00087F8194B98422BD9164AB8235B00D45042
:104400003C220AE0501E134B1918AF31FF310978D6
:104410009B18AF33FF3319700200002AF2DC0D4BFA
:10442000D6225200985AD721490058540021995257
:10443000713AFF3A06E0074B9B18AF33FF331B7806
:10444000C918013A002AF6DC024AF5235B00D15272
:1044500010BDC046283C0020E703000010B504F062
:104460003BFCA0200821C00501F064FD012802D01A
:10447000FFF7B4FF10BD034802F016FAFFF744FF40
:10448000F6E7C046E841002010B5134C7A2200211F
:10449000200005F0FCF9063C7E232370773B637017
:1044A000BB33A370C13BE3700133237101336371EC
:1044B0000133A37106220121200000F035FFE071D5
:1044C0007F23237209222100012000F0BFFE034850
:1044D00005F0D2FE10BDC046A24000202CD8000836
:1044E00070B504F0F9FB0500124C7A22002120007F
:1044F00005F0CDF9063C7E232370773B63709A3339
:10450000A3702B0EE3702B0C23712B0A6371A57122
:1045100006220121200000F007FFE0717F232372B3
:1045200009222100012000F091FE034805F0A4FEBD
:1045300070BDC046A240002044D8000870B504F009
:10454000CBFB0500124C7A220021200005F09FF9D8
:10455000063C7E232370773B63709B33A3702B0E46
:10456000E3702B0C23712B0A6371A57106220121C4
:10457000200000F0D9FEE0717F2323720922210080
:10458000012000F063FE034805F076FE70BDC046D2
:10459000A240002060D8000810B5C8B000F032FF7B
:1045A000424A8C239B00D05C01F0A8F8404B19686C
:1045B000002245A803F000FE12E03C4A3D4B0121D9
:1045C000D1543D4805F058FEFFF75EFF384B19689F
:1045D00045AC0022684603F0EFFD6B4607CB07C4ED
:1045E000459B102B60D104AC8222520046992000DA
:1045F00005F044F923785F33DAB2212AE6D8930034
:104600002E4AD3589F462E4805F036FE274A8C2363
:10461000DB000121D154FFF763FFD7E7294805F0FC
:104620002BFEFFF78BFF214A224B0121D154CDE70E
:1046300004AAD3781B06117909040B4351790902A6
:104640000B4392791343204C236004F045FB020096
:104650001E4B186021680B1A144CFA20400023509E
:104660001B4805F07BFD8C23DB000122E254ADE703
:1046700004ABD97809061A79120411435A79120247
:1046800011439B791943094CF8235B00E150114811
:1046900005F064FD074B0122E25497E7034A8C239F
:1046A000DB000121D15491E748B010BD283C002027
:1046B000784500206E04000080D80008B8C60008C5
:1046C0009CD80008BCD80008C012002098400020E8
:1046D000E4D800082CD90008F0B58BB014220021D2
:1046E00005A805F0D4F8324BD96A04221143D962E7
:1046F000D96A0A400192019AD96A80221143D9628B
:10470000D96A0A400292029ADA6A01252A43DA62D9
:10471000DA6A2A400392039AD96A02221143D962C3
:10472000DB6A1A400492049B8024A4010022210029
:10473000204801F006FC00221F49204801F001FC3E
:104740009926360200223100A020C00501F0F9FBB5
:1047500005940695002407940327089705A9154892
:1047600001F01CFB164B059306950794089705A9C5
:10477000124801F013FB059606950794089705A9C2
:10478000A020C00501F00AFB40230593069407947E
:1047900005A90A4801F002FB082305930694079433
:1047A00005A9A020C00501F0F9FA0BB0F0BDC04684
:1047B0000010024000080050C4F000000004005047
:1047C000A4F0000000B583B0114A116B0123194316
:1047D0001163126B13400193019B002203210920F6
:1047E00001F03AF9092001F067F9002203210A20BB
:1047F00001F032F90A2001F05FF9002203210B20B9
:1048000001F02AF90B2001F057F903B000BDC046B2
:104810000010024010B5FEF783FFFEF737FF0120BE
:1048200003F079FCF7E710B5012003F074FCFBE717
:1048300010B5FFF713FE012003F06DFCF9E710B58A
:10484000FFF7AAFE012003F066FCF9E700B583B08C
:1048500001906423012201A9024803F097FA01980C
:1048600003B000BD9C43002072B6FEE710B51248AD
:10487000124B0360124B4360002383600122C2602D
:10488000036143618361C361036201F0B7FC0028E7
:104890000CD10021084801F07DFF002808D100213B
:1048A000054801F0A3FF002804D110BDFFF7DCFF8D
:1048B000FFF7DAFFFFF7D8FF9C41002000540040CB
:1048C0008266500010B50B480B4B036096231B0209
:1048D000436000238360C36003610C2242618361F3
:1048E000C3610362436203F001FB002800D110BDE5
:1048F000FFF7BAFF9C4300200038014010B50B4879
:104900000B4B036096239B01436000238360C360CD
:1049100003610C2242618361C3610362436203F05D
:10492000E5FA002800D110BDFFF79EFF4C4400209F
:10493000004C004010B50B480B4B036096231B0244
:10494000436000238360C36003610C224261836182
:10495000C3610362436203F0C9FA002800D110BDAD
:10496000FFF782FFCC4200200050004010B50748FE
:10497000074B036006234360064BC360836001F06E
:104980005FFF002800D110BDFFF76EFFE841002057
:1049900000300040FF0F000010B50A480A4B0360CA
:1049A000002343607F2282608032C26003614361E2
:1049B0008361C36102F094FC002800D110BDFFF7B1
:1049C00053FFC046244400200028004000B59BB09F
:1049D000342200210DA804F05AFF1422002108A857
:1049E00004F055FF20220021684604F050FF1C49C6
:1049F0000B681C4A1A4080231B0113430B600923D8
:104A00000D9380235B020E930123129300231693D0
:104A10000DA801F0A9FF00281CD10F2308930D3B1E
:104A2000099300230A930B930C93012108A802F029
:104A300027FA002810D1292300930023029305931D
:104A400080239B020193684602F02CFB002805D1CD
:104A50001BB000BDFFF708FFFFF706FFFFF704FFDD
:104A600000700040FFE7FFFFF0B5A5B000F0BCFF0D
:104A7000FFF7ACFFFFF730FEFFF7A4FEFFF7F6FEEF
:104A8000FFF720FFFFF73AFFFFF754FFFFF76EFF36
:104A9000FFF782FFFFF788FB20A82B4C03002500BF
:104AA00046CD46C32A681A60002103F03CFB274B21
:104AB00018601CA803002200C2CAC2C32A681A6078
:104AC000002103F030FB224B186015A802002300E0
:104AD000103362CB62C262CB62C21B6813600021DA
:104AE00003F0E3FA1B4B18600EA8020023002C33DE
:104AF00062CB62C262CB62C21B681360002103F00A
:104B0000D4FA154B186007A802002300483362CB83
:104B100062C262CB62C21B681360002103F0C5FA57
:104B20000E4B186068460300643426CC26C326CC9E
:104B300026C322681A60002103F0B7FA084B1860F8
:104B400003F0AEFAFEE7C04654C9000878450020DD
:104B500048440020D0440020F84100205043002069
:104B60002044002070B5134805F086FB124C032248
:104B70000021200004F08BFEFF23A370002415E029
:104B800080263602A025ED0500223100280001F024
:104B9000D8F9192000F04EFF01223100280001F061
:104BA000D0F9192000F046FF0134E4B2092CE7D90E
:104BB00070BDC04658DA00086404002010B5084BE8
:104BC0001B7883420AD0064B187042424241D2B24F
:104BD00080210902A020C00501F0B3F910BDC04634
:104BE00064040020F8B504000100184805F0B6FA86
:104BF000174B9B789C4227D0154B9C7001272200B5
:104C00007A4001263240A025ED05802109012800C7
:104C100001F097F962087A4032408021490128006A
:104C200001F08FF9A2087A4032400A4D80214901F3
:104C3000280001F086F9E4087C40320022408021FF
:104C40000902280001F07DF9F8BDC04668DA0008C5
:104C5000640400200004005010B504000100064860
:104C600005F07CFA013C62426241D2B280218901A6
:104C7000024801F066F910BD84DA0008000800500F
:104C800070B580256D00A024E405002229002000D5
:104C900001F057F9192000F0CDFE01222900200073
:104CA00001F04FF970BD000010B5084B5A6B01219F
:104CB0000A435A63996B802252050A439A63022081
:104CC00000220321404200F0C7FE10BD0010024048
:104CD00010B586B004001422002101A804F0D7FD0D
:104CE0002268104B9A4201D006B010BD0E4CE26A09
:104CF00002231A43E262E26A13400093009BC0233E
:104D00009B000193122302930F3B049301330593FD
:104D100001A9064801F042F8A26B80239B031343CC
:104D2000A363E1E70054004000100240000400507B
:104D30000268054B9A4200D07047044A116D8023E7
:104D4000DB020B431365F7E7002800400010024028
:104D500030B589B004001422002103A804F097FDA7
:104D60002368534A934207D0524A934239D0524A59
:104D700093426AD009B030BD504B596B8022D201AA
:104D80000A435A63D96A01221143D962DB6A1A4085
:104D90000092009BC023DB000393022304930325AE
:104DA000069502330793A02003A9C00500F0F6FF83
:104DB0004348444B0360456000238360C360802206
:104DC000026143618361603AC261036200F0B4FE34
:104DD000002803D13A4B23679C62CBE7FFF744FDE1
:104DE000F8E7364B996B802212030A439A63D96A1B
:104DF00001221143D962DB6A1A400192019B03230D
:104E0000039302220492069303330793A02003A97D
:104E1000C00500F0C3FF2C482C4B03600C234360FB
:104E200000238360C3608022026143618361603A32
:104E3000C261036200F080FE002803D1224B236789
:104E40009C6297E7FFF710FDF8E71C4B996B8022F7
:104E500052030A439A63D96A02221143D962DB6A78
:104E600013400293029B182303930492153B06936D
:104E70000333079303A9164800F090FF1548164B1B
:104E800003600D23436000238360C36080220261BE
:104E900043618361603AC261036200F04DFE002805
:104EA00003D10C4B23679C6264E7FFF7DDFCF8E756
:104EB00000380140004C004000500040001002400B
:104EC0005443002030000240844200201C00024075
:104ED00000040050FC4100206C000240FEE7FEE7A9
:104EE00010B500F095FD04F0CDF8012801D004F0D4
:104EF000E1F910BD10B5024800F0F0FE10BDC0464B
:104F0000D444002010B5034800F0E8FE024800F049
:104F1000E5FE10BD844200205443002010B5024835
:104F200000F0DCFE10BDC046FC41002070470000D0
:104F300010B5002417E04908520892B201339BB221
:104F4000072B08D808005040C007F4D549080B4883
:104F5000414089B2F0E70A4BE2185200094B9B1816
:104F600059800134A4B2FF2C03D822000021002371
:104F7000E6E7044A044B0121D15410BD01A0FFFF14
:104F8000B0130000C41200206027000010B50248D2
:104F900002F0F6FA10BDC0469C43002010B503484D
:104FA00002F0EEFA024802F0EBFA10BD4C44002089
:104FB000CC42002010B50368134A934206D0134A2E
:104FC00093420DD0124A934214D010BD114C2000D0
:104FD00002F038FA01221049200003F017F8F4E734
:104FE0000E4C200002F02EFA01220D49200003F0A1
:104FF0000DF8EAE70B4C200002F024FA01220A49DE
:10500000200003F003F8E0E700380140004C0040C6
:10501000005000409C430020C91200204C44002056
:10502000E91F0020CC420020092D002070B5036844
:10503000284A934206D0284A934217D0274A9342DF
:105040002ED070BD03F048FE2549264BC850264897
:105050000A5A531C4C798A1894719B059B0D0B526C
:1050600005310122214802F0D1FFEAE703F034FEC6
:105070001B491F4BC8501F480B5A5A1C1E4C0C5D35
:10508000CB181E4DAC4663441C7093059B0D0B5210
:10509000194B9C4661440122194802F0B7FFD0E742
:1050A00003F01AFE0E49174BC85017480B5A5A1CEA
:1050B000164C0C5DCB18164DAC4663441C70930522
:1050C0009B0D0B52114B9C4661440122114802F08A
:1050D0009DFFB6E700380140004C00400050004002
:1050E000C4120020140800000C0400009C4300209F
:1050F000341500002C110000250D0000260D0000C5
:105100004C440020542200004C1E0000451A0000B0
:10511000461A0000CC42002010B503680A4A9342A8
:1051200006D00A4A934207D0094A934208D010BDDC
:10513000084805F0A1F8FAE7074805F09DF8F6E7FA
:10514000064805F099F8F2E700380140004C0040AD
:1051500000500040D4DA0008FCDA000824DB000824
:10516000F8B5244805F088F8234C244A0021200093
:1051700004F08DFB224F2760224ED2231B01E65004
:10518000214DD2235B01E550012323711F4AA35413
:105190001F4AA354611D0122380002F037FF1D4B46
:1051A000E1180122300002F031FF1B4BE11801220F
:1051B000280002F02BFF39680B68202213430B6094
:1051C00031680B6813430B6029680B6813430B604D
:1051D000002205211B2000F03FFC1B2000F06CFC8E
:1051E000002205210E2000F037FC0E2000F064FCA8
:1051F000F8BDC046B8DB0008C412002064290000D6
:105200009C4300204C440020CC420020240D000090
:10521000441A0000250D0000451A000070B5050075
:105220000C00022801D972B6FEE70800FEF7AEF8BE
:10523000FA2382B2D220000168439B002100024C75
:10524000005902F0A3FD70BDC412002010B5C300C8
:105250001B1A1801C01A430102481858642302F0AF
:1052600095FD10BDC412002010B5234C8022D20041
:105270000021200004F00BFB204BE118204BCA5A00
:10528000204B9C466144200004F0F8FA1E4920009F
:1052900005F02EF804001D4A1D4B0121D1540322B4
:1052A0001C4905F013F800281FD006221A492000D7
:1052B00005F00CF8002818D00C221849200005F041
:1052C00005F800280CD008221549200004F0FEFF44
:1052D00000280BD10D4A8023FF330021D15404E074
:1052E0000A4A8023FF330121D15410BD21000D480B
:1052F00004F034FFF9E7C0461D360020A7DCFFFFAD
:1053000050220000501E000060DC0008283C0020F5
:1053100025020000E8DB0008ECDB0008F4DB0008F5
:1053200004DC000810DC000830B505000023002074
:1053300003E0CC182C5D604001339342F9D330BDBB
:1053400070B5254E8022D2000021300004F09FFA73
:10535000822252000021214804F099FA204BF418CF
:10536000204BE55A204BE1182A00300004F086FA61
:10537000013D2A0000213000FFF7D6FF64191B4AC7
:10538000944664442278FF2A01D0904216D11849ED
:10539000184BCB5C114C23700423FF330122E254E1
:1053A000E01C154B9C466144033204F067FA134B32
:1053B00018680022210002F0CDFE70BD01001048E7
:1053C00004F0CCFE05490423FF330022CA540B4BE2
:1053D000186802F0BFFEF0E7FD28002068040020F6
:1053E000C7E9FFFF3015000030110000391600003A
:1053F000C41200203A1600003B1600007845002039
:1054000024DC000870B503F067FC4E4A4E4BD35ABB
:10541000002B01D1002431E04C4BD45803F05CFC4C
:1054200001002000FEF76CF8FA239B009842F1D9A6
:1054300003F052FC434C454BE050454BE0188022B2
:10544000D200002104F023FA0022002341496252D5
:105450003D496252404AA354404AA3540021404867
:1054600004F07CFE62E07E282BD0364A3B4B0021C4
:10547000D154344A3B4BD35C012B52D0314B354A8B
:105480009A5A31495B5A9A424BD05A1C2D49CB1833
:105490002F4884466344187893059B0D2A4A8B5203
:1054A0002D4BCB5C012B11D0002BDCD0022B1DD05F
:1054B000032BDED17F282CD0224A274B0021D15448
:1054C000D7E701331F49244A8B54CEE71D49234CAB
:1054D0000A5D551C0D558A18234CA4466244107071
:1054E0000138C4B201331C4A8B54C2E7154A1B4D24
:1054F000515D4E1C565552181B498C466244107023
:10550000013CE4B2002CB4D101330E49124A8B5451
:10551000AFE70C4B134A012199540F4A00219954CB
:10552000A7E7084A0F4BD35C002B00D170BD1300D6
:105530000C4A00219954094A995C0C4A9952FFF788
:10554000FFFEF3E7C41200202E1100003415000006
:10555000260D00002C11000026110000271100006C
:1055600048DC000828110000301100003015000050
:1055700070B504000D00104A104BD35C002B04D012
:10558000002C05D00021002013E0FFF7D1FCF7E745
:10559000002010E022784240000AFF231340084A0E
:1055A000944663445B00044AD3185B885840013436
:1055B0000131A942EED370BDC41200206027000063
:1055C000B0130000F8B53E4D8022D2000021280023
:1055D00004F05DF98222520000213A4804F057F9A4
:1055E000394BEC18394FE65B394BE1183200280093
:1055F00004F044F9B11E2800FFF7BAFF0100E55B93
:10560000AB1EE318334A944663441B781B02013DEA
:105610006419644422781A4301D090421AD12E4A68
:105620002C4BD15C274B1970B02935D016D9B22933
:105630001FD1244C0423FF330122E254E01C073223
:10564000264904F01BF9264B18680022210002F0BD
:1056500081FD2BE0234804F081FD27E0A52926D019
:10566000184A0423FF330020D0541F4804F076FD6D
:105670001CE0C029F4D11D4804F0FEFD01220021E8
:105680001B4801F099FEBFF34F8F1A4B1A4ADA609C
:10569000BFF34F8FC046FDE70A490423FF330122C1
:1056A000CA540F4B1868002202F054FDF8BDBFF336
:1056B0004F8F104B104ADA60BFF34F8FC046FDE7A3
:1056C0001D36002068040020A7DCFFFF50220000E8
:1056D000501E000059230000C41200202236002072
:1056E0007845002024DC000884DC000864DC000825
:1056F0002444002000ED00E00400FA05F8B50400A1
:105700000A2513E07E2E2FD0974A984B0021D154C2
:105710003100974804F022FD3100964804F01EFD48
:10572000914A954BD35C012B00D1EEE08E4B934A0E
:105730009A5A93495B5A9A4200D1E6E05A1C8A4928
:10574000CB189048844663441E7893059B0D8C4A81
:105750008B52002C00D1C3E08B4BCA5C092ADFD8E6
:1057600093008A49CB589F4601327F49864BCA54E1
:10577000CAE77D4B7D490120585485495E5401326A
:1057800081495A5431007B4804F0E8FC0025C7E702
:10579000754F764ABB5C591CB954FB187C4A944639
:1057A00063441E703100734804F0D8FC764ABB5C39
:1057B0000133BB54B4E76C4F6C4ABB5C591CB95401
:1057C000FB18734A944663441E703100694804F024
:1057D000C5FC6D4ABB5C0133BB54A1E7624D634A13
:1057E000AB5C591CA954EB18694A944663441E707B
:1057F0003100604804F0B2FC634AAB5C0133AB5447
:1058000000258DE7584B59495A5C501C58549B1839
:105810005F4A944663441E7035433100554804F096
:105820009DFC002D05D05049574A8B5C01338B54A9
:1058300076E74D4A544B0721D15471E74A4B4B4907
:105840005A5C501C58549B18514A944663441E702D
:10585000013DEDB23100474804F080FC002D00D03E
:105860005EE74149484A8B5C01338B5458E73E4F11
:105870003E4ABB5C591CB954FB18454A94466344E4
:105880001E7031003B4804F069FC3F4ABB5C0133A9
:10589000BB5445E7344F354ABB5C591CB954FB181F
:1058A0003B4A944663441E703100324804F056FC73
:1058B000354ABB5C0133BB5432E77F2E04D02A4A01
:1058C000314B0021D1542BE7274B2B4A012199540E
:1058D0002D4A0021995431002E4804F03FFC1FE767
:1058E0000D2E25D0204B21495A5C501C58549B1832
:1058F000274A944663441E70300004F049FC1A4A5B
:105900001D4BD35C012B00D010E7174A1A4BD35C18
:10591000002B0CD013000021174A9954134A9D5CA8
:105920001D481D529954002C1AD1FFF79DFCF8BD5B
:1059300031001A4804F012FC0B490C480A5C531C55
:10594000DBB28A18124FBC46624416705A1C0A54C5
:10595000CB1863440A221A70074B093ACA54CEE79F
:10596000FFF730FEE3E7C046C4120020471E0000E8
:10597000A8DC0008B0DC0008481E00004C1E000037
:105980004E1E0000461A0000461E0000F8C900081E
:10599000501E0000B8DC000850220000D4D90008D6
:1059A00010B504000E4B1978FA208000FAF7ACFB12
:1059B00001000C4B1868FAF7A7FB00F089F80028E3
:1059C0000CD1032C01D9012009E00022210001386B
:1059D00000F042F8024B5C60002000E0012010BDA6
:1059E000040000200000002010B5084A1368402180
:1059F0000B4313600320FFF7D3FF041E02D00124E2
:105A0000200010BDFFF750F9FAE7C0460020024021
:105A1000034A1168034B1B785B1813607047C0463C
:105A20007C45002004000020014B18687047C046E8
:105A30007C45002070B50400FFF7F6FF0500631CED
:105A400002D0044B1B78E418FFF7EEFF401B8442A2
:105A5000FAD870BD0400002070B5002811DB820860
:105A6000134DC0329200545903231840C000FC3338
:105A70001E008640B44389010B40834023435351A9
:105A800070BDC0B20F220240083A9208063292005E
:105A9000084BD3185D6803242040C000FF22140087
:105AA0008440A54389011140814029435960E7E7BB
:105AB00000E100E000ED00E0002805DB1F231840B6
:105AC0001E3B8340014A13607047C04600E100E07E
:105AD00001380A4B98420FD8094A50600948036AB6
