:020000040800F2
:100000000050002061840008793600087B36000823
:1000100000000000000000000000000000000000E0
:1000200000000000000000000000000099810008AE
:100030000000000000000000418200087D3600083A
:10004000B1840008B1840008B1840008B1840008BC
:10005000B1840008B1840008B1840008B1840008AC
:100060000000000091360008A1360008B9360008EB
:10007000B1840008B184000839370008B184000851
:10008000B1840008B1840008B184000800000000B9
:10009000B1840008B1840008B1840008B18400086C
:1000A000B1840008B1840008B18400082937000831
:1000B000B1840008B18400080000000000000000C6
:1000C00010B5064C2378002B07D1054B002B02D02E
:1000D000044800E000BF0123237010BD7800002019
:1000E00000000000F8990008084B10B5002B03D061
:1000F0000749084800E000BF07480368002B00D10B
:1001000010BD064B002BFBD09847F9E7000000001C
:100110007C000020F8990008740000200000000016
:10012000002243088B4274D303098B425FD3030A36
:100130008B4244D3030B8B4228D3030C8B420DD349
:10014000FF22090212BA030C8B4202D312120902D7
:1001500065D0030B8B4219D300E0090AC30B8B4215
:1001600001D3CB03C01A5241830B8B4201D38B03C3
:10017000C01A5241430B8B4201D34B03C01A524168
:10018000030B8B4201D30B03C01A5241C30A8B42AB
:1001900001D3CB02C01A5241830A8B4201D38B0296
:1001A000C01A5241430A8B4201D34B02C01A52413A
:1001B000030A8B4201D30B02C01A5241CDD2C309AC
:1001C0008B4201D3CB01C01A524183098B4201D328
:1001D0008B01C01A524143098B4201D34B01C01A13
:1001E000524103098B4201D30B01C01A5241C3088B
:1001F0008B4201D3CB00C01A524183088B4201D3FA
:100200008B00C01A524143088B4201D34B00C01AE5
:100210005241411A00D20146524110467047FFE751
:1002200001B5002000F006F802BDC0460029F7D055
:1002300076E770477047C046002B11D1002A0FD1D6
:10024000002900D1002802D00021C943081C07B4AE
:10025000024802A14018029003BDC046D9FFFFFF2B
:1002600003B4684601B5029800F04EF8019B9E4623
:1002700002B00CBC7047C046F0B5CE4647461504E8
:100280002D0C2E0080B50704140C3F0C9946030C6E
:100290007E435D43674363437F19340CE4199C46F6
:1002A000A54203D980235B029846C4444B46514380
:1002B00043433604360C250C24046544A41959180C
:1002C000491920000CBC90469946F0BD70B500223B
:1002D0000C4B04000D0001F01DFA002804D1200091
:1002E000290001F077F970BD064B0022200029009B
:1002F00000F05AFE01F06EF980231B069C46604414
:10030000F1E7C0460000E041F0B557464E4645468D
:10031000DE46E0B5040083B00D00924699468B425C
:100320002FD82CD04946504601F01CFA290006006F
:10033000200001F017FA331A9846203B9B4600D55F
:1003400074E053465A4693401F005346424693403A
:100350001E00AF4229D826D05B46A41BBD41002B0E
:1003600000DA79E0002200230092019301235A462B
:1003700093400193012342469340009319E0824247
:10038000D0D900220023009201930C9B002B01D0B6
:100390001C605D600098019903B03CBC9046994692
:1003A000A246AB46F0BDA342D6D90022002300925C
:1003B00001934346002BE8D0FB0772081A434646D8
:1003C0007B080EE0AB4201D1A2420CD8A41A9D4199
:1003D000012024196D410021013E24184D41002EB9
:1003E00006D0AB42EED9013E24196D41002EF8D162
:1003F0005B460098019900196941002B22DB2B0014
:100400005A46D3402A004446E2401C005B46150091
:10041000002B2CDB26009E40330026004746BE40C2
:100420003200801A994100900191AEE742462023A4
:100430009B1A5246DA40414613004A468A4017004A
:100440001F4382E7424620239B1A2A0046469A40D1
:100450002300F3401343D5E74246202300219B1A93
:100460000022009101920122DA40019282E7424685
:10047000202326009B1ADE402F00B4469740664694
:100480003B003343C9E7C046F8B54546DE4657460C
:100490004E460C03E0B54E00C90F88460D00610AB8
:1004A000440F0C43C70019035800DB0F9B464B0A4F
:1004B000510F0B43760D400D1900D200D84500D1E5
:1004C000AEE0351A002D00DCF6E000280FD1134312
:1004D00000D1DBE06B1E002B00D037E1BA1A974247
:1004E000BF41641A7F42E41B0126170024E0C64B7B
:1004F0009E424DD080231B041943382D00DD07E1B7
:100500001F2D00DD38E12020431B9A460B0050468A
:100510008340994613004846EB4018430300504679
:100520008240501E8241E9401A43BA1A611A97422A
:10053000A441170064420C1B230262D56402650AC1
:10054000002D00D1DFE0280001F0EEF80300083BA9
:100550001F2B00DDD2E020223C00D21A9D40D44067
:100560009F4025439E4200DDC4E09E1B731C1F2B51
:1005700000DDF1E0202238002900D21AD840914055
:1005800097402C000143781E8741DC4000260F4332
:100590007B0709D00F233B40042B05D03B1DBB42FA
:1005A000BF417F42E4191F0023022CD5964B013630
:1005B0009E4200D19AE04546944BFF081C406007DC
:1005C000760564020743240B760D00212403230BD8
:1005D0000C0D8F4A24051C431440330523435B0054
:1005E000ED075B082B43380019003CBC9046994648
:1005F000A246AB46F8BD6446044300D111E20400B4
:1006000067467B07C6D145466007FF080743E408F5
:100610007D4B9E4230D024037605240B760DD4E723
:10062000331A9A46002B78DD002831D0764886426E
:10063000AED08020000401435346382B00DCE9E0B3
:100640000A43511E8A410021D219BA42BF410919F9
:100650007C4217000C192302D3D56B4B01369E4206
:1006600000D13AE10120694B1C407B0807401F4341
:10067000E007074364088BE723003B4300D1CBE14D
:100680008022120314432403240B9EE72E007FE7ED
:100690000800104300D1B4E0581E002800D0DEE06E
:1006A000BA18BA429B4164185B42E418170001264D
:1006B0002302A6D50226D5E7002D6ED1701C400579
:1006C000400D012800DCF9E0B81A844687428041D9
:1006D000E51A40422D1A280200D489E0D71BBA42FD
:1006E00092411C1B5242A51AD84629E745460024D0
:1006F00000276AE7454CF61A2C4049E73D002838A8
:10070000854000272EE7380001F00EF820301DE765
:100710000A43511E8A41002107E7002B00D0F3E075
:10072000701C43055B0D012B00DCADE0364B98429D
:1007300000D1D1E0BA18BA42BF4164187F42E4192F
:10074000E707520817436408060021E72E48854250
:1007500000D193E01D00D0E629001F3EF140202B80
:1007600000D18DE04022D31A9D402F437D1EAF4122
:1007700000240F43002644E72B000800203BD8400C
:100780000300202D00D17DE04020451BA9400A43F5
:10079000511E8A4100211A43C7E6002E50D01A4E3E
:1007A000B04257D080266B429946360434434B46BC
:1007B000382B00DDD6E01F2B00DD35E12026F51AB1
:1007C0002600AE40B2463E00DE40AC4635005646FE
:1007D0002E436546AF407D1EAF41DC403743D71BFB
:1007E000BA4292410C1B5242A41A0600D846A3E614
:1007F000644667462C4300D0A2E600250026002769
:1008000006E71E00C4E6C046FF070000FFFF7FFFAB
:10081000FFFF0F801F2B63DC2020C31A08009840C5
:100820009C46834653461000D84003005846184360
:1008300063469A40531E9A4153460243D94003E708
:1008400026003E4306D0EB439946002BC7D0944E7A
:10085000B042ACD10C0017000600D84698E6904B89
:100860009A450BD08246E7E6002800D09EE01800AB
:10087000104300D1E9E01C001700D846884E87E6F7
:10088000002572E7002182E723003B43002E00D0C1
:10089000ABE0002B00D1E7E00B00134300D177E67B
:1008A000BA18BA42BF4164187F42E419230200D447
:1008B000F2E07C4B17001C40060069E6200038433C
:1008C000002ED1D100285BD11C00144300D1A8E038
:1008D0001C001700D8465BE606000024002797E6B8
:1008E00050460B002038C34099465346202B00D178
:1008F00095E0402350461B1A99400A43511E8A41F5
:100900004B4600211A439FE6002E30D126003E437D
:1009100067D0DB439A46002B1CD0614EB04260D0BA
:100920005346382B00DD96E01F2B00DD9FE020268C
:10093000F31A26009E409C46B34653463E00DE40D6
:1009400033005E461E4363469F407B1E9F415346D5
:10095000DC403743BF189742924164185242A418B2
:10096000060078E627437C1EA741002437E74C4E5B
:10097000B04236D080265B4236049A463443CFE7F5
:100980001800104300D103E6B81A84466745AD410C
:10099000E01A6D42401B050200D42CE6D71BBA4278
:1009A00092411C1B5242A41AD846F1E5180010438C
:1009B00000D163E7F808670707438020E4080003D5
:1009C000044208D0DD08054205D1D2085907114379
:1009D0000F002C00D8467B0FE4001C43FF00304E74
:1009E000D6E50C0017000600D2E5002B38D00B002E
:1009F000134300D142E7F808670707438020E40863
:100A000000030442E7D0CB080342E4D1D2084907EF
:100A100011430F001C00DEE700270024D5E500216C
:100A20006BE700250027F3E54E462500203EF54004
:100A30004B462E00202B2DD04025ED1AAC402743ED
:100A40007C1EA74100243743C9E6802400252403E7
:100A5000134E0027DCE527437C1EA741002479E7DD
:100A60000C0017000E4E93E50C00170090E556465B
:100A70002300203EF34099465346202B0ED04023BE
:100A800056469B1B9C4027437C1EA7414B46002497
:100A90001F435FE70024D2E71700B2E50024F2E726
:100AA000FF070000FFFF7FFFF0B557464546DE46D3
:100AB0004E46E0B50C0398464E00230B87B0070066
:100AC00092469B46760DCD0F002E6BD06D4B9E420D
:100AD00035D080245B46420F2404DB0014431C43C2
:100AE000C3009946684BA3469C46002300276644F2
:100AF000029343461C035A00DB0F5046240B520D51
:100B0000984600D176E05F4B9A426DD08023410F2A
:100B10001B040B435C49E4008C461C43C3000020CB
:100B200062444146B6186940721C019194460743DD
:100B30000F2F00D9B0E0554ABF00D25997465B4607
:100B40000343994600D087E000239B4602330827E1
:100B50000293CEE742460192022867D0032800D1D3
:100B60000EE2012800D062E1002300240022994611
:100B700001990140CDB2002112030B0D120B1B0590
:100B80001343434A240513401C436400ED076408E3
:100B90002C434846210007B03CBC90469946A246EB
:100BA000AB46F0BD034399464FD05B46002B00D1C6
:100BB00089E1584600F0B8FD03000B3B1C2B00DD1B
:100BC0007AE11D22D31A3A0001005C46DA40083966
:100BD0008C4013008F4023439B46B94600232D4E83
:100BE0000027361A029384E7534623432AD1002470
:100BF000022096E75346234320D0002C00D157E132
:100C0000200000F091FD03000B3B1C2B00DD49E1AF
:100C10001D21CB1A51460200D9405346083A944050
:100C200093400C431B4A121A00207AE70125019BCE
:100C3000144C1D400023002299469CE7002400220A
:100C400001206EE7534603206BE700239B460133E8
:100C50000427002602934CE7032381460C270293C6
:100C600047E780220023002512039946054C82E7BE
:100C70005C464B4602986FE75C464B4601950298EE
:100C80006AE7C046FF07000001FCFFFF60A0000804
:100C9000FFFF0F800DFCFFFF4A464946170C1A0C58
:100CA0001B041B0C08041900000C41431500884666
:100CB00019007D4379430395894629001500454372
:100CC0004D44029545462D0CAA46029D5544A94522
:100CD00006D98A46802149028946CA445146039171
:100CE000290C0491414609042D04090C8846290069
:100CF000250C24044144240C0591210041438846DD
:100D0000210079438A466843414650448146080C95
:100D100048446F43824503D98021490289464F44A4
:100D2000010C894639004944029141460F04049957
:100D30003F0C88460004C01980444146049159463E
:100D40000F0C0904090C884659438A46390051435F
:100D5000894641464A435146090C8B467B43D2188B
:100D60005A44934203D980235B029B46D94451469F
:100D70000904090C8A46414661437C43130C120462
:100D80004B445244A1468A463C0041466C434D4385
:100D900051464D440F0C7D19A94503D980214902C4
:100DA00088464444049F0399B84641448B46834592
:100DB000804141428846514608042F04000C3F18E8
:100DC0005846029910188946904292414F44BA46BB
:100DD000524299469346C244D144CB448F42BF41CC
:100DE000C245894199459B41934592417F42494281
:100DF0002D0C52420F435B4213437F19FF185B4691
:100E00003C19DB0D059A64021C43430213435D1E2B
:100E1000AB415A46C00D034352021343E20156D57B
:100E200001205A0803401343E207134364085A4859
:100E3000604400284DDD5A0709D00F221A40042AC9
:100E400005D01A1D9A429B415B42E4181300E2014F
:100E500004D58020514AC00014406044504A90425A
:100E600000DDE3E60125DB0862071A436402019B0B
:100E70009146220B4405640D1D407CE680225946B4
:100E80001203114208D0144206D122431203120B5E
:100E900045469946434C6EE65B461A431203120BD5
:100EA000404C68E603005446283B9C400023B9E6CA
:100EB00000F03AFC2030A6E60300283B9F400023C8
:100EC000BB4699468AE600F02FFC203074E6B44613
:100ED000ADE701252A1A382A06DD019B00241D40B2
:100EE00000230022994646E61F2A21DC2025200007
:100EF000AD1A1E00AB40A840D6405D1EAB4130434A
:100F00001843D440430709D00F230340042B05D0D6
:100F10000300181D98429B415B42E418230221D52F
:100F20000125019B01241D4000230022994622E651
:100F30001F2521006D42281AC1400800202A1DD01B
:100F40005F35AA1A944023435C1EA341072503433F
:100F50001D400022002D09D00F2200241A40180045
:100F6000042AD6D1030065076402220BDB082B4359
:100F700001259946019B00241D40FCE50024E2E781
:100F8000802201251203224301991203120B0D4006
:100F90009946044CEFE5C046FF030000FFFFFFFE4B
:100FA000FE070000FF070000F0B54646D6464F4654
:100FB0000C03C0B5CD0F4E00610A440F0C43C100B5
:100FC0005800400D84468A460F001903500F490A05
:100FD0000143C648760DA846DB0FD200844500D1F8
:100FE000D8E001204340AB4200D1A6E06046351A6C
:100FF000002D00DC05E1002810D10B00134300D1C7
:10100000D7E06B1E002B00D04BE153469F1ABA4528
:101010008041641A4042241A01261EE0B34B9E42CE
:1010200048D080231B041943382D00DD19E11F2D02
:1010300000DD4CE120230F005B1B10009A409F4015
:10104000E840531E9A41E940074317435346DF1BCC
:10105000611ABA45A44164420C1B230200D4C5E0C6
:101060006402650A002D00D1F6E0280000F05CFB68
:101070000300083B1F2B00DDE9E020223C00D21AD0
:101080009D40D4409F4025439E4200DDDBE09E1BF7
:10109000731C1F2B00DD0AE120223800D21A290020
:1010A00097402C009140D8407A1E9741DC400026A2
:1010B00001430F437B0709D00F233B40042B05D08E
:1010C0003B1DBB42BF417F42E4191F00230225D5CF
:1010D000864B01369E4200D1AFE0854B01251C4076
:1010E00043466207FF08640276051743240B760D1A
:1010F0001D4000212403230B0C0D7E4A24051C43B4
:101100001440330523435B00ED075B082B43380095
:1011100019001CBC90469946A246F0BD01254346E5
:101120006207FF081743E4081D40704B9E4236D00B
:1011300024037605240B760DDBE76346F31A002BB8
:1011400000DC94E06046002835D068488642B1D083
:1011500080273F043943382B00DCFDE00A431700A9
:1011600000217A1E9741574457458041091944424E
:101170000C1923023AD55D4B01369E4200D14BE15A
:1011800001225B4B1C407B0817401F43E2071743BB
:1011900064088FE70800104300D024E721E723000C
:1011A0003B4300D1B9E18022120314432403240BF2
:1011B0009FE72E007EE70800104300D1CAE0581ECA
:1011C0008446002800D0E7E052445245804164182C
:1011D0004042241817000126230207D50226CFE734
:1011E00064462C4300D1B3E12C0067467B0700D056
:1011F00062E76307FF081F4301254346E4081D40DB
:1012000093E7002D78D1751C6D056D0D012D00DC67
:10121000F2E05046801A8245BF41651A7F42ED1BBD
:101220008446280200D48CE05046171ABA429241F4
:101230000C1B5542651B984614E7012543460024C4
:101240001D40002755E72A4CF61A2C4032E73D0096
:1012500028388540002717E7380000F065FA20306D
:1012600006E70A43170000217A1E9741EEE6002B9D
:1012700000D0E5E0731C9C465B055B0D012B00DC98
:101280009FE01A4B9C4500D1C5E052445245804135
:10129000641840422418E70752081743640866465A
:1012A00008E71248854200D185E01D00BCE6290010
:1012B0001F3EF140202B00D17FE04022D31A9D40F9
:1012C0002F437D1EAF4100240F4300268EE72B00E5
:1012D0000F00203BDF40202D71D040235D1BA94033
:1012E0000A43511E8A4100211743AFE6FF07000061
:1012F000FFFF7FFFFFFF0F80002E3ED0B34EB445AF
:1013000045D0802636046D423443382D00DDA8E0F8
:101310001F2D00DD1FE1202627005046761BB74019
:10132000E84007435046B040461EB041EC403843C9
:10133000171ABA4292410C1B5242A41A66469846AA
:101340008BE6644667462C4300D08BE600250026DA
:101350000027EAE61E00ADE61F2B60DC2027F81A06
:101360000F00844687401000D84007436046824003
:10137000501E8241D9401743F5E6260050460643E9
:1013800005D0ED43002DD3D0904EB445BDD10C0017
:101390001700664698468DE68C4883420BD063461C
:1013A000D9E6002D00D096E00800104300D1E2E01D
:1013B0000C0017009846854E7CE6002580E700214A
:1013C0008EE7230050460343002E00D0A8E0002BF8
:1013D00000D1DEE00B00134300D16BE652445245CE
:1013E00080416418404224181700230200D4FDE60F
:1013F000774B66461C405DE6250050460543002EAF
:10140000CFD1002D4FD10C00144300D1A0E00C002F
:10141000170098464EE666460024002785E61F0022
:101420000800203FF8400700202B00D18EE040202C
:10143000C31A99400A43511E8A410021174392E67C
:10144000002E14D126005046064362D0DB43002B09
:101450005CD187189742924164185242A41866469C
:1014600087E650462043441EA041002460E7574EC3
:10147000B4454ED0802636045B423443382B00DD21
:101480007FE01F2B00DD8BE0202627005046F61A58
:10149000B740D84007435046B040461EB0410743CE
:1014A000DC40BF18D6E70D00154300D102E65046D8
:1014B000801A8245BF41651A7F42ED1B844628028F
:1014C00000D48DE65046171ABA4292410C1B524284
:1014D000A41A9846EEE50D00154300D16BE750467F
:1014E0006707C00807438020E4080003044207D0D0
:1014F000CD08054204D12C009846D70849070F4370
:101500007B0FE4001C43FF00304ED3E52F4EB44563
:10151000B4D10C0017006646CCE500270024E8E5AE
:10152000002B39D00B00134300D144E7C0086707F4
:1015300007438020E40800030442E1D0CB080342C3
:10154000DED1D70849070F431C00D9E7002171E716
:1015500000250027E9E52E002700203EF740202D3A
:101560002FD04026751BAC4050462043441EA0415E
:1015700000243843DCE6802400252403134E002792
:10158000D3E5504620430700781E87410024BF184A
:1015900060E70C0017008DE50C0017000B4E89E585
:1015A0001E002700203EF740202B0CD04026F31AC7
:1015B0009C4050462043441EA04107430024BF18CE
:1015C00048E70024D0E70024F3E7C046FF07000007
:1015D000FFFF7FFF30B5134D0A034B00120B5B0D6D
:1015E000C90F0024AB4210DD0F4CA3420FDC802456
:1015F0000E4D64032243ED1A1F2D0BDD0C48C31A58
:10160000DA405442002900D11400200030BD094BBB
:10161000CC18FAE7084CE840A44663449A400243D9
:10162000EFE7C046FE0300001D0400003304000085
:1016300013040000FFFFFF7FEDFBFFFF10B5041E4A
:1016400028D000F071F8154B154A1B1AD21A1F2A20
:1016500015DD144AD21A9440002224035B05240BA2
:101660005B0D0021100024030A0D240B12052243F8
:101670000D4C1B05224013435B00590810BD21008F
:1016800091400A000B21081AC4405B052403240B77
:101690005B0DE6E7002300240022E2E71E040000C1
:1016A0003304000013040000FFFF0F808446101C69
:1016B00062468C46191C634600E0C0461FB500F028
:1016C000FBF8002801D40021C8421FBD10B500F06E
:1016D00055F84042013010BD10B500F0EDF800287B
:1016E00001DB002010BD012010BDC04610B500F088
:1016F000E3F8002801DD002010BD012010BDC04628
:1017000010B500F075F8002801DC002010BD0120A4
:1017100010BDC04610B500F06BF8002801DA0020BB
:1017200010BD012010BDC0461C2101231B0498429E
:1017300001D3000C10391B0A984201D3000A083962
:101740001B09984201D30009043902A2105C401819
:101750007047C046040302020101010100000000BD
:101760000000000010B5002903D1FFF7DDFF203095
:1017700002E0081CFFF7D8FF10BDC046F0B54F4689
:101780004646D6465C00C0B51F03DB0F9A46174B92
:101790000E034D0084468046360B6D0DC90F9146F1
:1017A0003F0B640D01209D4208D09C4201D0A54210
:1017B0000BD01CBC90469946A246F0BD634633430D
:1017C000F7D1AC42F5D13A43F3D10120BE42F0D17A
:1017D000C845EED1514507D0002DEAD163461E43DE
:1017E0003000461EB041E4E70020E2E7FF070000BA
:1017F000F0B54546DE4657464E46E0B51F033D0B65
:101800002C4F0E034C00AB465D008446360B640D36
:10181000C90F90466D0DDB0FBC422AD0254FBD424B
:101820002DD0002C0FD130430700814678427841FB
:10183000C0B2002D17D15F463A4314D14B46002069
:10184000002B0AD006E0002D02D15846024301D0F9
:10185000994218D04842012108433CBC9046994621
:10186000A246AB46F0BD0028F2D00120013B184350
:10187000F3E737000743D1D002204042EDE75F464F
:101880001743CED0F8E7AC42E4DC03DA481E01216E
:101890000843E2E75E45DDD806D000205E45DCD295
:1018A0000123481E1843D8E7C445D3D80020C445B7
:1018B000F6D3D2E7FF070000F0B54E464546DE46B8
:1018C00057465C00E0B51F03DB0F99462A4B0E0319
:1018D0004D00C90F8446360B6D0D8B4690463F0B6D
:1018E000640D9D4220D0244B9C4222D0002D12D169
:1018F000304343424341DBB2002C1FD0002B0CD0BD
:101900004B460120013B034318003CBC90469946DE
:10191000A246AB46F0BD002C16D0CB4517D05B4697
:10192000594201230B43EFE7310002230143EBD17E
:10193000D9E7390002231143E6D1D7E73A43DDD195
:1019400000230028E0D0EAE73A43E6D1E7E7A542E2
:10195000E5DC05DBBE42E2D807D00023BE42D3D28D
:101960005946012301390B43CEE7C445D7D800239C
:10197000C445F5D3C8E7C046FF0700000023C25C9A
:101980000133002AFBD1581E704700000378002B5A
:101990001CD0194B1B68194A92885A634378002B54
:1019A00019D0154B1B68154A92889A638378002BCF
:1019B00016D0114B1B68114A9288DA63C378002B4A
:1019C00013D10D4B1B6800221A6470470A4B1B6829
:1019D00000225A63E2E7084B1B6800229A63E5E79E
:1019E000054B1B680022DA63E8E7034B1B68034AD8
:1019F00092881A64E9E7C046244000209400002041
:101A000010B5002808D004220100054806F0C2FDE8
:101A10000122034B9A7110BD0022014B1A60F7E7B7
:101A20009400002010B5054B9B79002B00D110BD10
:101A3000024800238371FFF7A9FFF8E79400002014
:101A400070B5164806F046FE154C0A22002120000B
:101A500006F0A9FD134D0021280004F075FB0421B8
:101A6000280004F071FB0821280004F06DFB0C2114
:101A7000280004F069FB2B6800225A639A63DA633A
:101A80001A64FF232370803B2372803BA3800233C0
:101A9000E371A371FFF7C6FF70BDC046A0A00008A8
:101AA0009400002024400020FF23181A014B988046
:101AB0007047C04694000020034B036054330B6012
:101AC000802313607047C046A000002001238B4094
:101AD000DBB20370437083707047000010B5036879
:101AE0001B685B0700D410BD0F4B01216022995485
:101AF00001329A5C11001831890059181C6D4C6034
:101B000011002231890059185C6D4C6011002C3194
:101B1000890059189C6D4C60D96D363292009B1823
:101B2000596002F0C7FDDEE750110020884202D95B
:101B3000401A01387047081AFCE7000070B5554C90
:101B4000AC235B00E5582900A06CFFF7EFFFE36CC6
:101B5000984200D870BDA5642000293004220021DD
:101B600006F021FD3123E35C072B00D98AE09A00BF
:101B700049498A589746474AFF2029215054013342
:101B800008315354C338C826B600FFF78DFF434CC5
:101B90002000FFF735FFFFF745FF293C3125615D48
:101BA000628E3F4806F008FD635D072B6DD0394B10
:101BB000DE64CFE7374AFF202A2150540133073132
:101BC0005354C338C826B600DFE7324AFF202B2122
:101BD0005054013306315354C338C826B600D4E7F5
:101BE0002C4AFF2129201154013011540133CE39E0
:101BF00053540C38C826B600C7E7264AFF212920CF
:101C0000115401301154013011540133CE39535461
:101C10000D38C826B600B8E71E4AFF212920115406
:101C200001301154013011540133CE395354553021
:101C3000C826B600A9E7174AFF202C2150540133CB
:101C400005315354C338C826B6009EE7114C618E47
:101C5000C9B220002930FFF739FF638E01339BB2F0
:101C60006386032B03D03C20C82676008DE7094B02
:101C700000225A8631215A5C01325A543C20C8262F
:101C8000760082E7002006007FE700212A33014A20
:101C9000D1548CE750110020109A000879110020CF
:101CA000B0A0000870B5144BAC2252009D58986C3F
:101CB0002900FFF73BFFC8239B00984200D870BD66
:101CC0000D4CA5642500293504220021280006F0CA
:101CD0006AFCFF232922A3540132A3540132A354E6
:101CE0000132A3540020FFF7DFFE2800FFF788FE33
:101CF000FFF798FEE3E7C04650110020F8B51E4CF0
:101D0000200006F0E7FC1D4806F0E4FC1C4806F045
:101D1000E1FC200006F0DEFC01F020FAFFF790FE67
:101D2000184CF22292000021200006F03CFC1E20FC
:101D3000FFF7BAFE2925FF2363552A27E3552B26F3
:101D4000A3551148FFF75CFEFFF76CFE192002F067
:101D50007FFA00236355E355A3559133FF33E364C2
:101D60000020FFF7A1FE0848FFF74AFEFFF75AFEE2
:101D7000192002F06DFAF8BDDCA0000804A10008EB
:101D800024A100085011002079110020F0B5CE46A2
:101D900000B584B08C235B00274AD058274B98426B
:101DA0000BD8ED2812D90123812B0BDC9A00244992
:101DB0005458A04210D20133F6E796214900A023DF
:101DC0005B00D15204B004BC9146F0BD1D49A02374
:101DD0005B00194AD152F5E71A001E3A164F9100DE
:101DE00052185100A0267600B953013B9B00144ABB
:101DF0009B589DB2A2B2AD1AAAB211001B041D0CD1
:101E0000AA0052195300820010184200981A039138
:101E1000FEF786F982B291462204120C0004000CEF
:101E20000090039B2900084806F0C6FBBB5B4A46AE
:101E30009B1ABB53C6E7C046501100201B0F000081
:101E4000389B0008DE03000038A1000810B505F03B
:101E500027FFAC235B00034AD050034803F012FB7A
:101E600010BDC04650110020C83F002010B5B92356
:101E70005B00054AD35C002B02D1FFF713FF10BDB6
:101E8000FFF75CFEFBE7C0465011002070B5040070
:101E90000378234DAB730178224806F08DFB6178FF
:101EA000214806F089FB63789B096B7063781B11EE
:101EB00003221340AB7063789B101A40EA7062787B
:101EC0005210012313402B75A178184806F074FBBB
:101ED0000223E356002B1DDB0022114BDA73A3789B
:101EE0005B0619D501220E4B1A74A3789B0615D4F4
:101EF00000230B4D6B74A2781F2313406B8205F0F7
:101F0000CFFEB6235B00E8506C3BFF3B6B810023A8
:101F1000EB8370BD0122E0E70022E4E70123E8E75C
:101F20005011002070A100088CA1000898A10008A1
:101F300010B5244C80220021200006F034FB7E23C3
:101F40002370703B6370C233A3701F4BC7225200D3
:101F50009A5CE27009216171A2712122E2719A7B7F
:101F600022725A7862729A78A272DA78E2721B7DD3
:101F7000002B22D080235B42134A127C002A1ED100
:101F800000221343DBB2104A518A0B430D4C2373DA
:101F900098235B00D35A63730E220121200001F0C5
:101FA0009FFDA0737F23E37310222100012001F025
:101FB0002DFD064806F08EFB10BD0023DCE7402215
:101FC000DFE7C0467C3E00205011002018A2000828
:101FD00010B50A4806F07EFB094C80225200002111
:101FE000200006F0E0FA04220649200006F0D2FAAA
:101FF0002100022001F0F2FC10BDC04658A20008EA
:102000001113002074A2000810B50A4C802252005F
:102010000021200006F0C7FA09220749200006F037
:10202000B9FA2100022001F0D9FC2100034806F092
:10203000C3FA10BD11130020A0A2000884A200085A
:1020400010B50C4806F046FB0B4C802252000021D4
:10205000200006F0A8FA0E220849200006F09AFA9D
:102060002100022001F0BAFC2100054806F0A4FA84
:1020700010BDC046D8A3000811130020F0A300082B
:10208000BCA2000870B5050001000C4806F094FAE7
:102090000B4C802252000021200006F084FA2A0016
:1020A0000849200006F020FB2100022001F096FCE8
:1020B0002100054806F080FA70BDC04600A4000863
:1020C0001113002024A40008BCA20008F0B5D646D5
:1020D0004F464646C0B584B005000E001400137884
:1020E0000A000100D04806F067FA412D09D8AD007A
:1020F000CE4B5B599F46C7235B00CD4AD35C9E42C3
:1021000005D004B01CBC90469946A246F0BD012102
:102110007823FF33D154F4E72000FFF7B7FE22788D
:10212000C34B9A73627892095A7062781211032134
:102130000A409A70627892101140D9706178491003
:1021400001220A401A750223E356002B27DB0023E5
:10215000B74A5375A3785B0623D50123B44A137499
:10216000A3789B061FD40023B14D6B74A2781F2364
:1021700013406B8205F094FDB6235B00E8506C3B86
:10218000FF3B6B810023EB837D33FF330122EA5455
:1021900021786278A378A74806F00EFAB1E7012308
:1021A000D6E70023DAE70123DEE7C7235B00A04A76
:1021B000D35C9E42A5D12000FFF768FE22789C4B9D
:1021C0009A73627892095A706278121103210A4058
:1021D0009A70627892101140D97062785210012181
:1021E0000A401A756278114099760223E356002B53
:1021F00023DA01238E4A5375A3785B061FD501238A
:102200008B4A1374A3789B061BD50122884B5A7402
:10221000A1781F220A405A8201225A810022DA83C1
:102220007D32FF320021995421786278A378824868
:1022300006F0C2F9FFF77CFE63E70023DAE700232C
:10224000DEE70022E2E79D00675DC7225200784981
:102250008A5C974203D00133062BF4DD51E76E1CF4
:10226000A6193000FFF712FE0021BE235B00704A62
:10227000D15432786419A378E178009139006F481D
:1022800006F09AF93DE70023E6E723781B02617820
:102290001943674BC022520099520A329A5A91420E
:1022A00007D8511AC3235B00614AD15200239946D3
:1022B00011E0634806F080F95D4B00227E21FF317A
:1022C0005A549A767D39FF397A22FF32995418E7A9
:1022D00001239C46E144A378994500DB11E74B4676
:1022E0006A46D381D3899846DD00ADB22B1DE75CE9
:1022F0003F023FB26B1DE35C1F43AB1DE25C120269
:1023000012B2EB1DE35C1A43924639004D4806F0C9
:1023100053F9C3235B00464AD35A9F42D8DC9A45FF
:10232000D6DD280008302018FFF7B0FD404BC12251
:102330005200414699529B7E012B00D0E1E63C4B76
:10234000DB7E9E4208D13A4B02329A5AC3214900A1
:102350005B5A9A4200D1D4E63B4806F0BBF9344BB5
:10236000C3225200995A023A9952DE76843AFF3AD1
:10237000BD2149005A547E21FF315A54C1E62378C9
:102380008A22FF322A498B540022182A00DDB8E63F
:10239000511C605CC7214900254D695C884201D011
:1023A0000132F2E753439BB2C52040002B5227482D
:1023B00006F002F9A5E67E23FF331D4AD35C002B0D
:1023C00000D19EE6002223789A4200DB99E6C123E1
:1023D0005B001749C95A5300E0184078814201D088
:1023E0000132F0E7E418A278114B9A81184806F000
:1023F000E3F886E6C7235B000D4AD35C9E4200D01B
:102400007FE605F04DFC0A4BB622520098500121A0
:102410000C32995475E6BFF34F8F0E4A0E4BDA60BB
:10242000BFF34F8FC046FDE738A40008309A00087C
:102430005011002068A40008A8A40008E4A4000823
:1024400020A5000860A500087CA5000898A5000844
:10245000C4A500080400FA0500ED00E02378002B75
:1024600005D00021B9235B00184AD15449E6174B27
:10247000002231215A545A8630397332FF3299542E
:102480003FE62278114B9A813BE6C7235B000F4A57
:10249000D35C9E4202D0FF2E00D032E622780B4B56
:1024A0009A7601217A22FF3299542AE62278120282
:1024B00063781343054DDF2464002B53FFF788FD39
:1024C000285BFFF7DFFDFFF783FD1AE650110020C0
:1024D00010B5C8B001F0A4FBE0235B00194AD05C42
:1024E00001F01AFD184B1968002245A804F048FEB7
:1024F00009E0154B196845AC0022684604F040FE1F
:102500006B4607CB07C4459B102B18D104AC822225
:1025100052004699200006F03DF821780B4806F05D
:102520004BF823783033DBB2012BE2D804AB1979B6
:102530005879587016226A44FFF7C8FDD9E748B0A9
:1025400010BDC0465011002058430020ECA50008E3
:1025500070B505000C4C802252000021200006F0CE
:1025600022F82A000949200006F0BEF82100084898
:1025700006F022F82100022001F030FA210005487F
:1025800006F01AF870BDC046111300200CA6000812
:1025900084A20008BCA2000810B5012000F0A8FE2B
:1025A0000021E0235B00204AD154FFF711FDFFF723
:1025B00047FDFFF70DFDFFF727FD00240FE0A20008
:1025C0001A4B9B1899681A4801F0F6F9FFF700FDBD
:1025D000E1204002FFF7BCFFFFF7FAFC0134022CB8
:1025E000EDDDB623FF33104AD35C002B0CD1BE23A4
:1025F000FF330D4AD35C002B0DD10B4B01229A7691
:102600007A21FF315A5410BDFFF7E2FCFFF718FDA5
:10261000FFF7DEFCEBE70121E0235B00D154002053
:1026200000F066FEE9E7C04650110020389D000822
:10263000AC40002010B50D4806F04CF80C4C8E2331
:10264000FF33E15C0B4805F0B7FFC7235B00E15C9B
:10265000094805F0B1FF9023FF33E15C074805F01E
:10266000ABFF074806F036F810BDC04618A60008B4
:10267000501100204CA6000870A6000894A600087F
:10268000B8A60008F0B587B00D0016005F4B984261
:1026900053D813185D4A934200D88BE083B2DC43D1
:1026A000A4B21B0A05AA13705070FA239B00009372
:1026B0000223A021564802F0F3FC039007001420E7
:1026C00001F0C6FD002F66D1FA239B000093230082
:1026D0002A00A0214E4802F097FD03900700142025
:1026E00001F0B6FD002F5BD12D19341BA4B205AA51
:1026F000002313705370FA239B0000930223A2213E
:10270000434802F0CDFC0600142001F0A1FD002E8C
:102710004BD1FA239B00009323002A00A2213C48BE
:1027200002F072FD0400142001F092FD002C26D06E
:102730002100384805F040FF21E080B2013080B22E
:10274000030A05AA1370507064230093623BA22110
:102750002F4802F0A5FC0400142001F079FD002CA4
:102760000FD1FA239B00009333002A00A2212848AE
:1027700002F04AFD002809D1142001F069FD07B0DC
:10278000F0BD2100244805F017FFEAE701002348C7
:1027900005F012FFF0E70399214805F00DFF93E7DC
:1027A0000399204805F008FF9EE731001E4805F018
:1027B00003FFAEE783B21B0A05AA13705070FA2319
:1027C0009B0000930223A021114802F069FC040041
:1027D000142001F03DFD002C13D1FA239B0000933F
:1027E00033002A00A0210A4802F00EFD0400142044
:1027F00001F02EFD002CC2D021000C4805F0DCFEBB
:10280000BDE721000A4805F0D7FEE6E7FFFF00001C
:102810007C3F00208CA80008ACA70008D4A70008C3
:10282000FCA700082CA800085CA80008E4A8000881
:10283000BCA8000810B5074C13220021200005F0A9
:10284000B2FE132221000020FFF71CFFFFF7F2FE6B
:1028500010BDC046DC12002010B5FFF7EBFF8E2341
:10286000FF33094AD05C002800D004209023FF33B6
:10287000054AD35C184300F0B1FC002000F0E8FCEE
:1028800000F0FAFC10BDC0465011002070B582B0B7
:10289000A24BAC225200995808329858FFF746F9DB
:1028A000FA239B00984200D836E1BF235B009B4A85
:1028B000D35C002B4ED0BB235B00984AD35C012B2A
:1028C00053D0B623FF33954AD35C002B54D0934B9F
:1028D000AC22520099580832995010329B5C002B60
:1028E0004DD0002113008D4AD1548C4CB8235B008D
:1028F000E05C00F05FFC00F005FDC0B2BE23FF33DA
:10290000E35C98420DD0BE23FF33844AD0540028A4
:102910003BD0834805F0DEFE0121E0235B007F4AC7
:10292000D1547C23FF337D4AD35C002B36D17B4BC3
:10293000AC2252009C580C3298582100FFF7F6F850
:10294000784B984200D8E7E0B2235B00734AD4503A
:10295000002440E0140001257F33FF33D55400F0FC
:10296000CDFFBB235B00E554A5E700217633FF33A1
:10297000D154FFF771FFA4E7FFF70EFEA7E701218F
:10298000B8235B00654AD154AFE7674805F0A2FE63
:102990000021E0235B00614AD154C2E7002000F02F
:1029A0007FFC002000F090FC00217C23FF335B4A79
:1029B000D154BCE7594900226023CA540133CC5496
:1029C00050310432594801F023FE6023534AD35C4E
:1029D000002BFAD00134092CECDD504B002282216F
:1029E00049005A5004315A5004315A5004315A5057
:1029F0002AE04A4B11001831890059184968822091
:102A000040001C58A446614419501100223189002D
:102A10005918496804301C58A446614419501100E3
:102A20002C3189005918496804301C58A446614467
:102A300019501100363189005918496804301C5862
:102A4000A446614419500132092AD2DD00240EE067
:102A5000324D230040339B00EB1858680A21FDF7E4
:102A60005FFB230044339B00ED1868600134032CA6
:102A7000EEDD2A4C8E267600A3598C225200A258F5
:102A80008A214900615890256D00605900902848BE
:102A900005F092FDA059FEF7D1FD264A264BFEF720
:102AA00003F80022254BFDF7FFFF02000B00FDF7A6
:102AB000EBFC23003933FF33186059600022204BB0
:102AC000FDF7F2FFFDF702FC1436A0536059FEF744
:102AD000B5FD184A184BFDF7E7FF0022174BFDF72D
:102AE000E3FF02000B00FDF7CFFC23002933FF3387
:102AF000186059600022124BFDF7D6FFFDF7E6FB88
:102B000004356053FFF742F9A15B625BA0235B00D1
:102B1000E35E0C4805F050FD02B070BD501100207E
:102B20000CA900088813000024A90008FC4200201A
:102B30003CA900086666666666660A400000303F8B
:102B4000000024407CA90008F0B58BB014220021BD
:102B500005A805F028FD2D4BD96A04221143D9623E
:102B6000D96A0A400192019AD96A80221143D96236
:102B7000D96A0A400292029ADA6A01273A43DA6273
:102B8000DA6A3A400392039AD96A02221143D9625F
:102B9000DB6A1A400492049B8024A40100222100D5
:102BA0001B4802F0EAF800221A491B4802F0E5F837
:102BB00099252D0200222900A020C00502F0DDF891
:102BC00005940697002407940326089605A9104843
:102BD00002F000F8114B059306970794089605A993
:102BE0000D4801F0F7FF059506970794089605A98B
:102BF000A020C00501F0EEFF402305930694079442
:102C000005A9054801F0E6FF0BB0F0BD0010024039
:102C100000080050C4F0000000040050A4F00000C0
:102C200000B583B0114A116B012319431163126B74
:102C300013400193019B00220321092001F028FE8B
:102C4000092001F055FE002203210A2001F020FE98
:102C50000A2001F04DFE002203210B2001F018FE96
:102C60000B2001F045FE03B000BDC046001002403D
:102C700010B5FFF7EBF8FFF709FE012004F02FFA7B
:102C8000F7E710B5012004F02AFAFBE710B5FFF7CB
:102C9000EDF8012004F023FAF9E710B5FFF718FC6E
:102CA000012004F01CFAF9E700B583B00190642319
:102CB000012201A9024804F04DF8019803B000BDBB
:102CC0007C41002072B6FEE700B583B008220021E7
:102CD000684605F068FC2948294B03600023C3635C
:102CE0008022D2054260836005228263043A026139
:102CF000C36020214254013143548362C221FF3119
:102D000041629639FF394254033242610363836161
:102D10004363C36101F082FB002824D1194B009367
:102D200080235B0101936946144801F053FD00289C
:102D30001BD1154B00936946104801F04BFD00284C
:102D400015D1124B009369460C4801F043FD002851
:102D50000FD10F4B00936946084801F03BFD002856
:102D600009D103B000BDFFF7ADFFFFF7ABFFFFF7E1
:102D7000A9FFFFF7A7FFFFF7A5FFC046FC42002011
:102D800000240140040000080800000C100000109E
:102D90002000001410B51248124B0360124B436020
:102DA000002383600122C260036143618361C361C8
:102DB000036202F00FF900280CD10021084802F04C
:102DC000D7FA002808D10021054802F0FDFA0028B2
:102DD00004D110BDFFF776FFFFF774FFFFF772FF16
:102DE0007C3F0020005400408266500000B587B050
:102DF0000822002104A805F0D6FB10220021684615
:102E000005F0D1FB29482A4B03600023436083600F
:102E100080225200C2600361436103F070F9002810
:102E200035D100230493059304A9204803F068FAE0
:102E300000282ED160230093002301930293039373
:102E400000226946194803F0E7F9002823D104213C
:102E5000164803F08DFA00281FD104226946134852
:102E600003F0DAF900281AD1082269460F4803F066
:102E7000D3F9002815D10C2269460C4803F0CCF98F
:102E8000002810D1094800F0F7FA07B000BDFFF79D
:102E900019FFFFF717FFFFF715FFFFF713FFFFF706
:102EA00011FFFFF70FFFFFF70DFFC0462440002082
:102EB0000004004010B50B480B4B036096231B0227
:102EC000436000238360C36003610C22426183611D
:102ED000C3610362436203F0EDFF002800D110BD1F
:102EE000FFF7F0FE7C4100200038014010B50B4890
:102EF0000B4B036096239B01436000238360C360F8
:102F000003610C2242618361C3610362436203F087
:102F1000D1FF002800D110BDFFF7D4FE2C420020C5
:102F2000004C004010B50B480B4B036096231B026E
:102F3000436000238360C36003610C2242618361AC
:102F4000C3610362436203F0B5FF002800D110BDE6
:102F5000FFF7B8FEAC4000200050004010B5074815
:102F6000074B036006234360064BC360836002F097
:102F700055FA002800D110BDFFF7A4FEC83F00207D
:102F800000300040FF0F000010B50A480A4B0360F4
:102F9000002343607F2282608032C260036143610C
:102FA0008361C36102F08AFF002800D110BDFFF7E2
:102FB00089FEC046044200200028004000B59BB0B6
:102FC000342200210DA805F0EEFA1422002108A8F1
:102FD00005F0E9FA20220021684605F0E4FA1C49D0
:102FE0000B681C4A1A4080231B0113430B60092302
:102FF0000D9380235B020E930123129300231693FB
:103000000DA802F09FFA00281CD10F2308930D3B56
:10301000099300230A930B930C93012108A802F053
:103020001DFD002810D1292300930023029305934E
:1030300080239B020193684602F022FE002805D1FE
:103040001BB000BDFFF73EFEFFF73CFEFFF73AFE68
:1030500000700040FFE7FFFFF0B5A5B001F0D2F827
:10306000FFF7ACFFFFF770FDFFF7DAFDFFF72CFE6F
:10307000FFF790FEFFF7BAFEFFF71CFFFFF736FFE2
:10308000FFF750FFFFF76AFFFFF77EFFFEF736FE00
:1030900020A82B4C0300250046CD46C32A681A60A1
:1030A000002104F024F8274B18601CA8030022001C
:1030B000C2CAC2C32A681A60002104F018F8224B61
:1030C000186015A802002300103362CB62C262CBE5
:1030D00062C21B681360002103F0CBFF1B4B18601A
:1030E0000EA8020023002C3362CB62C262CB62C204
:1030F0001B681360002103F0BCFF154B186007A884
:1031000002002300483362CB62C262CB62C21B68FA
:103110001360002103F0ADFF0E4B186068466B464C
:10312000643426CC26C326CC26C322681A6000212C
:1031300003F09FFF084B186003F096FFFEE7C046C0
:103140004C9D00085843002028420020B042002037
:10315000D83F0020304100200042002070B51348C5
:1031600005F0B8FA124C03220021200005F01BFAEA
:10317000FF23A370002415E080263602A025ED056C
:1031800000223100280001F0F8FD192001F060F85C
:1031900001223100280001F0F0FD192001F058F85B
:1031A0000134E4B2092CE7D970BDC046ECA900088F
:1031B000F402002010B5084B1B7883420AD0064B5E
:1031C000187042424241D2B280210902A020C005BB
:1031D00001F0D3FD10BDC046F4020020F8B5040094
:1031E0000100184805F0E8F9174B9B789C4227D05E
:1031F000154B9C70012722007A4001263240A02501
:10320000ED0580210901280001F0B7FD62087A4030
:10321000324080214901280001F0AFFDA2087A4028
:1032200032400A4D80214901280001F0A6FDE40842
:103230007C403200224080210902280001F09DFDDF
:10324000F8BDC046FCA90008F402002000040050AC
:1032500010B504000100064805F0AEF9013C6242D9
:103260006241D2B280218901024801F086FD10BD81
:1032700018AA00080008005070B580256D00A02431
:10328000E40500222900200001F077FD192000F05C
:10329000DFFF01222900200001F06FFD70BD00005A
:1032A00010B504000100064805F086F9013C6242B1
:1032B0006241D2B280218901024801F05EFD10BD59
:1032C00034AA00080004005010B5040001000648AC
:1032D00005F072F9013C62426241D2B28021C9011B
:1032E000024801F04AFD10BD50AA00080004005039
:1032F00010B502002021024801F03FFD10BDC0467C
:103300000004005010B54021044801F02FFD0028B2
:1033100001D1002010BD0120FCE7C0460004005090
:1033200010B5084B5A6B01210A435A63996B8022EE
:1033300052050A439A63002203210220404201F011
:10334000A7FA10BD0010024030B587B00400142267
:10335000002101A805F027F91B4B22689A4201D0F1
:1033600007B030BD194B5A6B8025AD002A435A6314
:10337000D96A01221143D962DB6A1A400092009B8C
:103380003C230193393B029301A9A020C00501F021
:1033900021FC0F480F4B0360002343608360C36030
:1033A0008022026145618022120182612022C26175
:1033B000036201F0DDFA002803D1054BE3649C624F
:1033C000CEE7FFF77FFCF8E7002401400010024041
:1033D000B44200200800024010B586B00400142258
:1033E000002101A805F0DFF82268104B9A4201D0B5
:1033F00006B010BD0E4CE26A02231A43E262E26A92
:1034000013400093009BC0239B000193122302935F
:103410000F3B04930133059301A9064801F0DAFB41
:10342000A26B80239B031343A363E1E70054004096
:1034300000100240000400500268054B9A4200D080
:103440007047044A116D8023DB020B431365F7E7D5
:1034500000280040001002400268054B9A4200D04C
:103460007047044A936B02210B439363F8E7C0460D
:10347000000400400010024010B588B0040014227F
:10348000002103A805F08FF82268154B9A4201D05D
:1034900008B010BD134BD96A01221143D962D96A11
:1034A0000A400192019ADA6A02242243DA62DB6A54
:1034B00023400293029BC02303930494079403A91F
:1034C000A020C00501F086FB03230393049400238E
:1034D00005930693079403A9034801F07BFBD7E704
:1034E00000040040001002400004005030B589B0D4
:1034F00004001422002103A805F055F82368534A5C
:10350000934207D0524A934239D0524A93426AD0EA
:1035100009B030BD504B596B8022D2010A435A6327
:10352000D96A01221143D962DB6A1A400092009BDA
:10353000C023DB0003930223049303250695023383
:10354000079303A9A020C00501F044FB4348444B66
:103550000360456000238360C36080220261436191
:103560008361603AC261036201F002FA002803D16C
:103570003A4B23679C62CBE7FFF7A4FBF8E7364B97
:10358000996B802212030A439A63D96A012211437C
:10359000D962DB6A1A400192019B03230393022242
:1035A000049206930333079303A9A020C00501F0FA
:1035B00011FB2C482C4B03600C23436000238360D9
:1035C000C3608022026143618361603AC261036229
:1035D00001F0CEF9002803D1224B23679C6297E7C4
:1035E000FFF770FBF8E71C4B996B802252030A43EC
:1035F0009A63D96A02221143D962DB6A13400293AB
:10360000029B182303930492153B069303330793FD
:1036100003A9164801F0DEFA1548164B03600D2386
:10362000436000238360C360802202614361836141
:10363000603AC261036201F09BF9002803D10C4B90
:1036400023679C6264E7FFF73DFBF8E70038014021
:10365000004C004000500040001002403441002067
:1036600030000240644000201C0002400004005072
:10367000DC3F00206C000240FEE7FEE710B500F0E2
:10368000D5FD04F0E3FC012801D004F0FBFD10BDE2
:1036900010B5024801F03EFA10BDC046B442002009
:1036A00010B5034801F036FA024801F033FA10BDB4
:1036B000644000203441002010B5024801F02AFA8D
:1036C00010BDC046DC3F00207047000010B500244C
:1036D00017E04908520892B201339BB2072B08D871
:1036E00008005040C007F4D549080B48414089B252
:1036F000F0E70A4BE2185200094B9B18598001343D
:10370000A4B2FF2C03D8220000210023E6E7012108
:10371000044B034AD15410BD01A0FFFFB0130000B9
:10372000181500206027000010B5024802F00CFFB9
:1037300010BDC0467C41002010B5034802F004FFD4
:10374000024802F001FF10BD2C420020AC400020D6
:1037500010B50368134A934206D0134A93420DD022
:10376000124A934214D010BD114C200002F04EFEBC
:1037700001221049200003F02DFCF4E70E4C20003C
:1037800002F044FE01220D49200003F023FCEAE789
:103790000B4C200002F03AFE01220A49200003F0FF
:1037A00019FCE0E700380140004C004000500040A8
:1037B0007C4100201D1500202C4200203D220020CD
:1037C000AC4000205D2F002070B50368284A93426A
:1037D00006D0284A934217D0274A93422ED070BD74
:1037E00004F05EFA2549264BC85026480A5A531C55
:1037F0004C798A1894719B059B0D0B52053101225F
:10380000214803F0E7FBEAE704F04AFA1B491F4BA3
:10381000C8501F480B5A5A1C1E4C0C5DCB181E4D2D
:10382000AC4663441C7093059B0D0B52194B9C4690
:1038300061440122194803F0CDFBD0E704F030FACF
:103840000E49174BC85017480B5A5A1C164C0C5DA2
:10385000CB18164DAC4663441C7093059B0D0B5260
:10386000114B9C4661440122114803F0B3FBB6E7BB
:1038700000380140004C0040005000401815002066
:10388000140800000C0400007C41002034150000E6
:103890002C110000250D0000260D00002C420020F8
:1038A000542200004C1E0000451A0000461A000079
:1038B000AC40002010B503680A4A934206D00A4A79
:1038C000934207D0094A934208D010BD084804F03B
:1038D00001FFFAE7074804F0FDFEF6E7064804F0AA
:1038E000F9FEF2E700380140004C00400050004073
:1038F00068AA000890AA0008B8AA0008F8B52448E9
:1039000004F0E8FE234C244A0021200004F04BFE82
:10391000224F2760224ED2231B01E650214DD22395
:103920005B01E550012323711F4AA3541F4AA3548E
:10393000611D0122380003F04DFB1D4BE1180122EF
:10394000300003F047FB1B4BE1180122280003F075
:1039500041FB39680B68202213430B6031680B6808
:1039600013430B6029680B6813430B600022052189
:103970001B2000F08DFF1B2000F0BAFF0022052164
:103980000E2000F085FF0E2000F0B2FFF8BDC0460B
:103990004CAB000818150020642900007C41002071
:1039A0002C420020AC400020240D0000441A0000EE
:1039B000250D0000451A000010B5040041600648BE
:1039C00004F0FAFD200003F075FA002800D110BDC4
:1039D000FFF778F9FBE7C0465CAB000870B505005F
:1039E0000C00022801D972B6FEE70800FDF7C6FFF9
:1039F00082B2D2231B016B4303495858FA239B0020
:103A0000210003F0A7F970BD1815002010B5D223CE
:103A10001B015843024BC058642303F09BF910BDAF
:103A20001815002010B5234C8022D2000021200060
:103A300004F0B9FD204BE118204BCA5A204B9C469C
:103A40006144200004F0A6FD1E49200004F080FE21
:103A500004000121B623FF331B4AD15403221B4922
:103A600004F064FE00281FD006221949200004F04B
:103A70005DFE002818D00C221649200004F056FEE6
:103A800000280CD008221449200004F04FFE002822
:103A90000BD100217C23FF330B4AD15404E00121D8
:103AA0007C23FF33084AD15410BD21000B4804F099
:103AB00083FDF9E771380020A7DCFFFF50220000EA
:103AC000501E000014AC0008501100207CAB000810
:103AD00080AB000888AB000898AB0008A4AB0008D6
:103AE00030B505000023002003E0CC182C5D6040B9
:103AF00001339342F9D330BD70B53D4E8022D200E0
:103B00000021300004F04FFD82225200002139488C
:103B100004F049FD384BF418384BE55A384BE1189E
:103B20002A00300004F036FD013D2A00002130005B
:103B3000FFF7D6FF6419334A944664442278FF2A7B
:103B400001D090421AD1304B304AD15C294B1970C8
:103B5000C02938D020D8B02946D1264C01220423D0
:103B6000FF33E254E01C0132294904F013FD294BD4
:103B700018680022210003F0D1FA0CE00100264869
:103B800004F01AFD1B4900220423FF33CA54214BC1
:103B9000186803F0C3FA70BD0B003033DBB2012BA1
:103BA00022D8144C01220423FF33E254A1708A1E50
:103BB000E01C174904F0EEFC164B186800222100A7
:103BC00003F0ACFAE7E70B4C01220423FF33E25485
:103BD000E01C0A320E4904F0DDFC0E4B186800228E
:103BE000210003F09BFAD6E70C4804F0E5FCD2E78D
:103BF000512B0020F8020020C7E9FFFF301500001C
:103C000030110000391600003A1600001815002087
:103C1000532B002058430020B8AB0008DCAB000851
:103C200070B504F03DF84E4B4E4AD35A002B01D1EB
:103C3000002431E04C4BD45804F032F8010020004D
:103C4000FDF774FFFA239B009842F1D904F028F89D
:103C5000444C454BE050454BE0188022D2000021F7
:103C600004F0A1FC00220023414962523C49625207
:103C7000404AA354404AA3540021404804F09CFC0D
:103C800062E07E282BD000213B4B364AD1543C4B7E
:103C9000344AD35C012B52D0324B354A9A5A3049C0
:103CA0005B5A9A424BD05A1C2E49CB182F48844657
:103CB0006344187893059B0D294A8B522D4BCB5C9E
:103CC000012B11D0002BDCD0022B1DD0032BDED119
:103CD0007F282CD00021274B224AD154D7E701332B
:103CE000244A20498B54CEE71E49234C0A5D551CBB
:103CF0000D558A18234CA446624410700138C4B292
:103D000001331C4A8B54C2E7164A1B4D515D4E1CB1
:103D1000565552181B498C4662441070013CE4B25F
:103D2000002CB4D10133134A0E498B54AFE70D4B2D
:103D30000121134A995400210E4A9954A7E7104BC8
:103D4000084AD35C002B00D170BD130000210C4A3F
:103D50009954094A995C0C4A9952FFF7CDFEF3E752
:103D60002E1100001815002034150000260D00004B
:103D70002C1100002611000027110000FCAB0008E8
:103D800028110000301100003015000070B504004B
:103D90000D00104B104AD35C002B04D0002C05D032
:103DA0000021002013E0FFF791FCF7E7002010E06E
:103DB00022784240000AFF231340084A9446634495
:103DC0005B00054AD3185B88584001340131A94291
:103DD000EED370BD6027000018150020B01300005E
:103DE000F8B53E4D8022D2000021280004F0DBFB14
:103DF0008222520000213A4804F0D5FB394BEC18DE
:103E0000394FE65B394BE1183200280004F0C2FB61
:103E1000B11E2800FFF7BAFF0100E05B831EE31824
:103E2000334A944663441B781B02013824186444C7
:103E300022781A4301D091421CD12D4B2D4AD15CDE
:103E4000274B1970B02924D018D9B2292CD0C029F9
:103E500016D1294804F03EFC01220021274802F037
:103E600099F8BFF34F8F264A264BDA60BFF34F8F86
:103E7000C046FDE7244804F09FFBF8BDA52924D0E7
:103E800000200423FF33164AD054204804F094FB4A
:103E9000F3E7134901220423FF33CA541C4B18686B
:103EA000002203F03BF9E8E70D4C01220423FF3325
:103EB000E254E01C0732174904F06CFB144B1868FD
:103EC0000022210003F02AF9D7E7BFF34F8F0C4AF5
:103ED0000C4BDA60BFF34F8FC046FDE7713800200E
:103EE000F8020020A7DCFFFF50220000501E000057
:103EF000592300001815002018AC000804420020C7
:103F00000400FA0500ED00E0B8AB000838AC00088A
:103F10005843002076380020F8B504000A2513E045
:103F20007E2E2FD00021974B974AD15431009748CD
:103F300004F042FB3100964804F03EFB954B924A58
:103F4000D35C012B00D1EEE08F4B934A9A5A9349F0
:103F50005B5A9A4200D1E6E05A1C8B49CB18904834
:103F6000844663441E7893059B0D8C4A8B52002C2B
:103F700000D1C3E08B4BCA5C092ADFD893008A4981
:103F8000CB589F460132874B7F49CA54CAE77E4BC4
:103F900001207C49585485495E54013281495A5464
:103FA00031007B4804F008FB0025C7E7764F754ACF
:103FB000BB5C591CB954FB187C4A944663441E7080
:103FC0003100734804F0F8FA764ABB5C0133BB5405
:103FD000B4E76D4F6B4ABB5C591CB954FB18734A6C
:103FE000944663441E703100694804F0E5FA6D4A56
:103FF000BB5C0133BB54A1E7634D624AAB5C591C07
:10400000A954EB18694A944663441E703100604815
:1040100004F0D2FA634AAB5C0133AB5400258DE760
:10402000594B58495A5C501C58549B185F4A944647
:1040300063441E7035433100554804F0BDFA002D2D
:1040400005D05149574A8B5C01338B5476E70721E1
:10405000544B4D4AD15471E74B4B4A495A5C501C62
:1040600058549B18514A944663441E70013DEDB26A
:104070003100474804F0A0FA002D00D05EE7424925
:10408000484A8B5C01338B5458E73F4F3D4ABB5C39
:10409000591CB954FB18454A944663441E703100BC
:1040A0003B4804F089FA3F4ABB5C0133BB5445E707
:1040B000354F344ABB5C591CB954FB183B4A9446F3
:1040C00063441E703100324804F076FA354ABB5C16
:1040D0000133BB5432E77F2E04D00021314B2A4AF2
:1040E000D1542BE7284B01212A4A995400212D4A0B
:1040F000995431002E4804F05FFA1FE70D2E25D0A9
:10410000214B20495A5C501C58549B18274A94460E
:1041100063441E70300004F069FA1E4B1A4AD35CE7
:10412000012B00D010E71B4B174AD35C002B0CD09F
:1041300013000021174A9954124A9D5C1D481D52D4
:104140009954002C1AD1FFF76DFCF8BD31001A48C4
:1041500004F032FA0C490B480A5C531CDBB28A1893
:10416000124FBC46624416705A1C0A54CB18634462
:104170000A221A70093A074BCA54CEE7FFF730FEFD
:10418000E3E7C046471E0000181500205CAC00089D
:1041900064AC0008481E00004C1E00004E1E0000CB
:1041A000461A0000461E0000F09D0008501E000048
:1041B0006CAC000850220000F8AB000810B50400F9
:1041C0000E4B1978FA208000FBF7AAFF01000C4B78
:1041D0001868FBF7A5FF00F097FB00280CD1032C13
:1041E00001D9012009E000222100013800F050FB34
:1041F000024B5C60002000E0012010BD04000020A4
:104200000000002010B5084A136840210B431360DA
:104210000320FFF7D3FF041E02D00124200010BDAD
:10422000FFF77EF8FAE7C04600200240034A116813
:10423000034B1B785B1813607047C0465C4300203B
:1042400004000020014B18687047C0465C43002002
:1042500070B50400FFF7F6FF0500631C02D0044BA5
:104260001B78E418FFF7EEFF401B8442FAD870BDBC
:104270000400002010B582B00400084B18680849FB
:10428000FBF74EFF4443019402E0019B013B019385
:10429000019B002BF9D102B010BDC04600000020E8
:1042A00040420F0070B5040003689A68520725D594
:1042B0009A68520706D59A68920703D49A68102123
:1042C0000A439A60FFF7BEFF050023689B685B07FF
:1042D00012D5FFF7B7FF401B0A28F6D923689B6861
:1042E0005B07F2D5636D102213436365A36D0F3A2C
:1042F0001343A365012000E0002070BD0020FCE70F
:1043000070B504000268916803230B40012B11D0A3
:104310000023002B38D0916805230B40012B10D0CF
:10432000636D102213436365A36D0F3A1343A365B6
:10433000012070BD1368DB0701D40023E9E70123E6
:10434000E7E7936802210B439360236803221A6016
:10435000FFF778FF050023689B68DB0712D5FFF79E
:1043600071FF401B0A28F6D923689B68DB07F2D54A
:10437000636D102213436365A36D0F3A1343A36566
:104380000120D6E70020D4E70020D2E770B5040072
:104390000268916803230B40012B10D00023002BEF
:1043A00037D191681C4B194210D0636D1022134312
:1043B0006365A36D0F3A1343A36501202AE01368D8
:1043C000DB0701D40023EAE70123E8E79368012132
:1043D0000B4393600120FFF74DFFFFF733FF05000C
:1043E00023681B68DB0712D4FFF72CFF401B0A2849
:1043F000F6D923681B68DB07F2D4636D10221343E0
:104400006365A36D0F3A1343A365012002E000200A
:1044100000E0002070BDC0461700008070B5041E8B
:1044200000D1E6E0436D002B31D0636DDB0634D460
:1044300021688B68042213402FD1626D6E480240C0
:104440000630FF3002436265886803220240012A79
:104450002CD00022002A43D16268C020000682428C
:104460002BD08020C005824227D0802000068242C7
:1044700023D00A69920092080A61604A1168604874
:104480000140116011686068014311601EE083659E
:1044900050228354FEF758FFC7E7636D1022134381
:1044A000636500225023E254012070BD0A68D207E0
:1044B00001D40022CEE70122CCE70A6992009208DB
:1044C0000A6121680A69606802430A612168CA6852
:1044D00018208243CA602168CA68A0680243CA6083
:1044E000464A11684748014011601168606B4006F8
:1044F0000143116022689168C90004D4906880214A
:104500004905014391602168CA683F480240CA607A
:104510002068C268E1682569022D40D00B43202144
:10452000615C49030B432C21615C49000B43216B07
:104530000B43A16989030B43E169C9030B4313438F
:10454000C360636AC222FF32934205D02168CA6801
:10455000A06A03431343CB602123E35C012B20D0EB
:10456000E36B012B31D023681A69D20703D51A698E
:1045700001218A431A612268536907218B435361E1
:1045800022685369A16B0B4353610023A365636DDC
:1045900003229343023A13436365002085E7042313
:1045A000BCE71F33E35C002B06D12268D16880236F
:1045B0005B020B43D360D3E7636D20221343636533
:1045C000A36D1F3A1343A365CAE7226813690F4915
:1045D0000B40136121680A69236C606C0343A06C73
:1045E000034313430B612268136901210B431361D9
:1045F000C1E7012059E7C046FDFEFFFF0827014043
:10460000FFFFC3FFFFFFFFFD1902FEFF03FCFFFFDB
:10461000F8B504000E00170003689A68520702D527
:1046200002252800F8BD5022825C012A38D00121E1
:1046300050228154DA680A43DA60C369012B2DD015
:10464000FFF7A4FE0500002DEBD1636D154A1A405B
:1046500080235B00134363650023A3655022A354AA
:10466000E36C114ADA62E36C104A1A63E36C104A95
:104670005A6323681C221A602268536810210B4376
:104680005360216840313B003200E06C00F0BCF91F
:104690002268936804210B439360C2E70025D2E7A8
:1046A0000225BEE7FEF0FFFF39470008AF470008CC
:1046B000BB47000870B504005023C35C012B02D136
:1046C0000225280070BD01225023C254FFF7EAFDE5
:1046D000051E1DD12268D36801218B43D360E06C95
:1046E0002523C35C022B17D02268536810218B430B
:1046F0005360002D19D12000FFF702FE0500002DA8
:1047000006D1636D0B4A13400432FF3213436365D5
:1047100000225023E254D4E700F0B1F9051EE3D0A3
:10472000636D402213436365DEE72000FFF7E8FD79
:10473000E5E7C046FEFEFFFF10B5836A5A6D5021C3
:1047400011422CD1596D802292000A435A651A6891
:10475000D068C0210901084214D12021595C0029E8
:1047600010D1116809070DD5916849070ED4516819
:104770000C20814351605A6D0B490A400431FF31CE
:104780000A435A651800FDF7A9F910BD5A6D20219A
:104790000A435A659A6D1F390A439A65F2E7DB6C42
:1047A0005B6B9847F1E7C046FEFEFFFF704710B510
:1047B000806AFFF7FBFF10BD704710B5806A436D3C
:1047C000402213434365836D3C3A13438365FFF7EF
:1047D000F3FF10BD70B504000D005023C35C012B26
:1047E0004BD001225023C25403689A6852071AD44E
:1047F000234A4968914229D0996A2A685203520B88
:104800000A439A622B685B0316D42B689B0305D579
:104810001C4A11688023DB030B43136000225023E2
:10482000E25400202AE0436D202213434365002216
:104830005023C254012021E0124A116880231B0436
:104840000B4313600A20FFF715FDDEE7996A2A681B
:104850005203520B914399622B685B0304D5094ABA
:10486000136809490B4013602B689B03D6D5054A92
:10487000136806490B401360D0E7022070BDC046A4
:104880000110000008270140FFFF7FFFFFFFBFFF6F
:1048900070B5002811DB8208134DC03292005459C4
:1048A00003231840C000FC331E008640B443890136
:1048B0000B4083402343535170BDC0B20F220240CE
:1048C000083A920806329200084BD3185D68032418
:1048D0002040C000FF2214008440A54389011140FC
:1048E000814029435960E7E700E100E000ED00E086
:1048F000002805DB1F2318401E3B8340014A13603C
:104900007047C04600E100E001380A4B98420FD8DA
:10491000094A50600948036A1B021B0AC0210906A4
:104920000B4303620023936007331360002070473A
:104930000120FCE7FFFFFF0010E000E000ED00E0D9
:1049400070B5066C1C25446C25400124AC40746095
:10495000046863608368102B04D00368996003685F
:10496000DA6070BD03689A600368D960F9E70000F7
:1049700070B5041E3DD005681F4BE8181421FBF7E5
:10498000CFFB800060641D4B236402222523E25488
:104990002B681B4A1A40A368E1680B4321690B434B
:1049A00061690B43A1690B43E1690B43216A0B4326
:1049B00013432B608023DB01A2689A4210D0114B75
:1049C00019681C22656C15400F20A84081431960AE
:1049D0001968606C02406068904002000A431A60E7
:1049E0000023E36301212522A154013AA3540020AE
:1049F00070BD0120FCE7C046F8FFFDBF000002408B
:104A00000F80FFFFA800024070B504002420205C46
:104A1000012832D00125242025540130205C0128B2
:104A200004D000222423E254022070BD013524303A
:104A300025540020E063256828680126B0432860DB
:104A40002000FFF77DFF236B002B0BD0226813683B
:104A50000E210B4313602268136801210B4313607E
:104A60000020E2E72268136804218B431360226868
:104A7000136806310B431360EDE70220D5E710B54C
:104A80002523C35C022B06D00423C36300222033FA
:104A9000C254012010BD026813680E218B431360BD
:104AA00001680A6801239A430A60016C1C22446C65
:104AB00022401C0094404C60252283540022233362
:104AC000C2540020E6E710B52523C35C022B03D0B7
:104AD0000423C363012010BD026813680E218B43B9
:104AE000136001680A6801239A430A60016C1C2262
:104AF000446C22401C0094404C60252283540022C8
:104B00002333C254836B002B02D098470020E2E786
:104B10000020E0E770B5036C1968046825681C2361
:104B2000426C134004229A400A4214D06A0712D5FC
:104B300023689B0603D42368042293432360016CFB
:104B40001C22436C1A40042393404B60036B002BE0
:104B500000D0984770BD02229A400A421AD0AA0794
:104B600018D523689B0606D423680A229343236042
:104B7000093A2523C254016C1C22436C1A400223BB
:104B800093404B6000222423C254C36A002BE1D01F
:104B90009847DFE708229A400A42DBD02B07D9D595
:104BA00023680E2293432360016C0E32436C1A403B
:104BB00001231C0094404C60C363252283540022CF
:104BC0002333C254436B002BC4D09847C2E7C06B59
:104BD00070470000F0B5002357E085685F000326AA
:104BE000BE40B543CE68BE40354385604568A543A9
:104BF0002C004D682E09012535409D402C43446012
:104C000051E0DC080834A400265807251D40AD00FB
:104C10000F27AF40BE430F69AF403D0035432550DD
:104C200054E0052700E00027AF403D003543023443
:104C3000A400464EA551464C2568D44326002E407C
:104C40004F68FF0301D515432E00414D2E606D685E
:104C50002E0026404F68BF0301D515432E003C4D62
:104C60006E60AD682E0026404F68FF0201D51543E7
:104C70002E00374DAE60ED682C404E68B60201D56F
:104C80002A431400324AD46001330A681400DC401D
:104C90005AD001249C402240F6D003254E6835406E
:104CA000013D012D99D903244D682C40032C08D0D7
:104CB000C4685E000325B540AC438D68B5402C4305
:104CC000C46003244D682C40022C9AD005685E0015
:104CD00003242700B740BD434F683C40B4402C43F9
:104CE0000460C024A4024D682542CDD0194D6C6BE0
:104CF000012634436C639C08A51CAD00134EAE59CD
:104D000003271F40BD000F27AF40BE43A027FF056C
:104D1000B84288D0104FB8420ED0104FB8420DD0D4
:104D20000F4FB8420CD00F4FB8420BD00E4FB842C5
:104D300000D176E7062777E7012775E7022773E7B3
:104D4000032771E704276FE7F0BDC046000001406C
:104D50000004014000100240000400500008005010
:104D6000000C005000100050001C005003690B4262
:104D700001D1002070470120FCE7002A01D18162A7
:104D800070478161FCE703689A69920701D50022A8
:104D90009A6203689A69D20703D49A6901210A4387
:104DA0009A617047F0B5059C05686868660D8027B4
:104DB000FF003740054E3E43B0438905890D12047C
:104DC00011430B43234303436B60F0BDFF63FF03B9
:104DD00070B504000E00150003689A69D2063BD531
:104DE0005A68920104D459688022D2010A435A6059
:104DF00023689A69920615D4731CF9D0FFF722FA3A
:104E0000401B864201D3002EF2D1636C2022134353
:104E100063644123E25400232232A354023AA35490
:104E2000012018E01022DA6123682025DD612000CE
:104E3000FFF7A9FF2268536808490B405360636C71
:104E40000422134363644123E55400233E32A354F8
:104E5000023AA354012070BD0020FCE700E800FEE8
:104E600070B504000D00160023689B699B071CD4D5
:104E7000320029002000FFF7ABFF002817D16B1C80
:104E8000F2D0FFF7DFF9801B854201D3002DEBD173
:104E9000636C2022134363644123E25400232232D3
:104EA000A354023AA354012000E0002070BD012069
:104EB000FCE7F8B505000F0016001C002B689B6985
:104EC0003A009A4313005A425341B34216D1631C2D
:104ED000F4D0FFF7B7F9069BC01A844201D3002C27
:104EE000ECD16B6C202213436B644123EA54002302
:104EF0002232AB54023AAB54012000E00020F8BD4E
:104F000070B505000C0016002B689B699B061AD42F
:104F1000320021002800FFF75BFF002815D1FFF7C2
:104F200091F9801B844201D3002CEDD16B6C2022BF
:104F300013436B644123EA5400232232AB54023AF8
:104F4000AB54012070BD0020FCE70120FAE700000F
:104F500070B504000D00160023689B695B0733D40D
:104F6000320029002000FFF733FF00282ED12368EC
:104F70009A69920611D4FFF765F9801B854201D327
:104F8000002DE9D1636C2022134363644123E25472
:104F90000022013BE254012070BD9A69520702D5FC
:104FA000228D002AF8D12022DA6121684B68084856
:104FB00003404B6000236364412162542232A354B6
:104FC000023AA3540120E7E70020E5E70120E3E7E8
:104FD00000E800FE10B5041E59D04123C35C002B2D
:104FE00043D024224123E2542268136801218B43D9
:104FF00013602268274B61680B4013612268936835
:1050000025490B409360E368012B34D02268842348
:105010001B02A1680B439360E368022B32D0226825
:1050200051681E4B0B4353602268D3681A490B40EA
:10503000D3602168236962691343A2691202134392
:10504000CB602268E369216A0B431360226813680E
:1050500001210B431360002363641F314122A154DB
:1050600023630132A354002010BD00224033C254F8
:10507000FEF7B2F9B5E7226880231B02A1680B4353
:105080009360C9E72368802212015A60C7E70120B4
:10509000EAE7C046FFFFFFF0FF7FFFFF008000024E
:1050A000F0B585B00400039116001D004123C35CD8
:1050B000202B02D0022005B0F0BD2033C35C012BB1
:1050C00001D10220F7E701224023C254FFF7BAF8CA
:1050D0000700009019230122802109022000FFF718
:1050E000E8FE002800D083E021224123E254113A57
:1050F0000133E25400236364666265856363638DF4
:105100009BB2FF2B0BD9FF2323853D4B00938023BC
:105110005B04EF3203992000FFF744FE18E0628D34
:1051200092B22285D2B2364B009380239B0403991E
:105130002000FFF737FE0BE0628D92B22285D2B2DB
:105140000023009380239B0403992000FFF72AFE8D
:10515000638D9BB2002B34D03A000A992000FFF7F0
:105160007FFE002846D12368626A12789A62636AD9
:1051700001336362638D013B9BB26385238D013BE9
:105180009BB22385628D92B2002AE1D0002BDFD141
:1051900000970A9B002280212000FFF78AFE00284A
:1051A0002AD1638D9BB2FF2BC6D9FF232385002311
:1051B000009380235B04FF2203992000FFF7F2FD98
:1051C000C6E73A000A992000FFF79AFE002815D199
:1051D00023682022DA6121684B680A4D2B404B601E
:1051E0004123E25400232232A354023AA35462E73B
:1051F000012060E701205EE701205CE701205AE71B
:105200000020008000E800FEF0B585B004000391A6
:1052100016001D004123C35C202B02D0022005B0E4
:10522000F0BD2033C35C012B01D10220F7E701223E
:105230004023C254FFF706F807000090192301220B
:10524000802109022000FFF734FE002800D083E00F
:1052500022224123E254123A0133E25400236364D0
:10526000666265856363638D9BB2FF2B0BD9FF2359
:1052700023853D4B009380235B04EF32039920008C
:10528000FFF790FD18E0628D92B22285D2B2364BC4
:10529000009380239B0403992000FFF783FD0BE01C
:1052A000628D92B22285D2B20023009380239B04A8
:1052B00003992000FFF776FD638D9BB2002B34D05D
:1052C0003A000A992000FFF743FE002846D12368E0
:1052D0005B6A626A1370636A01336362238D013B08
:1052E0009BB22385628D013A92B26285628D92B241
:1052F000002AE1D0002BDFD100970A9B00228021F9
:105300002000FFF7D6FD00282AD1638D9BB2FF2B2A
:10531000C6D9FF2323850023009380235B04FF224B
:1053200003992000FFF73EFDC6E73A000A992000E6
:10533000FFF7E6FD002815D123682022DA612168F5
:105340004B680A4D2B404B604123E254002322322C
:10535000A354023AA35462E7012060E701205EE70C
:1053600001205CE701205AE70024008000E800FEED
:10537000F0B54123C35C202B01D00220F0BD2033C7
:10538000C35C012B1CD0402401220255412524235B
:105390004355066833689343336006683368094FA2
:1053A0003B403360066833681943316001680B681D
:1053B00013430B6020234355002303550020DDE7F2
:1053C0000220DBE7FFEFFFFFF0B54123C35C202B9A
:1053D00001D00220F0BD2033C35C012B1AD0402441
:1053E000012202554125242343550668336893431F
:1053F000336006683368084F3B4009021943316047
:1054000001680B6813430B602023435500230355A9
:105410000020DFE70220DDE7FFF0FFFF70B5041E8C
:1054200028D00368144A1A600368144A1A60036893
:1054300042685A60036882689A60FEF703FF0500BD
:105440002368DA6852070AD0FEF7FCFE401B2A28C0
:10545000F6D92368DB685B07F2D0032005E0196901
:10546000E268914202D01A61002070BD044A1A60BD
:105470000020FAE70120F8E7CCCC000055550000E9
:10548000AAAA00000368024A1A6000207047C046BA
:10549000AAAA000010B5264BDA680C231340082B8B
:1054A00042D00C2B11D0042B09D0214B5A68520B3F
:1054B00007231340013380200002984010BD1C4B8D
:1054C0001B68DB0632D51B48F8E7910C0F230B4015
:1054D0001949C85C920D03231A40541C144BDB6815
:1054E000DB030DD4124B1B68DB0613D5114A0023D6
:1054F0000021FAF7C1FE22000023FAF79DFEDDE746
:105500000E4A00230021FAF7B7FE22000023FAF723
:1055100093FED3E70A4A00230021FAF7ADFE2200EA
:105520000023FAF789FEC9E70448C7E70448C5E73E
:105530000010024000093D00CC9D000800366E01BD
:105540000024F400F0B583B0041E00D166E2B34B32
:10555000DA680C251540DE6880235B021E40036874
:10556000DB0736D5082D2CD00C2D28D0636880227F
:105570005202934255D0A022D202934258D0A74B58
:105580001A68A7490A401A601A68802149020A402D
:105590000192019A1A68A3490A401A606368002BB5
:1055A00052D0FEF74FFE07009C4B1B689B0310D4A4
:1055B000FEF748FEC01B6428F6D903202FE2002E18
:1055C000D4D0964B1B689B0303D56368002B00D196
:1055D00027E223689B076DD5E3689A0605D58F48B7
:1055E000026820210A4302608B43042D3CD00C2D1D
:1055F00038D0002B00D1B2E088490A6809208243E4
:1056000013430B60FEF71EFE0600844B1B685B070E
:1056100000D59BE0FEF716FE801B0228F5D903207B
:10562000FDE17E4A116880235B020B431360B5E7FE
:105630007A4B19688022D2020A431A6019688022C4
:1056400052020A431A60A9E7FEF7FCFD0700734BFC
:105650001B689B03BDD5FEF7F5FDC01B6428F6D97A
:105660000320DCE1002EC4D16C4A1268520702D537
:10567000002B00D1D7E1694E72686B490A4021695D
:1056800009020A437260326809218A431343336076
:10569000FFF700FFF26812090F231340634AD35C3F
:1056A000D840634B1860634B1868FEF787FD0028ED
:1056B00000D0B4E12368DB062DD5002D62D1574B15
:1056C0001B689B0503D5A369002B00D1ADE1534AAC
:1056D000536859490B40216A0B43536053681B02BE
:1056E0001B0AE16909060B435360236A590B013118
:1056F00080231B028B40D16809090F220A404B49C5
:105700008A5CD3404A4A13604A4B1868FEF756FD3C
:10571000002800D083E123681B0700D490E0636970
:10572000002B68D03D4A136D01210B431365FEF732
:1057300089FD0600394B1B6D9B0700D580E0FEF705
:1057400081FD801B0228F5D9032068E133494B68AD
:10575000354A13402269120213434B60AAE72F4ACD
:10576000136801218B431360FEF76CFD06002B4B81
:105770001B685B079ED5FEF765FD801B0228F6D9E6
:1057800003204CE1A369002B22D0244A1168802316
:105790005B000B431360FEF755FD06001F4B1B68B3
:1057A0009B0506D4FEF74EFD801B0228F6D9032088
:1057B00035E11A4A536820490B40216A0B43536074
:1057C00053681B021B0AE16909060B435360A2E7F9
:1057D000124A136819490B401360FEF733FD0600A7
:1057E0000E4B1B689B0596D5FEF72CFD801B0228EF
:1057F000F6D9032013E1094A136D01218B43136588
:10580000FEF720FD0600054B1B6D9B0718D5FEF724
:1058100019FD801B0228F6D9032000E10010024088
:10582000FFFFFEFFFFFFFBFFFFE0FFFFD89D00082B
:105830000000002008000020FF1FFFFFFFFEFFFF09
:1058400023685B0778D57D4B9B6BDB002CD47B4AB0
:10585000916B80235B050B4393630126784B1B6898
:10586000DB0523D5A36880225200934232D0002B5F
:1058700037D1724B1A6D73490A401A651A6D724915
:105880000A401A65A368002B45D0FEF7DBFC070031
:105890006A4B1B6D9B054DD4FEF7D4FCC01B6B4BB4
:1058A0009842F5D90320BAE00026D7E7644A116888
:1058B00080235B000B431360FEF7C4FC0700604BC2
:1058C0001B68DB05CED4FEF7BDFCC01B6428F6D9EF
:1058D0000320A4E0594A116D80235B000B4313653C
:1058E000D0E7A022D200934209D0544B1A6D5549FB
:1058F0000A401A651A6D54490A401A65C2E74F4BAF
:10590000196D013AFF3A0A431A65196D8022520057
:105910000A431A65B6E7FEF795FC0700474B1B6D77
:105920009B0507D5FEF78EFCC01B484B9842F5D966
:10593000032074E0012E1AD0636A002B00D176E0B8
:105940000C2D4FD0022B18D03C4A136840490B4015
:105950001360FEF777FC0400384B1B689B013FD5B2
:10596000FEF770FC001B0228F6D9032057E0334AEB
:10597000936B38490B409363DEE7304A1368344930
:105980000B401360FEF75EFC05002C4B1B689B016F
:1059900006D5FEF757FC401B0228F6D903203EE04F
:1059A0002649CB682C4A1340A26AE06A0243206B66
:1059B00002431343CB600A6880235B0413430B60EC
:1059C000FEF740FC04001D4B1B689B0106D4FEF74C
:1059D00039FC001B0228F6D9032020E000201EE03D
:1059E00000201CE0012B24D0144BDA6880235B02DA
:1059F0001340A16A8B4201D0012010E0F0239B03E9
:105A00001340E16A8B4201D0012008E0C0231B044F
:105A10001A40236B9A420ED0012000E0012003B00F
:105A2000F0BD0120FBE70120F9E70120F7E70020A6
:105A3000F5E70120F3E70020F1E7C046001002403F
:105A400000700040FFFEFFFFFFFBFFFF8813000018
:105A5000FFFFFFFEFFFFFFEFFFFF02FF70B5050036
:105A60000C00002800D1D1E06A4B1A6801231340D2
:105A70008B4235D32B689B0706D5674AD368F02144
:105A80008B43A9680B43D3602B68DB077BD56B681E
:105A9000022B3CD0032B40D0012B44D05E4A12682D
:105AA000920500D4B4E05C49CA68032082431343E2
:105AB000CB60FEF7C7FB06006B68022B39D0032BC7
:105AC00045D0012B51D0544BDB680C221A425AD0DE
:105AD000FEF7B8FB801B514B9842F4D903207DE0C0
