:020000040800F2
:1000000000500020918400087537000877370008F9
:1000100000000000000000000000000000000000E0
:10002000000000000000000000000000C98100087E
:10003000000000000000000071820008793700080D
:10004000E1840008E1840008E1840008E1840008FC
:10005000E1840008E1840008E1840008E1840008EC
:10006000000000008D3700089D370008B5370008F4
:10007000E1840008E184000835380008E1840008C4
:10008000E1840008E1840008E18400080000000029
:10009000E1840008E1840008E1840008E1840008AC
:1000A000E1840008E1840008E184000825380008A4
:1000B000E1840008E1840008000000000000000066
:1000C00010B5064C2378002B07D1054B002B02D02E
:1000D000044800E000BF0123237010BD7800002019
:1000E00000000000E4990008044B10B5002B03D079
:1000F0000349044800E000BF10BDC04600000000F6
:100100007C000020E4990008002243088B4274D34D
:1001100003098B425FD3030A8B4244D3030B8B4208
:1001200028D3030C8B420DD3FF22090212BA030C11
:100130008B4202D31212090265D0030B8B4219D3F2
:1001400000E0090AC30B8B4201D3CB03C01A524112
:10015000830B8B4201D38B03C01A5241430B8B425A
:1001600001D34B03C01A5241030B8B4201D30B0343
:10017000C01A5241C30A8B4201D3CB02C01A52416A
:10018000830A8B4201D38B02C01A5241430A8B422D
:1001900001D34B02C01A5241030A8B4201D30B0216
:1001A000C01A5241CDD2C3098B4201D3CB01C01A30
:1001B000524183098B4201D38B01C01A524143093A
:1001C0008B4201D34B01C01A524103098B4201D328
:1001D0000B01C01A5241C3088B4201D3CB00C01A95
:1001E000524183088B4201D38B00C01A524143080D
:1001F0008B4201D34B00C01A5241411A00D2014632
:10020000524110467047FFE701B5002000F006F8A4
:1002100002BDC0460029F7D076E770477047C04658
:10022000002B11D1002A0FD1002900D1002802D0C3
:100230000021C943081C07B4024802A140180290DB
:1002400003BDC046D9FFFFFF03B4684601B502985D
:1002500000F04EF8019B9E4602B00CBC7047C046B1
:10026000F0B5CE46474615042D0C2E0080B5070488
:10027000140C3F0C9946030C7E435D436743634374
:100280007F19340CE4199C46A54203D980235B02F4
:100290009846C4444B4643435143250C36046544B9
:1002A000360C2404A4195B19591820000CBC904684
:1002B0009946F0BD70B500220C4B04000D0001F012
:1002C0004BFA002804D12000290001F0A9F970BDE3
:1002D000064B00222000290000F05AFE01F0A0F990
:1002E00080231B069C466044F1E7C0460000E041C5
:1002F000F0B54F464646D646C0B5040082B00D0064
:10030000914698468B422FD82CD04146484601F062
:100310004BFA29000600200001F046FA331A9C46E9
:10032000203B9A4600D576E04B46524693401F004C
:100330004B46624693401E00AF4228D825D0534614
:10034000A41BBD41002B00DA7BE0002200230092B9
:100350000193012352469340019301236246934047
:10036000009318E08242D0D900220023009201932A
:100370000A9B002B01D01C605D600098019902B0BF
:100380001CBC90469946A246F0BDA342D7D9002294
:100390000023009201936346002BE9D0FB079846A7
:1003A000414672080A437B0866460EE0AB4201D123
:1003B000A2420CD8A41A9D41012024196D410021AC
:1003C000013E24184D41002E06D0AB42EED9013E2D
:1003D00024196D41002EF8D1009801995346001957
:1003E0006941002B23DB2B005246D3402A00644690
:1003F000E2401C0053461500002B2DDB260057461B
:10040000BE40330026006746BE403200801A994144
:1004100000900191ACE7624620239B1A4A46DA40DD
:100420006146130042468A4017001F4380E7624638
:1004300020239B1A2A0066469A402300F340134368
:10044000D4E76246202300219B1A002200910192EA
:100450000122DA40019280E72023624626009B1A9F
:10046000DE402F00B0466646B74046463B00334369
:10047000C8E7C046F0B54F464646D6460C000903CD
:10048000C0B5490A470F5E0039431F03DB0F9C4686
:1004900065007B0A570F1F436D0DE40F760DA146D3
:1004A000C000B846D200AB1B64457BD0002B5FDD9B
:1004B000002E00D0A4E03E00164300D112E15E1EE3
:1004C000002E00D09EE1871A4346B84280410125A4
:1004D000C91A4042091A0B0200D431E149024E0AFE
:1004E000002E00D16EE1300001F040F90300083B1E
:1004F0001F2B00DD61E120223900D21A9E40D1403D
:100500009F400E439D4200DD51E15D1B6B1C1F2B84
:1005100000DD7CE12021C91A3D0030008F40884079
:10052000DD40791E8F41310007222843D940002544
:1005300007433A40002A09D00F233B40042B05D043
:100540003B1DBB42BF417F42C9191F000B0200D4B3
:1005500026E26A1CC64B55056D0D9A4200D106E194
:10056000C44AFF080A40530752023B43120B8EE075
:10057000002B00D0B8E06B1C5B055B0D012B00DC91
:1005800030E1871A4346B842B641CB1A76429E1BE9
:10059000330200D54CE13B003343A1D100220024BB
:1005A000002570E0002B00DCE5E0002E00D183E0A8
:1005B000AF4EB54260D0802636043743B846382B5C
:1005C00000DC3EE1434613431F007A1E97413F186B
:1005D00087428041404209180B0200D4B0E0A44B8E
:1005E00001359D4200D1C3E0A24A7B080A400121A7
:1005F0000F401F435108D30707221F433A4099E792
:100600009B4EB54238D0802636043743B846382B47
:1006100000DDDCE01F2B00DC30E11E004746203E01
:10062000F740BC46202B04D04026F31A46469E4095
:100630003243170063467A1E97411F43CCE0002BDC
:1006400000D104E24346134300D159E14B07C008EF
:1006500018438023C9081B03194208D04546ED08FA
:100660001D4204D14346D008590708432900420FD0
:10067000C9007F4D1143C0004B07CA087C49C00820
:1006800003438D4268D012036D05120B6D0D0021DE
:1006900012031800130B0A0D12051A43764B2D0591
:1006A00013402B435B00E4075B08234319001CBC89
:1006B00090469946A246F0BD3E00164312D05E1EFB
:1006C000002E00D000E1871887428041414440421B
:1006D000091801250B0233D5022585E7644633004E
:1006E000414610001D00C7E7002D00D0DAE00C00E5
:1006F0000443F3D05C1C00D19FE15D4CA64200D1C5
:100700002FE1DB43382B00DD66E11F2B00DD83E1A9
:1007100020240500E41A0F00DD40D940A0404346E4
:10072000A7405B1A441EA04198462F433843171A2E
:10073000BA42924143465242991A64463500CAE68B
:1007400007223A40002A00D0F6E64B07CA0848497B
:10075000FF083B438D4296D11900114300D19EE121
:10076000802109030A431203120B414D8FE7150044
:10077000002200238BE7002B00D0C7E06B1C5F0535
:100780007F0D012F00DCF1E0394DAB4200D1B9E023
:1007900085180A008542894142444942511807227E
:1007A000CF076D082F4349083A401D00C2E60722D3
:1007B0003049ED1A31403A40BCE63E0028388640C8
:1007C00000279FE6380000F0D1FF20308EE6434638
:1007D00013431F007A1E9741C71BB8428041404215
:1007E000091A78E60E003B0006431343002D61D141
:1007F000002E00D0F4E0002B00D11BE1644639004C
:10080000100039E71A4FBB427AD03300FFE63000C0
:100810001F3DE840202B03D04021CB1A9E40374398
:100820007B1E9F41072207433A400021002589E7AC
:10083000171A4346BA42B641591A76428E1B64468D
:100840004EE61F2B00DDADE020264746F61AB740E6
:10085000B9461700B246DF404E463E433700564683
:10086000B240561EB24117434246DA408918AEE6FE
:10087000FF070000FFFF7FFFFFFF0F802026474696
:10088000F61AB740B9461700B246DF404E463E431F
:1008900037005646B240561EB24117434246DA4030
:1008A000891A99E77F4CA6425BD0802424045B42DE
:1008B000214327E7002E0CD1002B00D1CBE064466A
:1008C00039001000774DD7E6764FBB4218D0330081
:1008D00075E6002B14D04B07C00818438023C908C5
:1008E0001B03194207D0FC081C4204D17907D00829
:1008F0000843E14621004C46420FC9001143C000A5
:10090000684DB9E61D0000220023C0E6002D5BD132
:100910000D00054300D1E2E65D1C00D1B0E0614D61
:10092000AE421FD0DB43382B71DC1F2B00DD96E07D
:1009300020250F00ED1AAF40B9460700AA46DF4058
:100940004D463D432F005546A840D940451EA8417D
:1009500088440743BF1897429241514241443500B1
:100960003AE6644635004146100085E60B00034335
:10097000002D00D063E6002BF5D04346134300D191
:100980007AE687188742804107224144404209188D
:100990003A400B0200D4D5E6434B01351940C9E576
:1009A000380069E61E004746203EF740BC46202B33
:1009B00004D04026F31A46469E4032431700634651
:1009C0007A1E97411F4302E6364DAE42CAD08025BB
:1009D0002D045B422943A6E70843411E8841A6E651
:1009E000002B00D148E6871A4346B842B641CB1ADD
:1009F00076429E1B33024BD5171A4346BA429241A8
:100A0000591A5242891A072264463A4092E5014334
:100A10000F00791E8F419DE71C000F00203CE7402E
:100A2000202B03D04024E31A99400843411E8841FB
:100A300038437CE60022002425E6171A4346BA42D2
:100A40009241591A5242891A6446350043E541469B
:100A50001000144D10E680220024120380E61D00D1
:100A60000F00203DEF40BC46202B03D04025EB1A61
:100A70009940084307006346781E87411F4369E792
:100A8000871897429B4141445B42C9183500A3E552
:100A90003B003343CED0072231003A4052E60023D8
:100AA0001A00F4E5FF070000FFFF7FFFF0B557468F
:100AB000DE464E464546E0B5834606000F03480035
:100AC00087B092461D003F0B400DCC0F002800D18F
:100AD0006FE0DE4B984238D08023FF001B041F4399
:100AE000730F3B430193DA4B0027994600239B4643
:100AF000F60081442B0369001B0B52469846490DB2
:100B0000ED0F002900D185E0D04B994200D173E070
:100B10004346DA0080231B0413435246CC48520F4D
:100B200084461343524600206144D2008944210088
:100B3000694000918C46012149448A460F2F00D913
:100B400090E0C449BF00CF59BF465B463B43019389
:100B500000D06AE102230827002681469B46C9E7A8
:100B600032005846019B61460091022800D175E091
:100B7000032800D1FEE1012800D02CE1002300274A
:100B8000002600253F032A0D3F0BB34812053A43C8
:100B900002401B051343009A5B00D1075B080B431F
:100BA0003000190007B03CBC90469946A246AB46BF
:100BB000F0BD5B463B43019300D12FE1002F00D1F4
:100BC000A5E1380000F0D2FD03000B3B1C2B00DD3B
:100BD00096E11D22D31A5A460100DA405E460839D2
:100BE0008F4013008E403B4301939C4B00271B1A00
:100BF000994600239B467DE7414653460B43934964
:100C00008C46E144002B00D01AE102220220174357
:100C100000228CE7134300D10DE14346002B00D1A5
:100C200081E1404600F0A2FD02000B3A1C2A00DDE3
:100C300072E10100434608398B4098461D239A1AF9
:100C40005346D3401A004346134352468A4049460E
:100C5000081A824989468144002068E77B4B0027B7
:100C600000268EE7140C1204120C1100370C360407
:100C7000350C794328008C462E006043604483463F
:100C800056432100300C8046584679434044029137
:100C9000844506D98846802149028C46E044414675
:100CA00002913604010C360C00048B4681191E0C8F
:100CB0001B041B0C0391190079438C4628007543D3
:100CC0006544A8465843050C45447743A94203D9D7
:100CD000802149028C466744290C8C463900000467
:100CE000000C2D042D186144AB4405915946049124
:100CF00001990F043F0C080C3900514342439046C0
:100D000002008C46090C8B4662437C4344445C449D
:100D1000A04503D98021490288464244210C8846D7
:100D200061460904090C8C4639005943434370431A
:100D30007E430F0CF6182404BE19644442448C46CA
:100D4000B34203D980235B0298464044029B61462C
:100D50009846049B370443449B46AB45AD416B42E8
:100D60000D0405992D0C8C467F196744FD18A84683
:100D70005D462D19A542A44193466442A446C3444E
:100D8000DC448F42BF4198459B4193459241A44525
:100D9000A4415B427F421F43360C52426442BF195A
:100DA0002243BF18624638184302D20D03991343F9
:100DB0006A020A43501E82416146ED0D2A434E02EB
:100DC0003243D90100D4B3E0012650083240024337
:100DD000DE0732435B08224C5444002C62DD51078D
:100DE00009D00F201040042805D0101D90429241D8
:100DF00052429B180200D90104D580241948E4000E
:100E0000034054441848844200DD27E75E075B0234
:100E1000D2081F0B630516435B0DB2E6002399460B
:100E20000133042700269B4664E60323019781468D
:100E30000C279B465EE6012201201743002276E63E
:100E4000032303201F43434671E6C046FF0700000B
:100E500001FCFFFF4CA00008FFFF0F800DFCFFFF0F
:100E6000FF030000FFFFFFFEFE07000000238027B6
:100E700000933F030026434B83E6019B3200A446C8
:100E8000584670E6AC466EE6802701993F0339422A
:100E90002DD03B422BD11F433F033F0B0095160043
:100EA000384B6EE601252D1B382D00DD66E61F2D23
:100EB00040DC35481C005044160082408440EE401F
:100EC000501E824134431443EB40620709D00F2285
:100ED0002240042A05D02200141D94428041404241
:100EE0001B181A023ED501230027002649E6802759
:100EF000019B3F031F433F033F0B0094214B40E600
:100F000003005A46283B9A40002601926DE6584657
:100F100000F02CFC203057E603005246283B9A4054
:100F20001300002293E6504600F020FC20307BE6C0
:100F3000CA4650E71F201E004042041BE640202DF9
:100F400003D0124C5444A3401A43501E82413243F2
:100F500007260027164009D00F2000231040140058
:100F60000428B9D122005E075B021F0BD20816438A
:100F7000002306E680273F031F433F033F0B160075
:100F8000004BFEE5FF0700001E0400003E040000C9
:100F9000F8B557464E464546DE460C000903E0B517
:100FA000490A460F5F0031431E03DB0F760A9B465A
:100FB000530F3343C84E6500C000E40FD2006D0DDF
:100FC000A24681467F0D9C469046B74200D1B9E0CB
:100FD0005B46012673409B46EE1BA34500D183E090
:100FE000002E63DD002F00D0B1E06346134300D133
:100FF00023E1731E002B00D0BAE1861A6346B0428B
:1010000080410125C91A4042091A0B0200D447E168
:1010100049024B0A98464346002B00D189E14046DD
:1010200000F0A4FB0300083B1F2B00DD7CE1202225
:101030003000D21A4146D040994002009E400A43F7
:101040009D4200DD6AE15D1B6B1C1F2B00DD94E1FE
:10105000202110003500C91A8E40DA408840DD405A
:10106000711E8E411100072228430025064332409D
:10107000002A09D00F233340042B05D0331DB3427F
:10108000B641764289191E000B0200D43DE26A1C6B
:10109000914B55056D0D9A4200D119E18F4AF60822
:1010A0000A40570752023743120B9BE0002E00D034
:1010B000C5E06E1C7605760D012E00DC48E1674622
:1010C000861ACB1BB042BF417F42B8461F00434641
:1010D000FF1A3B00B8461B0200D55FE137439AD1A7
:1010E00000220024002579E0002E00DCFAE0002F29
:1010F00000D18DE0784B9D4267D0802367461B046A
:101100001F43BC46382E00DC52E1634613435A1E8F
:1011100093411E1886428041404209180B0200D4B8
:10112000BEE06D4B01359D4200D1D2E06B4A7308A1
:101130000A4001210E401E435108D30707221E43D7
:10114000324095E71E00164300D045E740E7624B6A
:101150009D423AD0802367461B041F43BC46382E6D
:1011600000DDEBE01F2E00DC3AE133006746203B58
:10117000DF403B00202E05D04027BF1B6646BE4007
:10118000324390464646721E96413343DAE0002BC6
:1011900000D114E26346134300D168E180234E0777
:1011A000C008C9081B030643194208D06046C0089E
:1011B000184204D163460100D2085E071643F300CB
:1011C0009946C900720F444D11434B46DE08424B0D
:1011D0004F073743CA089D4200D16EE012036D05E8
:1011E000120B6D0D00211203130B0A0D12051A4389
:1011F0003B4B2D0513402B435B00E4075B08234367
:10120000380019003CBC90469946A246AB46F8BD52
:101210006346134311D0731E002B00D007E18618DC
:101220008642804161444042091801250B0237D5AE
:1012300002257BE73E00614691463500C5E75C46E6
:10124000002D00D0E1E00B000343F3D0731C00D16C
:10125000ACE1214B9F4200D13AE1F343382B00DD52
:101260006FE11F2B00DD8CE120250E00ED1AAE4052
:10127000B0460600AA46DE40454635432E00554698
:10128000D940A8406346451EA8415B1A9C4630439E
:10129000161AB242924163465242991A3D00B4E690
:1012A00007223240002A00D0E4E60B4BF6084F0735
:1012B0003743CA089D4200D090E73B00134300D15A
:1012C000A6E180231B031A431203120B024D89E788
:1012D00015000022002785E7FF070000FFFF7FFFC2
:1012E000FFFF0F80002E00D0C7E06B1C5E05760D5F
:1012F000012E00DCF0E0C84DAB4200D1B9E085180A
:101300000A00854289416244494251180722CE07AA
:101310006D082E43490832401D00A9E6BF49ED1A69
:10132000114007223240A3E63200283882400026CE
:1013300086E6300000F01AFA203073E66346134365
:101340005A1E9341C61AB04280414042091A5CE6D7
:101350000E00674606431743002D5ED1002E00D0D5
:10136000F3E0002F00D11EE15C46614691462CE778
:10137000A94FBE427BD01E00F1E610001F3DE840A1
:10138000202B03D04021CB1A9A401643731E9E4156
:101390000722064332400021002583E7161A6346E0
:1013A000B2428041591A40420B1A98465C4632E6D6
:1013B0001F2E00DDABE02027BB1B9A466346574635
:1013C000BB40994613004F46F3401F433B0057462E
:1013D000BA40571EBA4113436246F240891898E654
:1013E0002027BB1B9A4663465746BB4099461300CD
:1013F0004F46F3401F433B005746BA40571EBA4181
:1014000013436246F240891A9CE7834B9F425FD0A8
:1014100080252D047342294320E7002E0CD1002F94
:1014200000D1D0E05C46614691467B4DCDE67A4FD7
:10143000BE421CD01E0065E6002F18D0C0084E0723
:1014400006438020C9080003014208D06346DC0837
:10145000044204D12100DA46D2085E071643F300A5
:10146000994601245346C900720F11431C406A4D2E
:10147000ABE61D0000220027B4E6002D59D10B0079
:10148000034300D1D6E6731C00D1B2E0624B9F4209
:101490001ED0F343382B6FDC1F2B00DD97E0202597
:1014A0000E00ED1AAE40B0460600AA46DE404546A4
:1014B00035432E005546A840D940451EA8418C44CE
:1014C0000643B61896429241514261443D0025E6DA
:1014D0003D006146914678E60B000343002D00D0A5
:1014E00055E6002BF5D06346134300D16DE6861810
:1014F0008642804161444042091800220B0200D418
:10150000D0E6464B01351940B2E5B1465DE6330001
:101510006746203BDF403B00202E05D04027BF1B05
:101520006646BE40324390464646721E964133435D
:10153000EFE5394B9F42CBD080252D0473422943E0
:10154000A8E70843411E8841A2E6002F00D13CE6EF
:101550006346861ACF1AB0429B415B42FB1A9846FB
:101560001B024ED5161A6346B2429241591A524294
:10157000891A5C4600227BE501430E00711E8E41F4
:101580009FE71D000E00203DEE40B046202B04D00A
:101590004025EB1A99400843814648464346411E80
:1015A0008841184374E60022002417E6161A6346A1
:1015B000B2429241591A5242891A3D0025E56146CC
:1015C0009146154D01E680220024120379E61D00A4
:1015D0000E00203DEE40B046202B04D04025EB1AF3
:1015E0009940084381464E464346711E8E411E4334
:1015F00067E7861896429B4161445B42C9183D00EB
:101600008CE547463743CED007224146324049E673
:1016100000273A00E6E5C046FF070000FFFF7FFF16
:1016200030B5144D0A034B00120B5B0DC90F00249B
:10163000AB4211DD104CA34210DC80246403224332
:101640000E4CE41A1F2C0CDD0D48C31ADA401300AF
:101650005C42002900D11C00200030BD094BCC1891
:10166000FAE7094DE040AC4663449A401300034357
:10167000EEE7C046FE0300001D0400003304000036
:1016800013040000FFFFFF7FEDFBFFFF10B5041EFA
:1016900025D000F06BF8144B1B1A5B055B0D0A2874
:1016A00012DD0B38844000222403240B002110009B
:1016B00024030A0D240B120522430C4C1B05224067
:1016C00013435B00590810BD020021001532914000
:1016D0000A000B21081AC4402403240BE6E7002368
:1016E00000240022E2E7C0461E040000FFFF0F8036
:1016F0008446101C62468C46191C634600E0C046B6
:101700001FB500F0FDF8002801D40021C8421FBD1C
:1017100010B500F055F84042013010BD10B500F092
:10172000EFF8002801DB002010BD012010BDC046ED
:1017300010B500F0E5F8002801DD002010BD012003
:1017400010BDC04610B500F077F8002801DC00207D
:1017500010BD012010BDC04610B500F06DF8002886
:1017600001DA002010BD012010BDC0461C2101235C
:101770001B04984201D3000C10391B0A984201D374
:10178000000A08391B09984201D30009043902A252
:10179000105C40187047C0460403020201010101B9
:1017A000000000000000000010B5002903D1FFF781
:1017B000DDFF203002E0081CFFF7D8FF10BDC04657
:1017C000F0B54F464646D6468446C0B58046194ECB
:1017D00018030F034D00000B5C0082463F0B6D0D9C
:1017E000C90F9146640DDB0F0120B5420AD0B44207
:1017F00003D0A54201D157450CD01CBC9046994658
:10180000A246F0BD66463E43F7D1AC42F5D1544600
:101810001443F2D10120C845EFD1994207D0002DE1
:10182000EBD163461F433800471EB841E5E700206F
:10183000E3E7C046FF070000F0B54F464646D646F0
:101840004D00C0B50E03C90F8A462C491F035C002A
:101850008046360B6D0D91463F0B640DDB0F8D42BC
:101860001ED08C4216D0002D1ED130438446002C51
:1018700001D13A4323D06246002A1AD09A4529D092
:10188000514602200139084001381CBC9046994657
:10189000A246F0BD39001143E5D002204042F4E7F2
:1018A0003043FAD1AC420FD0002C0FD13A43E7D0ED
:1018B0000CE00122013B934318000130E5E7634649
:1018C0000020002BE1D0DBE73A43E6D19A45D7D19F
:1018D000A542D5DCA54205DBBE42D1D808D0002008
:1018E000BE42D2D250460123013898430130CCE7A2
:1018F000C845C5D80020C845F4D3C6E7FF07000097
:10190000F0B54F464646D6464D00C0B50E03C90F4A
:101910008A462E491F035C008046360B6D0D9146AA
:101920003F0B640DDB0F8D4218D08C4211D0002D7F
:1019300018D130438446002C1ED13A431CD1634653
:101940000020002B30D051460220013908400138D8
:101950002AE039001143EAD0022025E03043FBD1D0
:10196000AC4226D0002C26D13A4324D15146022045
:1019700001390840013817E06246002A0FD09A4525
:10198000E1D1A54205DBBE42DDD819D00020BE4220
:101990000AD25046012301389843013004E0012265
:1019A000013B9343180001301CBC90469946A24667
:1019B000F0BD3A43D0D19A45C5D1A542C3DCE0E79A
:1019C000C845C0D80020C845E3D3EDE7FF070000B5
:1019D0000023C25C0133002AFBD1581E704700006F
:1019E0000378002B1CD0194B1B68194A92885A6344
:1019F0004378002B19D0154B1B68154A92889A63BF
:101A00008378002B16D0114B1B68114A9288DA6339
:101A1000C378002B13D10D4B1B6800221A6470474A
:101A20000A4B1B6800225A63E2E7084B1B6800223E
:101A30009A63E5E7054B1B680022DA63E8E7034B8E
:101A40001B68034A92881A64E9E7C04624400020D4
:101A50009400002010B5002808D004220100054899
:101A600006F0B0FD034B01229A7110BD014B00221C
:101A70001A60F7E79400002010B5054B9B79002B06
:101A800000D110BD024800238371FFF7A9FFF8E7DA
:101A90009400002070B5164806F034FE154C0A225A
:101AA0000021200006F097FD134D0021280004F0CE
:101AB000C3FB0421280004F0BFFB0821280004F028
:101AC000BBFB0C21280004F0B7FB2B6800225A63F3
:101AD0009A63DA631A64FF232370803B2372803B8E
:101AE000A3800233E371A371FFF7C6FF70BDC04648
:101AF0008CA000089400002024400020FF23181A26
:101B0000014B98807047C04694000020034B03604F
:101B1000034B0B60802313607047C046A000002079
:101B2000F400002001238B40DBB20370437083700C
:101B30007047000010B503681B685B0700D410BD38
:101B40000F4B60220121995401329A5C1100183127
:101B5000890059181C6D4C601100223189005918F8
:101B60005C6D4C6011002C31890059189C6D4C60E3
:101B7000D96D363292009B18596002F00BFEDEE7F9
:101B800050110020884202D9401A01387047081AC3
:101B9000FCE7000070B5554CAC235B00E55829000C
:101BA000A06CFFF7EFFFE36C984200D870BDA5640E
:101BB000200029300422002106F00DFD3123E35CD2
:101BC000072B00D98AE09A0049498A589746474A24
:101BD0002921FF205054013308315354C338C826FB
:101BE000B600FFF78BFF434C2000FFF733FFFFF7F2
:101BF00043FF293C3125615D628E3F4806F0F4FCCD
:101C0000635D072B6DD0394BDE64CFE7374A2A215D
:101C1000FF205054013307315354C338C826B6004F
:101C2000DFE7324A2B21FF20505401330631535451
:101C3000C338C826B600D4E72C4AFF212920115406
:101C4000013011540133CE3953540C38C826B60034
:101C5000C7E7264AFF2129201154013011540130D1
:101C600011540133CE3953540D38C826B600B8E7A5
:101C70001E4AFF2129201154013011540130115402
:101C80000133CE3953545530C826B600A9E7174A58
:101C90002C21FF205054013305315354C338C8263A
:101CA000B6009EE7114C618EC9B220002930FFF7C3
:101CB00039FF638E01339BB26386032B03D03C2034
:101CC000C82676008DE7094B00225A8631215A5CDE
:101CD00001325A543C20C826760082E700200600D4
:101CE0007FE7024A2A330021D1548CE750110020AB
:101CF000FC990008791100209CA0000810B505F09F
:101D0000F3FF04007C4B186A2100FFF73BFF0A2811
:101D100000D8EFE0784B1C62BE2252009B5C002B87
:101D200041D1754A7E23FF33D35C012B3BD0137C1A
:101D3000002B14D01300D18B4A1CDA835A8A9300EB
:101D40009B185A0091420FDB6B4B0022DA835A89B1
:101D5000511C5981002A07D000225A8104E0664BA9
:101D600001225A810022DA83634B5B7D002B14D061
:101D7000614B198B4A1C1A835A8A93009B185A008C
:101D8000914223DB5C4B00221A83DA8A511CD982F0
:101D9000002A1BD00022DA8218E0574B0122DA8297
:101DA00000221A8312E0544A7E23FF33D35C002BB7
:101DB0002ED0137C002B23D0130092895A814E4BD6
:101DC0005B7D002B20D04C4B9A89DA824A4B5B8991
:101DD000002B6ED0484B5B78002B5ED0464BFF2229
:101DE0005A71454B9B78002B5BD0434BFF229A7175
:101DF000414BDB78002B58D03F4BFF22DA715DE07E
:101E00003D4B01225A81DAE73B4B0122DA82DDE7C2
:101E1000394B1B7C002B1AD0374B5B8A042B13D811
:101E2000354AD18B481CD0839A00D3185A0091426E
:101E30000DDB314B0022DA835A89511C5981002A6B
:101E400005D000225A8102E02B4B9A895A812A4BF5
:101E50005B7D002B1BD0284B5B8A042B13D8264AB2
:101E6000118B481C10839A00D3185A009142ADDBA5
:101E7000214B00221A83DA8A511CD982002AA5D06C
:101E80000022DA82A2E71C4B9A89DA829EE71A4B7B
:101E90000122DA8200221A8398E7174B00225A7136
:101EA0009FE7154B00229A71A2E7134B0022DA71CB
:101EB00004E0114B00225A719A71DA710E4BDB8AE1
:101EC000002B0BD00C4B1B7D002B03D00A4BFF22A9
:101ED0001A7206E0084B00221A7202E0064B00223A
:101EE0001A72054CA07BFFF709FE601DFFF7B2FDDB
:101EF000FFF7C2FD10BDC04650110020F8B51E4CC2
:101F0000200006F0FFFB1D4806F0FCFB1C4806F015
:101F1000F9FB200006F0F6FB01F0C6F9FFF7BAFD69
:101F2000184CF22292000021200006F054FB1E20E3
:101F3000FFF7E4FD2925FF2363552A27E3552B26C8
:101F4000A3551148FFF786FDFFF796FD192002F013
:101F500001FA00236355E355A3559133FF33E3643E
:101F60000020FFF7CBFD0848FFF774FDFFF784FD65
:101F7000192002F0EFF9F8BDC8A00008F0A0000891
:101F800010A100085011002079110020F0B5CE46B4
:101F900000B584B0274A8C235B00D058264B98426A
:101FA0000BD8ED2812D90123812B0BDC9A00234991
:101FB0005458A04210D20133F6E7A0235B009621CB
:101FC0004900D15204B004BC9146F0BD194AA02387
:101FD0005B001B49D152F5E71A001E3A154F9100DC
:101FE00052185100A0267600B953013B9B00134ABA
:101FF0009B589DB2A2B2AD1AA9B21B041D0CAA0037
:1020000052195300820010184200981A0391FEF7EB
:102010007BF882B291462204120C0004000C00905E
:10202000039B2900074806F0DFFABB5B4A469B1A70
:10203000BB53C7E7501100201B0F0000309B000866
:10204000DE03000024A1000810B505F04DFE044A8F
:10205000AC235B00D050034803F088FA10BDC046A3
:1020600050110020C83F002010B5064AB9235B007C
:10207000D35C002B02D1FFF741FE10BDFFF78AFDB4
:10208000FBE7C0465011002070B5050003781C4CDA
:10209000A37301781B4806F0A7FA69781A4806F07E
:1020A000A3FA6B789B0963706B781B1103221340B2
:1020B000A3706B789B101A40E2706B785B1001265E
:1020C00033402375A978114806F08EFAAB78DB0906
:1020D000E373AB789B1133402374AB785B111E40E4
:1020E0006674AA781F231340638205F0FDFDB623B2
:1020F0005B00E0506C3BFF3B63810023E38370BDDA
:10210000501100205CA1000878A1000884A10008FB
:1021100010B5244C7C220021200006F05CFA043C1F
:102120007E232370703B6370C233A3701E4BC722A3
:1021300052009A5CE27009216171A2712122E27160
:102140009A7B22725A7862729A78A272DA78E27274
:102150001B7D002B22D080235B42134A127C002A75
:102160001ED100221343DBB20F4A518A0B430F4C9E
:10217000237398235B00D35A63730D22012120003F
:1021800001F02EFDA0737F23E373102221000120B4
:1021900001F0BAFC064806F0B5FA10BD0023DCE7F2
:1021A0004022DFE7803E0020501100207C3E0020CE
:1021B00004A2000810B50A4806F0A4FA094CFC2253
:1021C0000021200006F007FA043C04220649200002
:1021D00006F0F8F92100022001F07EFC10BDC04697
:1021E00044A200081513002060A2000810B50C4896
:1021F00006F088FA0B4CF2220021200006F0EBF9E1
:102200000E3C0E220849200006F0DCF921000220D5
:1022100001F062FC2100054806F0E6F910BDC04659
:10222000C4A300081F130020DCA30008A8A2000814
:1022300070B5050001000C4806F0D6F90B4C802261
:1022400052000021200006F0C6F92A0008492000AB
:1022500006F062FA2100022001F03EFC2100054850
:1022600006F0C2F970BDC046ECA3000811130020AF
:1022700010A40008A8A20008F0B5C64600B584B0B6
:1022800005000291140013780A000100D64806F0F8
:10229000ABF9412D4AD8AD00D44B5B599F46D44A87
:1022A000C7235B00D35C029A93423FD1D04A782384
:1022B000FF330121D15439E02000FFF7E5FE2378F8
:1022C000CB4DAB7363789B096B7063781B11032252
:1022D0001340AB7063789B101A40EA70627852101A
:1022E00001231A402A75A278D2096A75A278921140
:1022F0001A402A74A278521113406B74A2781F23DB
:1023000013406B8205F0F0FCB6235B00E8506C3B99
:10231000FF3B6B810023EB8301227D33FF33EA54C3
:1023200021786278A378B34806F05EF904B004BC63
:102330009046F0BDAE4AC7235B00D35C029A93423D
:10234000F4D12000FFF7A0FE2278A94B9A7362789F
:1023500092095A706278121103210A409A706278C9
:1023600092101140D97061784910012211401975FD
:10237000617811409976A178C9095975A1788911B8
:1023800011401974A17849110A405A74A1781F228A
:102390000A405A8201225A810022DA8300217D32CA
:1023A000FF32995421786278A378934806F01CF99B
:1023B000FFF7AEFEBAE76F1CE7193800FFF764FEBF
:1023C0008B4ABE235B000021D1543A786419A3786C
:1023D000E17800913100894806F006F9A6E700236C
:1023E000062BA3DC9D00665D8149C72252008A5CF2
:1023F000B242E0D00133F3E723781B02617819433E
:102400007B4BC022520099520A329A5A914206D806
:10241000511A774AC3235B00D15200270FE0784856
:1024200006F0E2F8724B00227E21FF315A549A7670
:102430007A22FF327D39FF39995477E70137A37843
:10244000BB4200DC72E7BBB29846DE00B6B2331D79
:10245000E55C2D022DB2731DE35C1D43B31DE25CF0
:10246000120212B2F31DE35C1A430392290065487D
:1024700006F0BAF85E4AC3235B00D35A9D42DDDC06
:10248000039A9A42DADD300008302018FFF7FCFD8D
:10249000574BC1225200414699529B7E012B00D0DE
:1024A00044E7534BDB7E029A934209D1504BC22240
:1024B00052009A5AC32149005B5A9A4200D135E72B
:1024C000514806F01FF94A4BC3225200995A023A6A
:1024D0009952029ADA760122BD2149005A547E218E
:1024E000FF315A5422E72578414A8A23FF33D554D5
:1024F0000022182A00DD19E7531CE35C3C48C72181
:102500004900415C994201D00132F2E75543ABB238
:102510000400C520400023523C4806F065F805E75A
:10252000334A7E23FF33D35C002B00D1FEE6002329
:1025300022789A4200DCF9E62D49C1225200895ADC
:10254000580022185278914201D00133F0E7201848
:102550008278274B9A812E4806F046F8E6E6244A10
:10256000C7235B00D35C029A934200D0DEE605F0FD
:10257000BBFB1F4BB622520098500C3201219954DC
:10258000D4E6BFF34F8F234B234ADA60BFF34F8F5C
:10259000C046FDE72378002B05D0154AB9235B0020
:1025A0000021D154C2E6124B002231215A545A86DE
:1025B0007332FF3230399954B8E622780C4B9A8145
:1025C000B4E60B4AC7235B00D35C029A934202D065
:1025D000FF2A00D0AAE62278054B9A767A22FF32AB
:1025E00001219954A2E6C04624A400081C9A0008C0
:1025F0005011002054A4000894A40008D0A400089E
:102600000CA500084CA5000868A5000884A50008D2
:10261000B0A5000800ED00E00400FA0522781202DF
:1026200063781343054DDF2464002B53FFF7C2FD8D
:10263000285BFFF7FDFDFFF7BDFD77E65011002099
:1026400010B5C8B001F06CFB1A4AE0235B00D05C07
:1026500001F0E2FC184B1968002245A804F0F2FDD5
:1026600009E0154B196845AC0022684604F0EAFD04
:102670006B4607CB07C4459B102B18D104AC8222B4
:1026800052004699200005F09DFF21780B4805F087
:10269000ABFF23783033DBB2012BE2D804AB1979DE
:1026A0005879587016226A44FFF7E6FDD9E748B01A
:1026B00010BDC0465011002058430020D8A5000886
:1026C00070B505000C4C802252000021200005F05E
:1026D00082FF2A000949200006F01EF82100084860
:1026E00005F082FF2100022001F0F6F921000548E3
:1026F00005F07AFF70BDC04611130020F8A5000850
:1027000070A20008A8A2000810B5012000F06EFE1B
:102710001F4AE0235B000021D154FFF74BFDFFF778
:1027200065FDFFF747FD00240EE0A200194BD158CC
:10273000194801F0BFF9FFF73DFDE1204002FFF726
:10274000BFFFFFF737FD0134022CEEDD104AB62340
:10275000FF33D35C002B0CD10D4ABE23FF33D35C77
:10276000002B0DD10A4B01229A767A21FF315A545F
:1027700010BDFFF71FFDFFF739FDFFF71BFDEBE76E
:10278000E0235B000121D154002000F02FFEE9E797
:1027900050110020249B0008AC40002010B50D48CB
:1027A00005F0B0FF0C4C8E23FF33E15C0B4805F0C5
:1027B0001BFFC7235B00E15C094805F015FF902370
:1027C000FF33E15C074805F00FFF074805F09AFF6B
:1027D00010BDC04604A600085011002038A600080D
:1027E0005CA6000880A60008A4A60008F0B587B083
:1027F0000D0016005F4B984253D813185D4A934260
:1028000000D88BE083B2DC43A4B21B0A05AA137084
:102810005070FA239B0000930223A021564802F037
:10282000AFFC03900700142001F094FD002F66D147
:10283000FA239B00009323002A00A0214E4802F0B7
:1028400055FD03900700142001F084FD002F5BD19B
:102850002D19341BA4B205AA002313705370FA2358
:102860009B0000930223A221434802F089FC06004A
:10287000142001F06FFD002E4BD1FA239B00009332
:1028800023002A00A2213C4802F030FD040014205D
:1028900001F060FD002C26D02100384805F0A4FE90
:1028A00021E080B2013080B2030A05AA1370507093
:1028B00064230093623BA2212F4802F061FC0400D4
:1028C000142001F047FD002C0FD1FA239B00009348
:1028D00033002A00A221284802F008FD002809D16F
:1028E000142001F037FD07B0F0BD2100244805F0A9
:1028F0007BFEEAE70100234805F076FEF0E7039946
:10290000214805F071FE93E70399204805F06CFE1D
:102910009EE731001E4805F067FEAEE783B21B0A52
:1029200005AA13705070FA239B0000930223A02184
:10293000114802F025FC0400142001F00BFD002CCE
:1029400013D1FA239B00009333002A00A0210A48E8
:1029500002F0CCFC0400142001F0FCFC002CC2D0DE
:1029600021000C4805F040FEBDE721000A4805F0B3
:102970003BFEE6E7FFFF00007C3F002078A8000850
:1029800098A70008C0A70008E8A7000818A8000832
:1029900048A80008D0A80008A8A8000810B5074C4F
:1029A00013220021200005F016FE13222100002032
:1029B000FFF71CFFFFF7F2FE10BDC046DC1200203F
:1029C00010B5FFF7EBFF0A4A8E23FF33D35C002BD1
:1029D00000D0042306499022FF32885C184300F09F
:1029E000A3FC012000F0DAFC00F0ECFC10BDC046B6
:1029F0005011002070B582B09A4BAC225200995809
:102A000008329858FFF7BEF8FA239B00984200D886
:102A100025E1944ABF235B00D35C002B49D0914A47
:102A2000BB235B00D35C012B4ED08E4AB623FF3311
:102A3000D35C002B4FD08B4BAC22520099580832FC
:102A4000995010329B5C002B48D0864AB8235B001B
:102A50000021D154834CB8235B00E05C00F050FCB3
:102A600000F0CEFCC0B2BE23FF33E35C83420DD046
:102A70007C4ABE23FF33D054002835D07A4805F075
:102A800041FE784AE0235B000121D154754BAC2212
:102A900052009C580C3298582100FFF773F8734B82
:102AA000984200D8DBE06F4AB2235B00D450002488
:102AB00034E0140001257F33FF33D55400F09CFF30
:102AC000BB235B00E554AAE77633FF330021D154E2
:102AD000FFF776FFA9E7FFF717FEACE7614AB823D7
:102AE0005B000121D154B5E7614805F00BFE5D4A5A
:102AF000E0235B000021D154C8E75A49602300223B
:102B0000CA540133CC54503104325A4801F0F0FD1C
:102B1000544A6023D35C002BFAD00134092CECDD3D
:102B2000504B0022822149005A5004315A5004313E
:102B30005A5004315A502AE04A4B1100183189008A
:102B400059184968822040001C58A4466144195015
:102B50001100223189005918496804301C58A446D4
:102B60006144195011002C3189005918496804300A
:102B70001C58A44661441950110036318900591877
:102B8000496804301C58A446614419500132092A8E
:102B9000D2DD00240EE0334D230040339B00EB18C0
:102BA00058680A21FDF7B0FA230044339B00ED1862
:102BB00068600134032CEEDD2A4C8E267600A35982
:102BC0008C225200A2588A214900615890256D003C
:102BD00060590090284805F007FDA059FEF756FD02
:102BE000264A274BFDF762FF0022264BFDF75EFFCA
:102BF00002000B00FDF73EFC23003933FF33186061
:102C000059600022204BFDF751FFFDF753FB1436AE
:102C1000A0536059FEF73AFD184A194BFDF746FFDD
:102C20000022184BFDF742FF02000B00FDF722FCCB
:102C300023002933FF33186059600022124BFDF73F
:102C400035FFFDF737FB04356053FFF79FF9A15BB4
:102C5000625BA0235B00E35E0C4805F0C5FC02B09C
:102C600070BDC04650110020F8A80008881300006D
:102C700010A90008FC42002028A9000866666666C4
:102C800066660A400000303F0000244068A9000842
:102C9000F0B58BB01422002105A805F09CFC2D4B4B
:102CA000D96A04221143D962D96A0A400192019A71
:102CB000D96A80221143D962D96A0A400292029AE3
:102CC000DA6A01273A43DA62DA6A3A400392039AEF
:102CD000D96A02221143D962DB6A1A400492049B2A
:102CE0008024A401002221001B4802F0B8F8002231
:102CF0001A491B4802F0B3F899252D020022290039
:102D0000A020C00502F0ABF80594069700240794B4
:102D10000326089605A9104801F0CEFF114B059334
:102D200006970794089605A90D4801F0C5FF05957B
:102D300006970794089605A9A020C00501F0BCFFDE
:102D4000402305930694079405A9054801F0B4FFB4
:102D50000BB0F0BD0010024000080050C4F00000AD
:102D600000040050A4F0000000B583B0114A116BBC
:102D7000012319431163126B13400193019B00223D
:102D80000321092001F0F4FD092001F023FE0022B7
:102D900003210A2001F0ECFD0A2001F01BFE0022B5
:102DA00003210B2001F0E4FD0B2001F013FE03B022
:102DB00000BDC0460010024010B5FFF745F9FFF70F
:102DC00019FE012004F0EEF9F7E710B5012004F038
:102DD000E9F9FBE710B5FFF747F9012004F0E2F944
:102DE000F9E710B5FFF72CFC012004F0DBF9F9E757
:102DF00000B583B00190FA239B00012201A903488A
:102E000004F00CF8019803B000BDC0467C410020DE
:102E100072B6FEE700B583B008220021684605F0CF
:102E2000DAFB2948294B03600023C3638022D205C3
:102E30004260836005228263043A0261C3602021FC
:102E40004254013143548362C221FF3141629639B9
:102E5000FF39425403324261036383614363C361B8
:102E600001F052FB002824D1194B009380235B0111
:102E700001936946144801F01DFD00281BD1154B34
:102E800000936946104801F015FD002815D1124B3A
:102E9000009369460C4801F00DFD00280FD10F4B3F
:102EA00000936946084801F005FD002809D103B0E8
:102EB00000BDFFF7ADFFFFF7ABFFFFF7A9FFFFF77F
:102EC000A7FFFFF7A5FFC046FC42002000240140F9
:102ED000040000080800000C10000010200000147E
:102EE00010B51248124B0360124B436000238360FD
:102EF0000122C260036143618361C361036202F026
:102F0000D9F800280CD10021084802F0A5FA0028C1
:102F100008D10021054802F0CBFA002804D110BDE9
:102F2000FFF776FFFFF774FFFFF772FF7C3F00208B
:102F3000005400408266500000B587B0082200218E
:102F400004A805F048FB10220021684605F043FB69
:102F500029482A4B0360002343608360802252008B
:102F6000C2600361436103F042F9002835D10023B8
:102F70000493059304A9204803F03AFA00282ED1BF
:102F80006023009300230193029303930022694678
:102F9000194803F0B9F9002823D10421164803F099
:102FA0005DFA00281FD104226946134803F0ACF9EA
:102FB00000281AD1082269460F4803F0A5F9002815
:102FC00015D10C2269460C4803F09EF9002810D157
:102FD000094800F0CFFA07B000BDFFF719FFFFF76F
:102FE00017FFFFF715FFFFF713FFFFF711FFFFF7BD
:102FF0000FFFFFF70DFFC0462440002000040040F3
:1030000010B50B480B4B036096231B024360002353
:103010008360C36003610C2242618361C361036208
:10302000436203F0ABFF002800D110BDFFF7F0FEB4
:103030007C4100200038014010B50B480B4B036069
:1030400096239B01436000238360C36003610C22CD
:1030500042618361C3610362436203F08FFF002812
:1030600000D110BDFFF7D4FE2C420020004C0040E0
:1030700010B50B480B4B036096231B0243600023E3
:103080008360C36003610C2242618361C361036298
:10309000436203F073FF002800D110BDFFF7B8FEB4
:1030A000AC4000200050004010B50748074B0360BB
:1030B00006234360064BC360836002F023FA0028B6
:1030C00000D110BDFFF7A4FEC83F00200030004033
:1030D000FF0F000010B50A480A4B0360002343604D
:1030E0007F2282608032C260036143618361C36179
:1030F00002F05AFF002800D110BDFFF789FEC0463C
:10310000044200200028004000B59BB0342200217A
:103110000DA805F060FA1422002108A805F05BFA5A
:1031200020220021684605F056FA1C490B681C4A0B
:103130001A4080231B0113430B6009230D93802346
:103140005B020E9301231293002316930DA802F045
:103150006DFA00281CD10F2308930D3B099300231F
:103160000A930B930C93012108A802F0EDFC0028B0
:1031700010D12923009300230293059380239B02FF
:103180000193684602F0F2FD002805D11BB000BD96
:10319000FFF73EFEFFF73CFEFFF73AFE00700040EF
:1031A000FFE7FFFFF0B5A5B001F0AEF8FFF7ACFF09
:1031B000FFF76EFDFFF7D8FDFFF72CFEFFF790FE3F
:1031C000FFF7BAFEFFF71CFFFFF736FFFFF750FFD0
:1031D000FFF76AFFFFF77EFFFEF790FE20A82B4C5B
:1031E0000300250046CD46C32A681A60002103F07B
:1031F000E1FF274B18601CA803002200C2CAC2C30B
:103200002A681A60002103F0D5FF224B186015A828
:1032100002002300103362CB62C262CB62C21B6821
:103220001360002103F087FF1B4B18600EA80200FB
:1032300023002C3362CB62C262CB62C21B68136074
:10324000002103F078FF154B186007A80200230047
:10325000483362CB62C262CB62C21B68136000213A
:1032600003F069FF0E4B186068460300643426CCF7
:1032700026C326CC26C322681A60002103F05BFF18
:10328000084B186003F052FFFEE7C046389D000867
:103290005843002028420020B0420020D83F0020A0
:1032A000304100200042002070B5134805F02AFA92
:1032B000124C03220021200005F08DF9FF23A3709A
:1032C000002415E080263602A025ED0500223100FD
:1032D000280001F0C4FD192001F03CF80122310062
:1032E000280001F0BCFD192001F034F80134E4B2EB
:1032F000092CE7D970BDC046D8A90008F402002007
:1033000010B5084B1B7883420AD0064B1870424216
:103310004241D2B28021A0200902C00501F09FFDE8
:1033200010BDC046F4020020F8B5040001001848A2
:1033300005F05AF9174B9B78A34227D0154B9C7088
:10334000012722007A40012632408021A025ED0588
:103350000901280001F083FD62087A403240802193
:103360004901280001F07BFDA2087A4032400A4D55
:1033700080214901280001F072FDE4087C40320000
:10338000224080210902280001F069FDF8BDC046F5
:10339000E8A90008F40200200004005010B5040061
:1033A0000100064805F020F9013C62426241D2B2B8
:1033B00080218901024801F052FD10BD04AA0008D5
:1033C0000008005070B580256D00A024E40500229F
:1033D0002900200001F043FD192000F0BBFF01226D
:1033E0002900200001F03BFD70BD000010B5020077
:1033F0002021024801F033FD10BDC04600040050FA
:1034000010B54021044801F023FD002801D100201F
:1034100010BD0120FCE7C0460004005010B5084B69
:103420005A6B01210A435A63996B802252050A4361
:103430009A63022000220321404201F099FA10BD54
:103440000010024030B587B004001422002101A80A
:1034500005F0C1F81B4B22689A4201D007B030BD7D
:10346000194B5A6B8025AD002A435A63D96A012251
:103470001143D962DB6A1A400092009B3C230193FE
:10348000393B0293A02001A9C00501F015FC0F48AB
:103490000F4B0360002343608360C360802202619E
:1034A00045618022120182612022C261036201F023
:1034B000D1FA002803D1054BE3649C62CEE7FFF705
:1034C000A7FCF8E70024014000100240B4420020AD
:1034D0000800024010B586B004001422002101A8A3
:1034E00005F079F82268104B9A4201D006B010BD61
:1034F0000E4CE26A02231A43E262E26A134000932E
:10350000009BC0239B000193122302930F3B049363
:103510000133059301A9064801F0CEFBA26B80237D
:103520009B031343A363E1E70054004000100240F3
:10353000000400500268054B9A4200D07047044ACC
:10354000116D8023DB020B431365F7E70028004071
:10355000001002400268054B9A4200D07047044AAE
:10356000936B02210B439363F8E7C04600040040CD
:103570000010024010B588B004001422002103A8F6
:1035800005F029F82268154B9A4201D008B010BD09
:10359000134BD96A01221143D962D96A0A400192B8
:1035A000019ADA6A02242243DA62DB6A2340029338
:1035B000029BC023039304940794A02003A9C00591
:1035C00001F07AFB032303930494002305930693ED
:1035D000079403A9034801F06FFBD7E700040040FC
:1035E000001002400004005030B589B004001422DD
:1035F000002103A804F0EFFF2368534A934207D049
:10360000524A934239D0524A93426AD009B030BDEF
:10361000504B596B8022D2010A435A63D96A012266
:103620001143D962DB6A1A400092009BC023DB0081
:103630000393022304930325069502330793A020E6
:1036400003A9C00501F038FB4348444B03604560C3
:1036500000238360C3608022026143618361603A1A
:10366000C261036201F0F6F9002803D13A4B2367E7
:103670009C62CBE7FFF7CCFBF8E7364B996B8022D7
:1036800012030A439A63D96A01221143D962DB6AA1
:103690001A400192019B0323039302220492069392
:1036A00003330793A02003A9C00501F005FB2C48B4
:1036B0002C4B03600C23436000238360C360802293
:1036C000026143618361603AC261036201F0C2F941
:1036D000002803D1224B23679C6297E7FFF798FBF2
:1036E000F8E71C4B996B802252030A439A63D96A0C
:1036F00002221143D962DB6A13400293029B182312
:1037000003930492153B06930333079303A91648CA
:1037100001F0D2FA1548164B03600D2343600023D5
:103720008360C3608022026143618361603AC26149
:10373000036201F08FF9002803D10C4B23679C62D0
:1037400064E7FFF765FBF8E700380140004C0040F4
:103750000050004000100240344100203000024080
:10376000644000201C00024000040050DC3F0020A8
:103770006C000240FEE7FEE710B500F0D9FD04F052
:1037800081FC012801D004F095FD10BD10B5024860
:1037900001F032FA10BDC046B442002010B5034813
:1037A00001F02AFA024801F027FA10BD6440002017
:1037B0003441002010B5024801F01EFA10BDC04689
:1037C000DC3F00207047000010B5002417E04908D6
:1037D000520892B201339BB2072B08D80800504020
:1037E000C007F4D549080B48414089B2F0E70A4BBD
:1037F000E2185200094B9B1859800134A4B2FF2CE7
:1038000003D8220000210023E6E7044A044B0121EB
:10381000D15410BD01A0FFFFB01300001815002007
:103820006027000010B5024802F002FF10BDC0463C
:103830007C41002010B5034802F0FAFE024802F075
:10384000F7FE10BD2C420020AC40002010B50368EC
:10385000134A934206D0134A93420DD0124A934220
:1038600014D010BD114C200002F044FE012210497A
:10387000200003F011FCF4E70E4C200002F03AFEA9
:1038800001220D49200003F007FCEAE70B4C200061
:1038900002F030FE01220A49200003F0FDFBE0E7C0
:1038A00000380140004C0040005000407C410020A6
:1038B0001D1500202C4200203D220020AC4000209D
:1038C0005D2F002070B50368284A934206D0284A2D
:1038D000934217D0274A93422ED070BD04F004FAC9
:1038E0002549264BC85026480A5A531C4C798A1839
:1038F00094719B059B0D0B5205310122214803F069
:10390000CBFBEAE704F0F0F91B491F4BC8501F48F6
:103910000B5A5A1C1E4C0C5DCB181E4DAC46634412
:103920001C7093059B0D0B52194B9C466144012260
:10393000194803F0B1FBD0E704F0D6F90E49174B54
:10394000C85017480B5A5A1C164C0C5DCB18164D14
:10395000AC4663441C7093059B0D0B52114B9C4667
:1039600061440122114803F097FBB6E7003801409B
:10397000004C0040005000401815002014080000C2
:103980000C0400007C410020341500002C110000C4
:10399000250D0000260D00002C42002054220000BE
:1039A0004C1E0000451A0000461A0000AC400020E2
:1039B00010B503680A4A934206D00A4A934207D0D8
:1039C000094A934208D010BD084804F09BFEFAE76C
:1039D000074804F097FEF6E7064804F093FEF2E786
:1039E00000380140004C00400050004020AA000870
:1039F00048AA000870AA0008F8B5244804F082FE1E
:103A0000234C244A0021200004F0E5FD224F2760CA
:103A1000224ED2231B01E650214DD2235B01E550FB
:103A2000012323711F4AA3541F4AA354611D01227D
:103A3000380003F031FB1D4BE1180122300003F088
:103A40002BFB1B4BE1180122280003F025FB3968F2
:103A50000B68202213430B6031680B6813430B6023
:103A600029680B6813430B60002205211B2000F01E
:103A70007FFF1B2000F0AEFF002205210E2000F08A
:103A800077FF0E2000F0A6FFF8BDC04604AB00088B
:103A900018150020642900007C4100202C420020E1
:103AA000AC400020240D0000441A0000250D000049
:103AB000451A000010B504004160064804F094FD6A
:103AC000200003F05BFA002800D110BDFFF7A0F939
:103AD000FBE7C04614AB000870B505000C000228D7
:103AE00001D972B6FEE70800FDF772FFFA2382B231
:103AF000D220000168439B002100024C005903F0D2
:103B00008DF970BD1815002010B5C3001B1A1801DF
:103B1000C01A430102481858642303F07FF910BD0E
:103B20001815002010B5234C8022D200002120005F
:103B300004F051FD204BE118204BCA5A204B9C4603
:103B40006144200004F03EFD1E49200004F016FEF2
:103B500004001D4AB623FF330121D15403221B491F
:103B600004F0FAFD00281FD006221949200004F0B5
:103B7000F3FD002818D00C221649200004F0ECFDBB
:103B800000280CD008221449200004F0E5FD00288C
:103B90000BD10D4A7C23FF330021D15404E00A4AA3
:103BA0007C23FF330121D15410BD21000B4804F0C8
:103BB0001BFDF9E771380020A7DCFFFF5022000051
:103BC000501E0000CCAB00085011002034AB0008A0
:103BD00038AB000840AB000850AB00085CAB0008F5
:103BE00030B505000023002003E0CC182C5D6040B8
:103BF00001339342F9D330BD70B53D4E8022D200DF
:103C00000021300004F0E7FC8222520000213948F4
:103C100004F0E1FC384BF418384BE55A384BE11806
:103C20002A00300004F0CEFC013D2A0000213000C3
:103C3000FFF7D6FF6419334A944664442278FF2A7A
:103C400001D090421AD1304A304BD15C294B1970C7
:103C5000C02938D020D8B02946D1264C0423FF33C0
:103C60000122E254E01C0132294904F0ABFC294B4B
:103C700018680022210003F0B3FA0CE00100264886
:103C800004F0B2FC1B490423FF330022CA54214B29
:103C9000186803F0A5FA70BD0B003033DBB2012BBE
:103CA00022D8144C0423FF330122E254A1708A1E4F
:103CB000E01C174904F086FC164B1868002221000E
:103CC00003F08EFAE7E70B4C0423FF330122E254A2
:103CD000E01C0A320E4904F075FC0E4B18680022F5
:103CE000210003F07DFAD6E70C4804F07DFCD2E712
:103CF000512B0020F8020020C7E9FFFF301500001B
:103D00003011000039160000181500203A16000086
:103D1000532B00205843002070AB000894AB0008E0
:103D200070B503F0E1FF4E4A4E4BD35A002B01D140
:103D3000002431E04C4BD45803F0D6FF01002000A2
:103D4000FDF720FFFA239B009842F1D903F0CCFF46
:103D5000434C454BE050454BE0188022D2000021F7
:103D600004F039FC00220023414962523D4962526D
:103D7000404AA354404AA3540021404804F034FC74
:103D800062E07E282BD0364A3B4B0021D154344A86
:103D90003B4BD35C012B52D0314B354A9A5A3149B7
:103DA0005B5A9A424BD05A1C2D49CB182F48844657
:103DB0006344187893059B0D2A4A8B522D4BCB5C9C
:103DC000012B11D0002BDCD0022B1DD0032BDED118
:103DD0007F282CD0224A274B0021D154D7E701332A
:103DE0001F49244A8B54CEE71D49234C0A5D551CBC
:103DF0000D558A18234CA446624410700138C4B291
:103E000001331C4A8B54C2E7154A1B4D515D4E1CB1
:103E1000565552181B498C4662441070013CE4B25E
:103E2000002CB4D101330E49124A8B54AFE70C4B2E
:103E3000134A012199540F4A00219954A7E7084ACF
:103E40000F4BD35C002B00D170BD13000C4A002136
:103E50009954094A995C0C4A9952FFF7CDFEF3E751
:103E6000181500202E11000034150000260D00004A
:103E70002C1100002611000027110000B4AB00082F
:103E800028110000301100003015000070B504004A
:103E90000D00104A104BD35C002B04D0002C05D031
:103EA0000021002013E0FFF78FFCF7E7002010E06F
:103EB00022784240000AFF231340084A9446634494
:103EC0005B00044AD3185B88584001340131A94291
:103ED000EED370BD1815002060270000B01300005D
:103EE000F8B53E4D8022D2000021280004F073FB7B
:103EF0008222520000213A4804F06DFB394BEC1845
:103F0000394FE65B394BE1183200280004F05AFBC8
:103F1000B11E2800FFF7BAFF0100E55BAB1EE318F6
:103F2000334A944663441B781B02013D6419644480
:103F300022781A4301D090421AD12E4A2C4BD15CE0
:103F4000274B1970B02935D016D9B2291FD1244C6E
:103F50000423FF330122E254E01C0732264904F017
:103F600031FB264B18680022210003F039F92BE0C1
:103F7000234804F039FB27E0A52926D0184A04235A
:103F8000FF330020D0541F4804F02EFB1CE0C02952
:103F9000F4D11D4804F0B6FB012200211B4802F0B9
:103FA0006FF8BFF34F8F1A4B1A4ADA60BFF34F8F87
:103FB000C046FDE70A490423FF330122CA540F4BD0
:103FC0001868002203F00CF9F8BDBFF34F8F104BB7
:103FD000104ADA60BFF34F8FC046FDE7713800200A
:103FE000F8020020A7DCFFFF50220000501E000056
:103FF000592300001815002076380020584300206F
:1040000070AB0008F0AB0008D0AB00080442002001
:1040100000ED00E00400FA05F8B504000A2513E0FD
:104020007E2E2FD0974A984B0021D15431009748CB
:1040300004F0DAFA3100964804F0D6FA914A954B2A
:10404000D35C012B00D1EEE08E4B934A9A5A9349F0
:104050005B5A9A4200D1E6E05A1C8A49CB18904834
:10406000844663441E7893059B0D8C4A8B52002C2A
:1040700000D1C3E08B4BCA5C092ADFD893008A4980
:10408000CB589F4601327F49864BCA54CAE77D4BC5
:104090007D490120585485495E54013281495A5462
:1040A00031007B4804F0A0FA0025C7E7754F764A37
:1040B000BB5C591CB954FB187C4A944663441E707F
:1040C0003100734804F090FA764ABB5C0133BB546C
:1040D000B4E76C4F6C4ABB5C591CB954FB18734A6B
:1040E000944663441E703100694804F07DFA6D4ABD
:1040F000BB5C0133BB54A1E7624D634AAB5C591C06
:10410000A954EB18694A944663441E703100604814
:1041100004F06AFA634AAB5C0133AB5400258DE7C7
:10412000584B59495A5C501C58549B185F4A944646
:1041300063441E7035433100554804F055FA002D94
:1041400005D05049574A8B5C01338B5476E74D4A72
:10415000544B0721D15471E74A4B4B495A5C501CD0
:1041600058549B18514A944663441E70013DEDB269
:104170003100474804F038FA002D00D05EE741498D
:10418000484A8B5C01338B5458E73E4F3E4ABB5C38
:10419000591CB954FB18454A944663441E703100BB
:1041A0003B4804F021FA3F4ABB5C0133BB5445E76E
:1041B000344F354ABB5C591CB954FB183B4A9446F2
:1041C00063441E703100324804F00EFA354ABB5C7D
:1041D0000133BB5432E77F2E04D02A4A314B0021F1
:1041E000D1542BE7274B2B4A012199542D4A00210A
:1041F000995431002E4804F0F7F91FE70D2E25D011
:10420000204B21495A5C501C58549B18274A94460D
:1042100063441E70300004F001FA1A4A1D4BD35C4F
:10422000012B00D010E7174A1A4BD35C002B0CD09F
:1042300013000021174A9954134A9D5C1D481D52D2
:104240009954002C1AD1FFF76DFCF8BD31001A48C3
:1042500004F0CAF90B490C480A5C531CDBB28A18FB
:10426000124FBC46624416705A1C0A54CB18634461
:104270000A221A70074B093ACA54CEE7FFF730FEFC
:10428000E3E7C04618150020471E000014AC0008E4
:104290001CAC0008481E00004C1E00004E1E000012
:1042A000461A0000461E0000DC9D0008501E00005B
:1042B00024AC000850220000B0AB000810B5040088
:1042C0000F4B1978FA208000FBF71EFF01000D4B01
:1042D0001868FBF719FF00F089FB00280DD1032CAB
:1042E00001D901200AE0013000222100404200F003
:1042F0003FFB034B5C60002000E0012010BDC04686
:10430000040000200000002010B5084A1368402176
:104310000B4313600320FFF7D1FF041E02D00124DA
:10432000200010BDFFF77AF8FAE7C04600200240EF
:10433000034A1168034B1B785B1813607047C04633
:104340005C43002004000020014B18687047C04601
:104350005C43002070B50400FFF7F6FF0500631C06
:1043600002D0044B1B78E418FFF7EEFF401BA0427D
:10437000FAD370BD0400002010B582B00400084BD1
:1043800018680849FBF7C0FE4443019402E0019B12
:10439000013B0193019B002BF9D102B010BDC04637
:1043A0000000002040420F0070B5040003689A68C6
:1043B000520725D59A68520706D59A68920703D402
:1043C0009A6810210A439A60FFF7BEFF0500236830
:1043D0009B685B0712D5FFF7B7FF401B0A28F6D989
:1043E00023689B685B07F2D5636D102213436365F6
:1043F000A36D0F3A1343A365012002E0002000E003
:10440000002070BD70B504000268916803230B4062
:10441000012B01D0002070BD1368DB0731D59168F6
:1044200005230B40012B09D0436D10221343436534
:10443000836D0F3A134383650120ECE793680221F3
:104440000B439360036803221A60FFF77DFF0500AA
:1044500023689B68DB0712D5FFF776FF401B0A280D
:10446000F6D923689B68DB07F2D5636D10221343EE
:104470006365A36D0F3A1343A3650120CBE70020CA
:10448000C9E70020C7E7000070B504000268916822
:1044900003230B40012B0DD091681A4B19420ED00B
:1044A000636D102213436365A36D0F3A1343A36535
:1044B000012070BD1368DB07EED50020F9E7936893
:1044C00001210B4393600120FFF756FFFFF73CFFEC
:1044D000050023681B68DB0712D4FFF735FF401B7C
:1044E0000A28F6D923681B68DB07F2D4636D102213
:1044F00013436365A36D0F3A1343A3650120D8E707
:104500000020D6E71700008070B5041E00D1E0E05F
:10451000436D002B2ED0636DDB0631D421688B6890
:1045200004221A402CD1636D6B4803400630FF30E3
:1045300003436365886803230340012B29D0636824
:10454000C0200006834228D08020C005834224D0AA
:1045500080200006834220D00B699B009B080B61E2
:104560005E4B19685E480140196019686068014334
:1045700019601BE0836550228354FEF763FFCAE78E
:10458000636D10221343636550230022E25401201F
:1045900070BD0B68DB0713D4D1E70B699B009B0848
:1045A0000B6121680B69606803430B612168CB686C
:1045B00018208343CB602168CB68A0680343CB609D
:1045C000464B19684748014019601968606B4006FE
:1045D0000143196023689968C90004D49868802150
:1045E0004905014399602168CB683F480340CB608F
:1045F0002068C168E3682569022D2DD0134320226D
:10460000A25C520313432C22A25C52001343226B80
:104610001343A26992031343E269D20313430B438A
:10462000C360636AC222FF32934205D02168CA6820
:10463000A06A03431343CB602123E35C012B0DD01D
:10464000E36B012B1ED023681A69D2072DD51A6996
:1046500001218A431A6128E00422CFE71F33E35C7B
:10466000002B06D12268D16880235B020B43D36004
:10467000E6E7636D202213436365A36D1F3A13437E
:10468000A365DDE72268136918490B4013612168AF
:104690000A69236C606C0343A06C034313430B61F2
:1046A0002268136901210B431361226853690721B2
:1046B0008B43536122685369A16B0B435361002301
:1046C000A365636D03229343023A1343636500209D
:1046D0005EE701205CE7C046FDFEFFFF08270140C2
:1046E000FFFFC3FFFFFFFFFD1902FEFF03FCFFFFFB
:1046F000F8B504000D00160003689A6852073CD410
:104700005022825C012A3AD0012150228154DA6879
:104710000A43DA60C369012B2DD0FFF7B5FE071EEF
:1047200027D1636D174A1A4080235B0013436365EA
:104730000023A3655022A354E36C134ADA62E36CAE
:10474000124A1A63E36C124A5A6323681C221A60E5
:104750002268536810210B435360216840313300B5
:104760002A00E06C00F0C2F92268936804210B4330
:1047700093603800F8BD0027D3E70227F9E7022746
:10478000F7E7C046FEF0FFFF194800088F48000811
:104790009B48000870B504005023C35C012B36D041
:1047A00050230122C254FFF7FFFD051E1DD12268D0
:1047B000D36801218B43D360E06C2523C35C022BBB
:1047C00018D02268536810218B435360002D1AD1F2
:1047D0002000FFF717FE0500002D06D1636D0D4A7E
:1047E00013400432FF321343636550230022E25426
:1047F000280070BD00F0B5F9051EE2D0636D4022BF
:1048000013436365DDE72000FFF7FCFDE4E70225C5
:10481000EEE7C046FEFEFFFF10B5836A5A6D5021D9
:10482000114203D0DB6C5B6B984710BD596D802241
:1048300092000A435A651A68D068C02109010842EB
:1048400014D12021595C002910D1116809070DD518
:10485000916849070ED451680C20814351605A6D0C
:1048600009490A400431FF310A435A651800FDF72F
:1048700061F9DAE75A6D20210A435A659A6D1F39AA
:104880000A439A65F2E7C046FEFEFFFF704710B587
:10489000806AFFF7FBFF10BD704710B5806A436D5B
:1048A000402213434365836D3C3A13438365FFF70E
:1048B000F3FF10BD70B504000D005023C35C012B45
:1048C0004BD050230122C25403689A6852071AD46D
:1048D000234A4968914229D0996A2A685203520BA7
:1048E0000A439A622B685B0316D42B689B0305D599
:1048F0001C4A11688023DB030B4313605023002202
:10490000E254002070BD436D2022134343655023C1
:104910000022C2540120F5E7124A116880231B04CB
:104920000B4313600A20FFF727FDDEE7996A2A6828
:104930005203520B914399622B685B0304D5094AD9
:10494000136809490B4013602B689B03D6D5054AB1
:10495000136806490B401360D0E70220D2E7C04637
:104960000110000008270140FFFF7FFFFFFFBFFF8E
:1049700070B5002811DB8308144DC0339B005C59CF
:1049800003221040C000FC3216008640B443890167
:104990000A40824022435A5170BDC0B20F230340E7
:1049A000083B9B0806339B00094A944663445D68B4
:1049B00003242040C000FF2214008440A543890145
:1049C0001140814029435960E6E7C04600E100E01C
:1049D00000ED00E0002805DB1F2318401E3B83404C
:1049E000014A13607047C04600E100E001380A4BFD
:1049F00098420FD8094A50600948036A1B021B0AF3
:104A0000C02109060B430362002393600733136040
:104A1000002070470120FCE7FFFFFF0010E000E0EE
:104A200000ED00E070B51C25446C2540066C0124A7
:104A3000AC407460046863608368102B04D0036822
:104A400099600368DA6070BD03689A600368D96092
:104A5000F9E7000070B5041E3DD005681F4BE8184B
:104A60001421FBF751FB800060641D4B2364252358
:104A70000222E2542B681B4A1A40A368E1680B43E8
:104A800021690B4361690B43A1690B43E1690B4346
:104A9000216A0B4313432B608023DB01A2689A42F7
:104AA00010D0114B19681C22656C15400F20A840CE
:104AB000814319601968606C024060689040020090
:104AC0000A431A600023E36325220121A154013A1D
:104AD000A354002070BD0120FCE7C046F8FFFDBFD5
:104AE000000002400F80FFFFA800024070B50400E4
:104AF0002420205C012832D02420012525540130B7
:104B0000205C012804D024230022E254022070BD3E
:104B10002430013525540020E063256828680126EB
:104B2000B04328602000FFF77DFF236B002B0BD0E4
:104B3000226813680E210B43136022681368012159
:104B40000B4313600020E2E72268136804218B43C3
:104B500013602268136806310B431360EDE70220EF
:104B6000D5E710B52523C35C022B06D00423C3630D
:104B700020330022C254012010BD026813680E21A8
:104B80008B43136001680A6801239A430A601C2260
:104B9000416C0A40016C1C0094404C6025228354F7
:104BA00023330022C2540020E6E710B52523C35C5E
:104BB000022B03D00423C363012010BD02681368D5
:104BC0000E218B43136001680A6801239A430A602F
:104BD0001C22416C0A40016C1C0094404C60252250
:104BE000835423330022C254836B002B02D0984796
:104BF0000020E2E70020E0E770B5036C1968046864
:104C000025681C23426C134004229A40114214D0A0
:104C10006A0712D523689B0603D4236804229343B2
:104C200023601C22436C1A40016C042393404B60A8
:104C3000036B002B00D0984770BD02229A401142AE
:104C40001AD0AA0718D523689B0606D423680A221F
:104C5000934323602523093AC2541C22436C1A4013
:104C6000016C022393404B6024230022C254C36A88
:104C7000002BE1D09847DFE708229A401142DBD0B1
:104C80002B07D9D523680E22934323600E32436C41
:104C90001A40016C01231C0094404C60C363252220
:104CA000835423330022C254436B002BC4D0984753
:104CB000C2E7C06B70470000F0B5002357E085687D
:104CC0005F000326BE40B5432E00CD68BD4035438E
:104CD00085604568A5434C682609012434409C4002
:104CE0002C43446051E0DD080835AD002E580534F2
:104CF0001C40A4000F27A740BE430F69A7403C00FB
:104D000034432C5055E0052600E00026AE40350027
:104D10003D430234A400464EA551464C2568D44379
:104D20002E0026404F68FF0301D515432E00414D4C
:104D30002E606D682E0026404F68BF0301D51543D5
:104D40002E003C4D6E60AD682E0026404F68FF027D
:104D500001D515432E00374DAE60ED682C404E68EE
:104D6000B60201D52A431400324AD46001330A68DE
:104D70001400DC405BD001249C402240F6D0032587
:104D80004E683540013D012D99D903244D682C40D2
:104D9000032C09D0C4685E000325B540AC43250050
:104DA0008C68B4402C43C46003244D682C40022C12
:104DB00099D005685E0003242700B740BD434F68C3
:104DC0003C40B4402C430460C024A4024D682542FA
:104DD000CCD0194D6C6B012634436C639C08A51C28
:104DE000AD00134EAF5903261E40B5000F26AE404E
:104DF000B743A026F605B04287D0104EB0420ED081
:104E00000F4EB0420DD00F4EB0420CD00E4EB042FD
:104E10000BD00E4EB04200D175E7062676E701268C
:104E200074E7022672E7032670E704266EE7F0BDFA
:104E30000000014000040140001002400004005046
:104E400000080050000C005000100050001C0050E2
:104E500003690B4201D1002070470120FCE7002AC2
:104E600001D1816270478161FCE703689A6992070A
:104E700001D500229A6203689A69D20703D49A691D
:104E800001210A439A617047F0B5059C056868687E
:104E9000660D8027FF003740054E3E43B04389052D
:104EA000890D120411430B43234303436B60F0BD90
:104EB000FF63FF0370B504000E00150003689A69D4
:104EC000D2063BD55A68920104D459688022D20197
:104ED0000A435A6023689A69920615D4731CF9D064
:104EE000FFF732FA401BB04201D8002EF2D1636CBA
:104EF0002022134363644123E25400232232A3544B
:104F0000023AA354012018E01022DA612368202518
:104F1000DD612000FFF7A9FF2268536808490B40B4
:104F20005360636C0422134363644123E5540023FC
:104F30003E32A354023AA354012070BD0020FCE786
:104F400000E800FE70B504000D00160023689B69A0
:104F50009B071CD4320029002000FFF7ABFF00287C
:104F600017D16B1CF2D0FFF7EFF9801BA84201D8D4
:104F7000002DEBD1636C2022134363644123E25480
:104F800000232232A354023AA354012000E000205F
:104F900070BD0120FCE7F8B506000C0017001D00ED
:104FA00033689B6923401B1B5A425341BB4216D1B5
:104FB0006B1CF5D0FFF7C8F9069BC01AA84201D8B0
:104FC000002DEDD1736C2022134373644123F254FE
:104FD00000232232B354023AB354012000E00020EF
:104FE000F8BD70B505000C0016002B689B699B0688
:104FF0001AD4320021002800FFF75CFF002815D1E9
:10500000FFF7A2F9801BA04201D8002CEDD16B6CF8
:10501000202213436B644123EA5400232232AB5411
:10502000023AAB54012070BD0020FCE70120FAE7F2
:1050300070B504000D00160023689B695B0733D42C
:10504000320029002000FFF735FF00282ED1236809
:105050009A69920611D4FFF777F9801BA84201D80C
:10506000002DE9D1636C2022134363644123E25491
:10507000013B0022E254012070BD9A69520702D51B
:10508000228D002AF8D12022DA6121684B68084875
:1050900003404B6000236364412162542232A354D5
:1050A000023AA3540120E7E70020E5E70120E3E707
:1050B00000E800FE10B5041E59D04123C35C002B4C
:1050C00043D041232422E2542268136801218B43F8
:1050D00013602268274B61680B4013612268936854
:1050E00025490B409360E368012B34D02268842368
:1050F0001B02A1680B439360E368022B32D0226845
:1051000051681E4B0B4353602268D3681A490B4009
:10511000D360236962691343A269120221681343B1
:10512000CB602268E369216A0B431360226813682D
:1051300001210B4313600023636441221F31A154FA
:1051400023630132A354002010BD40330022C25417
:10515000FEF7C0F9B5E7226880231B02A1680B4364
:105160009360C9E72368802212015A60C7E70120D3
:10517000EAE7C046FFFFFFF0FF7FFFFF008000026D
:10518000F0B585B00500039117001E004123C35CF4
:10519000202B00D099E02033C35C012B00D197E095
:1051A00040230122C254FFF7CFF804008021009071
:1051B0001923012209022800FFF7EDFE002800D084
:1051C00088E041232122EA540133113AEA540023B2
:1051D0006B646F626E856B636B8D9BB2FF2B0BD91B
:1051E000FF232B857F3B3F4A00925B04FF220399FC
:1051F0002800FFF749FE18E06A8D92B22A858023C5
:10520000D2B2384900919B0403992800FFF73CFE75
:105210000BE06A8D92B22A858023D2B200210091E0
:105220009B0403992800FFF72FFE6B8D9BB2002B88
:1052300034D022000A992800FFF784FE00284BD1C1
:105240002B686A6A12789A626B6A01336B626B8DA3
:10525000013B9BB26B852B8D013B9BB22B856A8DED
:1052600092B2002AE1D0002BDFD100940A9B0022E9
:1052700080212800FFF78FFE00282FD16B8D9BB275
:10528000FF2BC6D9FF232B857F3B002200925B04B6
:10529000FF3203992800FFF7F7FDC6E722000A99BD
:1052A0002800FFF79EFE00281AD12B682022DA6121
:1052B00029684B680C4C23404B604123EA5400237F
:1052C0002232AB54023AAB5400E0022005B0F0BDEC
:1052D0000220FBE70120F9E70120F7E70120F5E7CD
:1052E0000120F3E70020008000E800FEF0B585B063
:1052F0000500039117001E004123C35C202B00D042
:1053000099E02033C35C012B00D197E040230122B8
:10531000C254FFF719F804008021009019230122DC
:1053200009022800FFF737FE002800D088E041235B
:105330002222EA540133123AEA5400236B646F626A
:105340006E856B636B8D9BB2FF2B0BD9FF232B8577
:105350007F3B3F4A00925B04FF2203992800FFF73E
:1053600093FD18E06A8D92B22A858023D2B2384923
:1053700000919B0403992800FFF786FD0BE06A8DDE
:1053800092B22A858023D2B2002100919B04039916
:105390002800FFF779FD6B8D9BB2002B34D02200E3
:1053A0000A992800FFF744FE00284BD12B685B6A5E
:1053B0006A6A13706B6A01336B622B8D013B9BB27F
:1053C0002B856A8D013A92B26A856A8D92B2002A63
:1053D000E1D0002BDFD100940A9B0022802128001D
:1053E000FFF7D9FD00282FD16B8D9BB2FF2BC6D9BB
:1053F000FF232B857F3B002200925B04FF32039941
:105400002800FFF741FDC6E722000A992800FFF7B0
:10541000E8FD00281AD12B682022DA6129684B6840
:105420000C4C23404B604123EA5400232232AB54FE
:10543000023AAB5400E0022005B0F0BD0220FBE7C9
:105440000120F9E70120F7E70120F5E70120F3E764
:105450000024008000E800FEF0B54123C35C202B4F
:1054600020D12033C35C012B1ED0402401220255E1
:105470004125242343550668336893433360066807
:1054800033680A4F3B403360066833681943316024
:1054900001680B6813430B60202343550023035519
:1054A000002000E00220F0BD0220FCE7FFEFFFFF3C
:1054B000F0B54123C35C202B1ED12033C35C012BEC
:1054C0001CD040240122025541252423435506685F
:1054D00033689343336006683368094F3B400902E1
:1054E0001943316001680B6813430B602023435557
:1054F00000230355002000E00220F0BD0220FCE75D
:10550000FFF0FFFF70B5041E28D00368144A1A602C
:105510000368144A1A60036842685A600368826824
:105520009A60FEF711FF05002368DA6852070AD077
:10553000FEF70AFF401B2A28F6D92368DB685B07C1
:10554000F2D003200BE01969E268914202D01A619F
:10555000002004E0044A1A60002000E0012070BD31
:10556000CCCC000055550000AAAA00000368024AEE
:105570001A6000207047C046AAAA000010B5264B4A
:10558000DA680C231340082B42D00C2B11D0042BCB
:1055900009D0214B5A68520B072313400133802056
:1055A0000002984010BD1C4B1B68DB0632D51B481F
:1055B000F8E7910C0F230B401949C85C920D0323A7
:1055C0001A40541C144BDB68DB030DD4124B1B68D0
:1055D000DB0613D5114A00230021FAF741FE220011
:1055E0000023FAF71DFEDDE70E4A00230021FAF73B
:1055F00037FE22000023FAF713FED3E70A4A0023FE
:105600000021FAF72DFE22000023FAF709FEC9E770
:105610000448C7E70448C5E70010024000093D0000
:10562000B89D000800366E010024F400F0B583B088
:10563000041E00D169E2C54BDA680C251540DA6812
:105640008026760216400368DB0736D5082D2CD05D
:105650000C2D28D0636880225202934255D0A0229C
:10566000D202934258D0B94B1A68B9490A401A601D
:105670001A68802149020A400192019A1A68B549C4
:105680000A401A606368002B52D0FEF75DFE0700E7
:10569000AE4B1B689B0310D4FEF756FEC01B64285C
:1056A000F6D9032032E2002ED4D0A84B1B689B030E
:1056B00003D56368002B00D12AE223689B076DD5D0
:1056C000E3689A0605D5A148026820210A430260D2
:1056D0008B43042D3CD00C2D38D0002B00D1B0E0F2
:1056E0009A490A680920824313430B60FEF72CFE97
:1056F0000600964B1B685B0700D599E0FEF724FE79
:10570000801B0228F5D9032000E2904A116880230B
:105710005B020B431360B5E78C4B19688022D20201
:105720000A431A601968802252020A431A60A9E7E4
:10573000FEF70AFE0700854B1B689B03BDD5FEF7ED
:1057400003FEC01B6428F6D90320DFE1002EC4D17C
:105750007E4A1268520702D5002B00D1DAE17B4E57
:1057600072687D490A40216909020A437260326801
:1057700009218A4313433360FFF700FFF2681209DF
:105780000F231340754AD35CD840754B1860754B96
:105790001868FEF793FD002800D0B7E12368DB0608
:1057A0002DD5002D60D1694B1B689B0503D5A369DE
:1057B000002B00D1B0E1654A53686B490B40216A68
:1057C0000B43536053681B021B0AE16909060B4334
:1057D0005360236A590B013180231B028B40D1682F
:1057E00009090F220A405D498A5CD3405C4A136074
:1057F0005C4B1868FEF762FD002800D086E1236844
:105800001B077DD56369002B67D0504A136D0121BA
:105810000B431365FEF798FD06004C4B1B6D9B0771
:105820006ED4FEF791FD801B0228F6D903206DE1AE
:1058300046494B68484A13402269120213434B60A1
:10584000ACE7424A136801218B431360FEF77CFDED
:1058500006003E4B1B685B07A0D5FEF775FD801B5D
:105860000228F6D9032051E1A369002B22D0374A40
:10587000116880235B000B431360FEF765FD060093
:10588000324B1B689B0506D4FEF75EFD801B022889
:10589000F6D903203AE12D4A536833490B40216A77
:1058A0000B43536053681B021B0AE16909060B4353
:1058B0005360A4E7254A13682C490B401360FEF798
:1058C00043FD0600214B1B689B0598D5FEF73CFD68
:1058D000801B0228F6D9032018E11C4A136D012110
:1058E0008B431365FEF730FD0600184B1B6D9B07BD
:1058F00006D5FEF729FD801B0228F6D9032005E115
:1059000023685B0700D48EE0104B9B6BDB001BD43D
:105910000E4A916B80235B050B4393630126144B66
:105920001B68DB0528D5A36880225200934237D03C
:10593000002B4DD1054B1A6D0C490A401A651A6DA2
:105940000C490A401A6531E00026E8E700100240E1
:10595000FFFFFEFFFFFFFBFFFFE0FFFFC49D00080E
:105960000000002008000020FF1FFFFFFFFEFFFFD8
:1059700000700040FFFBFFFF6B4A116880235B0053
:105980000B431360FEF7E0FC0700674B1B68DB0569
:10599000C9D4FEF7D9FCC01B6428F6D90320B5E0B2
:1059A000624A116D80235B000B431365A368002BD3
:1059B00028D0FEF7C9FC07005C4B1B6D9B0530D45B
:1059C000FEF7C2FCC01B5A4B9842F5D903209DE05C
:1059D000A022D200934209D0544B1A6D55490A4077
:1059E0001A651A6D54490A401A65DFE74F4B196D65
:1059F000013AFF3A0A431A65196D802252000A43A0
:105A00001A65D3E7FEF7A0FC0700484B1B6D9B050A
:105A100007D5FEF799FCC01B454B9842F5D90320EA
:105A200074E0012E1AD0636A002B00D176E00C2DB1
:105A30004FD0022B18D03D4A136840490B401360E9
:105A4000FEF782FC0400394B1B689B013FD5FEF733
:105A50007BFC001B0228F6D9032057E0334A936BE6
:105A600037490B409363DEE7304A136833490B40F4
:105A70001360FEF769FC05002C4B1B689B0106D5E3
:105A8000FEF762FC401B0228F6D903203EE02749BE
:105A9000CB682C4A1340A26AE06A0243206B02439F
:105AA0001343CB600A6880235B0413430B60FEF74B
:105AB0004BFC04001D4B1B689B0106D4FEF744FC05
:105AC000001B0228F6D9032020E000201EE0002061
:105AD0001CE0012B24D0154BDA6880235B021340B5
