:020000040800F2
:1000000000000320D99900082D9400082F940008BF
:100010003194000833940008359400080000000073
:10002000000000000000000000000000816F0008D8
:10003000379400080000000021700008399400087F
:10004000299A0008299A0008299A0008299A000884
:10005000299A0008299A0008299A0008299A000874
:10006000299A0008299A0008299A0008299A000864
:1000700045940008299A000855940008299A000818
:100080006594000875940008F9940008299A0008FE
:10009000299A0008299A0008299A0008299A000834
:1000A000299A0008299A0008299A0008299A000824
:1000B000299A0008299A0008299A0008299A000814
:1000C000299A0008299A0008299A0008299A000804
:1000D000299A0008559700088D970008D9970008BD
:1000E000299A0008299A0008299A0008299A0008E4
:1000F000299A0008299A0008299A0008299A0008D4
:10010000299A000885940008299A0008299A00086D
:10011000299A0008299A0008299A0008299A0008B3
:1001200095940008A5940008B5940008C5940008AB
:10013000299A0008D5940008299A0008299A0008ED
:10014000299A0008299A0008299A0008299A000883
:10015000299A0008D9940008E99400082598000815
:10016000299A0008299A0008299A0008299A000863
:10017000299A0008299A0008299A0008000000001E
:10018000299A0008299A000871980008299A0008FD
:10019000299A0008299A0008299A0008299A000833
:0C01A0000000000000000000299A000888
:1001B00010B5054C237833B9044B13B10448AFF3A1
:1001C00000800123237010BDE80100200000000022
:1001D000C0CC000808B5034B1BB103490348AFF37B
:1001E000008008BD00000000EC010020C0CC000829
:1001F00081F0004102E000BF83F0004330B54FEAD8
:1002000041044FEA430594EA050F08BF90EA020F44
:100210001FBF54EA000C55EA020C7FEA645C7FEAD7
:10022000655C00F0E2804FEA5454D4EB5555B8BFFA
:100230006D420CDD2C4480EA020281EA030382EA6B
:10024000000083EA010180EA020281EA0303362DFD
:1002500088BF30BD11F0004F4FEA01314FF4801CD0
:100260004CEA113102D0404261EB410113F0004FE2
:100270004FEA03334CEA133302D0524263EB430399
:1002800094EA050F00F0A780A4F10104D5F1200E37
:100290000DDB02FA0EFC22FA05F2801841F1000192
:1002A00003FA0EF2801843FA05F359410EE0A5F166
:1002B00020050EF1200E012A03FA0EFC28BF4CF097
:1002C000020C43FA05F3C01851EBE37101F000454D
:1002D00007D54FF0000EDCF1000C7EEB00006EEB5A
:1002E0000101B1F5801F1BD3B1F5001F0CD34908E4
:1002F0005FEA30004FEA3C0C04F101044FEA44523B
:1003000012F5800F80F09A80BCF1004F08BF5FEAC1
:10031000500C50F1000041EB045141EA050130BDA1
:100320005FEA4C0C404141EB010111F4801FA4F144
:100330000104E9D191F0000F04BF01460020B1FA99
:1003400081F308BF2033A3F10B03B3F120020CDAD1
:100350000C3208DD02F1140CC2F10C0201FA0CF0AF
:1003600021FA02F10CE002F11402D8BFC2F1200C14
:1003700001FA02F120FA0CFCDCBF41EA0C019040CA
:10038000E41AA2BF01EB0451294330BD6FEA040413
:100390001F3C1CDA0C340EDC04F11404C4F12002FE
:1003A00020FA04F001FA02F340EA030021FA04F310
:1003B00045EA030130BDC4F10C04C4F1200220FA67
:1003C00002F001FA04F340EA0300294630BD21FAA5
:1003D00004F0294630BD94F0000F83F4801306BF6B
:1003E00081F480110134013D4EE77FEA645C18BF5F
:1003F0007FEA655C29D094EA050F08BF90EA020FF6
:1004000005D054EA000C04BF1946104630BD91EAED
:10041000030F1EBF0021002030BD5FEA545C05D1F0
:100420004000494128BF41F0004130BD14F580042F
:100430003CBF01F5801130BD01F0004545F0FE41A3
:1004400041F470014FF0000030BD7FEA645C1ABFD8
:10045000194610467FEA655C1CBF0B46024650EA0F
:10046000013406BF52EA033591EA030F41F400213B
:1004700030BD00BF90F0000F04BF0021704730B5C1
:100480004FF4806404F132044FF000054FF0000196
:1004900050E700BF90F0000F04BF0021704730B557
:1004A0004FF4806404F1320410F0004548BF40422C
:1004B0004FF000013EE700BF42004FEAE2014FEA81
:1004C00031014FEA02701FBF12F07F4393F07F4F5C
:1004D00081F06051704732F07F4208BF704793F05F
:1004E0007F4F04BF41F40021704730B54FF4607472
:1004F00001F0004521F000411CE700BF50EA010275
:1005000008BF704730B54FF000050AE050EA01021D
:1005100008BF704730B511F0004502D5404261EB8D
:1005200041014FF4806404F132045FEA915C3FF4CE
:10053000D8AE4FF003025FEADC0C18BF03325FEA6B
:10054000DC0C18BF033202EBDC02C2F1200300FA1C
:1005500003FC20FA02F001FA03FE40EA0E0021FA41
:1005600002F11444BDE600BF70B54FF0FF0C4CF42F
:10057000E06C1CEA11541DBF1CEA135594EA0C0FE1
:1005800095EA0C0F00F0DEF82C4481EA030621EA1C
:100590004C5123EA4C5350EA013518BF52EA033557
:1005A00041F4801143F4801338D0A0FB02CE4FF009
:1005B0000005E1FB02E506F00042E0FB03E54FF039
:1005C0000006E1FB03569CF0000F18BF4EF0010E31
:1005D000A4F1FF04B6F5007F64F5407404D25FEA2D
:1005E0004E0E6D4146EB060642EAC62141EA5551E0
:1005F0004FEAC52040EA5E504FEACE2EB4F1FD0C22
:1006000088BFBCF5E06F1ED8BEF1004F08BF5FEA9F
:10061000500E50F1000041EB045170BD06F0004651
:1006200046EA010140EA020081EA0301B4EB5C04FE
:10063000C2BFD4EB0C0541EA045170BD41F48011F6
:100640004FF0000E013C00F3AB8014F1360FDEBF1B
:10065000002001F0004170BDC4F10004203C35DAF7
:100660000C341BDC04F11404C4F1200500FA05F37A
:1006700020FA04F001FA05F240EA020001F000421B
:1006800021F0004110EBD37021FA04F642EB060191
:100690005EEA430E08BF20EAD37070BDC4F10C04BB
:1006A000C4F1200500FA04F320FA05F001FA04F27F
:1006B00040EA020001F0004110EBD37041F100016B
:1006C0005EEA430E08BF20EAD37070BDC4F1200576
:1006D00000FA05F24EEA020E20FA04F301FA05F2DE
:1006E00043EA020321FA04F001F0004121FA04F286
:1006F00020EA020000EBD3705EEA430E08BF20EA56
:10070000D37070BD94F0000F0FD101F0004640008F
:1007100041EB010111F4801F08BF013CF7D041EA11
:10072000060195F0000F18BF704703F00046520015
:1007300043EB030313F4801F08BF013DF7D043EAE6
:100740000603704794EA0C0F0CEA135518BF95EA9C
:100750000C0F0CD050EA410618BF52EA4306D1D123
:1007600081EA030101F000414FF0000070BD50EA42
:10077000410606BF1046194652EA430619D094EACC
:100780000C0F02D150EA013613D195EA0C0F05D1B6
:1007900052EA03361CBF104619460AD181EA03010A
:1007A00001F0004141F0FE4141F470014FF00000C2
:1007B00070BD41F0FE4141F4780170BD70B54FF05D
:1007C000FF0C4CF4E06C1CEA11541DBF1CEA1355DD
:1007D00094EA0C0F95EA0C0F00F0A7F8A4EB0504BF
:1007E00081EA030E52EA03354FEA013100F08880B6
:1007F0004FEA03334FF0805545EA131343EA12637F
:100800004FEA022245EA111545EA10654FEA002633
:100810000EF000419D4208BF964244F1FD0404F5EC
:10082000407402D25B084FEA3202B61A65EB030548
:100830005B084FEA32024FF480104FF4002CB6EB05
:10084000020E75EB030E22BFB61A754640EA0C0085
:100850005B084FEA3202B6EB020E75EB030E22BFC5
:10086000B61A754640EA5C005B084FEA3202B6EB06
:10087000020E75EB030E22BFB61A754640EA9C00C5
:100880005B084FEA3202B6EB020E75EB030E22BF95
:10089000B61A754640EADC0055EA060E18D04FEA53
:1008A000051545EA16754FEA06164FEAC30343EAF3
:1008B00052734FEAC2025FEA1C1CC0D111F4801FC0
:1008C0000BD141EA00014FF000004FF0004CB6E7B9
:1008D00011F4801F04BF01430020B4F1FD0C88BF58
:1008E000BCF5E06F3FF6AFAEB5EB030C04BFB6EB63
:1008F000020C5FEA500C50F1000041EB045170BD56
:100900000EF0004E4EEA113114EB5C04C2BFD4EB82
:100910000C0541EA045170BD41F480114FF0000E06
:10092000013C90E645EA060E8DE60CEA135594EA82
:100930000C0F08BF95EA0C0F3FF43BAF94EA0C0F85
:100940000AD150EA01347FF434AF95EA0C0F7FF4FA
:1009500025AF104619462CE795EA0C0F06D152EA4E
:1009600003353FF4FDAE1046194622E750EA410632
:1009700018BF52EA43067FF4C5AE50EA41047FF443
:100980000DAF52EA43057FF4EBAE12E74FF0FF3CA8
:1009900006E000BF4FF0010C02E000BF4FF0010C79
:1009A0004DF804CD4FEA410C7FEA6C5C4FEA430CF2
:1009B00018BF7FEA6C5C1BD001B050EA410C0CBF41
:1009C00052EA430C91EA030F02BF90EA020F0020A3
:1009D000704710F1000F91EA030F58BF994208BF0A
:1009E00090422CBFD8176FEAE37040F001007047C7
:1009F0004FEA410C7FEA6C5C02D150EA013C07D11E
:100A00004FEA430C7FEA6C5CD6D152EA033CD3D068
:100A10005DF8040B704700BF8446104662468C4662
:100A20001946634600E000BF01B5FFF7B7FF002895
:100A300048BF10F1000F01BD4DF808EDFFF7F4FFBE
:100A40000CBF012000205DF808FB00BF4DF808ED49
:100A5000FFF7EAFF34BF012000205DF808FB00BF6C
:100A60004DF808EDFFF7E0FF94BF012000205DF88E
:100A700008FB00BF4DF808EDFFF7CEFF94BF012043
:100A800000205DF808FB00BF4DF808EDFFF7C4FF3C
:100A900034BF012000205DF808FB00BF4FEA41028F
:100AA000B2F1E04324BFB3F5001CDCF1FE5C0DD9CC
:100AB00001F0004C4FEAC0024CEA5070B2F1004F16
:100AC00040EB830008BF20F00100704711F0804F19
:100AD00021D113F13872BCBF01F00040704741F4DE
:100AE00080114FEA5252C2F11802C2F1200C10FAE2
:100AF0000CF320FA02F018BF40F001004FEAC123C6
:100B00004FEAD32303FA0CFC40EA0C0023FA02F369
:100B10004FEA4303CCE77FEA625307D150EA01333F
:100B20001EBF4FF0FE4040F44000704701F000400F
:100B300040F0FE4040F40000704700BF80F00040ED
:100B400002E000BF81F0004142001FBF5FEA4103A5
:100B500092EA030F7FEA226C7FEA236C6AD04FEAA5
:100B60001262D2EB1363C1BFD218414048404140EA
:100B7000B8BF5B42192B88BF704710F0004F40F49C
:100B8000000020F07F4018BF404211F0004F41F4B8
:100B9000000121F07F4118BF494292EA030F3FD084
:100BA000A2F1010241FA03FC10EB0C00C3F1200397
:100BB00001FA03F100F0004302D5494260EB400026
:100BC000B0F5000F13D3B0F1807F06D340084FEA91
:100BD000310102F10102FE2A51D2B1F1004F40EB86
:100BE000C25008BF20F0010040EA030070474900EE
:100BF00040EB000010F4000FA2F10102EDD1B0FAB9
:100C000080FCACF1080CB2EB0C0200FA0CF0AABFAD
:100C100000EBC25052421843BCBFD040184370474B
:100C200092F0000F81F4000106BF80F40000013251
:100C3000013BB5E74FEA41037FEA226C18BF7FEA28
:100C4000236C21D092EA030F04D092F0000F08BF6A
:100C50000846704790EA010F1CBF0020704712F051
:100C60007F4F04D1400028BF40F00040704712F190
:100C700000723CBF00F50000704700F0004343F0F5
:100C8000FE4040F4000070477FEA226216BF08462B
:100C90007FEA23630146420206BF5FEA412390EAEE
:100CA000010F40F4800070474FF0000304E000BFE4
:100CB00010F0004348BF40425FEA000C08BF704795
:100CC00043F0964301464FF000001CE050EA010259
:100CD00008BF70474FF000030AE000BF50EA01026E
:100CE00008BF704711F0004302D5404261EB41015B
:100CF0005FEA010C02BF84460146002043F0B64380
:100D000008BFA3F18053A3F50003BCFA8CF2083AA4
:100D1000A3EBC25310DB01FA02FC634400FA02FCAD
:100D2000C2F12002BCF1004F20FA02F243EB0200B4
:100D300008BF20F00100704702F1200201FA02FC16
:100D4000C2F1200250EA4C0021FA02F243EB020009
:100D500008BF20EADC70704753B94AB9002908BFC0
:100D600000281CBF4FF0FF314FF0FF3000F0A8B952
:100D7000ADF1080C6DE904CE00F03CF8DDF804E0BC
:100D8000DDE9022304B0704707EE900AF5EEC07A61
:100D9000F1EE10FA01D400F009B808B580F0004077
:100DA00000F004F8404261EB410108BDD0B5FFF707
:100DB00083FB00220D4B06460F46FFF7D5FB00F0E4
:100DC00081F90446FFF756FB0022094BFFF7CCFBE5
:100DD00002460B4630463946FFF70EFA00F072F92C
:100DE0000022234610431946D0BD00BF0000F03D4D
:100DF0000000F0412DE9F047089E04468846002B8C
:100E00004BD18A42154667D9B2FA82F24AB1C2F191
:100E1000200701FA02F320FA07F7954047EA030892
:100E200094404FEA154E230CB8FBFEF71FFA85FCE1
:100E30000EFB178843EA084307FB0CF1994209D9D6
:100E4000EB1807F1FF3080F01B81994240F21881C6
:100E5000023F2B445B1AA4B2B3FBFEF00EFB10332F
:100E600044EA034400FB0CFCA44509D92C1900F109
:100E7000FF3380F00781A44540F2048102382C44FE
:100E800040EA0740A4EB0C0400271EB1D440002325
:100E9000C6E900433946BDE8F0878B4209D9002EE8
:100EA00000F0EB800027C6E9000138463946BDE86E
:100EB000F087B3FA83F7002F47D18B4202D38242E7
:100EC00000F2FA80841A61EB030301209846002E99
:100ED000E0D0C6E90048DDE702B9FFDEB2FA82F2EF
:100EE000002A40F08F80491B4FEA154E1FFA85F803
:100EF0000127B1FBFEFC230C0EFB1C1143EA01434E
:100F000008FB0CF1994207D9EB180CF1FF3002D223
:100F1000994200F2CD808446591AA3B2B1FBFEF08B
:100F20000EFB101443EA044408FB00F8A04507D95F
:100F30002C1900F1FF3302D2A04500F2B68018460A
:100F4000A4EB080440EA0C409FE7C7F1200CBB402B
:100F500022FA0CFE4EEA030E01FA07F420FA0CF511
:100F600021FA0CF34FEA1E482543B3FBF8F92C0C89
:100F700008FB19331FFA8EFA44EA034309FB0AF40B
:100F80009C4202FA07F200FA07F10BD91EEB0303A9
:100F900009F1FF3080F087809C4240F28480A9F103
:100FA000020973441B1BADB2B3FBF8F008FB10330E
:100FB00045EA034400FB0AFAA24508D91EEB0404E3
:100FC00000F1FF336BD2A24569D90238744440EA7C
:100FD0000940A0FB0289A4EB0A044C45C2464B46DB
:100FE00054D351D0002E69D0B1EB0A0564EB030451
:100FF00004FA0CFCFD40FC404CEA0505C6E900542F
:10100000002747E7C2F1200320FA03F7954001FAD1
:1010100002F021FA03F34FEA154E3843010CB3FBFB
:10102000FEF71FFA85F80EFB173341EA034107FB71
:1010300008F38B4204FA02F407D9691807F1FF3C60
:101040002FD28B422DD9023F2944CB1A81B2B3FB58
:10105000FEF00EFB103341EA034100FB08F38B4224
:1010600007D9691800F1FF3C17D28B4215D9023815
:101070002944C91A40EA07473BE73746304609E7A3
:101080000746E7E61846FBE64145ABD2B8EB020A55
:1010900069EB0E0201381346A4E76046E9E71846FB
:1010A00095E76746D1E781467CE702382C4447E75D
:1010B000ACF1020C2B442FE7384608E73746E9E647
:1010C000704700BF4A0011D212F5001211D20DD59F
:1010D0006FF47873B3EB62520ED44FEAC12343F03E
:1010E000004343EA505323FA02F070474FF00000E8
:1010F000704750EA013002D14FF0FF3070474FF097
:1011000000007047034613F8012B002AFBD1181A80
:1011100001387047000000000000000000000000DF
:1011200001F0FF01102A2BDB10F0070F08D010F898
:10113000013B013A8B422DD010F0070F42B3F6D19C
:10114000F0B441EA012141EA014122F007047FF0B5
:1011500000070023F0E80256083C85EA010586EA0C
:10116000010685FA47F5A3FA87F586FA47F6A5FA48
:1011700087F68EB9EED1F0BC01F0FF0102F0070254
:1011800032B110F8013B013A83EA010313B1F8D1FF
:101190000020704701387047002D06BF35460338E0
:1011A000073815F0010F07D1013015F4807F02BF19
:1011B000013015F4C03F0130F0BC0138704700BF6A
:1011C0004FEA410C7FEA6C5C02D150EA013C0AD143
:1011D0004FEA430C7FEA6C5C02D152EA033C02D135
:1011E0004FF0000070474FF0010070474FEA410296
:1011F00012F5001215D211D56FF47873B3EB625269
:1012000012D94FEAC12343F0004343EA505311F08F
:10121000004F23FA02F018BF404270474FF0000021
:10122000704750EA013005D111F0004008BF6FF05F
:10123000004070474FF00000704700BF10B50446F3
:101240000E4B18784FF47A73B3FBF0F30C4A106826
:10125000B0FBF3F000F002FC68B90F2C01D90120BB
:101260000AE0002221464FF0FF3000F09BFB034BC9
:101270005C60002000E0012010BD00BF00000020E5
:101280001000002008B50B4B1A6842F400721A6077
:101290001A6842F480621A601A6842F480721A6016
:1012A000032000F061FB0F20FFF7C8FF07F038FEB6
:1012B000002008BD003C024010B504464E4B5A6861
:1012C00022F440325A605A6841680A435A60026800
:1012D000536823F48073536002685368016943EADA
:1012E000012353600268536823F04073536002681F
:1012F000536881680B4353600268936823F400636A
:10130000936002689368C1680B439360826A3B4BA9
:101310009A4259D00268936823F070639360026820
:101320009368816A0B4393600268936823F040538B
:10133000936002689368C16A0B4393602268936864
:1013400023F00203936022689368A16943EA410392
:101350009360236A002B48D0636A013B072B3ED879
:101360002268536843F4006353602268536823F48F
:101370006043536021684B68626A013A43EA423332
:101380004B602268D36A23F47003D3622168CB6A6E
:10139000E269013A43EA0253CB622268936823F47C
:1013A0000073936022689368216B43EA4123936042
:1013B0002268936823F4806393602268936861696C
:1013C00043EA8123936010BD0268936823F0706341
:1013D00093600268936823F040539360AEE740F255
:1013E0002761074807F034FBBAE72268536823F403
:1013F00000635360C5E700BF002301400100000FF8
:1014000064CD0008002800F0EB8010B504460368A6
:10141000744A93420CD002F58072934208D002F5D0
:101420008072934204D040F20B116F4807F010FB1A
:10143000636843B1B3F5803F05D0B3F5003F02D0F8
:10144000B3F5403F6FD1A36843B1B3F1807F05D0BE
:10145000B3F1007F02D0B3F1407F6AD12369012B41
:101460006DD8A369012B70D8A36A7BB3B3F1807FD9
:101470002CD0B3F1007F29D0B3F1407F26D0B3F157
:10148000806F23D0B3F1A06F20D0B3F1C06F1DD017
:10149000B3F1E06F1AD0B3F1006F17D0B3F1106F52
:1014A00014D0B3F1206F11D0B3F1306F0ED0B3F17F
:1014B000406F0BD0B3F1506F08D0B3F1606F05D01F
:1014C000B3F1706F02D0494A934244D1E36813B13B
:1014D000B3F5006F45D1E369013B0F2B47D8236B70
:1014E000012B4AD86369022B4DD8236A012B50D8AF
:1014F000A26A3E4B9A420AD0E36A43B1B3F1805FDD
:1015000005D0B3F1005F02D0B3F1405F47D1236C47
:10151000002B4AD0236C13F0100F4DD00120002374
:1015200084F83C3010BD4FF486712F4807F090FAD4
:1015300089E740F20D112C4807F08AFA8EE74FF444
:101540008771294807F084FA8BE740F20F1126488B
:1015500007F07EFA88E74FF48871234807F078FA9D
:10156000B4E740F21111204807F072FAB3E74FF4E4
:1015700089711D4807F06CFAB1E740F213111A485F
:1015800007F066FAAEE74FF48A71174807F060FA81
:10159000ABE740F21511144807F05AFAA8E740F2F9
:1015A0001911114807F054FAB1E7636484F83C302C
:1015B000204607F0FFFCADE7236C23F4885323F0AB
:1015C000020343F0020323642046FFF775FE002068
:1015D0006064236C23F0030343F0010323649EE75C
:1015E000012070470020014064CD00080100000F79
:1015F0000368D86C704770477047000038B50446E0
:101600008369012B00F29580E369013B0F2B00F207
:1016100096806369022B00F29880226811685368F3
:1016200003F0200311F0020F2DD063B3236C13F0ED
:10163000100F03D1236C43F400732364936813F0F9
:10164000405F19D1A369BBB9D36A13F4700F03D0FB
:10165000936813F4806F0FD1536823F02003536015
:10166000236C23F480732364236C13F4805F03D111
:10167000236C43F001032364204605F035FF236803
:101680006FF012021A60236819685A6802F080022B
:1016900011F0040F36D0002A34D0226C12F0100F53
:1016A00003D1226C42F4005222649A6812F4401F63
:1016B00021D19A6B12F4401F03D09A6812F4806F04
:1016C00019D15A6812F4806F15D19A6812F0405FF0
:1016D00011D1A2697AB95A6822F080025A60236C4B
:1016E00023F480532364236C13F4807F03D1236C91
:1016F00043F001032364204600F034F923686FF0BF
:101700000C021A6022681168536803F0400311F05C
:10171000010F04D01BB1136813F0010F1BD1226815
:101720001168536803F0806311F0200F00D0F3B903
:1017300038BD40F27331144807F08AF964E74FF47A
:101740005D71114807F084F963E740F275310E4886
:1017500007F07EF961E7236C43F48033236420466D
:10176000FFF749FF23686FF001021A60D7E7636C47
:1017700043F0020363646FF0200515602046FFF715
:101780003BFF23681D60D3E764CD000830B583B00C
:1017900005460C46002301930B68122B02D96B4AB5
:1017A00093424ED16368013B0F2B50D8A368072B9F
:1017B00053D895F83C30012B00F0C580012385F803
:1017C0003C302368092B4ED92868C2689BB203EBD2
:1017D00043031E3B072101FA03F322EA0303C3601C
:1017E0002868C268A168238803EB43031E3B01FA03
:1017F00003F31343C3606368062B4AD82868426B1F
:1018000003EB8303053B1F2101FA03F322EA0303E1
:1018100043632868426B636803EB8303053B2188BD
:1018200001FA03F3134343632A68494B9A4260D099
:101830002A68474B9A4265D0002085F83C0003B0E7
:1018400030BD40F21551434807F002F9AAE740F2D3
:101850001651404807F0FCF8A8E740F217513D4800
:1018600007F0F6F8A5E7286802699BB203EB43038B
:10187000072101FA03F322EA0303036128680269DE
:10188000A168238803EB430301FA03F313430361C5
:10189000B1E70C2B16D82868026B03EB8303233BBC
:1018A0001F2101FA03F322EA030303632868026B92
:1018B000636803EB8303233B218801FA03F313439B
:1018C0000363B1E72868C26A03EB8303413B1F212E
:1018D00001FA03F322EA0303C3622868C26A636859
:1018E00003EB8303413B218801FA03F31343C362F3
:1018F0009AE72368122B9BD1174A536843F480035D
:10190000536095E72368114A934201D0112B93D17C
:10191000114A536843F40003536022680B4B9A4208
:101920008AD10E4B1B680E4AA2FB03239B0C03EBD0
:1019300083035A00019202E0019B013B0193019B4A
:10194000002BF9D178E7022079E700BF12000010E0
:101950000020014064CD0008002301401000002059
:1019600083DE1B437047000010B50446C31E042BE2
:101970000FD80A4AD36823F4E0631B041B0C24022B
:1019800004F4E064234343F0BF6343F40033D360C3
:1019900010BDA221024807F05BF8EAE700ED00E085
:1019A0009CCD000870B505460C4616460F2A25D872
:1019B0000F2C28D81B4BDB68C3F30223C3F10702AB
:1019C000042A28BF0422191D062921D9033B4FF000
:1019D000FF3101FA02F224EA02049C4001FA03F307
:1019E00026EA03063443002D14DB2401E4B205F19A
:1019F000604505F5614585F8004370BDBA210A4888
:101A000007F026F8D4E7BB21074807F021F8D1E713
:101A10000023DCE705F00F052401E4B2034B5C551D
:101A2000EBE700BF00ED00E09CCD000814ED00E006
:101A300010B5041E08DB04F01F0264090123934063
:101A4000044A42F8243010BDCE21034807F000F8C4
:101A5000F1E700BF00E100E09CCD00080138B0F1E3
:101A6000807F0AD2064B5860064AF02182F8231084
:101A70000020986007221A6070470120704700BF5D
:101A800010E000E000ED00E010B50446042800D0AE
:101A900038B9042C0BD0094A136823F004031360EF
:101AA00010BD40F2D911064806F0D2FFF1E7034A13
:101AB000136843F004031360F2E700BF10E000E096
:101AC0009CCD000830B405682C6824F480242C6078
:101AD000046863608368402B05D0036899600368DD
:101AE000DA6030BC704703689A600368D960F8E731
:101AF0000268D3B2103B0B49A1FB03131B090A492F
:101B0000C95CC165032B06D822F47F7222F0030260
:101B10008265806D704722F47F7222F003020432E6
:101B20008265F6E7ABAAAAAAD8CC0008836A8269C4
:101B300092B9012B0AD01BB1022B01D000207047B3
:101B4000C36A13F0807F2CD100207047C36AB3F1C1
:101B5000C07F28D000207047B2F5005F05D0022B6F
:101B600029D9032B15D000207047032B03D8DFE8B9
:101B700003F01C041C0A00207047C36A13F0807F26
:101B800015D100207047C36AB3F1C07F11D0002087
:101B90007047C36A13F0807F01D001207047002096
:101BA00070470120704701207047012070470120D5
:101BB00070470120704701207047000070B504464F
:101BC00004F00AF8002C00F03881054623689C4A8E
:101BD000934231D0183293422ED0183293422BD0F8
:101BE0001832934228D01832934225D018329342AB
:101BF00022D0183293421FD0183293421CD002F5E3
:101C00005672934218D01832934215D0183293422C
:101C100012D0183293420FD0183293420CD018329F
:101C2000934209D01832934206D01832934203D01F
:101C3000C821844806F00CFF6368A3B1B3F1007FAC
:101C400011D0B3F1806F0ED0B3F1C06F0BD0B3F1F0
:101C5000006F08D0B3F1206F05D0B3F1406F02D010
:101C6000B3F1606F6DD1A3681BB1402B01D0802B05
:101C70006CD1E368B3F5007F01D0002B6BD12369F1
:101C8000B3F5806F01D0002B6AD163692BB1B3F536
:101C9000006F02D0B3F5805F67D1A3692BB1B3F5B4
:101CA000005F02D0B3F5804F64D1E36923B1B3F58F
:101CB000807F01D0202B62D1236A43B1B3F5803FEE
:101CC00005D0B3F5003F02D0B3F5403F5CD1636A65
:101CD0000BB1042B5DD1636AC3B1A36A032B5DD83A
:101CE000E36A43B1B3F5000F05D0B3F1807F02D0B2
:101CF000B3F1C07F57D1236B43B1B3F5001F05D0BB
:101D0000B3F5800F02D0B3F5C00F51D1002384F892
:101D10003430022384F835302268136823F001033D
:101D2000136023681A6812F0010F46D003F054FFC5
:101D3000401B0528F5D920236365032084F835006E
:101D400070BDC9213F4806F083FE8CE7CA213D489B
:101D500006F07EFE8DE7CB213A4806F079FE8EE74D
:101D6000CC21384806F074FE8FE7CD21354806F0C7
:101D70006FFE92E7CE21334806F06AFE95E7CF2149
:101D8000304806F065FE97E7D0212E4806F060FE49
:101D90009DE7D1212B4806F05BFE9CE7D621294820
:101DA00006F056FE9CE7D721264806F051FEA2E732
:101DB000D821244806F04CFEA8E71A6822481040B3
:101DC0006168A2680A43E1680A4321690A436169BC
:101DD0000A43A1690A43E1690A43216A0A430243AB
:101DE000616A04291ED01A602668756925F0070506
:101DF000636A1D43042B07D1A36A1D43E36A1BB129
:101E00002046FFF793FE90B975612046FFF770FEFC
:101E1000E26D3F239340836000206065012384F8D6
:101E200035308DE7E16A206B01430A43DBE740234D
:101E30006365012084F8350082E7012080E700BF58
:101E400010600240D8CD00083F8010F02DE9F0412D
:101E500004460F4690461D46866D5A1E4FF6FE7389
:101E60009A4211D894F83430012B3AD0012384F8E7
:101E7000343094F83530DBB2012B0BD0002384F8DA
:101E800034300220BDE8F0814FF4EA71164806F0C4
:101E9000DFFDE7E7022384F83530002363652B4636
:101EA000424639462046FFF70DFEE26D3F23934040
:101EB000B3602268136843F0160313602268536905
:101EC00043F080035361236C23B12268136843F00D
:101ED000080313602268136843F0010313600020B5
:101EE000D0E70220CEE700BFD8CD000890F835300B
:101EF000DBB2022B03D0802343650120704705230A
:101F000080F835300268136823F001031360002065
:101F100070470000F0B583B0044600230193724B74
:101F20001D68724BA3FB0535AD0A876D3E68C26D17
:101F300008239340334210D003681A6812F0040F4C
:101F40000BD01A6822F004021A60C26D0823934075
:101F5000BB60436D43F001034365E26D0123934091
:101F6000334209D02268526912F0800F04D0BB605E
:101F7000636D43F002036365E26D042393403342D3
:101F800009D02268126812F0020F04D0BB60636DA2
:101F900043F004036365E26D10239340334224D081
:101FA0002268126812F0080F1FD0BB6023681A68FD
:101FB00012F4802F0DD01B6813F4002F04D1236C72
:101FC0009BB12046984710E0A36C73B12046984718
:101FD0000BE01A6812F4807F03D11A6822F008021D
:101FE0001A60236C0BB120469847E26D2023934082
:101FF000334255D02268126812F0100F50D0BB60E7
:1020000094F83530DBB2052B0ED023681A6812F431
:10201000802F33D01B6813F4002F2AD1636C002B60
:102020003ED0204698473BE02268136823F0160311
:1020300013602268536923F080035361236CA3B1BA
:102040002268136823F008031360E26D3F23934076
:10205000BB60002384F83430012384F83530236DCD
:10206000002B3FD0204698473CE0A36C002BE7D1E3
:10207000EBE7E36BA3B12046984711E01A6812F42E
:10208000807F09D11A6822F010021A60002384F8B8
:102090003430012384F83530E36B0BB12046984788
:1020A000636DFBB1636D13F0010F17D0052384F846
:1020B00035302268136823F001031360019B01335C
:1020C0000193AB4204D823681B6813F0010FF5D1CC
:1020D000002384F83430012384F83530E36C0BB1ED
:1020E0002046984703B0F0BD10000020B5814E1B7C
:1020F0002DE9F04782B080460E46BE4B98422BD069
:1021000003F58063984227D003F58063984223D07B
:1021100003F5806398421FD003F5806398421BD07B
:1021200003F58063984217D003F58063984213D07B
:1021300003F5806398420FD003F5806398420BD07B
:1021400003F58063984207D003F58063984203D07B
:10215000C321A94806F07CFC33689AB212B11B0C6B
:102160001B041BB1C421A44806F072FC7368012B48
:102170001ED9112B1CD0022B1AD0122B18D09F4A1B
:10218000934215D002F58012934211D002F58012CD
:1021900093420DD0A2F5F812934209D002F58012B5
:1021A000934205D002F58012934201D0032B04D153
:1021B000B368022B06D8002445E0C5218E4806F0FE
:1021C00047FCF5E7C6218C4806F042FCF3E7EA211C
:1021D000894806F03DFC96E0092300E000238B408F
:1021E00003430232864941F82230864B1A68FB438A
:1021F00003EA0201706810F4803F01D047EA02014F
:10220000804A1160526803EA0201706810F4003FCE
:1022100001D047EA02017B4A5160926803EA020159
:10222000706810F4801F01D047EA0201754A91607E
:10223000D2681340716811F4001F01D047EA02030D
:10224000704AD36001340F2C00F2E2800125A540D2
:1022500037682F40BD42F5D17368022B01D0122B95
:1022600031D13369FBB1092B1DD0012B1BD0022BBF
:1022700019D0032B17D0042B15D0052B13D0062B08
:1022800011D0072B0FD0082B0DD00A2B0BD00B2B06
:1022900009D00C2B07D00D2B05D00F2B03D0D72145
:1022A000554806F0D5FBE208083258F8220004F041
:1022B000070399000F238B4020EA030033698B400A
:1022C000034348F82230D8F800204FEA440A4FF080
:1022D000030909FA0AF96FEA090909EA02027368AF
:1022E00003F0030303FA0AF31343C8F800307368DA
:1022F0005A1E012A03D9112B01D0122B18D1F368D1
:10230000032B3FF664AFD8F8082009EA0202F3680D
:1023100003FA0AF31343C8F80830D8F8042022EA75
:1023200005027368C3F30015A5401543C8F80450AF
:10233000D8F80C3009EA0309B36803FA0AF343EA50
:102340000903C8F80C30736813F0805F3FF47AAF6C
:10235000002301932C4B5A6C42F480425A645B6C0C
:1023600003F480430193019BA208911C244B53F872
:10237000210004F0030399000F238B4020EA03009F
:102380001C4B98453FF42AAF03F58063984522D053
:1023900003F58063984520D003F5806398451ED0EF
:1023A00003F5806398451CD003F5806398451AD0E7
:1023B00003F58063984518D003F58063984516D0DF
:1023C00003F58063984521D003F5806398453FF479
:1023D00003AF0A2303E7012301E70223FFE60323F8
:1023E000FDE60423FBE60523F9E60623F7E60723CB
:1023F000F5E600BF0000024010CE000800001110FA
:1024000000380140003C0140003802400823E6E665
:1024100002B0BDE8F08700BF38B505460C4621B1D3
:102420002B691C4207D1002038BD4FF4C771034807
:1024300006F00EFBF4E70120F6E700BF10CE00081F
:1024400070B5064615460C4629B1012D09D875B957
:102450002404B46170BD40F2AF11064806F0F8FAEA
:10246000F3E74FF4D871034806F0F2FAEFE7B461EE
:10247000F0E700BF10CE000803685A6912F4806FBD
:102480000DD06FF480625A61042303640023036358
:10249000202280F83D2080F83C3001207047002049
:1024A0007047F8B506460C4617461D461EE02DB18E
:1024B00003F092FB069BC01AA84217D9002333638E
:1024C000202286F83D2086F83E3086F83C300320F6
:1024D0001AE033685B6924EA03039BB2B3FA83F31F
:1024E0005B099F420FD1B5F1FF3FE0D1C4F3074331
:1024F000012BEED033689B6924EA03039BB2B3FA45
:1025000083F35B09EDE70020F8BDF8B504460D46FE
:1025100016461F4632E01A6842F400721A602368B9
:102520006FF480625A610423236400232363202212
:1025300084F83D2084F83C3001202DE026B103F0E2
:102540004BFBC01BB04219D900232363202284F81F
:102550003D2084F83C3003201EE023685B6925EAB7
:1025600003039BB2003318BF0123A3B123685A6948
:1025700012F4806FCFD1B6F1FF3FDFD1C5F307432F
:10258000012BEAD023689B6925EA03039BB2003341
:1025900018BF0123E9E70020F8BD70B504460D46D9
:1025A000164623685B6913F0800F19D12046FFF7A8
:1025B00063FFB8B9B5F1FF3FF3D025B103F00CFBD1
:1025C000801BA842EDD9236C43F020032364002331
:1025D0002363202284F83D2084F83C30032000E06F
:1025E000002070BD0120FCE72DE9F04184B00446D5
:1025F0000E46174698460B9D0268136843F4807395
:10260000136000950A9B00224FF00111FFF749FF6C
:10261000002847D1236806F0FE061E612B460A9A61
:1026200026492046FFF771FF20B1236C042B3ED1D1
:10263000012338E00023039323685A6903929B69BE
:102640000393039B2A460A992046FFF7A6FF0346F9
:1026500048B1236C042B2CD12268136843F4007317
:10266000136001231FE0B8F1010F13D023683A0A69
:102670001A612A460A992046FFF78FFF034668B180
:10268000236C042B17D12268136843F40073136082
:10269000012308E02268FFB2176104E02268FFB25C
:1026A000176100E00323184604B0BDE8F08103235E
:1026B000F9E70323F7E70323F5E700BF0200010072
:1026C0002DE9F04184B004460E46174698460B9D0E
:1026D0000268136843F4806313600268136843F46C
:1026E0008073136000950A9B00224FF00111FFF7E1
:1026F000D8FE002874D1F6B2236806F0FE021A61F3
:102700002B460A9A3F492046FFF7FFFE20B1236C73
:10271000042B6AD1012364E00023039323685A69E0
:1027200003929B690393039B2A460A992046FFF76D
:1027300034FF48B1236C042B59D12268136843F449
:102740000073136001234CE0B8F1010F12D123682C
:10275000FFB21F612A460A992046FFF71EFF00B309
:10276000236C042B47D12268136843F40073136071
:10277000012336E023683A0A1A612A460A9920465C
:10278000FFF70BFF48B1236C042B32D1226813688A
:1027900043F400731360012323E02368FFB21F6139
:1027A000D8E72268136843F48073136000950A9B8E
:1027B00000224FF001112046FFF773FEE8B92368AD
:1027C00046F001061E612B460A9A0E492046FFF785
:1027D0009CFE034628B1236C042B10D1012300E09A
:1027E0000323184604B0BDE8F0810323F9E703236F
:1027F000F7E70323F5E70323F3E70323F1E70323D5
:10280000EFE700BF0200010070B504460D46164612
:1028100023685B6913F0040F19D12046FFF72CFEE3
:10282000B8B9B5F1FF3FF3D025B103F0D5F9801B5E
:10283000A842EDD9236C43F02003236400232363D3
:10284000202284F83D2084F83C30032000E0002062
:1028500070BD0120FCE770B505460C4616462B6896
:102860005A6912F0400F22D15A6912F0100F11D19B
:1028700024B103F0B1F9801BA042F0D92B6C43F0D6
:1028800020032B64202385F83D30002385F83C305D
:10289000032070BD6FF010025A6100232B642B637C
:1028A000202285F83D2085F83C300120F1E700200A
:1028B000EFE70000002800F0EB8010B50446036845
:1028C000744A93420CD002F58062934208D002F51C
:1028D0008062934204D04FF4B7716F4806F0B8F8A5
:1028E0006368013B6D4A934267D8A36813B1B3F59F
:1028F000804F68D1E36823F47F7323F00303002B38
:1029000067D12369B3F5804F02D0B3F5404F66D14C
:102910006369012B69D8A36933F0FE036BD1E369C6
:102920000BB1402B6DD1236A0BB1802B6FD194F882
:102930003D30002B71D0242384F83D302268136889
:1029400023F00103136000F039FF554BA3FB002374
:102950009B0C226853606168524A914263D80133EC
:102960002268136263684F4A934266D85B00B0FBEB
:10297000F3F0C0F30B03032B00D804202368D861C5
:10298000E369216A22680B4313602369E1682268C6
:102990000B4393606369A16922680B43D36022688B
:1029A000136843F00103136000202064202384F89F
:1029B0003D30206384F83E0010BD40F26F11364870
:1029C00006F046F891E74FF4B871334806F040F846
:1029D00090E740F27111304806F03AF891E74FF471
:1029E000B9712D4806F034F892E740F273112A4885
:1029F00006F02EF88FE74FF4BA71274806F028F852
:102A00008DE740F27511244806F022F88BE74FF469
:102A1000BB71214806F01CF889E784F83C30204659
:102A200006F01AFB87E74FF4967202FB03F31E4A87
:102A3000A2FB03239B09013392E7A16889B903EB49
:102A40004302B0FBF2F2C2F30B02B2FA82F2520975
:102A5000E2B991B903EB4303B0FBF3F040F400405B
:102A60008CE703EB830202EB8202B0FBF2F2C2F3CB
:102A70000B02B2FA82F25209EAE703EB830303EB9B
:102A80008303B0FBF3F040F4404077E7012075E7A3
:102A900001207047005400404CCE00087F1A060009
:102AA00083DE1B43A0860100D34D62102DE9F04167
:102AB00082B004460F4690461E4603F08DF8054648
:102AC000012E01D0102E09D194F83D30DBB2202B1D
:102AD0000AD00223184602B0BDE8F08140F66B111F
:102AE000544805F0B5FFEFE700951923012252493C
:102AF0002046FFF7D6FC002840F0938094F83C3045
:102B0000012B00F09080012384F83C3023681A6880
:102B100012F0010F03D11A6842F001021A60226814
:102B2000136823F400631360212384F83D304023AD
:102B300084F83E3000232364089B6362BDF8243090
:102B400063853E4BE362638D238501950A9B009369
:102B50003346424639462046FFF746FDB0B1236C66
:102B6000042B04D1002384F83C300123B2E7002376
:102B700084F83C300323ADE7236C042B55D1226845
:102B8000136843F4007313600123A3E7238D002B24
:102B900028D02A460A992046FFF7FFFC0028EBD1EF
:102BA000636A5A1C626222681B781361238D013BA1
:102BB0009BB22385628D013A92B262852268516987
:102BC00011F0040FE2D0002BE0D0636A591C61625F
:102BD0001B781361238D013B2385638D013B9BB2E1
:102BE0006385D3E72A460A992046FFF70DFE034680
:102BF00048B1236C042B1AD12268136843F4007384
:102C00001360012366E721680A6842F400720A60D3
:102C1000202284F83D20002284F83E2084F83C20C5
:102C200058E7022356E7022354E7032352E703231E
:102C300050E700BF4CCE0008020010000000FFFF6C
:102C40002DE9F04186B004460F4690461E4602F03C
:102C5000C3FF0546012E01D0102E09D194F83D3056
:102C6000DBB2202B0AD00226304606B0BDE8F08148
:102C70004FF41F618E4805F0EBFEEFE70095192336
:102C800001228C492046FFF70CFC002840F04D81C2
:102C900094F83C30012B00F04A81012384F83C3049
:102CA00023681A6812F0010F03D11A6842F001027A
:102CB0001A602268136823F400631360222384F8E7
:102CC0003D30402384F83E30002323640C9B636234
:102CD000BDF834306385784BE362638D23850195BD
:102CE0000E9B00933346424639462046FFF7E8FCE8
:102CF000064660B1236C042B04D1002384F83C30D9
:102D00000126B1E7002384F83C300326ACE7238D8D
:102D10005BB9029323685A6902929A690292029AF5
:102D20001A6842F400721A6075E0012B0AD0022B77
:102D30001AD00023059323685A6905929B6905936D
:102D4000059B68E02268136823F480631360002306
:102D5000039323685A6903929A690392039A1A6843
:102D600042F400721A6056E02268136823F480630C
:102D700013602268136843F4006313600023049314
:102D800023685A6904929B690493049B43E02A4692
:102D90000E992046FFF75FFD68B923681A69636AD8
:102DA000591C61621A70238D013B2385638D013BA1
:102DB0009BB263852FE0236C202B01D0012653E7C3
:102DC000032651E700950E9B00223C492046FFF761
:102DD00068FB002840F0AD802268136843F400735C
:102DE000136023681A69636A591C61621A70238D23
:102DF000013B2385638D013B9BB2638523681A6980
:102E0000636A591C61621A70238D013B2385638DAF
:102E1000013B9BB26385238D002B7DD0032B4FD8C4
:102E2000012BB4D0022BCDD000950E9B002223495C
:102E30002046FFF736FB00287DD12268136823F473
:102E40008063136023681A69636A591C61621A708F
:102E5000238D013B2385638D013B9BB263850095E8
:102E60000E9B002215492046FFF71BFB002864D16A
:102E70002268136843F40073136023681A69636A55
:102E8000591C61621A70238D013B2385638D013BC0
:102E90009BB2638523681A69636A591C61621A7060
:102EA000238D013B2385638D013B9BB26385B2E794
:102EB0004CCE0008020010000000FFFF04000100DB
:102EC0002A460E992046FFF7C6FCF0B923681A6916
:102ED000636A591C61621A70238D013B2385638DDF
:102EE000013B9BB2638523685A6912F0040F92D0AC
:102EF0001A69636A591C61621A70238D013B23852C
:102F0000638D013B9BB2638585E7236C202B01D049
:102F10000126A9E60326A7E6202384F83D300023F6
:102F200084F83E3084F83C309EE602269CE6022679
:102F30009AE6032698E6032696E6032694E600BF63
:102F400000283AD038B5044602681D4B9A4203D097
:102F5000AD211C4805F07CFD6368062B1ED8A368D4
:102F6000B3F5805F1FD223684CF6CC421A60236809
:102F700045F255521A60236862685A602368A26855
:102F80009A6002F029FE05462368DA6882B102F0F1
:102F900023FE401B3028F7D903200DE0AE2109485D
:102FA00005F056FDDBE7AF21064805F051FDDAE7F5
:102FB0004AF6AA221A60002038BD0120704700BFDF
:102FC0000030004084CE000803684AF6AA221A6046
:102FD0000020704710B582B000230193194B1A6C82
:102FE00042F080521A641B6C03F080530193019BE2
:102FF000154B01221A6002F0EFFD0446134B5B688B
:1030000013F4803F08D102F0E7FD001BB0F57A7F92
:10301000F4D9032002B010BD0D4B01221A6002F05A
:10302000DBFD0446094B5B6813F4003F07D102F057
:10303000D3FD001BB0F57A7FF4D90320EAE7002026
:10304000E8E700BF0038024040000E420070004038
:1030500044000E42002800F03C8270B582B0044665
:1030600003680F2B39D8236813F0010F4DD0636824
:103070002BB1B3F5803F02D0B3F5A02F32D1A54BD1
:103080009B6803F00C03042B36D0A24B9B6803F023
:103090000C03082B2BD06368B3F5803F5FD0B3F5EA
:1030A000A02F62D09B4B1A6822F480321A601A68F3
:1030B00022F480221A606368002B60D002F08CFD3D
:1030C0000546944B1B6813F4003F1ED102F084FDAB
:1030D000401B6428F5D9032000E2F8218E4805F052
:1030E000B7FCC0E7FD218C4805F0B2FCC7E7894B6F
:1030F0005B6813F4800FCED0864B1B6813F4003F3F
:1031000003D06368002B00F0E681236813F0020F00
:1031100067D0E368012B41D823691F2B44D87D4B2E
:103120009B6813F00C0F4AD07A4B9B6803F00C039A
:10313000082B3FD0E368002B77D0784B01221A6030
:1031400002F04AFD0546734B1B6813F0020F63D172
:1031500002F042FD401B0228F5D90320BEE16D4A72
:10316000136843F480331360A5E76A4B1A6842F48E
:1031700080221A601A6842F480321A609BE702F0DB
:103180002BFD0546634B1B6813F4003FBDD002F0D6
:1031900023FD401B6428F5D903209FE140F22F1145
:1031A0005D4805F055FCB7E74FF498715A4805F0B3
:1031B0004FFCB4E7574B5B6813F4800FBAD1554B03
:1031C0001B6813F0020F04D0E368012B01D001202B
:1031D00084E1504A136823F0F803216943EAC103EC
:1031E0001360236813F0080F49D06369012B2ED8B0
:1031F000636993B34A4B01221A6002F0EDFC054665
:10320000444B5B6F13F0020F39D102F0E5FC401B19
:103210000228F5D9032061E13E4A136823F0F80340
:10322000216943EAC1031360DBE73C4B00221A60CB
:1032300002F0D2FC0546374B1B6813F0020FD0D0CA
:1032400002F0CAFC401B0228F5D9032046E14FF4E6
:10325000B871314805F0FCFBCAE7314B00221A6017
:1032600002F0BAFC05462B4B5B6F13F0020F06D041
:1032700002F0B2FC401B0228F5D903202EE123689E
:1032800013F0040F00F08780A368012B01D9052BF0
:1032900038D1204B1B6C13F0805F39D10023019390
:1032A0001C4B1A6C42F080521A641B6C03F0805362
:1032B0000193019B01251B4B1B6813F4807F33D0C6
:1032C000A368012B44D0052B48D0124B1A6F22F073
:1032D00001021A671A6F22F004021A67A368002B12
:1032E00046D002F079FC06460A4B1B6F13F0020F22
:1032F0004FD102F071FC801B41F288339842F3D920
:103300000320EBE04FF4CE71034805F0A1FBC0E7CA
:103310000025D0E700380240C0CE00080000474238
:10332000800E4742007000406E4A136843F4807379
:10333000136002F051FC06466A4B1B6813F4807F51
:10334000BED102F049FC801B0228F5D90320C5E05C
:10335000654A136F43F001031367BFE7624B1A6FAF
:1033600042F004021A671A6F42F001021A67B5E7C9
:1033700002F032FC06465C4B1B6F13F0020F08D0C4
:1033800002F02AFC801B41F288339842F3D90320D3
:10339000A4E0002D3BD1A369022B3ED8A369002BEA
:1033A00000F09B80504A926802F00C02082A00F05C
:1033B0009780022B79D1E36913B1B3F5800F32D135
:1033C000236A3F2B35D8636A323BB3F5BF7F36D8CB
:1033D000A36A022B05D0042B03D0062B01D0082BA7
:1033E00033D1E36A023B0D2B35D8404B00221A60E3
:1033F00002F0F2FB05463C4B1B6813F0007F30D017
:1034000002F0EAFB401B0228F5D9032066E0364AA9
:10341000136C23F080531364BDE740F2DF1134488E
:1034200005F016FBBAE74FF4F471314805F010FBD4
:10343000C6E740F2E9112E4805F00AFBC3E74FF456
:10344000F5712B4805F004FBC2E740F2EB11284868
:1034500005F0FEFAC5E74FF4F671254805F0F8FAD5
:10346000C3E7E369226A1343626A43EA8213A26AEA
:103470005208013A43EA0243E26A43EA02631A4A03
:1034800053601A4B01221A6002F0A6FB0446164B49
:103490001B6813F0007F06D102F09EFB001B022880
:1034A000F5D903201AE0002018E0104B00221A6022
:1034B00002F092FB04460C4B1B6813F0007F06D011
:1034C00002F08AFB001B0228F5D9032006E0002049
:1034D00004E001207047012000E0002002B070BD30
:1034E0000120FBE7007000400038024060004742C6
:1034F000C0CE0008264B9B6803F00C03042B44D07D
:10350000082B01D0234870472DE9F04B204B5A6817
:1035100002F03F025B6813F4800F13D01C4B596814
:10352000C1F3881100231C48A1FB0001FDF714FC26
:10353000174B5B68C3F3014301335B00B0FBF3F04F
:10354000BDE8F08B124B5B68C3F388131E4600275F
:103550005C010025E41A65EB0705A90141EA9461C5
:10356000A001001B61EB0501CB0043EA5073C400CE
:10357000A01943EB07018B0243EA905384022046D3
:1035800019460023FDF7E8FBD2E70348704700BF68
:10359000003802400024F40040787D01002800F04B
:1035A000F98070B504460D460368013B0E2B11D817
:1035B0000F2D15D8794B1B6803F00F03AB4215D2C2
:1035C000EBB2764A1370136803F00F03AB420DD0D1
:1035D000012070BD4FF41471714805F039FAE7E726
:1035E00040F251216E4805F033FAE3E7236813F007
:1035F000020F29D013F0040F04D06A4A936843F4F1
:10360000E0539360236813F0080F04D0654A936871
:1036100043F460439360A3687BB1802B0DD0902B63
:103620000BD0A02B09D0B02B07D0C02B05D0D02BAE
:1036300003D0E02B01D0F02B33D15A4A936823F00A
:10364000F003A1680B439360236813F0010F42D08D
:103650006368032B2BD86368012B2ED09A1E012A96
:1036600032D9504A126812F0020F00F095804D498D
:103670008A6822F0030213438B6002F0ADFA06461B
:10368000484B9B6803F00C036268B3EB820F22D0B7
:1036900002F0A2FA801B41F288339842F0D903204D
:1036A00097E74FF41D713E4805F0D2F9C5E740F2A7
:1036B0007B213B4805F0CCF9CDE73A4A126812F479
:1036C000003FD4D1012084E7364A126812F0007F0F
:1036D000CDD101207DE7314B1B6803F00F03AB42D6
:1036E00009D9EAB22D4B1A701B6803F00F03AB42E5
:1036F00001D001206DE7236813F0040F14D0E368B4
:103700005BB1B3F5805F08D0B3F5A05F05D0B3F52A
:10371000C05F02D0B3F5E05F30D1224A936823F452
:10372000E053E1680B439360236813F0080F15D052
:1037300023695BB1B3F5805F08D0B3F5A05F05D016
:10374000B3F5C05F02D0B3F5E05F1DD1154A9368B1
:1037500023F46043216943EAC1039360FFF7CAFE83
:10376000104B9B68C3F303130F4AD35CD8400F4B35
:1037700018600F20FDF762FD00202AE740F2B92112
:10378000074805F065F9C8E74FF43071044805F0C3
:103790005FF9DBE70120704701201AE7003C024097
:1037A000C0CE0008003802404CCD000810000020B8
:1037B000014B1868704700BF1000002008B5FFF7E4
:1037C000F7FF044B9B68C3F38223034AD35CD840C2
:1037D00008BD00BF003802405CCD000808B5FFF707
:1037E000E7FF044B9B68C3F34233034AD35CD840E2
:1037F00008BD00BF003802405CCD000830B583B082
:1038000004460368013B7E2B1BD8236813F0030F8B
:1038100079D06368323BB3F5BF7F18D8854B00225F
:103820001A6002F0D9F90546834B1B6813F0006F4C
:1038300013D002F0D1F9401B0228F5D9032003B0C0
:1038400030BD40F68B017D4805F002F9DDE740F61A
:1038500095017A4805F0FCF8E0E7236813F0010FC2
:103860000BD0A368023B052B3BD86268A3681B07FB
:1038700043EA8213704AC2F88430236813F0020FBF
:103880001DD0E368023B0D2B31D8E369013B1F2BB0
:1038900033D8694AD2F884106068E3681B0643EAAB
:1038A000801301F0E0410B43C2F88430D2F88C3031
:1038B00023F01F03E16901390B43C2F88C305D4BE3
:1038C00001221A6002F088F905465B4B1B6813F071
:1038D000006F18D102F080F9401B0228F5D90320AF
:1038E000ADE740F6AB01554805F0B2F8BDE740F64C
:1038F000B801524805F0ACF8C7E740F6B9014F48A7
:1039000005F0A6F8C5E7236813F00C0F00F09A80C5
:103910002369323BB3F5BF7F11D8494B00221A60AF
:1039200002F05AF90546444B1B6813F0005F0CD0B7
:1039300002F052F9401B0228F5D903207FE740F638
:10394000DE013E4805F084F8E7E7236813F0040F32
:103950001ED06369023B0D2B54D8236A013B1F2BF9
:1039600056D8354AD2F88810206963691B0643EAA5
:10397000801301F0E0410B43C2F88830D2F88C305C
:1039800023F4F853216A013943EA0123C2F88C3049
:10399000236813F0080F23D0A369023B052B3DD801
:1039A000636A43B1B3F5803F05D0B3F5003F02D061
:1039B000B3F5403F38D1204AD2F88830216903F06E
:1039C000706343EA8113A16943EA0173C2F8883046
:1039D000D2F88C3023F44033616A0B43C2F88C3048
:1039E000174B01221A6002F0F7F80546124B1B68CC
:1039F00013F0005F26D102F0EFF8401B0228F5D942
:103A000003201CE740F6F3010C4805F021F8A4E779
:103A100040F6F401094805F01BF8A2E740F603114F
:103A2000064805F015F8BBE740F60411034805F019
:103A30000FF8C0E76800474200380240F8CE00089F
:103A400070004742236813F0200F00F0CD80A36A76
:103A5000B3F5807F7ED0B3F5007F7BD0764A93426A
:103A600078D002F58032934274D002F580329342CE
:103A700070D002F5803293426CD002F580329342CE
:103A800068D002F58032934264D002F580329342CE
:103A900060D002F5803293425CD002F580329342CE
:103AA00058D002F58032934254D002F580329342CE
:103AB00050D002F5803293424CD002F580329342CE
:103AC00048D002F58032934244D002F580329342CE
:103AD00040D002F5803293423CD002F580329342CE
:103AE00038D002F58032934234D002F580329342CE
:103AF00030D002F5803293422CD002F580329342CE
:103B000028D002F58032934224D002F580329342CD
:103B100020D002F5803293421CD002F580329342CD
:103B200018D002F58032934214D002F580329342CD
:103B300010D002F5803293420CD002F580329342CD
:103B400008D002F58032934204D040F623113B485E
:103B500004F07EFF00230193394B1A6C42F080522F
:103B60001A641B6C03F080530193019B354A136860
:103B700043F48073136002F02FF80546314B1B6845
:103B800013F4807F06D102F027F8401B0228F5D9F4
:103B9000032054E62A4B1B6F13F4407312D0A26A21
:103BA00002F440729A420DD0254B1A6F22F44072F3
:103BB000254901200860002008601A671B6F13F078
:103BC000010F1BD1A36A03F44072B2F5407F26D0E7
:103BD0001B4A936823F4F813936019490B6FA26A88
:103BE000C2F30B0213430B67236813F0100F21D0AD
:103BF00094F82C20154B1A60002020E601F0ECFF11
:103C000005460F4B1B6F13F0020FDBD101F0E4FFF1
:103C1000401B41F288339842F3D903200FE608494C
:103C20008A6822F4F81223F0704323F4407313439C
:103C30008B60D2E7002002E600030200F8CE000805
:103C40000038024000700040400E4742E0114742F9
:103C500038B504460268D36823F0A003D36001F0AE
:103C6000BBFF05462368DB6813F0200F07D101F086
:103C7000B3FF401BB0F57A7FF4D9032000E00020A9
:103C800038BD38B50368DA6812F0400F01D0002063
:103C900038BD04464FF0FF32DA6001F09DFF054663
:103CA0002368DB6813F0400F07D101F095FF401B3C
:103CB000B0F57A7FF4D90320EAE70020E8E70000B6
:103CC00038B5002800F09D8004464368402B01D0A1
:103CD000002B5FD1A3687F2B61D8E368B3F5004F59
:103CE00062D2236943B1B3F5001F05D0B3F5800F4D
:103CF00002D0B3F5C00F5CD1636913B1B3F5801F77
:103D00005CD1A36913B1B3F5802F5CD1637F002B25
:103D10005ED0022363772368CA225A622368532243
:103D20005A622046FFF7ADFF0546002855D12268AC
:103D3000936823F4E00323F04003936021688A68CA
:103D40006368206903436069034313438B602368FE
:103D5000E2681A6122681369A16843EA01431361AA
:103D60002268D36823F08003D36023689B6813F034
:103D7000200F3AD02268136C23F480231364226846
:103D8000136CA1690B4313642368FF225A62012359
:103D9000637728E0D2211C4804F05AFE9AE7D32129
:103DA000194804F055FE98E7D421174804F050FE56
:103DB00097E7D521144804F04BFE9DE7D621124821
:103DC00004F046FE9DE7D7210F4804F041FE9DE731
:103DD0002377204605F06AF99BE72368FF225A62A1
:103DE000042363770125284638BD2046FFF730FFBE
:103DF0000028BFD02368FF225A620423637701257D
:103E0000F1E70125EFE700BF34CF0008030903EB1A
:103E100083035A0000F00F001044C0B27047000046
:103E2000F8B504460D461646012A28D823689B6A31
:103E30006B6023681B69C3F30E03AB6023681B68C8
:103E400003F07F3323F0FE431A0C02F03F0028708A
:103E5000C3F306276F7003F07F04AC7002F04002DA
:103E6000EA7056B9FFF7D2FF28703846FFF7CEFF49
:103E700068702046FFF7CAFFA8700020F8BD4FF415
:103E80001171024804F0E4FDD0E700BF34CF000810
:103E9000F8B506460C461546012A1ED833685B68FD
:103EA00023F07F4323F0C003180CE070C3F3042712
:103EB000677003F03F06A670C3F34233237055B911
:103EC000FFF7A4FFE0703846FFF7A0FF60703046B0
:103ED000FFF79CFFA0700020F8BD40F2DF210248F0
:103EE00004F0B6FDDAE700BF34CF0008836B1A6830
:103EF000D36B43F48073D363704770B582B00446CC
:103F000000230193006801F041FD054610B12846E9
:103F100002B070BD206801F04CFD064610B30023CE
:103F2000A3642E46DEB9019B5A1C01924FF6FF7224
:103F3000934244D00021206801F052FD002841D175
:103F40000021206801F064FD064600283DD10021D3
:103F5000206801F0F9FAC00FE4D00646E2E700233A
:103F60006364D4E70123A3640546EDB9019B5A1CA1
:103F700001924FF6FF7293422AD00021206801F08F
:103F80002FFD05460028C2D14FF08041206801F086
:103F90003FFD05460028BAD10021206801F0D4FA7F
:103FA000C30FE2D01D46E0E710F0804F03D100239D
:103FB00063643546ABE7012363643546A7E74FF0FA
:103FC0008075A4E74FF08055A1E74FF080559EE73C
:103FD0004FF080759BE770B50546866A002405E0C2
:103FE000286801F059FA46F824000134072CF7D963
:103FF000AB6A2033AB62002070BD70B50546066A1F
:10400000002405E006EB8401286801F048FA013439
:10401000072CF7D92B6A20332B62002070BD2DE9C5
:10402000F04188B004460F4601F0D6FD0646002355
:10403000009301930821206801F0FEFB054618B1AA
:10404000284608B0BDE8F081216D0904206801F020
:10405000C7FC05460028F3D14FF0FF330293082335
:104060000393302304930223059300230693012333
:10407000079302A9206801F07DFB206801F0F9FC9C
:1040800005460028DCD1804605E001F0A5FD801B37
:10409000B0F1FF3F43D02068426B40F22A431A42FE
:1040A0000AD1436B13F4001FEFD001F0F5F94DF87E
:1040B000280008F10108E8E7436B13F0080F25D149
:1040C000436B13F0020F24D1436B13F0200F23D165
:1040D00040F2FF538363009A130203F47F0343EA21
:1040E0000263110A01F47F410B4343EA12637B60D0
:1040F000019A130203F47F0343EA0263110A01F4F5
:104100007F410B4343EA12633B6099E708258563CF
:1041100096E70225856393E72025856390E74FF0B6
:1041200000458DE710B582B0044600210091019151
:10413000006801F009FA10F0007F16D169462046A8
:10414000FFF76DFF034690B9019B13F4802F11D048
:10415000216D0904206801F043FC034638B90221AF
:10416000206801F06EFC034601E04FF4006318463E
:1041700002B010BD4FF08063F9E710B582B004467D
:10418000002100910191006801F0DEF910F0007F3C
:1041900016D169462046FFF742FF034690B9019BBE
:1041A00013F4803F11D0216D0904206801F018FC40
:1041B000034638B90021206801F043FC034601E0C2
:1041C0004FF40063184602B010BD4FF08063F9E76A
:1041D00070B581B10D460446016D0904006801F017
:1041E000A2FC064608B1304670BD0021206801F0EF
:1041F000ABF92860F7E74FF00066F4E7F0B587B059
:10420000044699B115461E460A4690F83430DBB292
:10421000012B6FD100238363AB19C16D8B420BD986
:10422000836B43F000738363012064E0836B43F08E
:104230000063836301205EE0032380F83430036869
:104240000021D9620068C36B43F49573C363E36BC9
:104250002B48D863E36B2B48D864E36B196521685E
:104260007702BB088031E06BFDF7F0FD264B0122A1
:104270001A60636C934200D06D024FF0FF330093DD
:1042800001979023029302230393002304930123B5
:1042900005936946206801F06DFA4FF400712068BB
:1042A00001F0CAFA034698B9012E1CD98223236370
:1042B0002946206801F0F0FAF8B1236840F2FF5275
:1042C0009A63A36B1843A063012084F8340012E0C2
:1042D000226840F2FF519163A06B1843A063012054
:1042E00084F8340007E0812323632946206801F025
:1042F000BBFAE1E7022007B0F0BD0020FBE700BFFA
:1043000027440008A34900088C8525422DE9F04187
:1043100086B0044600293FD015461E460F4690F849
:104320003430DBB2012B73D1002383639319C26D48
:10433000934237D8032380F8343003680022DA62CE
:104340000168CB6B43F01A03CB63036C3249D9632A
:10435000036C3249D964036C1A65436C012B00D09D
:104360006D024FF40071206801F066FA0346F8B957
:10437000012E28D9A02323632946206801F0BCFA26
:1043800040B3236840F2FF529A63A36B1843A063C3
:10439000012084F834003CE0836B43F000638363C6
:1043A000012036E0836B43F000738363012030E02B
:1043B000226840F2FF519163A06B1843A063012073
:1043C00084F8340025E0902323632946206801F017
:1043D0007BFAD5E74FF00108114BC3F80080226843
:1043E0007602B30880323946206CFDF72FFD4FF07E
:1043F000FF330093019690230293002503950495C3
:10440000CDF814806946206801F0B4F9284600E030
:10441000022006B0BDE8F081ED3E0008A349000887
:104420008C852542704710B5846B236B822B0FD08F
:104430002268D36A23F00803D362236840F2FF5254
:104440009A63012384F83430204604F0EBFC10BD5D
:10445000206801F069FA03460028E9D0A06B1843F0
:10446000A0632046FFF7DEFFE2E7704730B4436EFB
:104470009A0F0A70C3F383624A70C3F301638B70AF
:1044800090F86630CB7090F865300B7190F864301E
:104490004B7190F86B301B01CB80B0F86A30CC8840
:1044A000C3F303122243CA8003F00F030B7290F888
:1044B0006930DA094A72C3F380128A72C3F3401278
:1044C000CA72C3F300120A7300224A73426C002AB4
:1044D00040F092809B0203F440630B61836E0A6993
:1044E0009B0003F47F7313430B61C36E0A6942EAB6
:1044F00093720A61C3F3C2620A75C3F302634B7518
:10450000C26EC2F30743C2F342548C75C2F38242B7
:10451000CA755B0003F006030B76C26EC2F3072375
:104520000C7EC2F3C03222430A760A690132426528
:104530000C7E023402FA04F444650A7AD5B20122F0
:10454000AA408265520A02FB04F2C2654FF400726F
:104550000266C3F380124A765B0003F07E038B761B
:10456000C36E8A7EC3F3C01422438A7603F07F03AE
:10457000CB76036F1A0EDC0F0C77C3F341744C77C4
:10458000C3F382638B77930003F00C03CB77036F45
:10459000CA7FC3F381542243CA77C3F3405281F8E0
:1045A0002020002281F82120C3F3004381F822302B
:1045B000036FC3F3C03481F82340C3F3803481F820
:1045C0002440C3F3403481F82540C3F3003481F81C
:1045D0002640C3F3812481F82740C3F3012381F8E7
:1045E0002830036FC3F3460381F82930012381F893
:1045F0002A30104630BC7047012A0CD0036840F2C4
:10460000FF529A63836B43F080538363012280F8E7
:1046100034201046EEE7836E1B0403F47C130B6119
:1046200090F86F200B6943EA02230B610A6990F846
:104630006E3013430B6190F86D300A6901329202BB
:104640004265C2654FF400728265026681E770B50B
:1046500090B004460123ADF81230006800F028FF46
:1046600000286AD0636C032B43D1636C032B5BD1AE
:10467000636C032B1DD0BDF812102165090420685E
:1046800001F024FA0546002859D10021206800F0E5
:104690005BFF60660421206800F056FFA0660821D9
:1046A000206800F051FFE0660C21206800F04CFF0C
:1046B00020670421206800F047FF000DE06405A991
:1046C0002046FFF7D3FE226D12040023206801F07C
:1046D00045F9054698BB234653F8106B93E807004D
:1046E0008DE80700043494E80E00304600F068FEC0
:1046F00025E0206801F0D5F9054600BB00212068BF
:1047000000F022FF60670421206800F01DFFA06711
:104710000821206800F018FFE0670C21206800F0F5
:1047200013FFC4F88000A0E70DF11201206801F02A
:10473000E2F9054600289BD001E04FF0806528464D
:1047400010B070BD70B58AB005460024049405947D
:10475000069407940894762309930AAB13E907009B
:104760008DE8070004AB0ECB286800F029FE124E3E
:104770003460286800F098FE01233360022001F0C5
:1047800031FA2846FFF7B9FB40B10246012085F80F
:104790003400AB6B1343AB630AB070BD2846FFF720
:1047A00056FF024630B1012085F83400AB6B13434D
:1047B000AB63F1E70020EFE7A0802542002862D03C
:1047C00010B504460268314B9A4204D04FF49E71F2
:1047D0002F4804F03DF9636813B1B3F5005F29D1A8
:1047E000A36813B1B3F5806F2AD1E36813B1B3F5B1
:1047F000007F2BD123692BB1B3F5006F02D0B3F545
:10480000805F29D1636913B1B3F5804F2AD1A369C1
:10481000FF2B2DD894F8343083B3032384F834303D
:104820002046FFF78FFF0020A0632063012384F858
:10483000343010BD40F23D11154804F009F9CFE7BE
:104840004FF49F71124804F003F9CEE740F23F1194
:104850000F4804F0FDF8CDE74FF4A0710C4804F0C8
:10486000F7F8CFE740F24111094804F0F1F8CEE73C
:104870004FF4A171064804F0EBF8CBE7237720460C
:1048800004F022FCC9E70120704700BF002C014062
:104890006CCF0008436C0B60836C4B60C36C8B6007
:1048A000036DCB60436D0B61836D4B61C36D8B6199
:1048B000036ECB610020704730B58BB004460D46C7
:1048C00029B1B1F5006F02D0B1F5805F11D103239A
:1048D00084F83430636C032B24D0B5F5805F0ED0A0
:1048E000B5F5006F10D0B5B1A36B43F00063A363BF
:1048F0001CE040F61F01204804F0AAF8E7E7A36B8C
:1049000043F08053A36311E02046FFF70BFCA36B39
:104910001843A0630AE02046FFF72FFCA36B18435F
:10492000A06303E0A36B43F08053A363A36B43B185
:10493000236840F2FF529A63012084F834000BB0E0
:1049400030BD63680493A3680593E36806930795F5
:1049500063690893A36909930AAB13E907008DE81B
:10496000070004AB0ECB206800F02AFD012384F879
:1049700034300020E3E700BF6CCF000810B582B0F0
:10498000044602A9002341F8043DFFF721FC18B1B9
:104990000346A06B1843A0630198C0F3432002B004
:1049A00010BD10B5846BE36B5B6D012B03D0236CE2
:1049B0005B6D012B16D1236840F2FF529A63226887
:1049C000D36B23F49D73D363A36B43F08043A36342
:1049D0002046FFF7D3FF0538C0B2012806D90123CE
:1049E00084F834302046FFF71DFD10BD206800F02C
:1049F0009BFFA36B1843A063F1E710B5846B236C96
:104A00000BB100232364E36B03B110BD2046FFF715
:104A1000B5FF0023A363012384F834300538C0B206
:104A20009842F2D8206800F07FFFA36B1843A06380
:104A3000A36B1BB92046FFF7F5FCE6E72046FFF71E
:104A400014FDE2E710B5846BE36B0BB10023E36365
:104A5000236C03B110BD2046FFF790FF0023A36332
:104A6000012384F834300538C0B29842F2D8206867
:104A700000F05AFFA36B1843A063A36B1BB9204639
:104A8000FFF7D0FCE6E72046FFF7EFFCE2E7000087
:104A900010B5044603685A6B12F4807F61D04FF45E
:104AA00080729A630268D36B23F44E7323F002037F
:104AB000D363036B13F0080F2AD0036B13F0020FBC
:104AC00003D1036B13F0200F04D0206800F02CFFFB
:104AD000034690B9236840F2FF529A63012384F899
:104AE0003430236B13F0010F03D1236B13F0020F4B
:104AF0000AD0204604F096F910BDA26B1343A363BD
:104B00002046FFF78FFCE5E7204604F085F9F3E740
:104B1000036B13F0800FEFD0036B13F0200F13D152
:104B2000236B13F0010FE7D1236B13F0020FE3D1D6
:104B30002268D36A23F00803D362012384F8343057
:104B4000204604F069F9D7E7006800F0EDFE03465F
:104B50000028E5D0A26B1343A3632046FFF762FC55
:104B6000DEE75A6B12F4804F4CD15A6B12F4004FAF
:104B70004ED1596B40F23A221142BDD05A6B12F01D
:104B8000020F03D0826B42F0020282635A6B12F072
:104B9000080F03D0A26B42F00802A2635A6B12F016
:104BA000200F03D0A26B42F02002A2635A6B12F0D6
:104BB000100F03D0A26B42F01002A2635A6B12F4E2
:104BC000007F03D0A26B42F00802A26340F2FF72A2
:104BD0009A632268D36B23F44E7323F00203D363EA
:104BE000236B13F0800F30D0236CBBB11D4A1A65C4
:104BF000206CFDF77BF900283FF47EAF206CFFF7B7
:104C0000FCFE79E74FF480429A63FFF7F6F973E709
:104C10004FF400429A63FFF7DEF96DE7E36B5BB197
:104C2000114A1A65E06BFDF761F900283FF464AFA3
:104C3000E06BFFF707FF5FE70023A363012384F81E
:104C400034302046FFF711FC56E7236B13F0080FB2
:104C50003FF452AF012384F834302046FFF7E2FBE3
:104C60004AE700BFFB490008454A00082DE9F84320
:104C700004464268B44B9A4200F29C80E3681BB140
:104C8000B3F5005F40F09C80236933B1B3F5806FCA
:104C900003D0B3F5C06F40F0998063694FF6F372AB
:104CA000134200D123B940F68811A84803F0D0FE82
:104CB00021680A6922F44052E36813430B612168BA
:104CC000CA6822F4164222F00C02A368206903434A
:104CD00060690343E06903431343CB6021684A6979
:104CE00022F44072A36913434B61E369B3F5004FAB
:104CF00072D02368964A934200F02E8102F58062BA
:104D0000934200F02981FEF759FD00EB800000EB93
:104D100080006568AD00B0FBF5F58E4FA7FB05354B
:104D20006D092E01FEF74AFD00EB800000EB8000CC
:104D30006568AD00B0FBF5F9FEF740FD00EB8000C3
:104D400000EB80006568AD00B0FBF5F5A7FB05350D
:104D50006D094FF0640808FB15952D013235A7FB4E
:104D600005356D0905F0F0053544FEF727FD00EB2C
:104D7000800000EB80006668B600B0FBF6F6FEF738
:104D80001DFD00EB800000EB800063689B00B0FB22
:104D9000F3F0A7FB0030400908FB10684FEA081841
:104DA00008F13208A7FB0837C7F3431723682F44DD
:104DB0009F6027E140F68511644803F049FE5DE7F6
:104DC00040F68611614803F043FE5DE740F6871127
:104DD0005E4803F03DFE60E723685D4A93425BD086
:104DE00002F58062934257D0FEF7E8FC00EB8000AA
:104DF00000EB800065686D00B0FBF5F5554FA7FB33
:104E000005356D092E01FEF7D9FC00EB800000EBA3
:104E1000800065686D00B0FBF5F9FEF7CFFC00EB94
:104E2000800000EB800065686D00B0FBF5F5A7FB26
:104E300005356D094FF0640808FB1595ED00323516
:104E4000A7FB05356D096D0005F4F8753544FEF7CF
:104E5000B5FC00EB800000EB800066687600B0FBDC
:104E6000F6F6FEF7ABFC00EB800000EB8000636819
:104E70005B00B0FBF3F3A7FB03235B0908FB13689C
:104E80004FEAC80808F13208A7FB0837C7F34217F2
:104E900023682F449F60B5E0FEF7A0FC00EB800084
:104EA00000EB800065686D00B0FBF5F5294FA7FBAE
:104EB00005356D092E01FEF791FC00EB800000EB3B
:104EC000800065686D00B0FBF5F9FEF787FC00EB2C
:104ED000800000EB800065686D00B0FBF5F5A7FB76
:104EE00005356D094FF0640808FB1595ED00323566
:104EF000A7FB05356D096D0005F4F8753544FEF71F
:104F00006DFC00EB800000EB800066687600B0FB73
:104F1000F6F6FEF763FC00EB800000EB80006368B0
:104F20005B00B0FBF3F3A7FB03235B0908FB1368EB
:104F30004FEAC80808F13208A7FB0837C7F3421741
:104F400023682F449F605DE0A037A000A4CF000835
:104F5000001001401F85EB51FEF740FC00EB800084
:104F600000EB80006568AD00B0FBF5F5264FA7FBB0
:104F700005356D092E01FEF731FC00EB800000EBDA
:104F800080006568AD00B0FBF5F9FEF727FC00EB8B
:104F9000800000EB80006568AD00B0FBF5F5A7FB75
:104FA00005356D094FF0640808FB15952D01323564
:104FB000A7FB05356D0905F0F0053544FEF70EFC3D
:104FC00000EB800000EB80006668B600B0FBF6F6F0
:104FD000FEF704FC00EB800000EB800063689B00A0
:104FE000B0FBF3F0A7FB0030400908FB10684FEA64
:104FF000081808F13208A7FB0837C7F343172368DE
:105000002F449F60BDE8F8831F85EB512DE9F041E7
:1050100005460F4616469846069C2B681B6837EADD
:1050200003030CBF01230023B3421DD1B4F1FF3FA2
:10503000F3D02CB100F0D0FDA0EB0800A042ECD9D9
:105040002A68D36823F4D073D3602A68536923F0A5
:1050500001035361202385F8393085F83A30002365
:1050600085F83830032000E00020BDE8F081000022
:10507000002800F0938010B504468369002B55D0BA
:105080000368474A934210D0A2F54C4293420CD099
:1050900002F58062934208D002F54C42934204D05C
:1050A0004FF480713F4803F0D3FCA36943B1B3F5DB
:1050B000807F05D0B3F5007F02D0B3F5407F2FD1BC
:1050C000A36813B1B3F5805F56D1E36913B1B3F5AB
:1050D000004F57D194F83930002B59D0242384F84D
:1050E00039302268D36823F40053D3602046FFF799
:1050F000BDFD2268136923F490431361226853694C
:1051000023F02A0353612268D36843F40053D36029
:105110000020E063202384F8393084F83A3010BD51
:1051200040F201111F4803F093FCC9E703681C4AD1
:105130009342C5D0A2F54C429342C1D002F58062A1
:105140009342BDD002F580629342B9D002F58062ED
:105150009342B5D002F544429342B1D0A2F51C422D
:105160009342ADD002F580629342A9D040F205117E
:105170000C4803F06DFCA3E740F20711094803F067
:1051800067FCA2E74FF48471064803F061FCA1E7D5
:1051900084F83830204604F04FF89FE7012070472C
:1051A00000100140A4CF00082DE9F04182B01E4656
:1051B00090F83930DBB2202B55D104460D4690468D
:1051C000002955D0002A55D090F83830012B53D003
:1051D000012380F838300023C363212380F839305D
:1051E00000F0FAFC0746A4F82480A4F8268010E01A
:1051F00000963B46002280212046FFF707FF00284B
:105200003CD12B882268C3F3080353602369C3B9D8
:105210000235E38C9BB2B3B1E38C013B9BB2E384D8
:10522000A368B3F5805FE3D000963B46002280215F
:105230002046FFF7EBFE18BB2A7823685A60013539
:10524000E7E70135E5E700963B460022402120468E
:10525000FFF7DCFE0346A8B9202284F8392000229B
:1052600084F8382000E00223184602B0BDE8F0813F
:105270000123F9E70123F7E70223F5E70323F3E727
:105280000323F1E70323EFE70C4B1B680C4AA2FB57
:1052900003235A0A41F2883303FB02F35A1E4BB12F
:1052A000416B134611F0800FF8D040F2FF53836337
:1052B000002070474FF00040704700BF10000020F2
:1052C000D34D6210144B1B68144AA2FB03235A0AE5
:1052D00041F2883303FB02F35A1ECBB1416B1346F4
:1052E00011F0450FF8D0436B13F0040F08D1436B56
:1052F00013F0010F08D140F2FF5383630020704781
:10530000042383631846704701238363184670475C
:105310004FF00040704700BF10000020D34D6210D6
:10532000104B1B68104AA2FB03235A0A41F2883330
:1053300003FB02F35A1E8BB1416B134611F0450F6C
:10534000F8D0436B13F0040F04D140F2FF53836392
:105350000020704704238363184670474FF00040D5
:10536000704700BF10000020D34D6210124B1B6825
:10537000124AA2FB03235A0A41F2883303FB02F3C9
:105380005A1EA3B1416B134611F0450FF8D0436B81
:1053900013F0040F07D1436B13F0400F0AD04023E2
:1053A00083630020704740238363042070474FF0DD
:1053B000004070470020704710000020D34D62105D
:1053C00084B02DE9F047064609A880E80E00304B6E
:1053D0009E4203D0ED212F4803F03AFBDDF82490E4
:1053E000B9F1000F02D0B9F5005F33D1DDF828A084
:1053F000BAF1000F02D0BAF5806F30D1DDF82C8001
:10540000B8F1000F02D0B8F5007F2DD10C9D2DB161
:10541000B5F5006F02D0B5F5805F2AD10D9F17B1A9
:10542000B7F5804F2AD10E9CFF2C2CD849EA0A09E7
:1054300048EA090845EA08053D432C43736823F40C
:10544000FD4323F07F031C4374600020BDE8F04758
:1054500004B07047EE210F4803F0FAFAC6E7EF21D7
:105460000C4803F0F5FAC9E7F0210A4803F0F0FA16
:10547000CCE7F121074803F0EBFACFE7F22105482A
:1054800003F0E6FACFE7F321024803F0E1FACDE7B3
:10549000002C0140E0CF0008D0F8800070470B6876
:1054A000C0F880300020704703230360002070475D
:1054B000006800F00300704738B505460C464B689D
:1054C0003F2B29D8A3681BB1402B01D0C02B29D179
:1054D000E3682BB1B3F5807F02D0B3F5007F27D10D
:1054E00023693BB1B3F5806F04D04FF4BE7113480C
:1054F00003F0AEFA2368AB606368A2681343E26806
:10550000134322691343EA6822F47F6222F00F02F8
:105510001343EB60002038BD40F27911074803F0D7
:1055200097FACFE74FF4BD71044803F091FACFE743
:1055300040F27B11014803F08BFAD1E7E0CF00087D
:105540000069C0B27047000030B583B00446002344
:1055500001930D4651B1042908D0082906D00C2921
:1055600004D04FF4D471054803F072FA14342C447B
:105570000194019B186803B030BD00BFE0CF000864
:1055800038B5514B1B68514CA4FB03435B0A02FB2B
:1055900003F2531E002A5ED0446B1A4614F0450FE6
:1055A000F7D0436B13F0040F07D1436B13F0010FD7
:1055B00007D00123836318464FE004238363184612
:1055C0004BE00D460446FFF7BBFFA84201D0012087
:1055D00043E040F2FF53A36300212046FFF7B4FFEE
:1055E0003B4B0340D3B300283ADB10F0804F3AD155
:1055F00010F0005F39D110F0805F38D110F0006FEB
:1056000038D110F0806F38D110F0807F38D110F48D
:10561000000F38D110F4800F38D110F4001F38D1AA
:1056200010F4801F38D110F4802F38D110F4003FCF
:1056300038D110F4803F38D110F4004F38D110F435
:10564000804F38D110F4005F38D110F0080F38D0F7
:105650004FF4000001E04FF0004038BD0020FCE7AF
:105660004FF00070F9E74020F7E78020F5E74FF4AE
:105670008070F2E74FF40070EFE74FF48060ECE7E2
:105680004FF40060E9E74FF48050E6E74FF4005034
:10569000E3E74FF48040E0E74FF40040DDE74FF4EC
:1056A0000030DAE74FF48020D7E74FF40020D4E74A
:1056B0004FF48010D1E74FF40010CEE74FF4800094
:1056C000CBE74FF48030C8E710000020D34D6210C4
:1056D00008E0FFFD70B5254B1B68254CA4FB034378
:1056E0005C0A41F2883303FB04F35C1EA3B3456BF1
:1056F000234615F0450FF8D0436B13F0040F07D184
:10570000436B13F0010F07D001238363184625E094
:1057100004238363184621E016460D460446FFF72E
:105720000FFFA84201D0012018E040F2FF53A3630D
:1057300000212046FFF708FF10F4604F08D010F456
:10574000804F0CD110F4004F0CD04FF4805005E086
:10575000000C3080002001E04FF0004070BD4FF49D
:105760000050FBE74FF48030F8E700BF1000002046
:10577000D34D621038B505460C464B68B3F1007F37
:105780003FD2A368DBB1102B19D0202B17D0302BC0
:1057900015D0402B13D0502B11D0602B0FD0702B75
:1057A0000DD0802B0BD0902B09D0A02B07D0B02B85
:1057B00005D0C02B03D0D02B01D0E02B27D1E3683C
:1057C0000BB1022B29D123690BB1042B2BD16369B7
:1057D000012B04D940F2C111164803F039F92368AE
:1057E0006B626368AB62A368E26813432269134388
:1057F00062691343EA6A22F0F7021343EB62002066
:1058000038BD40F2BD110B4803F022F9B9E74FF45F
:10581000DF71084803F01CF9D1E740F2BF110548D9
:1058200003F016F9CFE74FF4E071024803F010F9E6
:10583000CDE700BFE0CF000830B587B00546019145
:105840001024029440230393002304934FF48063B5
:10585000059301A9FFF730FE41F288322146284620
:10586000FFF78EFE07B030BD30B587B00546019119
:105870001124029440230393002304934FF4806384
:10588000059301A9FFF718FE41F288322146284608
:10589000FFF776FE07B030BD30B587B00546019101
:1058A0001224029440230393002304934FF4806353
:1058B000059301A9FFF700FE41F2883221462846F0
:1058C000FFF75EFE07B030BD30B587B005460191E9
:1058D0001824029440230393002304934FF480631D
:1058E000059301A9FFF7E8FD41F2883221462846D9
:1058F000FFF746FE07B030BD30B587B005460191D1
:105900001924029440230393002304934FF48063EB
:10591000059301A9FFF7D0FD41F2883221462846C0
:10592000FFF72EFE07B030BD30B587B00546002327
:1059300001930C2402944022039204934FF4806359
:10594000059301A9FFF7B8FD034A21462846FFF752
:1059500017FE07B030BD00BF00E1F50530B587B0D8
:1059600005460192072402944023039300230493E5
:105970004FF48063059301A9FFF79EFD41F2883241
:1059800021462846FFF7FCFD07B030BD10B586B0B4
:105990000446002301930293039304934FF480631E
:1059A000059301A9FFF788FD2046FFF76DFC06B0BF
:1059B00010BD10B586B004464FF4D573019308238B
:1059C000029340230393002304934FF480630593D1
:1059D00001A9FFF771FD2046FFF7C8FC06B010BD16
:1059E00030B587B0054601913724029440230393D4
:1059F000002304934FF48063059301A9FFF75CFD36
:105A000041F2883221462846FFF7BAFD07B030BD83
:105A100010B586B0044641F0004141F48011019177
:105A20002923029340230393002304934FF48063BC
:105A3000059301A9FFF740FD2046FFF771FC06B072
:105A400010BD30B587B0054601910624029440236D
:105A50000393002304934FF48063059301A9FFF798
:105A60002BFD41F2883221462846FFF789FD07B019
:105A700030BD30B587B0054600230193332402942E
:105A80004022039204934FF48063059301A9FFF72A
:105A900013FD41F2883221462846FFF771FD07B019
:105AA00030BD10B586B00446002301930222029255
:105AB000C022039204934FF48063059301A9FFF77A
:105AC000FBFC2046FFF7FEFB06B010BD10B586B00C
:105AD0000446019109230293C023039300230493F6
