:020000040800F2
:100000000000032059AE00087DA500087FA5000868
:1000100081A5000883A5000885A500080000000050
:10002000000000000000000000000000E164000883
:1000300087A50008000000008165000889A5000868
:10004000A9AE0008A9AE0008A9AE0008A9AE000834
:10005000A9AE0008A9AE0008A9AE0008A9AE000824
:10006000A9AE0008A9AE0008A9AE0008A9AE000814
:1000700095A50008A9AE0008A5A50008A9AE00082E
:10008000B5A50008C5A5000845A60008A9AE00084A
:10009000A9AE0008A9AE0008A9AE0008A9AE0008E4
:1000A000A9AE0008A9AE0008A9AE0008A9AE0008D4
:1000B000A9AE0008A9AE0008A9AE0008A9AE0008C4
:1000C000A9AE0008A9AE0008A9AE0008A9AE0008B4
:1000D000A9AE0008A9AE00083DA70008A9AE000817
:1000E000A9AE0008A9AE0008A9AE0008A9AE000894
:1000F000A9AE0008A9AE0008A9AE0008A9AE000884
:10010000A9AE0008D5A50008A9AE0008A9AE000850
:10011000A9AE0008A9AE0008A9AE0008A9AE000863
:10012000A9AE0008E5A50008F5A5000805A6000889
:10013000A9AE000815A60008A9AE0008A9AE0008DF
:10014000A9AE0008A9AE0008A9AE0008A9AE000833
:10015000A9AE000825A6000835A60008A9AE00082B
:10016000A9AE0008A9AE0008A9AE0008A9AE000813
:10017000A9AE0008A9AE0008A9AE00080000000062
:10018000A9AE0008A9AE0008A9AE0008A9AE0008F3
:10019000A9AE0008A9AE0008A9AE0008A9AE0008E3
:0C01A0000000000000000000A9AE0008F4
:1001B00010B5054C237833B9044B13B10448AFF3A1
:1001C00000800123237010BDB40000200000000057
:1001D0002CC200080C4B43B10C480D4910B5AFF3CD
:1001E00000800C48036823B910BD0A48036833B97E
:1001F0007047094B002BF7D0BDE810401847064B5D
:10020000002BF5D0184700BF000000002CC20008EA
:10021000B8000020B40000200000000081F0004180
:1002200002E000BF83F0004330B54FEA41044FEADB
:10023000430594EA050F08BF90EA020F1FBF54EA76
:10024000000C55EA020C7FEA645C7FEA655C00F012
:10025000E2804FEA5454D4EB5555B8BF6D420CDDE3
:100260002C4480EA020281EA030382EA000083EA66
:10027000010180EA020281EA0303362D88BF30BD06
:1002800011F0004F4FEA01314FF4801C4CEA11315C
:1002900002D0404261EB410113F0004F4FEA0333BB
:1002A0004CEA133302D0524263EB430394EA050F46
:1002B00000F0A780A4F10104D5F1200E0DDB02FAB5
:1002C0000EFC22FA05F2801841F1000103FA0EF249
:1002D000801843FA05F359410EE0A5F120050EF10F
:1002E000200E012A03FA0EFC28BF4CF0020C43FA40
:1002F00005F3C01851EBE37101F0004507D54FF04D
:10030000000EDCF1000C7EEB00006EEB0101B1F59C
:10031000801F1BD3B1F5001F0CD349085FEA3000E2
:100320004FEA3C0C04F101044FEA445212F5800FED
:1003300080F09A80BCF1004F08BF5FEA500C50F18A
:10034000000041EB045141EA050130BD5FEA4C0C6D
:10035000404141EB010111F4801FA4F10104E9D1F6
:1003600091F0000F04BF01460020B1FA81F308BFED
:100370002033A3F10B03B3F120020CDA0C3208DDB9
:1003800002F1140CC2F10C0201FA0CF021FA02F194
:100390000CE002F11402D8BFC2F1200C01FA02F104
:1003A00020FA0CFCDCBF41EA0C019040E41AA2BF29
:1003B00001EB0451294330BD6FEA04041F3C1CDAF1
:1003C0000C340EDC04F11404C4F1200220FA04F011
:1003D00001FA02F340EA030021FA04F345EA0301BB
:1003E00030BDC4F10C04C4F1200220FA02F001FA7D
:1003F00004F340EA0300294630BD21FA04F02946FF
:1004000030BD94F0000F83F4801306BF81F4801197
:100410000134013D4EE77FEA645C18BF7FEA655C0A
:1004200029D094EA050F08BF90EA020F05D054EADC
:10043000000C04BF1946104630BD91EA030F1EBFE1
:100440000021002030BD5FEA545C05D140004941E5
:1004500028BF41F0004130BD14F580043CBF01F5D8
:10046000801130BD01F0004545F0FE4141F47001BE
:100470004FF0000030BD7FEA645C1ABF1946104699
:100480007FEA655C1CBF0B46024650EA013406BF9A
:1004900052EA033591EA030F41F4002130BD00BF59
:1004A00090F0000F04BF0021704730B54FF4806416
:1004B00004F132044FF000054FF0000150E700BF97
:1004C00090F0000F04BF0021704730B54FF48064F6
:1004D00004F1320410F0004548BF40424FF00001E3
:1004E0003EE700BF42004FEAE2014FEA31014FEA26
:1004F00002701FBF12F07F4393F07F4F81F0605175
:10050000704792F0000F14BF93F07F4F704730B5E3
:100510004FF4607401F0004521F0004120E700BF76
:1005200050EA010208BF704730B54FF000050AE0FD
:1005300050EA010208BF704730B511F0004502D5FE
:10054000404261EB41014FF4806404F132045FEA00
:10055000915C3FF4DCAE4FF003025FEADC0C18BFA5
:1005600003325FEADC0C18BF033202EBDC02C2F19B
:10057000200300FA03FC20FA02F001FA03FE40EA2D
:100580000E0021FA02F11444C1E600BF70B54FF02D
:10059000FF0C4CF4E06C1CEA11541DBF1CEA13550F
:1005A00094EA0C0F95EA0C0F00F0DEF82C4481EA77
:1005B000030621EA4C5123EA4C5350EA013518BF97
:1005C00052EA033541F4801143F4801338D0A0FB84
:1005D00002CE4FF00005E1FB02E506F00042E0FB31
:1005E00003E54FF00006E1FB03569CF0000F18BF37
:1005F0004EF0010EA4F1FF04B6F5007F64F54074DF
:1006000004D25FEA4E0E6D4146EB060642EAC62171
:1006100041EA55514FEAC52040EA5E504FEACE2EDE
:10062000B4F1FD0C88BFBCF5E06F1ED8BEF1004FE1
:1006300008BF5FEA500E50F1000041EB045170BD5D
:1006400006F0004646EA010140EA020081EA0301A1
:10065000B4EB5C04C2BFD4EB0C0541EA045170BD9D
:1006600041F480114FF0000E013C00F3AB8014F117
:10067000360FDEBF002001F0004170BDC4F1000460
:10068000203C35DA0C341BDC04F11404C4F12005E1
:1006900000FA05F320FA04F001FA05F240EA02003C
:1006A00001F0004221F0004110EBD37021FA04F672
:1006B00042EB06015EEA430E08BF20EAD37070BD2C
:1006C000C4F10C04C4F1200500FA04F320FA05F08B
:1006D00001FA04F240EA020001F0004110EBD3708D
:1006E00041F100015EEA430E08BF20EAD37070BDFD
:1006F000C4F1200500FA05F24EEA020E20FA04F3D6
:1007000001FA05F243EA020321FA04F001F0004184
:1007100021FA04F220EA020000EBD3705EEA430EF5
:1007200008BF20EAD37070BD94F0000F0FD101F024
:100730000046400041EB010111F4801F08BF013C5D
:10074000F7D041EA060195F0000F18BF704703F09B
:100750000046520043EB030313F4801F08BF013D22
:10076000F7D043EA0603704794EA0C0F0CEA1355DE
:1007700018BF95EA0C0F0CD050EA410618BF52EA98
:100780004306D1D181EA030101F000414FF000009E
:1007900070BD50EA410606BF1046194652EA4306AC
:1007A00019D094EA0C0F02D150EA013613D195EA20
:1007B0000C0F05D152EA03361CBF104619460AD168
:1007C00081EA030101F0004141F0FE4141F4700172
:1007D0004FF0000070BD41F0FE4141F4780170BD62
:1007E00070B54FF0FF0C4CF4E06C1CEA11541DBFC7
:1007F0001CEA135594EA0C0F95EA0C0F00F0A7F8C9
:10080000A4EB050481EA030E52EA03354FEA0131F5
:1008100000F088804FEA03334FF0805545EA131308
:1008200043EA12634FEA022245EA111545EA1065D0
:100830004FEA00260EF000419D4208BF964244F167
:10084000FD0404F5407402D25B084FEA3202B61A86
:1008500065EB03055B084FEA32024FF480104FF45A
:10086000002CB6EB020E75EB030E22BFB61A7546CE
:1008700040EA0C005B084FEA3202B6EB020E75EB61
:10088000030E22BFB61A754640EA5C005B084FEAC9
:100890003202B6EB020E75EB030E22BFB61A754696
:1008A00040EA9C005B084FEA3202B6EB020E75EBA1
:1008B000030E22BFB61A754640EADC0055EA060E62
:1008C00018D04FEA051545EA16754FEA06164FEAA5
:1008D000C30343EA52734FEAC2025FEA1C1CC0D151
:1008E00011F4801F0BD141EA00014FF000004FF0DE
:1008F000004CB6E711F4801F04BF01430020B4F19F
:10090000FD0C88BFBCF5E06F3FF6AFAEB5EB030C56
:1009100004BFB6EB020C5FEA500C50F1000041EB53
:10092000045170BD0EF0004E4EEA113114EB5C0420
:10093000C2BFD4EB0C0541EA045170BD41F48011F3
:100940004FF0000E013C90E645EA060E8DE60CEAFB
:10095000135594EA0C0F08BF95EA0C0F3FF43BAF18
:1009600094EA0C0F0AD150EA01347FF434AF95EACF
:100970000C0F7FF425AF104619462CE795EA0C0FB3
:1009800006D152EA03353FF4FDAE1046194622E780
:1009900050EA410618BF52EA43067FF4C5AE50EA5A
:1009A00041047FF40DAF52EA43057FF4EBAE12E74A
:1009B0004FF0FF3C06E000BF4FF0010C02E000BF2B
:1009C0004FF0010C4DF804CD4FEA410C7FEA6C5C0E
:1009D0004FEA430C18BF7FEA6C5C1BD001B050EAB1
:1009E000410C0CBF52EA430C91EA030F02BF90EA9C
:1009F000020F0020704710F1000F91EA030F58BF5B
:100A0000994208BF90422CBFD8176FEAE37040F0BC
:100A1000010070474FEA410C7FEA6C5C02D150EA5A
:100A2000013C07D14FEA430C7FEA6C5CD6D152EA15
:100A3000033CD3D05DF8040B704700BF84461046DA
:100A400062468C461946634600E000BF01B5FFF7D9
:100A5000B7FF002848BF10F1000F01BD4DF808EDA9
:100A6000FFF7F4FF0CBF012000205DF808FB00BF7A
:100A70004DF808EDFFF7EAFF34BF012000205DF8D4
:100A800008FB00BF4DF808EDFFF7E0FF94BF012021
:100A900000205DF808FB00BF4DF808EDFFF7CEFF22
:100AA00094BF012000205DF808FB00BF4DF808ED61
:100AB000FFF7C4FF34BF012000205DF808FB00BF32
:100AC0004A0011D212F5001211D20DD56FF47873CD
:100AD000B3EB62520ED44FEAC12343F0004343EA22
:100AE000505323FA02F070474FF00000704750EA6D
:100AF000013002D14FF0FF3070474FF000007047D7
:100B00004FEA4102B2F1E04324BFB3F5001CDCF12F
:100B1000FE5C0DD901F0004C4FEAC0024CEA507067
:100B2000B2F1004F40EB830008BF20F00100704796
:100B300011F0804F21D113F13872BCBF01F0004099
:100B4000704741F480114FEA5252C2F11802C2F1CB
:100B5000200C10FA0CF320FA02F018BF40F001004C
:100B60004FEAC1234FEAD32303FA0CFC40EA0C00FE
:100B700023FA02F34FEA4303CCE77FEA625307D13B
:100B800050EA01331EBF4FF0FE4040F44000704772
:100B900001F0004040F0FE4040F40000704700BF0C
:100BA00053B94AB9002908BF00281CBF4FF0FF31D4
:100BB0004FF0FF3000F07AB9ADF1080C6DE904CECA
:100BC00000F006F8DDF804E0DDE9022304B0704728
:100BD0002DE9F0478C460D460446089E002B51D166
:100BE0008A4217466DD9B2FA82FEBEF1000F0BD0D1
:100BF000CEF1200C01FA0EF520FA0CFC02FA0EF7E9
:100C00004CEA050C00FA0EF44FEA174A250CBCFB1F
:100C1000FAF81FFA87F90AFB18CC45EA0C4508FBDD
:100C200009F3AB420AD9ED1908F1FF3280F02381B4
:100C3000AB4240F22081A8F102083D44ED1AA4B273
:100C4000B5FBFAF00AFB105544EA054400FB09F92C
:100C5000A14509D9E41900F1FF3380F00A81A145CB
:100C600040F2078102383C44A4EB090440EA084002
:100C70000021002E61D024FA0EF40023346073604A
:100C8000BDE8F0878B4207D9002E54D0002186E8BA
:100C900021000846BDE8F087B3FA83F1002940F04F
:100CA0008E80AB4202D3824200F2FA80841A65EB56
:100CB00003050120AC46002E3FD086E81010BDE8A9
:100CC000F08712B90127B7FBF2F7B7FA87FEBEF13A
:100CD000000F34D1EB1B3A0C1FFA87FC0121B3FB48
:100CE000F2F8250C02FB183345EA03450CFB08F328
:100CF000AB4207D9ED1908F1FF3002D2AB4200F246
:100D0000D1808046ED1AA3B2B5FBF2F002FB10557C
:100D100043EA05440CFB00FCA44507D9E41900F1A3
:100D2000FF3302D2A44500F2B8801846A4EB0C04AD
:100D300040EA08409DE731463046BDE8F087CEF1F5
:100D4000200405FA0EF307FA0EF720FA04F83A0C1D
:100D500025FA04F448EA0308B4FBF2F14FEA184517
:100D600002FB11441FFA87FC45EA044501FB0CF322
:100D7000AB4200FA0EF409D9ED1901F1FF3080F011
:100D80008A80AB4240F2878002393D44EB1A1FFA59
:100D900088F5B3FBF2F002FB103345EA034500FB94
:100DA0000CF3AB4207D9ED1900F1FF386FD2AB421B
:100DB0006DD902383D44EB1A40EA01418FE7C1F199
:100DC000200722FA07F88B4005FA01F448EA0303EA
:100DD00020FA07FE4FEA134CFD404EEA040EB5FB25
:100DE000FCF94FEA1E440CFB19551FFA83F844EA3C
:100DF000054509FB08F4AC4202FA01F200FA01FAD7
:100E000008D9ED1809F1FF3043D2AC4241D9A9F11C
:100E100002091D442D1B1FFA8EFEB5FBFCF00CFBD6
:100E200010554EEA054400FB08F8A04507D9E41820
:100E300000F1FF3529D2A04527D902381C4440EAE9
:100E40000940A4EB0804A0FB02894C45C6464D4668
:100E500015D312D056B1BAEB0E0364EB050404FAB5
:100E600007F7CB401F43CC40376074600021BDE8DA
:100E7000F0871846F8E69046E0E6C245EAD2B8EBBD
:100E8000020E69EB03050138E4E72846D7E7404640
:100E900091E78146BEE7014678E702383C4445E7E2
:100EA000084608E7A8F102083D442BE7704700BF59
:100EB000034613F8012B002AFBD1181A013870479A
:100EC00001F0FF01102A2BDB10F0070F08D010F8FB
:100ED000013B013A8B422DD010F0070F42B3F6D1FF
:100EE000F0B441EA012141EA014122F007047FF018
:100EF00000070023F0E80256083C85EA010586EA6F
:100F0000010685FA47F5A3FA87F586FA47F6A5FAAA
:100F100087F68EB9EED1F0BC01F0FF0102F00702B6
:100F200032B110F8013B013A83EA010313B1F8D161
:100F30000020704701387047002D06BF3546033842
:100F4000073815F0010F07D1013015F4807F02BF7B
:100F5000013015F4C03F0130F0BC0138704700BFCC
:100F600010B504460E4B18784FF47A73B3FBF0F3C8
:100F70000C4A1068B0FBF3F000F0B8FC68B90F2C15
:100F800001D9012010BD002221464FF0FF3000F0B2
:100F900053FC034B5C60002010BD012010BD00BF5E
:100FA000000000204C00002008B50B4B1A6842F4EA
:100FB00000721A601A6842F480621A601A6842F479
:100FC00080721A60032000F019FC0F20FFF7C8FFA1
:100FD00009F0EEF8002008BD003C0240034A116809
:100FE000034B1B780B441360704700BF2C99002003
:100FF00000000020014B1868704700BF2C990020AA
:1010000038B50446FFF7F6FF0546B4F1FF3F02D0BE
:10101000044B1B781C44FFF7EDFF401B8442FAD8B9
:1010200038BD00BF0000002010B504464E4B5A6882
:1010300022F440325A605A6841680A435A60026892
:10104000536823F48073536002685368016943EA6C
:10105000012353600268536823F0407353600268B1
:10106000536881680B4353600268936823F40063FC
:10107000936002689368C1680B439360826A3B4B3C
:101080009A4259D00268936823F0706393600268B3
:101090009368816A0B4393600268936823F040531E
:1010A000936002689368C16A0B43936022689368F7
:1010B00023F00203936022689368A16943EA410325
:1010C0009360236A002B48D0636A013B072B3ED80C
:1010D0002268536843F4006353602268536823F422
:1010E0006043536021684B68626A013A43EA4233C5
:1010F0004B602268D36A23F47003D3622168CB6A01
:10110000E269013A43EA0253CB622268936823F40E
:101110000073936022689368216B43EA41239360D4
:101120002268936823F480639360226893686169FE
:1011300043EA8123936010BD0268936823F07063D3
:1011400093600268936823F040539360AEE740F2E7
:101150002761074808F024FFBAE72268536823F4A0
:1011600000635360C5E700BF002301400100000F8A
:10117000E08E0108002800F0E18010B50446036805
:101180006F4A93420CD002F58072934208D002F568
:101190008072934204D040F20B116A4808F000FFBD
:1011A00063686BB1B3F5803F0AD0B3F5003F07D059
:1011B000B3F5403F04D04FF48671624808F0F0FE6A
:1011C000A3686BB1B3F1807F0AD0B3F1007F07D081
:1011D000B3F1407F04D040F20D115A4808F0E0FE10
:1011E0002369012B04D94FF48771564808F0D8FEC3
:1011F000A369012B04D940F20F11524808F0D0FE28
:10120000A36AA3B3B3F1807F31D0B3F1007F2ED0B6
:10121000B3F1407F2BD0B3F1806F28D0B3F1A06F32
:1012200025D0B3F1C06F22D0B3F1E06F1FD0B3F17E
:10123000006F1CD0B3F1106F19D0B3F1206F16D02E
:10124000B3F1306F13D0B3F1406F10D0B3F1506FE2
:101250000DD0B3F1606F0AD0B3F1706F07D03A4A86
:10126000934204D04FF48871364808F099FEE36841
:101270003BB1B3F5006F04D040F21111314808F0D2
:101280008FFEE369013B0F2B31D8236B012B04D96F
:1012900040F213112B4808F083FE6369022B2CD80F
:1012A000236A012B04D940F21511264808F078FE74
:1012B000A26A254B9A420FD0E36A6BB1B3F1805F0B
:1012C0000AD0B3F1005F07D0B3F1405F04D040F221
:1012D00019111C4808F064FE236CA3B1236C13F0B1
:1012E000100F17D00120002384F83C3010BD4FF4BC
:1012F0008971144808F054FEC7E74FF48A71114809
:1013000008F04EFECCE7636484F83C30204608F0D9
:1013100099FFE3E7236C23F4885323F0020343F09F
:10132000020323642046FFF77FFE00206064236CE5
:1013300023F0030343F001032364D4E70120704743
:1013400000200140E08E01080100000F10B582B0BE
:101350000446002301938369012B04D940F2E22162
:10136000454808F01DFEE36A6BB1B3F1805F0AD017
:10137000B3F1005F07D0B3F1405F04D040F2E32146
:101380003D4808F00DFE94F83C30012B6AD0012353
:1013900084F83C3023689A6812F0010F13D19A68E0
:1013A00042F001029A60354B1B68354AA2FB0323C9
:1013B0009B0C03EB4303019302E0019B013B019370
:1013C000019B002BF9D12268936813F0010F4CD0D8
:1013D000236C23F4E06323F0010343F4807323645C
:1013E000536813F4806F05D0236C23F4405343F407
:1013F00080532364236C13F4805F20D0636C23F04C
:1014000006036364002384F83C306FF0220313600A
:101410002268536843F0806343F020035360194B04
:101420005B6813F01F0F0DD123689A6812F0405FBC
:101430001DD19A6842F080429A60002013E0002398
:101440006364DFE72368104A934201D000200AE07A
:101450009A6812F0405F0CD19A6842F080429A601C
:10146000002000E0022002B010BD0020FBE70020B9
:10147000F9E70020F7E700BFE08E01084C000020EC
:1014800083DE1B4300230140002001400368D86C29
:10149000704770477047000038B504468369012BD8
:1014A00004D940F273315E4808F07AFDE369013BEC
:1014B0000F2B00F290806369022B00F29280226869
:1014C0001168536803F0200311F0020F2DD063B3AD
:1014D000236C13F0100F03D1236C43F400732364C7
:1014E000936813F0405F19D1A369BBB9D36A13F4B1
:1014F000700F03D0936813F4806F0FD1536823F0FB
:1015000020035360236C23F480732364236C13F44F
:10151000805F03D1236C43F001032364204607F06E
:1015200003FD23686FF012021A60236819685A6875
:1015300002F0800211F0040F36D0002A34D0226C61
:1015400012F0100F03D1226C42F4005222649A6808
:1015500012F4401F21D19A6B12F4401F03D09A68F5
:1015600012F4806F19D15A6812F4806F15D19A68FD
:1015700012F0405F11D1A2697AB95A6822F0800254
:101580005A60236C23F480532364236C13F4807F0C
:1015900003D1236C43F001032364204600F02CF9AF
:1015A00023686FF00C021A6022681168536803F018
:1015B000400311F0010F04D01BB1136813F0010FA9
:1015C00015D122681168536803F0806311F0200F71
:1015D00000D0C3B938BD4FF45D71114808F0E0FC8C
:1015E00069E740F275310E4808F0DAFC67E7236CD2
:1015F00043F4803323642046FFF74BFF23686FF0EA
:1016000001021A60DDE7636C43F0020363646FF06C
:10161000200515602046FFF73DFF23681D60D9E7D0
:10162000E08E010830B583B005460C4600230193D7
:101630000B68122B07D96A4A934204D040F2155125
:10164000684808F0ADFC6368013B0F2B4AD8A368DB
:10165000072B4DD895F83C30012B00F0BF800123BB
:1016600085F83C302368092B48D92868C2689BB2AA
:1016700003EB43031E3B072101FA03F322EA0303B2
:10168000C3602868C268A168238803EB43031E3B3C
:1016900001FA03F31343C3606368062B44D8286838
:1016A000426B03EB8303053B1F2101FA03F322EA9C
:1016B000030343632868426B636803EB8303053BC2
:1016C000218801FA03F3134343632A68464B9A4285
:1016D0005AD02A68444B9A425FD0002085F83C00DB
:1016E00003B030BD40F216513E4808F059FCAEE759
:1016F00040F217513B4808F053FCABE728680269F9
:101700009BB203EB4303072101FA03F322EA03032D
:10171000036128680269A168238803EB430301FA87
:1017200003F313430361B7E70C2B16D82868026B49
:1017300003EB8303233B1F2101FA03F322EA030394
:1017400003632868026B636803EB8303233B2188F0
:1017500001FA03F313430363B7E72868C26A03EB94
:101760008303413B1F2101FA03F322EA0303C3620F
:101770002868C26A636803EB8303413B218801FA4E
:1017800003F31343C362A0E72368122BA1D1174AC6
:10179000536843F4800353609BE72368104A9342E5
:1017A00001D0112B99D1114A536843F400035360BF
:1017B00022680B4B9A4290D10D4B1B680D4AA2FB3D
:1017C00003239B0C03EB83035A00019202E0019B6D
:1017D000013B0193019B002BF9D17EE702207FE7BB
:1017E00012000010E08E010800200140002301409B
:1017F0004C00002083DE1B437047000010B50446F8
:10180000C31E042B0FD80A4AD36823F4E0631B04D9
:101810001B0C240204F4E064234343F0BF6343F44D
:101820000033D36010BDA221024808F0B9FBEAE7FB
:1018300000ED00E0188F010870B505460C4616460D
:101840000F2A24D80F2C27D81A4BDB68C3F30223A6
:10185000C3F10702042A28BF0422191D062920D932
:10186000033B012101FA02F2013A14409C4001FAC3
:1018700003F3013B33401C43002D14DB2401E4B28D
:1018800005F1604505F5614585F8004370BDBA2155
:10189000094808F085FBD5E7BB21074808F080FB25
:1018A000D2E70023DDE705F00F052401E4B2034B86
:1018B0005C5570BD00ED00E0188F010814ED00E0EC
:1018C00010B5041E09DB620904F01F04012303FAAA
:1018D00004F4044B43F8224010BDCE21024808F026
:1018E0005FFBF0E700E100E0188F01080138B0F17C
:1018F000807F0AD2064B5860F021064A82F82310F6
:101900000020986007221A6070470120704700BFCE
:1019100010E000E000ED00E010B50446042800D01F
:1019200038B9042C0BD0094A136823F00403136060
:1019300010BD40F2D911064808F032FBF1E7034A26
:10194000136843F00403136010BD00BF10E000E013
:10195000188F010890F83530DBB2022B03D08023BA
:10196000436501207047052380F83530026813680D
:1019700023F001031360002070470000F0B583B02E
:10198000044600230193724B1D68724BA3FB05357F
:10199000AD0A876D3E68C26D082393401E4210D089
:1019A00003681A6812F0040F0BD01A6822F00402C0
:1019B0001A60C26D08239340BB60436D43F001037E
:1019C0004365E26D012393401E4209D022685269AB
:1019D00012F0800F04D0BB60636D43F002036365B7
:1019E000E26D042393401E4209D02268126812F06F
:1019F000020F04D0BB60636D43F004036365E26DC6
:101A0000102393401E4224D02268126812F0080F5F
:101A10001FD0BB6023681A6812F4802F0DD01B689A
:101A200013F4002F04D1236C9BB12046984710E09B
:101A3000A36C73B1204698470BE01A6812F4807FBC
:101A400003D11A6822F008021A60236C0BB12046F9
:101A50009847E26D202393401E4255D022681268B9
:101A600012F0100F50D0BB6094F83530DBB2052B6C
:101A70000ED023681A6812F4802F33D01B6813F439
:101A8000002F2AD1636C002B3ED0204698473BE0C4
:101A90002268136823F0160313602268536923F049
:101AA00080035361236CA3B12268136823F00803F9
:101AB0001360E26D3F239340BB60002384F8343011
:101AC000012384F83530236D002B3FD02046984702
:101AD0003CE0A36C002BE7D1EBE7E36BA3B120461E
:101AE000984711E01A6812F4807F09D11A6822F031
:101AF00010021A60002384F83430012384F8353052
:101B0000E36B0BB120469847636DFBB1636D13F037
:101B1000010F17D0052384F835302268136823F0AD
:101B200001031360019B013301939D4204D3236899
:101B30001B6813F0010FF5D1002384F83430012322
:101B400084F83530E36C0BB12046984703B0F0BD04
:101B50004C000020B5814E1B7047704710B50446FD
:101B6000036841F214029A5812F0400F11D141F269
:101B700014029B5813F0010F19D1226841F214038B
:101B80004FF48031D1502268D35813F4004F1BD149
:101B900010BD04F0F9FF2268402141F21403D15036
:101BA000012384F84430002384F84530E5E7FFF74B
:101BB000D3FF2168012341F214028B5084F8443092
:101BC000002384F84530D8E72046FFF7C6FF226897
:101BD0004FF4004141F21403D150012384F8443002
:101BE000002384F84530D3E7274BDB6813F0100F50
:101BF00007D0264AD36943F01003D3611022224B49
:101C0000DA60214BDB6813F0200F07D01F4AD3693D
:101C100043F00803D36120221B4BDA601A4BDB68C8
:101C200013F0400F07D0194AD36943F00403D3617E
:101C30004022154BDA60144BDB6813F0800F07D09D
:101C4000124AD36943F00203D36180220E4BDA605B
:101C50000D4BDB6813F4807F08D00C4AD36943F046
:101C60000103D3614FF48072074BDA60064BDB68E7
:101C700013F0020F07D0054AD36943F02003D36164
:101C80000222014BDA607047003C0240309900208C
:101C900038B504460D4600F17843B3F5001F06D36E
:101CA00000F1604303F50843B3F5047F0CD2094B00
:101CB0001A6922F440721A611A691A611A6942F0AB
:101CC00001021A61257038BD40F2C521024808F0B2
:101CD00067F9ECE7003C0240548F010838B5044630
:101CE0000D4600F17843B3F5001F06D300F16043C1
:101CF00003F50843B3F5047F0ED20A4B1A6922F4A8
:101D000040721A611A6942F480721A611A6942F0CB
:101D100001021A61258038BD4FF42B71024808F08A
:101D20003FF9EAE7003C0240548F010838B5044609
:101D30000D4600F17843B3F5001F06D300F1604370
:101D400003F50843B3F5047F0ED20A4B1A6922F457
:101D500040721A611A6942F400721A611A6942F0FB
:101D600001021A61256038BD40F29321024808F053
:101D700017F9EAE7003C0240548F010870B50446A9
:101D800016461D4600F17843B3F5001F06D300F157
:101D9000604303F50843B3F5047F0FD20A4B1A6979
:101DA00022F440721A611A6942F440721A611A6987
:101DB00042F001021A612660656070BD40F2772131
:101DC000024808F0EDF8E9E7003C0240548F0108B2
:101DD000094B1B69002B01DB00207047064B074AAB
:101DE0005A6002F188325A601B69002B01DB002027
:101DF00070470120704700BF003C02402301674547
:101E000038B504460022154BDA61FFF7F3F80546B2
:101E1000134BDB6813F4803F0AD0B4F1FF3FF7D0D7
:101E2000CCB1FFF7E7F8401B8442F1D2032038BD64
:101E30000B4BDB6813F0010F02D00122084BDA6074
:101E4000074BDB6813F4F97F01D1002038BDFFF7A1
:101E5000CBFE012038BD032038BD00BF30990020E3
:101E6000003C0240F8B5214C247E012C3BD01F469B
:101E700016460D46044601221C4B1A7603281ED82E
:101E80004CF25030FFF7BCFF014698B9E4B1012C89
:101E90001FD0022C22D032463B462846FFF76EFF69
:101EA0004CF25030FFF7ACFF0146114A136923F0A2
:101EB0000103136100220D4B1A760846F8BDB421C8
:101EC0000C4808F06DF8DBE7F1B22846FFF7E0FEBA
:101ED000E6E7B1B22846FFF701FFE1E731462846C1
:101EE000FFF724FFDCE70221E7E700BF309900207D
:101EF000003C0240548F010838B505460C460328C3
:101F000018D8631E022B1BD8174A136923F4407399
:101F10001361032C1AD0012C1FD0134A136943F408
:101F200000431361104B186940EA052040F48030EB
:101F3000186138BD40F231210C4808F031F8E0E773
:101F400040F23221094808F02BF8DDE7136943F429
:101F5000004343F004031361E4E7034A136943F0C9
:101F600004031361DEE700BF003C0240908F0108CC
:101F700038B504460D46172809D8032D0DD8ADB144
:101F8000012D2ED0022D0ED04FF440710FE040F203
:101F90005F21154808F004F8EFE74FF41871124874
:101FA00007F0FEFFEBE74FF4007100E000210B2C7F
:101FB00000D904340D4B1A6922F440721A611A696F
:101FC0000A431A611A6922F0F8021A61186940EA94
:101FD000C40040F0020018611A6942F480321A61AC
:101FE00038BD4FF48071E2E7908F0108003C024059
:101FF000164B1B6813F4007F10D0144B1A6822F4A0
:1020000000721A601A6842F400621A601A6822F4B8
:1020100000621A601A6842F400721A600B4B1B6867
:1020200013F4806F10D0094B1A6822F480621A6092
:102030001A6842F480521A601A6822F480521A60B8
:102040001A6842F480621A60704700BF003C024088
:10205000F8B52D4B1B7E012B53D00E4604460122B2
:10206000294B1A760368934203D9BB21274807F00E
:1020700097FF4CF25030FFF7C3FE074600283BD1D4
:102080004FF0FF3333602368012B1CD0E368A26854
:102090001344013B172B27D8A568E368A2681344B3
:1020A0009D4227D2217C2846FFF762FF4CF2503038
:1020B000FFF7A6FE164A136923F0FA0313610746D9
:1020C000B8B90135E9E76168207CFFF715FF4CF2EC
:1020D0005030FFF795FE07460D4A136923F400437D
:1020E00023F00403136105E0D321084807F058FFEB
:1020F000D2E73560FFF77CFF0022034B1A763846A3
:10210000F8BD0227FBE700BF30990020908F01083F
:10211000003C02402DE9F04782B080460F46BC4BA0
:1021200098422BD003F58063984227D003F5806353
:10213000984223D003F5806398421FD003F5806353
:1021400098421BD003F58063984217D003F5806353
:10215000984213D003F5806398420FD003F5806353
:1021600098420BD003F58063984207D003F5806353
:10217000984203D0C321A74807F012FF3B689AB2E8
:1021800012B11B0C1B041BB1C421A24807F008FFAD
:102190007B68012B22D9112B20D0022B1ED0122BB1
:1021A0001CD09D4A934219D002F58012934215D05B
:1021B00002F58012934211D0A2F5F81293420DD08D
:1021C00002F58012934209D002F58012934205D0A5
:1021D000032B03D0C5218F4807F0E2FEBB68022B1A
:1021E00001D8002575E0C6218A4807F0D9FEF8E736
:1021F0003B69FBB1092B1DD0012B1BD0022B19D041
:10220000032B17D0042B15D0052B13D0062B11D080
:10221000072B0FD0082B0DD00A2B0BD00B2B09D07E
:102220000C2B07D00D2B05D00F2B03D0D7217948CD
:1022300007F0B6FEE908083158F8213005F007022A
:1022400092000F20904023EA0003386900FA02F25E
:10225000134348F821304CE0EA216E4807F0A0FE15
:1022600063E0092100E00021A1400A4302336B49E9
:1022700041F823206A4B1A686FEA090302EA030156
:10228000786810F4803F01D049EA0201644A116085
:10229000526803EA0201786810F4003F01D049EA6D
:1022A00002015F4A5160926803EA0201786810F403
:1022B000801F01D049EA0201594A9160D268134057
:1022C000796811F4001F01D049EA0203544AD3602F
:1022D00001350F2D00F2AA800124AC403B6804EACE
:1022E00003094C45F4D17B68022B81D0122B3FF4BB
:1022F0007FAFD8F800304FEA450A032606FA0AF6FF
:10230000F64333407A6802F0030202FA0AF21343FA
:10231000C8F800307B685A1E012A03D9112B01D05E
:10232000122B16D1FB68032B96D8D8F8083033400F
:10233000FA6802FA0AF21343C8F80830D8F80430F1
:1023400023EA04047B68C3F30013AB401C43C8F8C2
:102350000440D8F80C301E40BB6803FA0AF31E4351
:10236000C8F80C607B6813F0805FB1D00023019344
:102370002C4B5A6C42F480425A645B6C03F48043E9
:102380000193019BAB08991C244A52F8212005F0C7
:1023900003018C000F21A14022EA01021C48804564
:1023A0003FF461AF2049884522D001F5806188451E
:1023B00020D001F5806188451ED001F580618845F7
:1023C0001CD001F5806188451AD001F580618845EF
:1023D00018D001F58061884516D001F580618845E7
:1023E00014D001F5806188453FF43BAF0A213BE7FB
:1023F000012139E7022137E7032135E7042133E7DB
:10240000052131E706212FE707212DE708212BE7DA
:1024100000000240D08F0108000011100038014078
:10242000003C0140003802400004024002B0BDE818
:10243000F08700BF38B505460C4621B12B691C4218
:1024400007D1002038BD4FF4C771034807F0A8FD3D
:10245000F4E7012038BD00BFD08F010870B50646F3
:1024600015460C4651B1012D04D94FF4D8710748D7
:1024700007F096FD45B92404B46170BD40F2AF1178
:10248000024807F08DFDEEE7B46170BDD08F010802
:1024900000283AD038B5044602681D4B9A4203D052
:1024A000AD211C4807F07CFD6368062B1ED8A3688D
:1024B000B3F5805F1FD223684CF6CC421A602368C4
:1024C00045F255521A60236862685A602368A26810
:1024D0009A60FEF78FFD05462368DA6882B1FEF741
:1024E00089FD401B3028F7D9032038BDAE210948AB
:1024F00007F056FDDBE7AF21064807F051FDDAE7AC
:102500004AF6AA221A60002038BD0120704700BF99
:10251000003000400C90010803684AF6AA221A60B5
:102520000020704710B582B000230193194B1A6C3C
:1025300042F080521A641B6C03F080530193019B9C
:102540000122154B1A60FEF755FD0446134B5B68DC
:1025500013F4803F08D1FEF74DFD001BB0F57A7FE4
:10256000F4D9032002B010BD01220D4B1A60FEF712
:1025700041FD0446094B5B6813F4003F07D1FEF7A9
:1025800039FD001BB0F57A7FF4D90320EAE700207B
:10259000E8E700BF0038024040000E4200700040F3
:1025A00044000E42002800F0358270B582B0044627
:1025B00003680F2B3DD8236813F0010F4CD06368DC
:1025C0004BB1B3F5803F06D0B3F5A02F03D0FD216A
:1025D000A24807F0E5FCA24B9B6803F00C03042B18
:1025E00031D09F4B9B6803F00C03082B26D0636807
:1025F000B3F5803F5FD0B3F5A02F62D0984B1A6837
:1026000022F480321A601A6822F480221A60636809
:10261000002B60D0FEF7EEFC0546914B1B6813F4CF
:10262000003F19D1FEF7E6FC401B6428F5D90320D2
:10263000F5E1F821894807F0B3FCBCE7884B5B68FB
:1026400013F4800FD3D0864B1B6813F4003F03D0E4
:102650006368002B00F0E081236813F0020F66D05E
:10266000E368012B04D940F22F117C4807F098FC55
:1026700023691F2B3ED87A4B9B6813F00C0F44D074
:10268000774B9B6803F00C03082B39D0E368002BD1
:1026900076D00122734B1A60FEF7ACFC0546704BF6
:1026A0001B6813F0020F62D1FEF7A4FC401B022846
:1026B000F5D90320B3E16A4A136843F48033136009
:1026C000A5E7674B1A6842F480221A601A6842F440
:1026D00080321A609BE7FEF78DFC0546604B1B6855
:1026E00013F4003FB8D0FEF785FC401B6428F5D9F1
:1026F000032094E14FF49871584807F051FCBAE771
:10270000574B5B6813F4800FC0D1554B1B6813F017
:10271000020F04D0E368012B01D001207FE1504A71
:10272000136823F0F803216943EAC10313602368A7
:1027300013F0080F48D06369012B04D94FF4B87126
:10274000464807F02DFC636963B30122464B1A60CB
:10275000FEF750FC0546424B5B6F13F0020F33D17E
:10276000FEF748FC401B0228F5D9032057E13C4AFC
:10277000136823F0F803216943EAC1031360D6E725
:102780000022384B1A60FEF735FC0546344B1B68B7
:1027900013F0020FCBD0FEF72DFC401B0228F5D919
:1027A00003203CE10022304B1A60FEF723FC054673
:1027B0002B4B5B6F13F0020F06D0FEF71BFC401B88
:1027C0000228F5D903202AE1236813F0040F00F052
:1027D0008580A368012B06D9052B04D04FF4CE7158
:1027E0001E4807F0DDFB1E4B1B6C13F0805F33D1DE
:1027F000002301931A4B1A6C42F080521A641B6C2E
:1028000003F080530193019B0125184B1B6813F4BF
:10281000807F2DD0A368012B3ED0052B42D0104BDA
:102820001A6F22F001021A671A6F22F004021A6767
:10283000A368002B40D0FEF7DDFB0646084B1B6F5C
:1028400013F0020F49D1FEF7D5FB801B41F288330C
:102850009842F3D90320E2E00025D6E7489001082A
:102860000038024000004742800E4742007000409E
:102870006D4A136843F480731360FEF7BBFB064692
:10288000694B1B6813F4807FC4D1FEF7B3FB801B38
:102890000228F5D90320C2E0644A136F43F0010314
:1028A0001367C5E7614B1A6F42F004021A671A6F8B
:1028B00042F001021A67BBE7FEF79CFB06465B4B42
:1028C0001B6F13F0020F08D0FEF794FB801B41F240
:1028D00088339842F3D90320A1E00DBBA369022BF2
:1028E00024D8A369002B00F09980504A926802F026
:1028F0000C02082A00F09580022B1DD000224C4BC0
:102900001A60FEF777FB0446484B1B6813F0007F04
:102910007ED0FEF76FFB001B0228F5D903207EE076
:10292000424A136C23F080531364D7E740F2DF115F
:10293000404807F035FBD4E7E3693BB1B3F5800FBE
:1029400004D04FF4F4713B4807F02AFB236A3F2B75
:1029500028D8636A323BB3F5BF7F29D8A36A022B1C
:102960000AD0042B08D0062B06D0082B04D040F246
:10297000EB11304807F014FBE36A023B0D2B1DD826
:1029800000222B4B1A60FEF735FB0546274B1B68D0
:1029900013F0007F18D0FEF72DFB401B0228F5D95D
:1029A00003203CE040F2E911224807F0F9FAD0E7B1
:1029B0004FF4F5711F4807F0F3FACFE74FF4F671C3
:1029C0001C4807F0EDFADBE7E369226A1343626A09
:1029D00043EA8213A26A5208013A43EA0243E26AD6
:1029E00043EA0263114A53600122114B1A60FEF759
:1029F00001FB04460D4B1B6813F0007F06D1FEF768
:102A0000F9FA001B0228F5D9032008E0002006E0AF
:102A1000002004E001207047012000E0002002B007
:102A200070BD0120FBE700BF00700040003802408D
:102A30006000474248900108F8B5254B9B6803F0B9
:102A40000C03042B41D0082B01D02248F8BD204BA9
:102A50005A6802F03F025B6813F4800F12D01C4BDF
:102A60005968C1F3881100231B48A1FB0001FEF740
:102A700097F8174B5B68C3F3014301335B00B0FB6E
:102A8000F3F0F8BD124B5B68C3F388131E460027B2
:102A90005C010025E41A65EB0705A90141EA946190
:102AA000A001001B61EB0501CB0043EA5073C40099
:102AB000A01943EB07018B0243EA9053840220469E
:102AC00019460023FEF76CF8D3E70348F8BD00BFB2
:102AD000003802400024F40040787D01002800F016
:102AE000F68070B504460D460368013B0E2B11D8E5
:102AF0000F2D15D8784B1B6803F00F039D4215D995
:102B0000EBB2754A1370136803F00F039D420DD0AA
:102B1000012070BD4FF41471704807F041FAE7E7E7
:102B200040F251216D4807F03BFAE3E7236813F0C8
:102B3000020F2ED013F0040F04D0694A936843F4B7
:102B4000E0539360236813F0080F04D0644A93683D
:102B500043F460439360A368A3B1802B12D0902B01
:102B600010D0A02B0ED0B02B0CD0C02B0AD0D02B65
:102B700008D0E02B06D0F02B04D04FF41D7157483D
:102B800007F00EFA564A936823F0F003A1680B434E
:102B90009360236813F0010F3CD06368032B25D8A2
:102BA0006368012B28D09A1E012A2CD94C4A12683E
:102BB00012F0020F00F08D8049498A6822F003026A
:102BC00013438B60FEF716FA0646454B9B6803F0ED
:102BD0000C036268B3EB820F1CD0FEF70BFA801B6C
:102BE00041F288339842F0D9032070BD40F27B2136
:102BF0003A4807F0D5F9D3E7394A126812F4003F92
:102C0000DAD1012070BD364A126812F0007FD3D1AC
:102C1000012070BD304B1B6803F00F039D4209D2A9
:102C2000EAB22D4B1A701B6803F00F039D4201D0CE
:102C3000012070BD236813F0040F19D0E36883B13D
:102C4000B3F5805F0DD0B3F5A05F0AD0B3F5C05FD8
:102C500007D0B3F5E05F04D040F2B9211F4807F078
:102C60009FF91F4A936823F4E053E1680B43936094
:102C7000236813F0080F1AD0236983B1B3F5805F7E
:102C80000DD0B3F5A05F0AD0B3F5C05F07D0B3F5A0
:102C9000E05F04D04FF43071104807F081F9104A1A
:102CA000936823F46043216943EAC1039360FFF70B
:102CB000C3FE0B4B9B68C3F303130A4AD35CD84093
:102CC000094B18600F20FEF74BF9002070BD012062
:102CD0007047012070BD00BF003C024048900108D1
:102CE00000380240C88E01084C000020014B1868D3
:102CF000704700BF4C00002008B5FFF7F7FF044BFA
:102D00009B68C3F38223034AD35CD84008BD00BF4D
:102D100000380240D88E010808B5FFF7E7FF044BE2
:102D20009B68C3F34233034AD35CD84008BD00BF5D
:102D300000380240D88E010830B583B004460368DD
:102D4000013B7E2B1BD8236813F0030F79D06368F7
:102D5000323BB3F5BF7F18D80022854B1A60FEF7CF
:102D600049F90546834B1B6813F0006F13D0FEF73B
:102D700041F9401B0228F5D9032003B030BD40F6CD
:102D80008B017D4807F00CF9DDE740F695017A48A4
:102D900007F006F9E0E7236813F0010F0BD0A368F2
:102DA000023B052B3BD86268A3681B0743EA8213EA
:102DB000704AC2F88430236813F0020F1DD0E36814
:102DC000023B0D2B31D8E369013B1F2B33D8694AF5
:102DD000D2F884106068E3681B0643EA801301F0B0
:102DE000E0410B43C2F88430D2F88C3023F01F034B
:102DF000E16901390B43C2F88C3001225C4B1A6047
:102E0000FEF7F8F805465B4B1B6813F0006F18D10E
:102E1000FEF7F0F8401B0228F5D90320ADE740F695
:102E2000AB01554807F0BCF8BDE740F6B801524881
:102E300007F0B6F8C7E740F6B9014F4807F0B0F819
:102E4000C5E7236813F00C0F00F09A802369323B2A
:102E5000B3F5BF7F11D80022484B1A60FEF7CAF8BD
:102E60000546444B1B6813F0005F0CD0FEF7C2F818
:102E7000401B0228F5D903207FE740F6DE013E48DB
:102E800007F08EF8E7E7236813F0040F1ED063699C
:102E9000023B0D2B59D8236A013B1F2B5BD8354AC7
:102EA000D2F88810206963691B0643EA801301F099
:102EB000E0410B43C2F88830D2F88C3023F4F85349
:102EC000216A013943EA0123C2F88C30236813F0E8
:102ED000080F28D0A369023B052B42D8636A6BB167
:102EE000B3F5803F0AD0B3F5003F07D0B3F5403FBC
:102EF00004D040F60411204807F052F81D4AD2F8D9
:102F00008830216903F0706343EA8113A16943EAC1
:102F10000173C2F88830D2F88C3023F44033616AF0
:102F20000B43C2F88C300122144B1A60FEF762F892
:102F30000546104B1B6813F0005F21D1FEF75AF8CD
:102F4000401B0228F5D9032017E740F6F3010A4891
:102F500007F026F89FE740F6F401074807F020F84D
:102F60009DE740F60311044807F01AF8B6E700BFE2
:102F700068004742003802408090010870004742D4
:102F8000236813F0200F00F0CD80A36AB3F5807F93
:102F90007ED0B3F5007F7BD0764A934278D002F59D
:102FA0008032934274D002F58032934270D002F5A1
:102FB000803293426CD002F58032934268D002F5A1
:102FC0008032934264D002F58032934260D002F5A1
:102FD000803293425CD002F58032934258D002F5A1
:102FE0008032934254D002F58032934250D002F5A1
:102FF000803293424CD002F58032934248D002F5A1
:103000008032934244D002F58032934240D002F5A0
:10301000803293423CD002F58032934238D002F5A0
:103020008032934234D002F58032934230D002F5A0
:10303000803293422CD002F58032934228D002F5A0
:103040008032934224D002F58032934220D002F5A0
:10305000803293421CD002F58032934218D002F5A0
:103060008032934214D002F58032934210D002F5A0
:10307000803293420CD002F58032934208D002F5A0
:103080008032934204D040F623113B4806F088FF7B
:1030900000230193394B1A6C42F080521A641B6C66
:1030A00003F080530193019B354A136843F4807306
:1030B0001360FDF79FFF0546314B1B6813F4807FBB
:1030C00006D1FDF797FF401B0228F5D9032054E6EF
:1030D0002A4B1B6F13F4407312D0A26A02F44072A1
:1030E00093420DD0254B1A6F22F4407225490120DE
:1030F0000860002008601A671B6F13F0010F1BD1D6
:10310000A36A03F44072B2F5407F26D01B4A93684D
:1031100023F4F813936019490B6FA26AC2F30B02F0
:1031200013430B67236813F0100F21D094F82C2061
:10313000154B1A60002020E6FDF75CFF05460F4B9B
:103140001B6F13F0020FDBD1FDF754FF401B41F260
:1031500088339842F3D903200FE608498A6822F49D
:10316000F81223F0704323F4407313438B60D2E7CB
:10317000002002E6000302008090010800380240AF
:1031800000700040400E4742E011474238B5044607
:103190000268D36823F0A003D360FDF72BFF054638
:1031A0002368DB6813F0200F07D1FDF723FF401BD6
:1031B000B0F57A7FF4D9032038BD002038BD38B58A
:1031C0000368DA6812F0400F01D0002038BD0446D1
:1031D0004FF0FF32DA60FDF70DFF05462368DB682C
:1031E00013F0400F07D1FDF705FF401BB0F57A7FC4
:1031F000F4D9032038BD002038BD000038B50028C0
:1032000000F09A8004464368402B01D0002B6CD11B
:10321000A3687F2B6ED8E368B3F5004F6FD22369A4
:1032200063B1B3F5001F09D0B3F5800F06D0B3F535
:10323000C00F03D0D521414806F0B2FE636933B117
:10324000B3F5801F03D0D6213C4806F0A9FEA36940
:1032500033B1B3F5802F03D0D721384806F0A0FE54
:10326000637F002B50D0022363772368CA225A62FF
:10327000236853225A622046FFF7A1FF0546002823
:1032800047D12268936823F4E00323F0400393605E
:1032900021688A68636820690343606903431343B4
:1032A0008B602368E2681A6122681369A16843EAA7
:1032B000014313612268D36823F08003D36023683D
:1032C0009B6813F0200F2BD02268136C23F480230B
:1032D00013642268136CA1690B4313642368FF22F3
:1032E0005A6201236377284638BDD221134806F07D
:1032F00057FE8DE7D321114806F052FE8BE7D4210B
:103300000E4806F04DFE8AE72377204606F0D2FFEE
:10331000A9E72368FF225A62042363770125E2E7C5
:103320002046FFF733FF0028CED02368FF225A62E1
:10333000042363770125D6E70125D4E7BC90010873
:1033400070B50546866A002405E0286801F039FD5D
:1033500046F824000134072CF7D9AB6A2033AB625E
:10336000002070BD70B50546066A002405E006EB36
:103370008401286801F028FD0134072CF7D92B6A55
:1033800020332B62002070BD70B571B10D4604462C
:10339000016D0904006801F045FE064638B90021B8
:1033A000206801F05DFD286001E04FF000663046C6
:1033B00070BD704710B582B0044602A9002341F8E1
:1033C000043DFFF7E1FF18B10346A26B1343A3636B
:1033D0000198C0F3432002B010BD10B5846B236C7C
:1033E0000BB100232364E36B03B110BD2046FFF74C
:1033F000E1FF0023A363012384F834300538C0B211
:103400009842F2D8206801F0F3FDA36B1843A06343
:10341000A36B1BB92046FFF7CCFFE6E7204603F07D
:10342000C4FA10BD10B5846BE36B0BB10023E363EA
:10343000236C03B110BD2046FFF7BCFF0023A3633C
:10344000012384F834300538C0B29842F2D820689D
:1034500001F0CEFDA36B1843A063A36B1BB92046FC
:10346000FFF7A7FFE6E7204603F09FFA10BD000034
:1034700010B5044603685A6B12F4807F62D04FF493
:1034800080729A630268D36B23F44E7323F00203B5
:10349000D363036B13F0080F2AD0036B13F0020FF2
:1034A00003D1036B13F0200F04D0206801F0A0FDBE
:1034B000034690B9236840F2FF529A63012384F8CF
:1034C0003430236B13F0010F03D1236B13F0020F81
:1034D0000AD0204603F071FA10BDA26B1343A36318
:1034E0002046FFF766FFE5E7204603F062FA10BDCD
:1034F000036B13F0800F0BD0036B13F0200F08D178
:10350000236B13F0010F03D1236B13F0020F0DD0C7
:1035100010BD006801F06CFD03460028F0D0A26BDE
:103520001343A3632046FFF744FFE9E72268D36A09
:1035300023F00803D362012384F83430204603F0DB
:1035400038FA10BD5A6B12F4804F4BD15A6B12F4FB
:10355000004F4DD1596B40F23A221142D8D05A6BEC
:1035600012F0020F03D0826B42F0020282635A6BA8
:1035700012F0080F03D0A26B42F00802A2635A6B4C
:1035800012F0200F03D0A26B42F02002A2635A6B0C
:1035900012F0100F03D0A26B42F01002A2635A6B1C
:1035A00012F4007F03D0A26B42F00802A26340F243
:1035B000FF729A632268D36B23F44E7323F00203E5
:1035C000D363236B13F0800F2ED0236CB3B11C4A4E
:1035D0001A65206CFEF7BEF9002899D0206CFFF721
:1035E000FCFE10BD4FF480429A63FFF7BBFE10BD96
:1035F0004FF400429A63FFF7A3FE10BDE36B53B193
:10360000104A1A65E06BFEF7A5F9002880D0E06B40
:10361000FFF708FF10BD0023A363012384F83430B3
:10362000204603F0C2F910BD236B13F0080F3FF4DE
:103630006FAF012384F834302046FFF7BAFE67E706
:10364000DB3300082534000830B4036A23F001039B
:103650000362036A4468826922F073020D682A4398
:1036600023F002038D682B430F4DA8421AD005F5B5
:103670008065A84214D000255DB123F00803CD6811
:103680002B4323F0040324F440744D692C438D69CB
:103690002C43446082614A684263036230BC7047D5
:1036A0000125E9E70125E7E70000014010B4036ABE
:1036B000046A24F001040462846924F0F00444EAFA
:1036C000021223F00A030B43826103625DF8044B8C
:1036D000704710B4036A23F0100303628469036A1D
:1036E00024F4704444EA023223F0A00343EA0113B5
:1036F000826103625DF8044B7047836823F07003B6
:1037000041F007010B438360704710B4846824F4D0
:103710007F4442EA032319430C4384605DF8044B61
:10372000704700002DE9F04104460E46036A23F479
:1037300080730362056AD0F80480C76927F07307B5
:103740000B681F4325F400758B6845EA0325214B60
:10375000984231D003F5806398422BD000230BB3FD
:10376000F36833B1082B04D041F217311A4806F040
:1037700017FCB369B3F5007F00D0FBB97369B3F5EB
:10378000807F00D003BB25F40065F36845EA03257C
:1037900025F4806528F44058736948EA0318B36932
:1037A00048EA0318C4F80480E7617368E36325629C
:1037B000BDE8F0810123D2E70123D0E741F21831BF
:1037C000054806F0EDFBD9E741F21931024806F051
:1037D000E7FBD8E700000140F49001082DE9F04133
:1037E00004460F46036A23F480530362056AD0F847
:1037F0000480C66926F4E6460B6846EA032625F4EB
:1038000000558B6845EA0335124B984219D003F5F1
:103810008063984213D000234BB17B69B3F5807F5E
:1038200000D083B928F480487B6948EA8318C4F83B
:103830000480E6617B6823642562BDE8F081012392
:10384000EAE70123E8E741F25D31034806F0A8FB0F
:10385000E8E700BF00000140F490010838B590F897
:103860003830012B00F0CD820D460446012380F84C
:103870003830022380F839300B68B3F5805F16D0FA
:10388000B3F5005F13D093B1102B10D0202B0ED0C6
:10389000302B0CD0402B0AD0502B08D0602B06D0F8
:1038A000702B04D040F67771A84806F079FB2268A7
:1038B000936823F47F4323F0770393602B68402BB6
:1038C00000F0F8814AD9702B00F0448100F2A58005
:1038D000502B00F09481602B40F0318123689C4A8A
:1038E00093421FD0B3F1804F1CD0A2F57C4293428B
:1038F00018D002F58062934214D002F580629342A0
:1039000010D002F5784293420CD002F570529342E7
:1039100008D0A2F59432934204D040F6C4718B488B
:1039200006F03EFB6B68B3F5004F09D043B1022BA4
:1039300006D00A2B04D040F6C771844806F030FB4D
:10394000EB680F2B00F2B081EA6869682068FFF726
:10395000C0FE60212068FFF7D0FEF0E0102B00F0E1
:10396000FE812ED9202B00F02382302B40F0E780FF
:103970002368774A93421FD0B3F1804F1CD0A2F541
:103980007C42934218D002F58062934214D002F533
:103990008062934210D002F5784293420CD002F537
:1039A0007052934208D0A2F59432934204D040F66C
:1039B000F271664806F0F4FA30212068FFF79DFEA8
:1039C000BDE0002B40F0BB802368614A93421FD0CA
:1039D000B3F1804F1CD0A2F57C42934218D002F57F
:1039E0008062934214D002F58062934210D002F5B7
:1039F000784293420CD002F57052934208D0A2F55F
:103A00009432934204D04FF47E61504806F0C8FAD5
:103A100000212068FFF771FE91E0B3F5805F4DD083
:103A2000B3F5005F40F08B802368494A934217D07A
:103A3000B3F1804F14D0A2F57C42934210D002F52E
:103A4000806293420CD002F58062934208D002F566
:103A50007842934204D040F6A4713C4806F0A0FAA4
:103A60006B68B3F5004F09D043B1022B06D00A2B87
:103A700004D040F6A671354806F092FAAB686BB1F7
:103A8000B3F5805F0AD0B3F5005F07D0B3F5405FB0
:103A900004D040F6A7712D4806F082FAEB680F2B90
:103AA00000F2A780EB686A68A9682068FFF72DFE1E
:103AB0002268936843F48043936040E02368244A7B
:103AC000934237D0B3F1804F34D0A2F57C42934279
:103AD00030D002F5806293422CD002F5806293428E
:103AE00028D002F58062934224D002F5806293428E
:103AF00020D002F5704293421CD002F570529342DE
:103B000018D002F58062934214D002F5806293428D
:103B100010D0A2F5983293420CD002F58062934205
:103B200008D002F58062934204D040F683710748C2
:103B300006F036FA2268936823F0070393600123A6
:103B400084F83930002084F8380038BDF49001083A
:103B5000000001402368AC4A934217D0B3F1804F74
:103B600014D0A2F57C42934210D002F580629342B9
:103B70000CD002F58062934208D002F5784293425D
:103B800004D040F68C71A14806F00AFA6B68B3F5D0
:103B9000004F09D043B1022B06D00A2B04D040F6C7
:103BA0008E719A4806F0FCF9AB686BB1B3F5805F93
:103BB0000AD0B3F5005F07D0B3F5405F04D040F6FC
:103BC0008F71924806F0ECF9EB680F2B0BD8EB687D
:103BD0006A68A9682068FFF798FD2268936843F037
:103BE00077039360ABE74FF47961884806F0D8F922
:103BF000EDE740F6A871854806F0D2F952E7236850
:103C0000814A93422FD0B3F1804F2CD0A2F57C4251
:103C1000934228D002F58062934224D002F580625C
:103C2000934220D002F5784293421CD002F57052A4
:103C3000934218D002F58062934214D002F580625C
:103C4000934210D0A2F5983293420CD002F58062D4
:103C5000934208D002F58062934204D040F6B671D8
:103C60006A4806F09DF96B68B3F5004F09D043B17F
:103C7000022B06D00A2B04D040F6B971634806F037
:103C80008FF9EB680F2B09D8EA6869682068FFF79D
:103C90000DFD50212068FFF730FD50E740F6BA7166
:103CA0005A4806F07DF9EFE740F6C871574806F02C
:103CB00077F949E62368544A93422FD0B3F1804FF5
:103CC0002CD0A2F57C42934228D002F58062934228
:103CD00024D002F58062934220D002F578429342CC
:103CE0001CD002F57052934218D002F580629342C4
:103CF00014D002F58062934210D0A2F5983293421C
:103D00000CD002F58062934208D002F580629342A3
:103D100004D040F6D2713D4806F042F96B68B3F525
:103D2000004F09D043B1022B06D00A2B04D040F635
:103D3000D571364806F034F9EB680F2B09D8EA68DC
:103D400069682068FFF7B2FC40212068FFF7D5FCC6
:103D5000F5E640F6D6712D4806F022F9EFE7236824
:103D6000294A93421FD0B3F1804F1CD0A2F57C4268
:103D7000934218D002F58062934214D002F580621B
:103D8000934210D002F5784293420CD002F5705263
:103D9000934208D0A2F59432934204D040F6E671E3
:103DA0001A4806F0FDF810212068FFF7A6FCC6E6C9
:103DB0002368154A93421FD0B3F1804F1CD0A2F55F
:103DC0007C42934218D002F58062934214D002F5EF
:103DD0008062934210D002F5784293420CD002F5F3
:103DE0007052934208D0A2F59432934204D040F628
:103DF000EC71064806F0D4F820212068FFF77DFC1E
:103E00009DE6022038BD00BF00000140F49001088B
:103E10000368454A90424AD0B0F1804F49D0A2F59C
:103E20007C42904247D002F58062904245D002F534
:103E30008062904243D002F57842904235D0002211
:103E40001AB123F070034A681343374A90423AD0BC
:103E5000B0F1804F50D0A2F57C4290424ED002F596
:103E6000806290424CD002F5806290424AD002F5C6
:103E70007842904248D002F57052904246D002F506
:103E80008062904244D002F58062904242D0A2F516
:103E90009832904240D002F5806290423ED002F5C6
:103EA000806290420DD000220EE00122C8E701227C
:103EB000C6E70122C4E70122C2E70122C0E70122CE
:103EC000BEE7012200E001221AB123F44073CA6860
:103ED000134303608B68C3620B688362124B984282
:103EE00020D003F5806398421AD000230BB10B69F0
:103EF00003630123436170470122E5E70122E3E701
:103F00000122E1E70122DFE70122DDE70122DBE711
:103F10000122D9E70122D7E70122D5E70122D3E721
:103F20000123E3E70123E1E70000014000286BD013
:103F300010B504460368354A934236D0B3F1804F3A
:103F400033D0A2F57C4293422FD002F58062934297
:103F50002BD002F58062934227D002F58062934213
:103F600023D002F5806293421FD002F57042934243
:103F70001BD002F57052934217D002F58062934233
:103F800013D002F5806293420FD0A2F5983293428B
:103F90000BD002F58062934207D002F58062934213
:103FA00003D0D7211A4805F0FBFFA3685BB1102BA3
:103FB00009D0202B07D0402B05D0602B03D0D8216F
:103FC000134805F0EDFF23694BB1B3F5807F06D0B0
:103FD000B3F5007F03D0D9210D4805F0E1FF94F837
:103FE00039305BB1022384F83930211D2068FFF796
:103FF0000FFF012384F83930002010BD84F83830D9
:10400000204606F065F9EDE7012070470000014009
:10401000F490010800286ED010B504460368374AB2
:10402000934237D0B3F1804F34D0A2F57C42934213
:1040300030D002F5806293422CD002F58062934228
:1040400028D002F58062934224D002F58062934228
:1040500020D002F5704293421CD002F57052934278
:1040600018D002F58062934214D002F58062934228
:1040700010D0A2F5983293420CD002F580629342A0
:1040800008D002F58062934204D040F2F1311C481E
:1040900005F086FFA36863B1102B0AD0202B08D04F
:1040A000402B06D0602B04D040F2F231144805F0CA
:1040B00077FF236953B1B3F5807F07D0B3F5007F55
:1040C00004D040F2F3310E4805F06AFF94F839301D
:1040D0005BB1022384F83930211D2068FFF798FE78
:1040E000012384F83930002010BD84F83830204690
:1040F00006F018F9EDE70120704700BF000001400D
:10410000F49001082DE9F04104460E46036A23F0BD
:1041100010030362056AD0F80480876927F4E64734
:104120000B6847EA032725F020058B6845EA03154D
:10413000164B984227D003F58063984221D0002384
:10414000BBB1F36833B1082B04D041F2052110480C
:1041500005F026FF25F08005F36845EA031525F0F4
:10416000400528F44068736948EA8308B36948EA5F
:104170008308C4F80480A7617368A3632562BDE85F
:10418000F0810123DCE70123DAE700BF00000140F2
:10419000F490010890F83830012B00F0278170B5B9
:1041A00016460D460446012380F8383062B1042AD1
:1041B0000AD0082A08D00C2A06D0182A04D040F6C3
:1041C00048418B4805F0ECFE2B68602B06D0702B25
:1041D00004D040F64941864805F0E2FEAB6833B1B1
:1041E000022B04D040F64A41814805F0D9FE2B69E4
:1041F00033B1042B04D040F64B417D4805F0D0FE8E
:10420000022384F839300C2E4FD8DFE806F0074E31
:104210004E4E554E4E4E8E4E4E4EBE002368754A43
:1042200093422FD0B3F1804F2CD0A2F57C42934221
:1042300028D002F58062934224D002F58062934236
:1042400020D002F5784293421CD002F5705293427E
:1042500018D002F58062934214D002F58062934236
:1042600010D0A2F5983293420CD002F580629342AE
:1042700008D002F58062934204D040F653415C4876
:1042800005F08EFE29462068FFF7DEF92268936963
:1042900043F0080393612268936923F00403936158
:1042A0002268936929690B439361012384F83930AB
:1042B000002084F8380070BD23684E4A93421FD016
:1042C000B3F1804F1CD0A2F57C42934218D002F586
:1042D0008062934214D002F58062934210D002F5BE
:1042E000784293420CD002F57052934208D0A2F566
:1042F0009432934204D040F662413D4805F050FEAE
:1043000029462068FFF7FEFE2268936943F40063A4
:1043100093612268936923F48063936122689369AF
:10432000296943EA01239361BFE72368314A934235
:1043300017D0B3F1804F14D0A2F57C42934210D035
:1043400002F5806293420CD002F58062934208D05D
:1043500002F57842934204D040F67141244805F0BA
:104360001FFE29462068FFF7DDF92268D36943F074
:104370000803D3612268D36923F00403D361226860
:10438000D36929690B43D3618FE72368194A9342A4
:1043900017D0B3F1804F14D0A2F57C42934210D0D5
:1043A00002F5806293420CD002F58062934208D0FD
:1043B00002F57842934204D04FF448610C4805F06E
:1043C000EFFD29462068FFF709FA2268D36943F414
:1043D0000063D3612268D36923F48063D3612268C8
:1043E000D369296943EA0123D3615EE7022070475C
:1043F000F49001080000014070B504460D461646D1
:10440000264B98422FD0B0F1804F2CD0A3F57C439F
:10441000984228D003F58063984224D003F5806346
:10442000984220D003F5784398421CD003F570538E
:10443000984218D003F58063984214D003F5806346
:10444000984210D0A3F5983398420CD003F58063BE
:10445000984208D003F58063984204D041F2882145
:104460000F4805F09DFD65B1042D0AD0082D08D038
:104470000C2D06D0182D04D041F28921084805F0F2
:104480008FFD012303FA05F2236A23EA0203236264
:10449000236A06FA05F51D43256270BD0000014040
:1044A000F490010838B504460D460368344A934237
:1044B00043D0B3F1804F40D0A2F57C4293423CD030
:1044C00002F58062934238D002F58062934234D084
:1044D00002F57842934230D02A4A934236D02A4A93
:1044E000934238D0294A934238D0294A934238D04F
:1044F000284A93423AD0284A93423AD040F2524155
:10450000264805F04DFD012229462068FFF774FF7B
:1045100023681B4A934231D002F5806293422BD02C
:1045200000221AB15A6C42F400425A64226813689D
:1045300043F001031360002038BD002DE3D0042DAB
:10454000E1D0082DDFD00C2DC6D1DCE7002DDAD06C
:10455000042DC4D1D7E7002DD5D0C3E7002DD2D08C
:10456000C3E7002DCFD0042DC2D1CCE7002DCAD097
:10457000C1E7002DC7D0C1E70122D2E70122D0E771
:10458000000001400040014000440140004801405B
:1045900000180040001C004000200040F49001087A
:1045A00038B504460D460368334A93421FD0B3F131
:1045B000804F1CD0A2F57C42934218D002F5806255
:1045C000934214D002F58062934210D002F58062CB
:1045D00093420CD002F58062934208D002F57042FB
:1045E000934204D040F24A61244805F0D9FC2B687C
:1045F00093B1102B10D0202B0ED0302B0CD0402B91
:104600000AD0502B08D0602B06D0702B04D040F27B
:104610004B611A4805F0C4FC6B68802B00D01BBBB3
:1046200094F83830012B25D0012284F83820022359
:1046300084F8393021684B6823F070034B6021689F
:104640004B68286803434B6021688B6823F0800324
:104650008B6021688B68686803438B6084F839201D
:10466000002084F8380038BD40F24C61034805F062
:1046700097FCD5E7022038BD000001402C910108CD
:1046800038B504460D460368444A934208D002F503
:104690008062934204D040F27261414805F080FC90
:1046A0002B68B3F5006F01D0002B57D16B68B3F5C1
:1046B000806F01D0002B57D1AB686BB1B3F5807F11
:1046C0000AD0B3F5007F07D0B3F5407F04D040F2A5
:1046D0007561334805F064FCEB68FF2B4AD82B6901
:1046E000B3F5805F01D0002B4AD16B693BB1B3F5C4
:1046F000005F04D04FF4CF61294805F051FCAB694D
:10470000B3F5804F01D0002B40D194F83830012B05
:1047100042D0012384F83830EB6823F44073AA6850
:10472000134323F480636A68134323F400632A6805
:10473000134323F480532A69134323F400536A6913
:10474000134323F48043AA69134323F40043134320
:1047500022685364002084F8380038BD40F2736149
:104760000F4805F01DFCA1E740F274610C4805F00C
:1047700017FCA1E740F27661094805F011FCAEE7AD
:1047800040F27761064805F00BFCAEE740F2796134
:10479000034805F005FCB8E7022038BD00000140E1
:1047A0002C9101082DE9F04704464268B64B9A4225
:1047B00000F2A680E3683BB1B3F5005F04D040F699
:1047C0008611B24805F0ECFB236953B1B3F5806F55
:1047D00007D0B3F5C06F04D040F68711AB4805F0A1
:1047E000DFFB63694FF6F372134200D123B940F641
:1047F0008811A64805F0D4FB2268136923F44053BE
:10480000E1680B4313612168CB6823F4164323F05E
:104810000C03A2682069024360690243E069024315
:104820001343CB602268536923F44073A1690B439F
:104830005361E369B3F5004F68D0D4F80080944B1E
:10484000984500F0298103F58063984500F02481A4
:10485000FEF752FA00EB800000EB80006568AD00C7
:10486000B0FBF5F58B4FA7FB05356D092E01FEF763
:1048700043FA00EB800000EB80006568AD00B0FB00
:10488000F5FAFEF739FA00EB800000EB800065686E
:10489000AD00B0FBF5F5A7FB05356D094FF06409D8
:1048A00009FB15A52D013235A7FB05356D0905F06E
:1048B000F0053544FEF720FA00EB800000EB8000A5
:1048C0006668B600B0FBF6F6FEF716FA00EB80005D
:1048D00000EB800063689B00B0FBF3F0A7FB0030A7
:1048E000400909FB10694FEA091909F13209A7FBD0
:1048F0000937C7F343172F44C8F80870BDE8F0879D
:1049000040F68511614805F04BFB53E7D4F8008071
:1049100003F1804303F5104398455CD003F58063B1
:10492000984558D0FEF7E8F900EB800000EB8000D6
:1049300065686D00B0FBF5F5564FA7FB05356D09B1
:104940002E01FEF7D9F900EB800000EB80006568CE
:104950006D00B0FBF5FAFEF7CFF900EB800000EB3D
:10496000800065686D00B0FBF5F5A7FB05356D09A6
:104970004FF0640909FB15A5ED003235A7FB05359D
:104980006D096D0005F4F8753544FEF7B5F900EBD7
:10499000800000EB800066687600B0FBF6F6FEF75C
:1049A000ABF900EB800000EB800063685B00B0FBBC
:1049B000F3F3A7FB03235B0909FB13694FEAC9095A
:1049C00009F13209A7FB0937C7F342172F44C8F88A
:1049D0000870BDE8F087FEF79FF900EB800000EB60
:1049E000800065686D00B0FBF5F52A4FA7FB053523
:1049F0006D092E01FEF790F900EB800000EB8000BE
:104A000065686D00B0FBF5FAFEF786F900EB8000F3
:104A100000EB800065686D00B0FBF5F5A7FB053580
:104A20006D094FF0640909FB15A5ED003235A7FBB0
:104A300005356D096D0005F4F8753544FEF76CF920
:104A400000EB800000EB800066687600B0FBF6F6B5
:104A5000FEF762F900EB800000EB800063685B000A
:104A6000B0FBF3F3A7FB03235B0909FB13694FEAD0
:104A7000C90909F13209A7FB0937C7F342172F44C7
:104A8000C8F80870BDE8F087A037A0006891010859
:104A9000001001401F85EB51FEF73EF900EB80004E
:104AA00000EB80006568AD00B0FBF5F5264FA7FB75
:104AB00005356D092E01FEF72FF900EB800000EBA4
:104AC00080006568AD00B0FBF5FAFEF725F900EB54
:104AD000800000EB80006568AD00B0FBF5F5A7FB3A
:104AE00005356D094FF0640909FB15A52D01323517
:104AF000A7FB05356D0905F0F0053544FEF70CF907
:104B000000EB800000EB80006668B600B0FBF6F6B4
:104B1000FEF702F900EB800000EB800063689B0069
:104B2000B0FBF3F3A7FB03235B0909FB13694FEA0F
:104B3000091909F13209A7FB0937C7F343172F44B5
:104B4000C8F80870BDE8F0871F85EB512DE9F041EA
:104B500005460F4616469846069C2B681B6837EAA2
:104B600003030CBF01230023B3421ED1B4F1FF3F66
:104B7000F3D02CB1FCF73EFAA0EB08008442ECD253
:104B80002A68D36823F4D073D3602A68536923F06A
:104B900001035361202385F8393085F83A3000232A
:104BA00085F838300320BDE8F0810020BDE8F081B1
:104BB000002800F08E8010B5044683692BB303688B
:104BC000454A934210D0A2F54C4293420CD002F5D4
:104BD0008062934208D002F54C42934204D04FF4D5
:104BE00080713E4805F0DCF9A3699BB3B3F5807F83
:104BF00030D0B3F5007F2DD0B3F5407F2AD040F2FE
:104C00000111364805F0CCF924E00368324A93429A
:104C100020D0A2F54C4293421CD002F58062934210
:104C200018D002F58062934214D002F5806293425C
:104C300010D002F5444293420CD0A2F51C4293429C
:104C400008D002F58062934204D040F20511234857
:104C500005F0A6F9A3683BB1B3F5805F04D040F23C
:104C600007111E4805F09CF9E3693BB1B3F5004F0D
:104C700004D04FF48471194805F092F994F8393052
:104C80000BB3242384F839302268D36823F400530B
:104C9000D3602046FFF786FD2268136923F4904312
:104CA00013612268536923F02A0353612268D36891
:104CB00043F40053D3600020E063202384F83930AC
:104CC00084F83A3010BD84F83830204605F086FB71
:104CD000D7E70120704700BF00100140689101082C
:104CE0002DE9F04182B01E4690F83930DBB2202B1E
:104CF00004D00223184602B0BDE8F08104460D46F8
:104D00009046002955D0002A55D090F83830012B14
:104D100001D10223EEE7012380F838300023C3637A
:104D2000212380F83930FCF765F90746A4F8248080
:104D3000A4F8268010E000963B4600228021204601
:104D4000FFF704FF002838D122682B88C3F308033B
:104D500053602369CBB90235E38C9BB2BBB1E38CC2
:104D60009BB2013B9BB2E384A368B3F5805FE2D0C2
:104D700000963B46002280212046FFF7E7FEF0B96F
:104D800023682A785A600135E6E70135E4E70096A2
:104D90003B46002240212046FFF7D8FE034608B1DB
:104DA0000323A7E7202284F83920002284F8382042
:104DB000A0E701239EE701239CE703239AE703234F
:104DC00098E7D0F8800070470B68C0F8803000206A
:104DD0007047000038B505460C464B683F2B33D86A
:104DE000A36843B1402B06D0C02B04D04FF4BD7153
:104DF000184805F0D5F8E36853B1B3F5807F07D0C4
:104E0000B3F5007F04D040F27B11124805F0C8F8DA
:104E100023693BB1B3F5806F04D04FF4BE710D48E8
:104E200005F0BEF82368AB606368A2681343E268CC
:104E3000134322691343EA6822F47F6222F00F02CF
:104E40001343EB60002038BD40F27911014805F0B2
:104E5000A7F8C5E7A49101080069C0B27047000037
:104E600030B583B00546002301930C4651B10429A7
:104E700008D0082906D00C2904D04FF4D471054875
:104E800005F08EF814352C440194019B186803B08A
:104E900030BD00BFA491010838B5524B1B68524C7D
:104EA000A4FB03435B0A02FB03F2531E002A63D0F8
:104EB000446B1A4614F0450FF7D0436B13F0040F00
:104EC00003D004238363184638BD436B13F0010FEE
:104ED00003D001238363184638BD0D460446FFF70F
:104EE000BBFFA84201D0012038BD40F2FF53A363AD
:104EF00000212046FFF7B4FF3C4B0340002B3ED07F
:104F000000283EDB10F0804F01D0402038BD10F06B
:104F1000005F01D0802038BD10F0805F34D110F0E8
:104F2000006F34D110F0806F34D110F0807F34D115
:104F300010F4000F34D110F4800F34D110F4001F9E
:104F400034D110F4801F34D110F4802F34D110F4F8
:104F5000003F34D110F4803F34D110F4004F34D1ED
:104F600010F4804F34D110F4005F34D110F0080FEA
:104F700034D04FF4000038BD4FF0004038BD002061
:104F800038BD4FF0007038BD4FF4807038BD4FF41D
:104F9000007038BD4FF4806038BD4FF4006038BDFC
:104FA0004FF4805038BD4FF4005038BD4FF480406E
:104FB00038BD4FF4004038BD4FF4003038BD4FF4D9
:104FC000802038BD4FF4002038BD4FF4801038BD2C
:104FD0004FF4001038BD4FF4800038BD4FF48030DE
:104FE00038BD00BF4C000020D34D621008E0FFFD2B
:104FF00030B587B00546002301930C24029440226B
:10500000039204934FF48063059301A9FFF7E2FE36
:10501000034A21462846FFF73FFF07B030BD00BFD7
:1050200000E1F50530B587B0054601910D240294E5
:1050300040230393002304934FF48063059301A955
:10504000FFF7C8FE41F2883221462846FFF724FFC9
:1050500007B030BD842801D003307047002070476E
:10506000EFF30580003018BF0120704708B500F04D
:105070005FFE002008BDF0B585B00F4644680568A6
:105080000669B0F90800FFF7E5FF03AB0193009054
:105090003B46B2B22946204600F018FE012802D154
:1050A000039805B0F0BD0020FBE708B5034600B942
:1050B0000123184600F08AFF002008BD10B582B019
:1050C000044600230193FFF7CBFFA0B101A92046BE
:1050D00000F043FB012802D0FF2002B010BD019B6D
:1050E000ABB14FF080520B4B1A60BFF34F8FBFF341
:1050F0006F8F0020F1E700231A461946204600F082
:10510000F9F9012801D0FF20E7E70020E5E70020BA
:10511000E3E700BF04ED00E008B500224168006845
:1051200000F0C4F908BD000030B585B00446019117
:1051300000230393154602B90125FFF791FFA8B19B
:10514000002303AA01A9204600F098FA012801D003
:10515000FF2014E0039BA3B14FF080520B4B1A6069
:10516000BFF34F8FBFF36F8F002008E000232A4664
:1051700001A9204600F0BEF9012804D0FF2005B0A7
:1051800030BD0020FBE70020F9E700BF04ED00E0A0
:1051900070B584B00446029100230193F9B10D4625
:1051A000164600230393B2F1FF3F21D002B91E46F9
:1051B000FFF756FF10B303AA01A9284600F004FC2C
:1051C000012818D000230093039B13B34FF08052A3
:1051D000164B1A60BFF34F8FBFF36F8F19E004AB0C
:1051E000802243F8102D93E8070084E8070014E0BC
:1051F0004FF0FF36DCE710230093E5E7002332464B
:1052000001A9284600F008FB012809D05EB9002357
:1052100000939DE8070084E80700204604B070BDB5
:1052200010230093F5E74023F2E700BF04ED00E010
:1052300008B501F031F8012801D001F0D3F908BD1B
:1052400000F1080343604FF0FF328260C3600361E6
:1052500000230360704700230361704743684B607D
:105260009A688A609A68516099600861036801339E
:105270000360704730B40D68B5F1FF3F02D000F114
:10528000080202E0026904E01A4653681C68A5425D
:10529000FAD253684B6099608A6051600861036874
:1052A0000133036030BC70470369426881689160D4
:1052B0008268416851605A68904205D000220261BC
:1052C000186801381860704782685A60F6E710B5B0
:1052D000044601F017F9A26BE36B9A4204D0002454
:1052E00001F032F9204610BD0124F9E710B504465B
:1052F00001F008F9A36B23B1002401F025F9204641
:1053000010BD0124F9E770B504461646856B026CA2
:105310004AB9036853BB406801F026F80023636074
:105320000135A56370BD6EB9806805F0E3FD226CA0
:10533000A3681344A3606268934219D32368A360EF
:105340000020EDE7C06805F0D5FD236C5B42E26804
:105350001A44E26021688A4202D262681344E36020
:10536000022E07D145B1013D0020D9E70020D7E743
:105370000020D5E70020D3E70020D1E7026C72B10E
:1053800010B50346C4681444C4604068844201D325
:105390001868D8600846D96805F0ACFD10BD7047A4
:1053A00038B5054601F0AEF895F8454064B201E025
:1053B000013C64B2002C0ADD6B6A43B105F12400A4
:1053C00000F0CCFE0028F3D000F05EFFF0E7FF23F2
:1053D00085F8453001F0B8F801F094F895F84440AC
:1053E00064B201E0013C64B2002C0ADD2B6943B1D8
:1053F00005F1100000F0B2FE0028F3D000F044FFE9
:10540000F0E7FF2385F8443001F09EF838BD000036
:1054100038B530B304460D4601F074F82168E26BEC
:10542000236C03FB021060600020A063A160013ABE
:1054300002FB0313E360FF2384F8443084F8453013
:10544000C5B92369F3B104F1100000F087FEC8B1BB
:105450004FF080520D4B1A60BFF34F8FBFF36F8F29
:1054600010E04FF0500383F31188BFF36F8FBFF349
:105470004F8FFEE704F11000FFF7E2FE04F1240075
:10548000FFF7DEFE01F060F8012038BD04ED00E01A
:1054900010B5029B0C4639B11A60D8631C64012117
:1054A0001846FFF7B5FF10BD1B60F6E740B94FF097
:1054B000500383F31188BFF36F8FBFF34F8FFEE765
:1054C000F0B583B0054611B101FB00F000E000200B
:1054D00017460C46483001F0A9F9064638B100904D
:1054E0003B4600F1480221462846FFF7D1FF3046EF
:1054F00003B0F0BDF0B585B0019260B1044699B13A
:105500000125BDB94FF0500383F31188BFF36F8FAE
:10551000BFF34F8FFEE74FF0500383F31188BFF3C3
:105520006F8FBFF34F8FFEE7026C0AB90125E8E7E2
:105530000025E6E7022B09D06DB94FF0500383F345
:105540001188BFF36F8FBFF34F8FFEE7E26B012A25
:10555000F2D00025F0E71E460F4600F09DFE10B980
:10556000019B03B1002545B94FF0500383F3118827
:10557000BFF36F8FBFF34F8FFEE700252CE032465D
:1055800039462046FFF7BFFE636A8BB104F1240061
:1055900000F0E4FD38B14FF08052374B1A60BFF392
:1055A0004F8FBFF36F8F00F0CFFF012005B0F0BD2C
:1055B0000028F8D04FF080522F4B1A60BFF34F8F66
:1055C000BFF36F8FEFE700F0BFFF0020EEE720464C
:1055D000FFF7E6FE00F080FC00F094FFA26BE36BA7
:1055E0009A42CCD3022ECAD0019B002BEBD01DB91E
:1055F00002A800F0F5FD012500F0A6FF00F0D2FBA7
:1056000000F080FF94F844305BB2B3F1FF3F02D169
:10561000002384F8443094F845305BB2B3F1FF3F87
:1056200002D1002384F8453000F08EFF01A902A8C2
:1056300000F0EAFDC8B92046FFF749FE0028C6D0B1
:10564000019904F1100000F06FFD2046FFF7A8FE5D
:1056500000F042FC0028BFD14FF08052064B1A6088
:10566000BFF34F8FBFF36F8FB6E72046FFF798FE6B
:1056700000F032FC002099E704ED00E02DE9F8434A
:1056800060B1044699B10120B8B94FF0500383F3DB
:105690001188BFF36F8FBFF34F8FFEE74FF05003BA
:1056A00083F31188BFF36F8FBFF34F8FFEE7006C5A
:1056B00008B90120E8E70020E6E7022B09D068B925
:1056C0004FF0500383F31188BFF36F8FBFF34F8FF9
:1056D000FEE7E56B012DF2D00020F0E71F46904673
:1056E000894601F01FF8EFF311864FF0500383F362
:1056F0001188BFF36F8FBFF34F8FA26BE36B9A429A
:1057000001D3022F21D194F845506DB23A46494653
:105710002046FFF7F8FDB5F1FF3F10D1636AB3B142
:1057200004F1240000F01AFD98B1B8F1000F12D076
:105730000120C8F8000086F31188BDE8F8836B1CCF
:105740005BB284F845300120F5E70020F3E7012043
:10575000F1E70120EFE70120EDE760B170B5044605
:10576000036C8BB14FF0500383F31188BFF36F8F3D
:10577000BFF34F8FFEE74FF0500383F31188BFF361
:105780006F8FBFF34F8FFEE7036853B1012373B9E7
:105790004FF0500383F31188BFF36F8FBFF34F8F28
:1057A000FEE743680BB90123F1E70023EFE70E465C
:1057B00000F0B8FFEFF311854FF0500383F3118829
:1057C000BFF36F8FBFF34F8FA26BE36B9A421AD276
:1057D00094F845305BB20132A263B3F1FF3F0CD1C4
:1057E000636A93B104F1240000F0B8FC78B186B18B
:1057F0000120306085F3118870BD01335BB284F8FD
:1058000045300120F6E70020F4E70120F2E701200F
:10581000F0E70120EEE700002DE9F04184B00192AD
:1058200060B1044699B10125BDB94FF0500383F32F
:105830001188BFF36F8FBFF34F8FFEE74FF0500318
:1058400083F31188BFF36F8FBFF34F8FFEE7026CB6
:105850000AB90125E8E70025E6E71F46884600F07B
:105860001BFD10B9019B03B1002545B94FF0500352
:1058700083F31188BFF36F8FBFF34F8FFEE70026CE
:105880005DE0E66841462046FFF778FDDFB9013D5F
:10589000A563236813B900F0C3FD6060236963B199
:1058A00004F1100000F05AFC38B14FF08052454B23
:1058B0001A60BFF34F8FBFF36F8F00F045FE0120DA
:1058C00004B0BDE8F081E660636A002BF5D004F116
:1058D000240000F043FC0028EFD04FF08052394BF9
:1058E0001A60BFF34F8FBFF36F8FE6E700F02CFE17
:1058F0000020E5E702A800F073FC012629E0002360
:1059000084F8443031E0002384F8453033E000F07F
:10591000F9FD606800F0D0FC00F016FE3BE0204688
:10592000FFF73EFD00F0D8FA09E02046FFF738FD0A
:1059300000F0D2FA2046FFF7D9FC002840D100F051
:10594000E1FDA56B002D9CD1019B002BCED0002E3C
:10595000D0D000F0F9FD00F025FA00F0D3FD94F866
:1059600044305BB2B3F1FF3FC9D094F845305BB22D
:10597000B3F1FF3FC7D000F0E7FD01A902A800F096
:1059800043FC0028D1D12046FFF7B0FC0028C6D048
:105990002368002BBBD0019904F1240000F0C4FB64
:1059A0002046FFF7FDFC00F097FA0028C7D14FF022
:1059B0008052044B1A60BFF34F8FBFF36F8FBEE767
:1059C00000207DE704ED00E02DE9F84360B10446D6
:1059D00099B10123BBB94FF0500383F31188BFF392
:1059E0006F8FBFF34F8FFEE74FF0500383F31188A3
:1059F000BFF36F8FBFF34F8FFEE7036C0BB901232B
:105A0000E8E70023E6E71746894600F08BFEEFF350
:105A100011864FF0500383F31188BFF36F8FBFF3EC
:105A20004F8FD4F83880B8F1000F20D094F844504C
:105A30006DB249462046FFF7A1FC08F1FF33A3638E
:105A4000B5F1FF3F0DD123699BB104F1100000F0C7
:105A500085FB80B18FB10120386086F31188BDE8E5
:105A6000F8836B1C5BB284F844300120F5E700201A
:105A7000F3E70120F1E70120EFE70120EDE7000067
:105A8000094B9B6A1B6843B9012343B9064B9A6AC9
:105A9000D268D2685268DA6270470023F5E74FF0A7
:105AA000FF32014BDA627047D000002010B5044687
:105AB000006B00F041FF204600F03EFF10BD2DE9D5
:105AC000F04780469946089D099F0A9C266B02F183
:105AD0008042013A06EB820626F0070600230F2BD0
